:100000006F10D01B00000000BA190000BA190000E0
:1000100000000000000000000000000000000000E0
:1000200000000000000000000000000000000000D0
:10003000BA19000000000000BA190000000000001A
:10004000BA190000BA190000BA190000BA19000064
:1000500058030000DA020000BA190000BA190000C3
:10006000BA190000BA190000BA190000BA19000044
:10007000BA190000BA190000BA190000BA19000034
:10008000BA190000BA190000BA190000BA19000024
:10009000BA190000BA190000FC03000000000000BB
:0C00A000730050107D157DFD8280000073
:1000AC00511126C022C206C4828282441244A2404C
:1000BC00310182802A86014593F6150091C2329552
:1000CC0085810606F5F9828000000000634E05026A
:1000DC0063C305042E86AA857D5515C285466378B3
:1000EC00B6006356C00006068606E36CB6FE0145F4
:1000FC0063E4C500918D558D85820582F5FA828069
:10010C008682C93F2E8582823305A04063D70500C5
:10011C00B305B040C1B7B305B0408682653F330527
:10012C00A0408282868263C70500634905005D3763
:10013C002E858282B305B040E35B05FE3305A040FB
:10014C00513F3305B040828200003D432A876373E0
:10015C00C3029377F700BDEFADE5937606FF3D8ABA
:10016C00BA960CC34CC30CC74CC74107E36BD7FE04
:10017C0011E28280B306C3408A069702000096966D
:10018C006780A6002307B700A306B7002306B700B5
:10019C00A305B7002305B700A304B7002304B700D9
:1001AC00A303B7002303B700A302B7002302B700D1
:1001BC00A301B7002301B700A300B7002300B700C9
:1001CC00828093F5F50F93968500D58D9396050156
:1001DC00D58D61B79396270097020000969686827C
:1001EC00E78086FA9680C1171D8F3E96E374C3F89C
:1001FC00A5B7EFF2FFEA371501409305000413058C
:10020C000540EF10703E1384C18029E11C4081EF42
:10021C00B707002083A7C70337350000130545B681
:10022C001CC0EF20806C5C2099C3014539A8B7072E
:10023C00002003A7C7031C401D8F85679387873851
:10024C00E3F5E7FE85475CA0094585B5184071DFED
:10025C00B7070020542083A7C7032320040091EE86
:10026C00D517998F05671307C7376368F70003C560
:10027C0061827D1513351500C9BF2302040075B7C3
:10028C00EFF21FE23705001061118545EF10B051F8
:10029C000545EF10104413051006EF10905465DD62
:1002AC003D45EF10103F2145EF10903F0545EF10F5
:1002BC00103D93075011231101007C8085475C8110
:1002CC000A8585473EC2EF1070352101F9BB7300DA
:1002DC002030EFF2FFDC211185450545EF10D04AA7
:1002EC008145094502C402C602C802CAEF10F030AB
:1002FC0085450945EF10703089450945EF10F02F01
:10030C0091450945EF10702FDD4705443EC4280088
:10031C00C1473EC822CA02C6EF10500D99450D4583
:10032C00EF10B02D930700043EC42800B1473EC81F
:10033C00EF10D00B93074011231101000A857C802C
:10034C00408122C2EF10902D610185B30545EF105D
:10035C00901005C505472380E18213050004EF10BA
:10036C00900F11C5B70700200547238CE702130532
:10037C007005EF103010730020300945EF10B00DF0
:10038C0071F91145EF10300D71F54145EF10B00CBE
:10039C0071F1E1B7B747000803A707FC93874182C7
:1003AC0098C3C16642074183FD166316D70023909C
:1003BC000700238107008280EFF29FCEEF10300CF4
:1003CC00B7440008138504FCEF10701113844182AC
:1003DC000C40138504FCEF101014EF10F00B3020C0
:1003EC000E203735000013050596EF20C04D75B96A
:1003FC00854537050040EF10304E09CDB70700207A
:10040C009387C7039843854537050040050798C374
:10041C00EF10104E73002030EFF29FC8311185455C
:10042C00054502C402C62318010002C002C2EF1027
:10043C009037B707002003A5C70089659385057120
:10044C0051397D15A54768842C00370500403EC600
:10045C0023150100EF10D0400546854537050040B7
:10046C00EF107046930760027C8085475C810A859B
:10047C0085473EC2EF10901A854537050040EF10B6
:10048C00104351011DB1EFF2BFC151118545130548
:10049C0040023714014002C002C202C4EF10D02E39
:1004AC0093070004930480048A85130504407C8020
:1004BC0026C4EF10B00B91477C80C1473EC48A859F
:1004CC008D47130504403EC2EF10500A130504403B
:1004DC009145EF10101285454145EF10F02ADD478C
:1004EC008A85371501407C8026C4EF103008D5333F
:1004FC00310165BEEFF2DFBA61112AC285453715AD
:10050C000140EF10700E89452A8437150140EF1019
:10051C00B00D9145AA8437150140EF10F00C2AC09C
:10052C00C14537150140EF10300C024792460DE1E2
:10053C00B337E0008A0799C093E7270019C093E707
:10054C00170099C29CA209ED130540062101B1BE0A
:10055C0015E3B3379000860719C093E71700FDF237
:10056C001305B00465D713052003EDD0014579FCC4
:10057C006545E9BF8147E5F4B3378000CDB7EFF2AD
:10058C003FB2711113051100B5372A840945EF10DC
:10059C00904913052100B93FAA840945EF10B048D2
:1005AC0013053100813F1C81908013F7F40F5D8E91
:1005BC009C815D8E2384C18063E484001377F40FE7
:1005CC009377F40F6374940093F7F40F26942A94A2
:1005DC00AA866373A700BA86158C2A876373F50005
:1005EC003E87198C1374F40FB367860081CB3735B3
:1005FC000000A285130505B9EF20E02C228511011E
:10060C006DB4EFF2FFA9A53F9387C180FC37AA8593
:10061C001384C18081EF48B4930700103735000074
:10062C007EA4130585DCEF20002A31A05C34639690
:10063C00A7002307040048348DBC7C24850793F75E
:10064C00F70F7CA4EDDB48B437350000230704001A
:10065C00130545DEC9BFEFF2BFA41301C1FD61460E
:10066C0081456800DD3485451305402002C002C277
:10067C0002C4EF1070113165EF1070043715014092
:10068C0089478A8513050580372401407C8002C484
:10069C00EF10C06D13050440EF10803CB7070E003F
:1006AC003ECC6C008547130504402300F10202C6C2
:1006BC0002C802CA02CEEF10003D85451305044066
:1006CC00EF10404113050440EF10C0419304044067
:1006DC002685EF10C0416DFD130504403724014001
:1006EC00EF106041130404402285EF1060416DFD52
:1006FC00130141025DBAEFF2BF9A373500001305C2
:10070C004594EF20801E13052003EF10D031FD56C9
:10071C0037070140232AD740B77600409C42F59B0F
:10072C009CC2B7F700E083A607D193E6460023A846
:10073C00D7D083A607D1918A6388060E93078008C9
:10074C0073B007300F100000832447408327074005
:10075C0083264740D58F2322F74037F400E0032748
:10076C0004D1832704D14D451377070293E7870201
:10077C002328F4D0832704D193F7F7FDD98F2328AE
:10078C00F4D0832704D193E787002328F4D0970073
:10079C000020E7806086832704D14D4593E78700CE
:1007AC002328F4D097000020E7800085832704D10C
:1007BC00918BC9CBB707014023A2974093078008C0
:1007CC0073A0073037F700E0832707D137140140B7
:1007DC00ED9B2328F7D0EF10C019B70701407D57C8
:1007EC003735000023AAE74013054595EF20E00FAD
:1007FC00914513050440EF10006013052003EF1022
:10080C009022130504409145EF10A05E8545130519
:10081C005023EF10607785393D3D653C1305800C06
:10082C00EF1070206FF07F8803A707D113670701C3
:10083C0023A8E7D09307800873B007300F1000008F
:10084C00814421BF832704D1BD9B2328F4D0BDB79D
:10085C00EFF21F85372401407111AA859D4605468C
:10086C00AA8413050440EF10A02B13050440854502
:10087C00EF108029B167938707353EC013040440FD
:10088C0089452285EF10E03509E58247FD173EC00A
:10089C00E5FB824781EF37350000A6851305C59728
:1008AC00EF206002014511016FF03F8037250140B8
:1008BC0013050540EF106032FDB7EFF26FFE7111BA
:1008CC002144814421457D1461371374F40FAA949B
:1008DC0075F88D8093970401C18389E70145110157
:1008EC006FF0AFFCA147014405453EC095378247E8
:1008FC002A94FD1793F7F70FE5FBC165FD150D80E5
:10090C006D8C131524002A9413154400018DE58D6C
:10091C001605EFF02FFCAA852A8437350000130545
:10092C0005B8EF10507A8567138737CE130540064C
:10093C00E36787FA9387C7A8E3F287FA9317140043
:10094C00A2978E07A29737E5FBFF8A0713050515BB
:10095C00930580253E95EFF0EFF71375F50F41B732
:10096C00B707002003A5C7039317D500A98F13D58C
:10097C001701A98F139557003D8D4205418111E157
:10098C000545828001478147FD156344B7003E85CC
:10099C008280B306E5009422B58FA146139387019C
:1009AC0013961700135383419377F60F6356030086
:1009BC009347760093F7F70FFD1693F6F60FF9FEB3
:1009CC0005071377F70FD1B718219307A00A631AFD
:1009DC00F704EFF2EFEC1431130750052A8481472A
:1009EC00639EE60234210D47639AE602AE849305BA
:1009FC000002493F783C81476312A7021A246E20FB
:100A0C00543042074D8F4C2003D64182A206CD8E26
:100A1C006316D600B387E44093B717003E856FF09A
:100A2C00CFE881473E858280EFF28FE7130141F8D2
:100A3C00EF00B02B13054006EF10E07E1537AA85AA
:100A4C002A84373500001305C5BBEF10D067694603
:100A5C00814513052102EFF04FEFB7570120938723
:100A6C00A75A3ECE23108102193EAA852301A1026A
:100A7C0037350000130545BDEF10F0643D3DAA85E8
:100A8C00A301A10237350000130545BFEF10B06379
:100A9C00C1479305000268082302F102E535A30D56
:100AAC00A10237350000130545C0EF10D061814419
:100ABC00373700007C08A6978C23130547C18504A3
:100ACC00EF107060A14737370000E395F4FE8345C3
:100ADC00B103373500001305C5C1EF10D05E3735B3
:100AEC0000009306401F130680078545130585C239
:100AFC00EF10705DB70700201387C7031843938767
:100B0C00C7033EC2BD67938707A63AC602C03EC85C
:100B1C00924732479C43998F42476376F7063735A5
:100B2C0000008545130505C5EF10F05981443715B4
:100B3C000140914513050540EF10A02BEF00D05C50
:100B4C00638204241544B714014091451385044075
:100B5C00EF10602A13054006EF10E06C91451385E9
:100B6C000440EF100029130540067D14EF10A06B14
:100B7C0079F837350000130585D9EF10105713019C
:100B8C00C1076FF08FD28247371501409145858B95
:100B9C0013050540A1E3EF100026EF00902E0D6524
:100BAC0013050594EF00702B930500026808EF0005
:100BBC00F03AEF009050EF00F02F92479C433EC468
:100BCC00924722479C43998F1307301F6377F70096
:100BDC008144E9A0EF10E021C9B7EF009042AA844C
:100BEC00630E0518930500026818EF001044834645
:100BFC00E1030346D1038345C103B73700001385D6
:100C0C0087C7EF10504C0347C1039307A00A631822
:100C1C00F70A0347D103930750056312F70A0347FA
:100C2C00E1039D47631DF708930500026818993B83
:100C3C008347110403470104AA86A207D98F0347EF
:100C4C00B1052ACC373500002286BE85130585C92F
:100C5C003ECAEF1050470347B1056243631B67045C
:100C6C00D2476318F40403477104373500001305A9
:100C7C00C5CCBA853AC4EF10104522478547E31915
:100C8C00F7F49387418282A3B8A3EFF0EFF23735E4
:100C9C000000A285130505CEEF10F04282478507B0
:100CAC003EC0024793078007E303F7E8E38204E6BC
:100CBC00BDBD37350000130585CFEF1010438147BC
:100CCC0093060002F8083306F70078183E971823AD
:100CDC0085071347F7FF18A2E396D7FE0347C10514
:100CEC009307A00A631CF7080347D1059307500527
:100CFC006316F7080347E1059D476311F708930551
:100D0C000002E80841318347110603470106AA8611
:100D1C00A207D98F0347B1072ACC373500002286AA
:100D2C00BE85130505D13ECAEF10F0390347B10754
:100D3C006243631F6702D247631CF40203477106C8
:100D4C0037350000130585D4BA853AC4EF10B03797
:100D5C0022478547E31EF7E69387418282A3B8A317
:100D6C00EFF08FE537350000A285130505D62DB7BA
:100D7C00373500001305C5D7EF1030370545EF1098
:100D8C00804A3DBD93874182239007002381070051
:100D9C000D44EFF06FE2B714014091451385044008
:100DAC00EF1060051305401FEF10E04791451385C8
:100DBC000440EF1000041305401F7D14EF10A046F3
:100DCC0079F83735000093058007130585DAEF10A5
:100DDC00902F75B3EFF2CFAC9387C18023A007009F
:100DEC0023820700B707002013878703130181FDB7
:100DFC0093878703230007003EC055CD89476310B6
:100E0C00F50C3735000013054599EF10102E93871C
:100E1C004182B82385471384C18093844182631334
:100E2C00F7069E20A5C3373500001305C59AEF10B1
:100E3C00D02B694681451305E100EFF00FB1B75790
:100E4C0006209387A75A3EC49E20930500022800D3
:100E5C007C860D3EA303A102EF00B0020D651305C5
:100E6C000594EF00807FD1479305000228003EC215
:100E7C00EF00D00E7945EF10003B9247FD17EDF7D0
:100E8C00EF0090282390040023810400EFF0CFD2D0
:100E9C009307F00F5CC42380018282472320040057
:100EAC002302040023130400232404002318040049
:100EBC0023800700953E130181026FF00F9F373599
:100ECC0000001305C59CEF10502213054006EF10CF
:100EDC00803537F700E0832707D1B7060080D58F20
:100EEC002328F7D0C9BFEFF2AF9B130181FC3EC89A
:100EFC00B70700203AC61387C70318439387C70365
:100F0C002AC22EC43284B6843AC03ECAD2470247A3
:100F1C009C43998F124763E4E700014505A8A2475B
:100F2C00B9CFEF00100E21CD930500022808EF0079
:100F3C00D00FA6852808EFF03FA909CD3735000062
:100F4C00A2851305C5DFEF101018054513018103A9
:100F5C006FF0AF953C083418982385071347F7FFBB
:100F6C00A38FE7FEE39AD7FEA6852808EFF0DFA54E
:100F7C0019C537350000A285130505E1E9B71387BC
:100F8C0001821C2393F7F70F9DC323000700EFF09A
:100F9C004FE7C247AA8588A3B247630AF5003735E5
:100FAC000000130585E2EF101012094545B7B7078D
:100FBC000020138787031823938787031377F70F72
:100FCC0009CB23800700EFF0CFA205C521350D45D5
:100FDC00B5BF03A7C18075F7371501409305000411
:100FEC0013050540EF005060B70700209387870377
:100FFC0069D90545EF10202311BFEFF26F8A3971C3
:10100C00EF003017EF10E01E716513050520EF108F
:10101C002025373500001305C59EEF10100DB707BE
:10102C00002083A5C70037350000130545A0EF103D
:10103C009009EFF06FBEEFF00FC5EFF0CFE1EFF0DE
:10104C002FA405643735000093058438130585A15A
:10105C00EF10700713058438EF10E01C37350000D3
:10106C00130505A3EF1070089307800873A00730D1
:10107C0037350000130545A3EF103007BD21EF00F5
:10108C00B008EFF02FB1138741823423938741824C
:10109C0005473EC06393E60C8E23373500001305DD
:1010AC0045A4EF1050020D65130505947D238D4466
:1010BC0037140140914513050440EF00D05313053C
:1010CC00401FEF104016914513050440EF0070527D
:1010DC001305401FFD14EF100015F9F8130504401B
:1010EC009145EF00105137350000130585A8EF101E
:1010FC00C07F9387C1801307F00FD8C723A00700C8
:10110C00238207002393070023A4070023980700DA
:10111C0023800182B70700201387870393878703F7
:10112C00230007001384C1803EC4A2479C2393F77D
:10113C00F70F9DCBA24723800700EFF08F8B69E15F
:10114C00371501409305000413050540EF00D04905
:10115C001DE52945EF10200DC9BF373500001305DB
:10116C0005A6EF108078A1B71C40E9F737150140B0
:10117C009305000413050540EF00104745DD824739
:10118C00B82385476314F728EFF0AFC77A204424BF
:10119C00A30FA1003AC21307F00FAA876384E406D9
:1011AC0092461307F03B636FD7046394970812477A
:1011BC009307F03B63FFE7000C38B5CDFD1593F5B5
:1011CC00F50F0CB8ADC937350000130505ACEF10A1
:1011DC00806F8247B8238547631EF700B73700003E
:1011EC00138587B4EF10607037350000130585B593
:1011FC00EF10A06FEFF02FD07E2085077EA035B7C3
:10120C00D13E25B73EC6EFF04FEBAA8508A837357F
:10121C000000130545AAEF10006B13054006EF10F4
:10122C00800054241307F00FB247E390E6F8E385EF
:10123C0097F8A3080400814754241307F00F834444
:10124C00F1016389E6006397960012461307F03BA1
:10125C006379C71C61468145281036C6EFE0FFEE66
:10126C00B75702209387A75A3ED0824718282303EA
:10127C0091029E23A303E102B2462312F102E54739
:10128C0063E5E70085472304F10283C7818010449E
:10129C009305000208103ACC36CAA304F1023EC8EA
:1012AC0032D632C6EFF00FEED246A30FA102324671
:1012BC00C247624763909606B73500009385859EBA
:1012CC0037350000A686130545ADEF10C05F312CF5
:1012DC008144452E8D671385079441260D43930554
:1012EC00000208101AC69D290347F1011444930704
:1012FC00F101268681452945FD3689473243631025
:10130C00F502EF0060601C44A308040085071CC4B0
:10131C0085471DB7B73500009385459E55B78D475A
:10132C006315F500EF00405E09B57D13E31903FA70
:10133C0089E80C443735000001461305C5AFEF10A2
:10134C008058EF008057BD260347F10114449307E2
:10135C00F101268685451305C012EFF0DFB88547ED
:10136C006318F504EF00405A8347F101A308040009
:10137C0085445CA41C4485071CC4854723130400C6
:10138C00E38907E437150140130505409145EF004B
:10139C0090261305200399E01305401FEF00B06859
:1013AC0037150140914513050540EF00902415B504
:1013BC008942E30855F40D43E30665F6B9476383A8
:1013CC00F4020347F10114449307F1012686814589
:1013DC0013054006EFF03FB18942E30455F20D438B
:1013EC00E30265F4850493F4F40FBD47E393F4EE44
:1013FC00EF00805137350000BD45130545B1EF10A6
:10140C00804C91471CB8854781448DBF373500000F
:10141C00130545B3EF10604D13054006EF00B060A7
:10142C004DBBE38807DA8147C5B7EFE27FC72A8453
:10143C00894537350140EF0010427DD9A2853735FB
:10144C000140EF00D040854537350140EF00B040FA
:10145C007DD937350140EF00D03F1375F50F6FE0A4
:10146C00DFC4EFE2FFC32E84AA84A14537150140E7
:10147C00EF00701813E504024D3F22857D37A1451E
:10148C0037150140EF00F0166FE03FC2EFE25FC18D
:10149C002E84AA84A14537150140EF00D01513E521
:1014AC000402613708205137083041372820B53FF6
:1014BC00A14537150140EF00D0136FE01FBFEFE2DD
:1014CC003FBEA1452A8437150140EF00D01222857A
:1014DC00A93F1305F00F913F2A84A1453715014010
:1014EC00EF00301122856FE05FBCEFE27FBB05653A
:1014FC00130181FD85451305050302C402C602C80C
:10150C0002CA02CC02CE02D023120102EF00D02775
:10151C00930700067C84E1448D472C00371501406D
:10152C0026C83EC6EF009004930700087C842C006C
:10153C0093078004371501403EC8EF003003A147E4
:10154C0041442C00371501407C8422C8EF00100266
:10155C00A14537150140EF00D009608422C837142B
:10156C0001402C0013050440EF005000130504400B
:10157C00C145EF005008B70704013ECAB707000287
:10158C003ECE4C089D47373501402312F10226D040
:10159C0002CCEF001027854537350140EF0090292C
:1015AC0037350000130545E6EF10203413056009AC
:1015BC00EF007047814501456D352945EF00B04678
:1015CC00B9450145793D81450545613D854509454F
:1015DC00493D85450D457135814511455935930575
:1015EC0030061545BD3D99451945A53D93050002AD
:1015FC004545853D930500071D45A535A145371586
:10160C000140EF00407F1305100E0535A14537153D
:10161C000140EF00007EA14537150140EF00A07D91
:10162C001305200E1935A14537150140EF00607CDC
:10163C00014571352AC2154559352AC01945413520
:10164C0002469245AA8637350000130585E8EF104F
:10165C008027130181026FE05FA5EFE27FA43421A4
:10166C0010310C212A8437350000130545ECEF109E
:10167C008025A2854145193DA2852945013D6FE094
:10168C00DFA2EFE2FFA137150140C145130505406C
:10169C00EF00607681450145EFF0BFDC0945EF00B6
:1016AC009038B9450145EFF0DFDB0945EF00B03765
:1016BC006FE0BF9FEFE2DF9E37140140130504403B
:1016CC00C145EF00407381450145EFF09FD90945B5
:1016DC00EF00703581450545EFF0BFD89305300616
:1016EC001545EFF01FD899451945EFF09FD7930595
:1016FC0000024545EFF0FFD6930500071D45EFF0BE
:10170C005FD6A14537150140EF00E06E1305100EB2
:10171C00EFF0BFD1A14537150140EF00806DA14519
:10172C0037150140EF00206D1305200EEFF0FFCFB1
:10173C00A14537150140EF00C06BBD450145EFF0E9
:10174C005FD20945EF00302EC14513050440EF0070
:10175C00406A0545EF00302D6FE03F95EFE25F9456
:10176C002A8437150140711113050540AE84C1451B
:10177C005925930500071D45EFF0BFCEA145371540
:10178C000140952D1305100EEFF03FCAA1453715FA
:10179C0001408525A14537150140B12D1305000ADF
:1017AC00EFF0BFC8814713F7F70F0145637597003A
:1017BC003307F40008233EC0EFF03FC782471307FE
:1017CC0000028507E391E7FEA14537150140152579
:1017DC0037140140C14513050440212D0545EF0088
:1017EC009024C1451305044039250945EF00B02369
:1017FC00930500031D45EFF0DFC6054511016FE0B1
:10180C00DF8AEFE2FF891D45EFF07FCB13770504EC
:10181C0019CBAA85373500001305C5E4EF10A00AD3
:10182C0005456FE09F880145EDBFEFE27F877111A1
:10183C002A84AE8437150140A145752B130510067B
:10184C00EFF0BFBE81471305F00F3EC0EFF0FFBDB8
:10185C00824713F7F70F637597003307F40008A35B
:10186C00850713070002E390E7FEA14537150140F9
:10187C004923930500041D45EFF0BFBE373500002A
:10188C00130585EBEF102004814437370000B307B4
:10189C0094008C23130547C18504EF10C002A147A7
:1018AC0037370000E395F4FE37350000130545B4D7
:1018BC00EF10A00311016FE04FFFEFE26FFE371541
:1018CC000140C145130505403D23930500071D4507
:1018DC00EFF03FB9A14537150140312B1305200E10
:1018EC00EFF0BFB4A145371501402123A1453715B1
:1018FC00014011231305100EEFF03FB3A14537152E
:10190C000140C5296FE06FFAEFE28FF9373500001F
:10191C00130585EAEF00707D37150140C1451305AD
:10192C000540D129A1450145EFF0BFB36FE0EFF7BA
:10193C00B71702409843B706FFF81367170098C310
:10194C00D843758FD8C39843B706F7FEFD16758F2D
:10195C0098C39843B706FCFFFD16758F98C3D84300
:10196C00B70640FFFD16758FD8C337079F0098C781
:10197C008280B7160240D842B70700201146318B3F
:10198C009387C7006305C70021466308C700373734
:10199C006E011307076098C38280D8429316F70034
:1019AC00E3D706FE3777DC02130707C0EDB701A0BB
:1019BC0097F1FF1F9381C1E7138181FC1305000A86
:1019CC0097E5FF1F9385456317E6FF1F1306866394
:1019DC0063FAC5008322050023A05500110591056B
:1019EC00E3EAC5FE171500001305C54F97E5FF1F69
:1019FC009385456117E6FF1F1306866363FAC500DE
:101A0C008322050023A0550011059105E3EAC5FECC
:101A1C0017E5FF1F1305C561938501836377B50037
:101A2C00232005001105E36DB5FEB722000093825B
:101A3C000288739002308D427390428097E2FFFFD0
:101A4C009382825B93E2320073905230EFF05FEE40
:101A5C0097F2FFFF9382A25A7390123473002030D6
:101A6C00B727014093870740631EF500EFE24FE371
:101A7C00854513050020B9238145130500209923C2
:101A8C006FE0AFE282805C413707F1FF1307F7EF9D
:101A9C007D8FDC419441A207D58FD98F5CC11C4549
:101AAC0037F7F1FF1307D77FD4457D8F9C49D58F2E
:101ABC0094458606D58FD98F1CC55C55370710FF0A
:101ACC007D177D8FDC29FD1793F7F70FD207D98F80
:101ADC005CD582801C4589C593E717001CC58280A4
:101AEC00F99BEDBF1C4593E787001CC58280084518
:101AFC000D81058982801C4593E747001CC58280B7
:101B0C0008450981058982801C4591C5370750001D
:101B1C00D98F1CC582803707B0FF7D17F98FD5BFD1
:101B2C00A54763F8B704138765FF93171700832243
:101B3C00C500BA971D433313F3001343F3FF3373FC
:101B4C005300B397F600B3E767005CC5994763E3AE
:101B5C00C7047D16931726003E965859FD47B39738
:101B6C00C70093C7F7FFF98FB395C500DD8D4CD92E
:101B7C0082809397150003230501AE971D473317F9
:101B8C00F7001347F7FF33776700B397F6005D8FC5
:101B9C0018C96DBFB14763E2C702651693172600DB
:101BAC003E961859FD47B397C70093C7F7FFF98FB7
:101BBC00B395C500DD8D0CD982804D161317260008
:101BCC0054553A96FD47B397C70093C7F7FFF58F67
:101BDC00B395C500DD8D4CD58280684542054181A9
:101BEC00828008416D8D3335A000828058410323DB
:101BFC0005004C4537060140930706403E97934637
:101C0C00F3FFB1C583250640F58D2320B640D043A4
:101C1C00F18ED4C31443B3E6660014C31841904745
:101C2C009346F7FF758E90C7D047F18ED4C71445F5
:101C3C0041466399C6009447D98E94C7D447558FB3
:101C4C00D8C78280B6979443558F98C382801C4323
:101C5C00F58F1CC38280B70701401387074083A709
:101C6C000740584B698F09C77D8D3335A0008280A2
:101C7C0001458280B707014023AAA7408280B7079D
:101C8C00674537270240938737125CC3B797EFCD70
:101C9C009387B79A5CC38280372702401C4B93E72B
:101CAC0007081CCB8280372702405C470545858B93
:101CBC0091E748474189133515000D058280EFE205
:101CCC002FBE2A84CD3785476318F50019E01545DA
:101CDC0029A0D13F7D14C5BF7DD86FE00FBDEFE2C9
:101CEC002FBCAA8437050B00D93F91476313F5022B
:101CFC00372402401C4837050B0093E727001CC80B
:101D0C0044C81C4893E707041CC8553F1C48F59B66
:101D1C001CC86FE08FB9EFE2AFB86111AA840965F6
:101D2C002EC002C2693F11478245631EE50237246B
:101D3C0002401C48096593E717001CC893970501DE
:101D4C00C1839EA02EC0A53F11478245631AE500B2
:101D5C00890426C29247C18109658EA3EFF03FF634
:101D6C001C48F99B1CC821016FE02FB4944593F7D4
:101D7C00060193F2F60081C7DC41B3E2F20083D393
:101D8C00050093F7F30FA5C303230500611122C2CD
:101D9C0026C0814713048002930480040547331640
:101DAC00F70033F7C3006312E602939527003D4713
:101DBC003317B7001347F7FF33736700B395B200BF
:101DCC0033E36500639D860050C985072147E3977F
:101DDC00E7FC124423206500824421018280E396B3
:101DEC0096FE10C9DDB7828008456D8D3335A00095
:101DFC0082800CC982804CC982803707014014470D
:101E0C0086058D47B397B70093C7F7FFF58F1CC7AF
:101E1C001C47B315B500DD8D0CC7828083A681826B
:101E2C00854718216390F6021C31639CD7023C2134
:101E3C009A0793E707F8B7E600E093F7F70FBA961F
:101E4C002380F6408546935757003397E60054415C
:101E5C0089CE938707048A07B7E600E0B69798C344
:101E6C008280EDF33C219A07F9B793870706B7E612
:101E7C0000E08A07B69798C30F100000828037776E
:101E8C0000401C4709C593E727001CC78280F59BBF
:101E9C00EDBF377700401C4BC19B5D8D08CB82801A
:101EAC00711102C0377700405C4793F707FC3EC0C6
:101EBC0082475D8D2AC082475CC711018280B716AC
:101ECC000240DC4241771307F77FF98F5D8DC8C262
:101EDC008280371702405C5309C593E717005CD327
:101EEC008280F99BEDBFEFE2AF9B371702405C435A
:101EFC0091462A84B18B6385D700A1466380D708AD
:101F0C00B7376E01938707601CC0B7160240DC42DE
:101F1C00918313F7F700B707002093874702BA970E
:101F2C008C23DC42184093F5F50F93F707083355D3
:101F3C00B70081E73A85EFE0EF9948C008C448C480
:101F4C00B7170240DC438D46AD83FD8B13D73700AA
:101F5C008A07F18BD98F13F6370113F7370063F427
:101F6C00C600138747FFB707002093870701BA976E
:101F7C008C23EFE02F9608C86FE02F935C43B77764
:101F8C00DC02938707C049B799C5371702401C4F2D
:101F9C005D8D08CF8280B7170240984F1345F5FF2F
:101FAC00798D88CF828099C5371702405C4F5D8D43
:101FBC0048CF8280B7170240D84F1345F5FF798D73
:101FCC00C8CF828099C5371702405C475D8D48C7E2
:101FDC008280B7170240D8471345F5FF798DC8C7E3
:101FEC0082801357550085476319F700B7170240D5
:101FFC009C4333D5A70005898280B7170240DC5378
:10200C00CDBF1A218D6793870704B6217D8F9E2142
:10201C00D58FD621D58FF621D58F9625D58FB62580
:10202C00D58FD625D58FF625D58FD98F1EA19E2974
:10203C001EA982801E2189C593E707041EA18280F8
:10204C00C207C18393F7F7FBC207C183C5BF4EA577
:10205C0082804A2582800A256D8D3335A0008280CE
:10206C001E2137370140130707C0C207C18363061F
:10207C00E500370700406316E500BA2193F7F7F83F
:10208C00D98FFA2193F7F7CFC207C183D98F1EA13D
:10209C00DE215EB59E211EB5B7370140938707C080
:1020AC006314F5009C251EB985475EA982801E210C
:1020BC0089C593E717001EA18280C207C183F99BD3
:1020CC00C207C183CDBF5E2501C6DD8D4EA58280C2
:1020DC0093C5F5FFFD8DDDBF1E294A25ED8F420509
:1020EC00418189C76D8D3335A00082800145828086
:1020FC0093C5F5FFC205C1810EA98280EFD25FFAAC
:10210C001629F577FD17F58FF621DA252111D58FD4
:10211C001EA95625FD779387379FF58FD6212A84E4
:10212C002EC0D58F9625D58FB625D58F5EA55E2969
:10213C00C207C18393F7F7CF5D8F5AA94800EFF020
:10214C009FDAB74701409387078082456312F406F4
:10215C00C2475A24139517003E9542070E05418736
:10216C003E958C41635807048605EFD0BFF6930566
:10217C0040062AC0EFD01FF6824793144500930502
:10218C0040063E85EFD0DFF75E24C207C18763D5DA
:10219C0007020E059305400613052503EFD09FF3A8
:1021AC001D89C98CC204C18006A461016FD0FFEFE8
:1021BC00B24745B78A0555BF12059305400613056E
:1021CC002503EFD03FF13D89E9BF91C55E25096735
:1021DC00D98F5EA582805A25F977FD17F98FD5BF67
:1021EC0093F5F51F4EA182800A216D8D3335A00029
:1021FC008280EFD2FFEAB707002003A5C700B7150E
:10220C007A0093850520EFD0FFEC1375F50F23872B
:10221C00A18293175500898F8A073E950E05239648
:10222C00A1826FD09FE8EFD2BFE737F400E05C40AB
:10223C00AA85F99B5CC003D5C182EFD0BFE708C863
:10224C00232404001C4093E717001CC0B7F700E0E0
:10225C00D843058B75DF9843799B98C36FD0FFE407
:10226C00EFD21FE42A84116511118545130505026F
:10227C00EFF09FD1930700027C80371501408D470A
:10228C003EC28A85E147130505403EC4EFF01FAE00
:10229C0022C637440140B70708006C0013050480C0
:1022AC003ECA02C8231C0100EFF05FE5854513050B
:1022BC000480EFF09FF171016FD03FDFEFD25FDE52
:1022CC007111AE840144635FC402B74701401387A8
:1022DC0007803A859305000432C0EFF0FFF0B74752
:1022EC0001401387078002466DD533878400830530
:1022FC000700138507800504C205C181EFF05FEE6E
:10230C000246D1B7328511016FD03FDA411106C6B2
:10231C002EC00DCD1841AA8705C358417D5511CB50
:10232C008546631BD70098472300070023A20700AC
:10233C000545B240410182809847824614A39847D4
:10234C00050798C7D8437D17D8C3DDB705468A85DE
:10235C00EFF0DFF6F1BF011122CC2EC206CE26CA59
:10236C002A84814793050002634506029245BE9577
:10237C00838505008DE563D8C70263D4E702198E07
:10238C001305000293F526002AC089C501E79305C1
:10239C0000032EC0858A81449DEAB28415A085076E
:1023AC00F1B71D8EF1BF0146E1BF824522853AC8C7
:1023BC0032C63EC4EFF09FF5A24732464247FD14A9
:1023CC00E34590FEB284635306008144058E63C7D7
:1023DC00E702A68792463387974036978305070016
:1023EC009DEDB28463469004635306000146F240AF
:1023FC006244D2443305F600056182801D8FBA8792
:10240C0093050003228532C83EC63AC4EFF01FF094
:10241C00B24722474246FD17E5F7BA945DBF2285C5
:10242C0032C63EC4EFF09FEEA247324685075DB739
:10243C008245228532C43EC2EFF05FEDFD14224688
:10244C0092474DB7397106DE22DC26DA3EC2328362
:10245C003A8691ED92469307000301476C08FC867F
:10246C00EFF07FEFF2506254D25421618280AA8443
:10247C003684AE8791CA294701446317E30063D5BC
:10248C000500B307B04005448646A30901021307B3
:10249C003103938666FC36C49A853E8532CA3AC8A7
:1024AC001AC63EC0EFD0DFC5A5468247324342472D
:1024BC00524663D4A600A24636951305050393062F
:1024CC00F7FFA30FA7FE9A853E8532CC3ACA1AC8ED
:1024DC003EC636C0EFD01FC0B24742435247624699
:1024EC0063FD670409CC29CE9247898BB1CB930548
:1024FC00D002268532C4EFF07FE122467D1692474A
:10250C00918B85C706479307100632C493050003C9
:10251C0026856311F704EFF07FDF9305800726858E
:10252C00EFF0DFDE22460904791616479246824503
:10253C002685EFF05FE2229535B7AA870247A9BF3F
:10254C0082469307D0020144A38FF6FE9307E7FF60
:10255C003EC075B7EFF09FDB93058005C9B7014509
:10256C00828001458280130181FD22D026CE06D2C5
:10257C002AC4AE82328402C681448385020091ED66
:10258C00A24789C781453E85EFF05FD8925002542F
:10259C002685F244130181028280930750026389DD
:1025AC00F500224516C88504EFF05FD6C24205A09F
:1025BC008387120013871200639DB7002245930591
:1025CC0050023AC8EFF09FD442478504BA82850284
:1025DC006DB7DDD79306B0026389D70463C8F600E4
:1025EC00930630026386D704814705A09306D00278
:1025FC00638AD70093060003E398D7FE1387220063
:10260C00894721A0138722008547830607001306FC
:10261C00B0026383C6046341D60213063002638B97
:10262C00C602BA820145A54681A0138722006DBF60
:10263C00138722009147D1BF1306D0026389C600CD
:10264C0013060003E39FC6FC93E7270031A00507A0
:10265C008547C1BF93E747000507E1B7131625006F
:10266C00329506053A95850203860200130706FD8E
:10267C009375F70FE3F4B6FE1307E0029946631E59
:10268C00E60085028146A54503860200130606FD79
:10269C001377F60F63F5E50236C6038702001306BF
:1026AC00A006630DC70A6343E6021306C004630762
:1026BC00C70A13068006630CC70881452DA813971B
:1026CC002600BA968606B29685027DBF1306400791
:1026DC006306C7081306A0076302C7081306C006E3
:1026EC008145631AC700038612008D456314E6000A
:1026FC0085029145850203860200930300061307A9
:10270C00100663C4C300130710049303700663C45C
:10271C00C30693035006635676189303700463C183
:10272C00C30493055004635EB61613073004E3101C
:10273C00E6EA18409303440016CA230CE1001EC8B5
:10274C00A30C01000147BE862A862C0849A80386E3
:10275C0012008145E311E6FA890271BF8502B1BF0F
:10276C0093063006E307D6FC63CFC60693068005B6
:10277C006303D602A9BD930630076304D60463CB6A
:10278C00C6029306F0066305D60E9306000793E780
:10279C004700E31ED6E291466392D50C9303840066
:1027AC000C40504016CA3AC23EC01EC8AA87014708
:1027BC00C14681A893065007630BD6069306800783
:1027CC0045BF1840B736000093034400938546EE8E
:1027DC0011C3BA85324716CA1EC8BE862A86224540
:1027EC00EFF07FB715A091466395D5029303840053
:1027FC000C40504016CA3AC23EC01EC8AA870547B4
:10280C00A9462245EFF0BFD5C243AA941E84D242FA
:10281C007DBBB2460C4016C836C23AC011042A879A
:10282C00854629462245EFF0FFC1AA9441B3914653
:10283C00639DD500930384000C40504016CA3AC2E5
:10284C003EC01EC8AA87014765BFB2460C4016C8D9
:10285C0036C23AC011042A878146E1B7B24616C87F
:10286C000C40414636C23AC011042A8781465DBFEE
:10287C009146639ED500930384000C40504016CAC9
:10288C003AC23EC01EC8AA870147A1469DBFB246A8
:10289C000C4016C836C23AC011042A87814621461C
:1028AC0051B70C401306840040403AC22A87224597
:1028BC0032C83EC02286B687A94616CAEFF07FCA38
:1028CC00AA944244A9B71301C1FD2EC832CAAA85E5
:1028DC001008014506C636CC3ACE3ED032C0EFF0D9
:1028EC009FC8B240130141028280411122C426C20A
:1028FC0006C61C21AA840144DC818307310005042F
:10290C0099EFA9479305310005460145DC81EFF0AD
:10291C00FF9A2285B24022449244410182800546AE
:10292C00930531000145EFF07F99B38784009C2318
:10293C00DC81E1B7E7E7E7005B5057525D20536C51
:10294C006565700D000000005B5057525D205761AB
:10295C006B650D005B464C5D2053617665642049C8
:10296C00443A30782530345820533A25640D0A0007
:10297C005B4144435D2054494D454F555420636899
:10298C002564210D0A0000005B5359535D2046411C
:10299C0043544F52592052455345540D00000000EA
:1029AC0053656E64696E6720554E504149522062E2
:1029BC0065666F72652072657365740D00000000AA
:1029CC005B5359535D20436C69636B202D3E205241
:1029DC00657365740D0000004348470048420000D1
:1029EC000D0A3D3D3D2054414E4B20424F4F54204B
:1029FC003D3D3D0D0000000043483332563030332E
:102A0C00204020256C75487A0D0A00005B53595301
:102A1C005D205361666544656C61792025646D7336
:102A2C002E2E20004F4B0D00496E697420526164AC
:102A3C00696F2E2E2E0D00005B5359535D20506193
:102A4C00697265642049443A3078253034580D0A4F
:102A5C00000000005B5359535D204E4F54205041F1
:102A6C00495245442E20486F6C6420627574746F13
:102A7C006E20746F20706169720D00005B535953A6
:102A8C005D2049646C652028486F6C642062746E0C
:102A9C003D70616972290D005B4241545D204261B9
:102AAC007474657279206C6576656C3A20256425A2
:102ABC00250D0A005B54585D20436F6F6C646F7773
:102ACC006E2025640D0A00005B54585D2025732090
:102ADC005365713A256C75204C3A256425252042A6
:102AEC003A2564252520463A25640D0A000000008D
:102AFC005B54585D205365713A256C75207472795E
:102B0C003A25640D0A0000005B54585D204E4F209E
:102B1C0041434B2061667465722025642074726990
:102B2C0065730D0A000000005B5359535D204E6F16
:102B3C0074207061697265640D0000005B53595319
:102B4C005D20536C6565700D000000002D2D2D2D42
:102B5C002D2D2D2D2D2D0D005B53595354454D5DB1
:102B6C0020427574746F6E20507265737365640DBA
:102B7C00000000005B4241545D20256C756D560DC4
:102B8C000A0000005B444154415D204C6576656C45
:102B9C003A2025642525207C204661756C74204DD7
:102BAC0061736B3A203078253032580D0A000000E2
:102BBC000D0A5B504149525D204E657749443A30CD
:102BCC0078253034580D0A005B504149525D204C39
:102BDC00766C3A25642052656164696E6720626187
:102BEC00742E2E2E0D0A00005B504149525D20427E
:102BFC0061743A25640D0A005B504149525D2050C6
:102C0C006B743A2000000000253032582000000080
:102C1C004352433A253032580D0A00005B5041496B
:102C2C00525D2042636173742025646D696E20626D
:102C3C0075727374733A25642061636B3A25646D05
:102C4C00730D0A005B504149525D2054696D656FEC
:102C5C007574207265616368656420616674657261
:102C6C00202564206D696E730D0A00005B5041498C
:102C7C00525D2052583A20533D253032582530327F
:102C8C005820543D253032580D0A00005B50414904
:102C9C00525D204E53796E63205249443A30782568
:102CAC00303458204D593A3078253034582043432D
:102CBC003A253032582050433A253032580D0A000C
:102CCC005B504149525D2041434B2073743A25645B
:102CDC000D0A00005B504149525D204F4B212049A9
:102CEC00443A3078253034580D0A00005B50414985
:102CFC00525D204352432F4944206D69736D6174BA
:102D0C0063680D005B504149525D20496E765379E2
:102D1C006E63205249443A307825303458204D594E
:102D2C003A3078253034582043433A2530325820F5
:102D3C0050433A253032580D0A0000005B5041498F
:102D4C00525D2041434B28496E76292073743A25F5
:102D5C00640D0A005B504149525D204F4B28496E6F
:102D6C007629212049443A3078253034580D0A0010
:102D7C005B504149525D20496E76204352432F49A6
:102D8C0044206D69736D617463680D005B5041493B
:102D9C00525D20444F4E450D000000005B504149F0
:102DAC00525D204641494C20616674657220256451
:102DBC002074726965730D0A000000005B5359534F
:102DCC0054454D5D20496E6974204C6576656C3AAE
:102DDC0020256425250D0A005B5359535D204C7644
:102DEC006C4368673A20256425250D0A0000000015
:102DFC005B41434B5D204F4B207472793A25640D37
:102E0C000A0000005B41434B5D204F4B28696E76F6
:102E1C0029207472793A25640D0A00005B54585DC0
:102E2C00204C766C207570646174652064757269D1
:102E3C006E672054583A20256425250D0A000000A1
:102E4C005B4E52465D2052585F44522120533A301B
:102E5C0078253032580D0A005B4E52465D20496E83
:102E6C0069743A203235306B203064426D20324226
:102E7C00435243204E4F2D41434B0D005B4E524667
:102E8C005D204346473D253032582043483D25645C
:102E9C002052463D253032580D0A00005B4E5246FA
:102EAC005D20507772446E0D000000005B4E524660
:102EBC005D2052583A2000005B4E52465D2054581B
:102ECC00616464723A2025303258253032582530EE
:102EDC0032580D0A00000000286E756C6C29000039
:102EEC00006CDC020204060804080C100810182000
:102EFC0010203040204060800102030405060708C2
:0C2F0C0001020304050607080000000095
:00000001FF
