:100000006F10105A000000009E1D00009E1D000091
:1000100000000000000000000000000000000000E0
:1000200000000000000000000000000000000000D0
:100030009E1D0000000000009E1D0000000000004A
:100040009E1D00009E1D00009E1D00009E1D0000C4
:10005000F4070000600700009E1D00009E1D0000C8
:100060009E1D00009E1D00009E1D00009E1D0000A4
:100070009E1D00009E1D00009E1D00009E1D000094
:100080009E1D00009E1D00009E1D00009E1D000084
:100090009E1D00009E1D000048080000000000009A
:0C00A000730050107D157DFD8280000073
:1000AC00511126C022C206C4828282441244A2404C
:1000BC00310182802A86014593F6150091C2329552
:1000CC0085810606F5F9828000000000634E05026A
:1000DC0063C305042E86AA857D5515C285466378B3
:1000EC00B6006356C00006068606E36CB6FE0145F4
:1000FC0063E4C500918D558D85820582F5FA828069
:10010C008682C93F2E8582823305A04063D70500C5
:10011C00B305B040C1B7B305B0408682653F330527
:10012C00A0408282868263C70500634905005D3763
:10013C002E858282B305B040E35B05FE3305A040FB
:10014C00513F3305B040828200003D432A876373E0
:10015C00C3029377F700BDEFADE5937606FF3D8ABA
:10016C00BA960CC34CC30CC74CC74107E36BD7FE04
:10017C0011E28280B306C3408A069702000096966D
:10018C006780A6002307B700A306B7002306B700B5
:10019C00A305B7002305B700A304B7002304B700D9
:1001AC00A303B7002303B700A302B7002302B700D1
:1001BC00A301B7002301B700A300B7002300B700C9
:1001CC00828093F5F50F93968500D58D9396050156
:1001DC00D58D61B79396270097020000969686827C
:1001EC00E78086FA9680C1171D8F3E96E374C3F89C
:1001FC00A5B7EFF2FFEAA14537150140EF10B07E2D
:10020C006DB5EFF2FFE92A84894537350140EF20BF
:10021C0060277DD9A28537350140EF202026854502
:10022C0037350140EF2000267DD937350140EF20CE
:10023C0020251375F50F95BDEFF29FE69305000889
:10024C0037350140EF2000248547E309F5FEA14531
:10025C0037150140EF10F07889BDEFF27FE4711192
:10026C002AC0413F02451375F507613F0145513FD7
:10027C002AC0D937024511010DBDEFF27FE26111A1
:10028C002EC02AC2BD371245136505089D3F824515
:10029C002E85853F5537210109BDEFF27FE03714DC
:1002AC000140C14513050440EF10F0732945EF20C0
:1002BC00603AC14513050440EF10B0725145EF2070
:1002CC006039E5B3EFF2DFDD93058008054575373E
:1002DC00E9BBEFF2FFDC930590080545793FF1B3DC
:1002EC00EFF21FDC930590080545413F0945EF20CF
:1002FC00603681453D45513781453545BD3F9305B8
:10030C00F00F49459D3F9305D0080545BD3771BB9E
:10031C00EFF21FD93735000001111305C5D9EF20B5
:10032C00B01F37350000130585DCEF20F01E056586
:10033C0085451305150302C002C202C402C602C8D9
:10034C0002CA02CC231E0100EF20E0069307000630
:10035C007C80E1448D478A85371501403EC226C416
:10036C00EF10D05F930700087C808A859307800488
:10037C00371501403EC4EF10705EA14741448A8599
:10038C00371501407C8022C4EF10505DA145371514
:10039C000140EF101065608022C437140140130532
:1003AC0004408A85EF10905B13050440C145EF10A3
:1003BC005063B70704013EC6B70700023ECA6C0083
:1003CC009D4737350140FC8602C826CCEF204006FD
:1003DC00854537350140EF20C0083735000013053F
:1003EC0045DFEF207013553D13052004BD35AA855C
:1003FC002A8437350000130585E1EF20B00FC9477B
:10040C00630BF40037350000130505E5EF20D01021
:10041C000545056159B98145054585353D45EF20B3
:10042C006023930580080545893D3D45EF208022DA
:10043C009305C00619459135930500041D45353DBE
:10044C00814521451D3D81453945053D81453D454C
:10045C002D359305300231450D359145130560025C
:10046C00293D930560077545093D9305400779457E
:10047C0029358D45130510030935A945130570035E
:10048C00ED3BC94513059003CD3BA1452945F533FB
:10049C009305F0082545D533930540081305D00482
:1004AC00E93B9305B0022D45C93B930590080545E2
:1004BC00E9333D45EF20001A05454533AA8537350C
:1004CC000000130585E9EF20F00237350000130515
:1004DC00C5ECEF20700437350000130505F2EF2052
:1004EC00B00301453DB7EFF2BFBB9307001071118C
:1004FC002A849304001063E3B700AE84930590083C
:10050C000545A53B7945EF20E01481453545B533CC
:10051C00CD3113050008F531B3079400639C8704B3
:10052C00213B93F5F40F13052002813B9305F00F4B
:10053C004945A1339305B0080545813313040032B6
:10054C004945213B9377850085CF2AC0A145494574
:10055C002D339305900805450D3302469305003263
:10056C0037350000818D130585F8EF20A078014503
:10057C00110125BE08203EC005046131824779BFB8
:10058C007D14420405454180EF20C00C55F805450B
:10059C00E9312AC04945D13182452A8637350000D8
:1005AC00130505FCEF200075054593059008F13106
:1005BC0005457DBFEFF2DFAE4945453113770504A4
:1005CC00AA87014505C393F70702054581CF373547
:1005DC000000130505D7EF2020744945930500064C
:1005EC0069390145D9B4EFF2BFAB61112AC2494553
:1005FC00AE84A5319377050289CB93050006494556
:10060C00AD390144228521014DB413750504014413
:10061C0075D94D4599312A8411E59305F00F49455B
:10062C00A939CDB7414515392AC0AA853545B1310F
:10063C00A2871374F40F63F38400A68713F4F70FE7
:10064C004D3E01457D3E814463E08402F5369305C1
:10065C00F00F49451D31024637350000A2851305C0
:10066C00C5F4EF20206979BF0145613E9247A697FA
:10067C0088A38504D1BFEFF2BFA2371501409305C3
:10068C00000413050540EF103035133515006FF0DD
:10069C00DFA1EFF2FFA0C5371384C18015CDB707DA
:1006AC00002083A4C7031C4081EB373500001305E1
:1006BC00C55E04C0EF2040665C2099C3014519A8B3
:1006CC001C409D8C856793877738E3F997FE8547A7
:1006DC005CA00D456FF07F9D08406DD1B7070020E1
:1006EC00582083A7C7032320040001C7230204005A
:1006FC00F1B77D77898F130787443E979306F07C7B
:10070C000945E3F9E6FC05659387E7FC130565B835
:10071C0033B5A700C1B7EFF2BF98370500106111D0
:10072C008545EF10304B0545EF10903D1305100635
:10073C00EF10104E65DD93075011231101007C80E2
:10074C0085475C810A8585473EC2EF101030210138
:10075C006FF0BF9513050020EF101010B7E700E005
:10076C003707200023A0E72873002030EFF25F93B7
:10077C00211185450545EF101044854537050010BE
:10078C00EF10504599450D4502C402C602C802CA75
:10079C0002C002C2EF1070259307000405443EC44A
:1007AC002800B1473EC822CA02C6EF107002930758
:1007BC0000203EC42800A1473EC822CA02C6EF1042
:1007CC003001930740110A857C80408122C2EF10D2
:1007DC00D027930750110A857C80408122C2EF10EC
:1007EC00D02661016FF07F8C13050004EF10F0042C
:1007FC0011C9B7070020054713050004238CE70235
:10080C00EF10900573002030EFF29F8915651305EA
:10081C005555EF10B01F1945EF10D01F05657D150C
:10082C00EF10D01FEF101020EF10B0203735000064
:10083C0013050523EF20404E6FF03F8785453705A4
:10084C000040EF10504C09CDB70700209387C70329
:10085C009843854537050040050798C3EF10304C89
:10086C0073002030EFF2DF8331118545054502C45A
:10087C0002C62318010002C002C2EF10B035B70740
:10088C00002003A5C700896593850571EFF09F844F
:10089C007D15A54768842C00370500403EC62315FE
:1008AC000100EF10D03E0546854537050040EF109E
:1008BC007044930760027C8085475C810A8585477C
:1008CC003EC2EF109018854537050040EF101041DF
:1008DC0051016FF08FFDEFF2AFFC511185451305FF
:1008EC0040023714014002C002C202C4EF10B02C07
:1008FC0093070004930480048A85130504407C80CC
:10090C0026C4EF10B005914741477C808A858D47FE
:10091C00130504403AC43EC2EF10500413050440C2
:10092C009145EF10500CA14641478D478A85130520
:10093C00044074803AC43EC2EF10500213050440C8
:10094C00A145EF10100A85454145EF10D026DD4733
:10095C008A85371501407C8026C4EF10300039356C
:10096C0031016FF08FF4EFF2AFF341112AC6371556
:10097C000140A14513050540EF10F0062945EF1085
:10098C00704D95473EC402C202C081440144854566
:10099C0037150140EF10500401E505041374F40FF2
:1009AC00894537150140EF10300301E5850493F4B8
:1009BC00F40F914537150140EF10100211E58247F5
:1009CC00850793F7F70F3EC0C14537150140EF106F
:1009DC00B00011E59247850793F7F70F3EC2094522
:1009EC00EF105047A247FD173EC4D5F33715014011
:1009FC00A14513050540EF10C07E0545EF1090454D
:100A0C009247024737350000A68622869545130586
:100A1C004569EF20202E92470947637EF7028246F4
:100A2C0081476363D700914709476364970093E755
:100A3C00270009476364870093E71700324719C7FB
:100A4C0032471CA31247894763F5E702130540069A
:100A5C0041016FF08FE58247637CF7028147636346
:100A6C009700894709476364870093E7170032476B
:100A7C0061FB024789471305B004E3EBE7FC130560
:100A8C002003E3E797FC0145E3F487FC6545C9B710
:100A9C008147E37E97FC93373400D1BFEFF24FE0F0
:100AAC00711113053100A3010100753D98812A8451
:100ABC00AA85373500001305056E2384E180EF20ED
:100ACC006023228511016FF04FDEEFF26FDD2111F3
:100ADC00614681450A85EFF04FE7854513050020F7
:100AEC00EF10700D316537240140EF103000130505
:100AFC000440EF102035B7070E003EC68A858547A7
:100B0C0013050440230AF10002C002C202C402C849
:100B1C00EF10A035854513050440EF10E03913059F
:100B2C000440EF10603A930404402685EF10603ABD
:100B3C006DFD1305044037240140EF10003A1304F7
:100B4C0004402285EF10003A6DFD61016FF0EFD586
:100B5C00EFF20FD5AA852A843735000061111305F1
:100B6C004500EF2020191545EF10D02EB714014089
:100B7C0013850440A145EF10C066138504409145D0
:100B8C00EF106066EFF00FF4814537050040EF1071
:100B9C00F0140146854537050040EF10B015B7E756
:100BAC0000E01307000423A2E7180F10000023A293
:100BBC00E728054791473AC063F987009545228598
:100BCC00EFF04FD19377F50F3EC0854537050010F8
:100BDC00EF1050000144B7F400E03D45EF10406EBB
:100BEC002945EF10C06E0545EF10406C37070140EA
:100BFC007D56232AC74013050024EF10E045B7E6C5
:100C0C0000E03706200023A0C6283706100023A0DA
:100C1C00C628377600401442F59A14C283A604D134
:100C2C0093E6460023A8D4D0EF10C05F83A604D16E
:100C3C00918A638006129306800873B006300F10F9
:100C4C0000003707014083264740032607408325D1
:100C5C0047404D8E2322C74003A604D103A704D1DD
:100C6C0036C2137606021367870223A8E4D003A7C3
:100C7C0004D14D451377F7FD518F23A8E4D003A77A
:100C8C0004D11367870023A8E4D097F0FF1FE780F7
:100C9C00A03603A704D14D451367870023A8E4D0E1
:100CAC0097F0FF1FE780403503A704D1118B61C378
:100CBC009246370701402322D74013078008732040
:100CCC000730EF10205603A704D101456D9B23A8D4
:100CDC00E4D0EF10A05D13050024EF10E03737E7E8
:100CEC0000E0B70620002320D72837070020034751
:100CFC0087031377F70F51C3EF10E005B7070140D7
:100D0C007D57054623AAE740854537050040EF107F
:100D1C00607EB7E700E01307000423A2E7108545C7
:100D2C0037050040EF10807B3735000013050502B6
:100D3C00EF10907E0565854513055523EF10A067D0
:100D4C00EFF07FB959331545EF10D01021016FF03A
:100D5C00CFB503A704D11367070123A8E4D0130769
:100D6C008008733007300F1000008146F5B503A7DB
:100D7C0004D13D9B23A8E4D089B7371501409305D6
:100D8C00000413050540EF1020453DD582470504AE
:100D9C001374F40FE39387E485B7EFF26FB0372445
:100DAC0001407111AA859D460546AA84130504408D
:100DBC00EF104015130504408545EF102013B16763
:100DCC00938707353EC01304044089452285EF10F4
:100DDC00801F09E58247FD173EC0E5FB824781EF86
:100DEC0037350000A6851305C512EF10B07001450C
:100DFC0011016FF08FAB3725014013050540EF1043
:100E0C00001CFDB7EFF2CFA97111A144014421459B
:100E1C00FD14613793F4F40F2A94F5F893553400CC
:100E2C0093970501C1839384C18089E7A838110188
:100E3C006FF0AFA7C20537C51200C181130505B508
:100E4C00EFF04FA905679306D7C4AA871304400691
:100E5C0063E8A602930697BE63FFA604131725004A
:100E6C002A972AC045750A071305851B930540066A
:100E7C003A95EFF02FA61305050582471374F50F6D
:100E8C003736000037350000BE85A2861306866013
:100E9C0013058561EF101066DC2899C3BC38C5E7D3
:100EAC00854737350000A0B8DCA8A28513058563FB
:100EBC00EF105064A5BF930657B863F2A602131740
:100ECC004500098F2AC0297506071305C5649305CB
:100EDC0040063A95EFF00FA01305250379BF930652
:100EEC00F7B363F1A60213174500098F2AC02D75BD
:100EFC000607130505E8930560043A95EFF08F9DFE
:100F0C005105A5BF930637B063FFA60012055977AC
:100F1C001D8D130747AC9305C0033A953EC0EFF007
:100F2C006F9B150599BF1307F7AE0144E37AA7F43D
:100F3C000A0575773E9513070795D1453A953EC03E
:100F4C00EFF04F991DBF1387470163598700373561
:100F5C000000A0B8A2851305C56499BF13951700AE
:100F6C003E9509052A9409809375F40F63F7B70031
:100F7C001D8C154763438700BE8537350000ACB820
:100F8C001305C56735B7EFF2AF9137F7FF1F83270E
:100F9C00877E0324C77E0325077F3707002003279E
:100FAC00C70316040D81B98F3D8C298C2145F5336F
:100FBC00931705015D8D298C1315D400298C1355BD
:100FCC001401298C13155400218D4205418111E126
:100FDC0005456FF08F8D01478147FD156344B700C0
:100FEC003E858280B306E5009422B58FA14613930B
:100FFC00870113961700135383419377F60F6356AB
:10100C0003009347760093F7F70FFD1693F6F60F50
:10101C00F9FE05071377F70FD1B7EFF26F88B747D3
:10102C00000883A407FC1384C18204C083A747FC77
:10103C00C204C1805CC0AD67938757A56381F4027D
:10104C0037350000A6851305C502EF10B04AAD6711
:10105C00938757A51CC0231204006FF00F8595458C
:10106C001385C1828D3F4C30AA86630BB5002A864E
:10107C003735000013050507EF10D04704C0E1BF5A
:10108C0050202E20373500001305450CEF109046EC
:10109C00E9B7EFF2EF80ED771384C182938757A500
:1010AC0095451385C1821EA03D37B744000848B052
:1010BC0023130400EF00F07A138504FCEF10A0005A
:1010CC000C40138504FCEF10C0034C40138544FC0A
:1010DC00EF102003EF00907A543050202E2037353B
:1010EC00000013054510EF10F0406FE01FFCEFE21D
:1010FC003FFBAE841306000281452A84EFF0EF8497
:10110C00B75702209387A75A1CC083D7E18264A0EB
:10111C005EA01387C180343B230404009387C180F5
:10112C0074B0343B93B6560114A483C6818014B4B6
:10113C00142F1307F00F91C2F82B38A4F83B93052A
:10114C000002228538B49C475CC4713568BC6FE0E2
:10115C00DFF5EFE2FFF418219307A00A6111814437
:10116C00631EF7021831930750052A8481446317D4
:10117C00F70238218D476313F702783D2EC2930591
:10118C0000023AC0893D02479247630DA7003735EC
:10119C000000BA851305855CEF10D035268521013A
:1011AC006FE0BFF054301A244C20662003D6E18245
:1011BC00A2064207CD8E458F8144E311D6FE998F4E
:1011CC0093B41700E1BFEFE2BFED1301C1F7EFF0ED
:1011DC002F941305401FEF10E0477533AA852A841E
:1011EC00373500001305C56FEF10D03069468145C7
:1011FC001305A102EFE07FF5B75701209387A75A9B
:10120C003ED223148102EFF07F89AA852305A10227
:10121C003735000013054571EF10D02DEFF09FBE50
:10122C00AA85A305A1023735000013054573EF10FD
:10123C00702CC1479305000248102306F102613B54
:10124C00A301A1043735000013054574EF10902A53
:10125C008144373700005C10A6978C231305477523
:10126C008504EF103029A14737370000E395F4FED1
:10127C0083453104373500001305C575EF109027F1
:10128C0037350000930600321306B004854513056C
:10129C008576EF103026B70700201387C703184355
:1012AC009387C7033EC4BD67938707A63ACA02C09B
:1012BC003ECCA24752479C43998F62476377F7060F
:1012CC0037350000854513050579EF10B02202C2B1
:1012DC0037150140914513050540EF00D070EFE044
:1012EC007FFE9247638C07241544B7140140914547
:1012FC0013850440EF00F06E13054006EF108035A7
:10130C00914513850440EF00106E130540067D14C3
:10131C00EF10403479F83745000013054593EF1072
:10132C00B01F130141086FE05FD8EF00B06FB71426
:10133C000140914513850440EF00F06AEFE07FF91E
:10134C00930500024810EFF00F9AEFE07FF9824707
:10135C00914513850440858BA9E7EF009068A2475F
:10136C0002479305C012884382471375F50F860711
:10137C00BA979207998F22953E95EFE0BFDA130545
:10138C00053293170501C1833EC8A2479C433EC654
:10139C00A24732479C43998F424763E7E70002C25A
:1013AC00D1A8EF00506465BFEFF0CFA02AC209C9E5
:1013BC0093050002C800EFF00FA3FD4763E6A700FA
:1013CC000545EF102029E9B7834661040346510413
:1013DC0083454104B73700001385877BEF109011CC
:1013EC00034741049307A00A6312F70A0347510409
:1013FC0093075005631CF708034761049D47631767
:10140C00F7088344310693050002C800EFF0BFBC17
:10141C006389A400373500001305857DEF10D00FCC
:10142C0085BF83449104834781040343F104A204E0
:10143C000347A104DD8C374500009A862286A685D9
:10144C00130585801ACEEF10F00A724363109404D2
:10145C008547631DF3029387C182A2A32382670091
:10146C00EFF03FC38345A104374500001305058405
:10147C00EF105008824785073EC002479307B0041F
:10148C00E308F7E49247E38607E299B581479306B0
:10149C000002D8103306F700D8003E9718238507B2
:1014AC001347F7FF18A2E396D7FE034741069307AD
:1014BC00A00AE317F7F00347510693075005E31111
:1014CC00F7F0034761069D47E31CF7EE83443108B0
:1014DC0093050002C810EFF01FB06387A4003745D6
:1014EC000000130545881DBF8347910603478106FD
:1014FC000343F1068344A106A207D98F37450000A8
:10150C009A86BE85268722861305458B1AD03ECE39
:10151C00EF10407EF2470253E314F4EA8547E311DF
:10152C00F3EA9387C182A2A323826700EFF07FB610
:10153C0037450000A6851305C58E1DBF9387C18254
:10154C0023910700238207000D44EFF09FB4B714DA
:10155C000140914513850440EF00B0481305401F2E
:10156C00EF10400F914513850440EF00D047130551
:10157C00401F7D14EF10000E79F8374500009305DD
:10158C00B00413054594EF10E07661BBEFE25FB158
:10159C00B70700209384C18013878703130181FD53
:1015AC009387870323A004002382040023000700F1
:1015BC003EC061C10D476312E50C373500001305C1
:1015CC004514EF1060759387C182D8238547138427
:1015DC00C1809384C182631FF704BE20A1CF37352D
:1015EC00000013054516EF1020736946814513055D
:1015FC00E100EFE09FB5B75706209387A75A3EC48A
:10160C00BE209305000228007C86EFF0DF9CA3032C
:10161C00A102EFE01FCCD1479305000228003EC287
:10162C00EFE07FEC7945EF10E0029247FD17EDF704
:10163C00EFE05FC92391040023820400EFF07FA543
:10164C00C167FD175CC49307F00F1CC8238401828B
:10165C008247232A0400231C0400232004002302B5
:10166C000400231304002324040023800700EFF05C
:10167C009FB5130181026FE05FA309476318E5066C
:10168C003735000013054518EF1000693714014079
:10169C00914513050440EF00D03413056009EF00A9
:1016AC00707B914513050440EF00F033130560097E
:1016BC00EF00507A914513050440EF00903213056A
:1016CC006009EF003079914513050440EF00B0310B
:1016DC0013056009EF00107837F700E0832707D176
:1016EC00B7060080D58F2328F7D061B70547E312E2
:1016FC00E5F82AC0373500001305051AEF10C06154
:10170C0037140140914513050440EF00902D13054B
:10171C002003EF003074130504409145EF00B02C0A
:10172C0003C4018382476309F400373500001305B5
:10173C00C51CEF10605E35BFEFF04FB6E8B4C8A41F
:10174C002AC023930400EFF0EFEB82452800EFF062
:10175C001F9A2800FD209C4485079CC463178500B4
:10176C00373500001305051FE9B7373500001305A1
:10177C000521C1B7EFE2DF92B70700201387C7033B
:10178C00184379719387C7032AC22EC43284B68456
:10179C003AC03EC6B24702479C43998F124763F04A
:1017AC00E70AA247B1CFEFE0FFE039C99305000289
:1017BC000808EFE05FE3A6850808EFF09F9901CDDC
:1017CC0037450000A2851305C597EF10A0520545BB
:1017DC0045616FE09F8D1C081418982385071347EB
:1017EC00F7FFA38FE7FEE39AD7FEA6850808EFF074
:1017FC005F9619C537450000A28513050599F1B709
:10180C00EFE07FE737070020930787039C2313073C
:10181C00870393F7F70F89E783A7C18091E311C979
:10182C0023000700EFE0FFE609C5EFF03FD60D45BA
:10183C0045B7EF00301F0545EF00D061A1BF014552
:10184C0041BFEFE2FF8571112AC08144EFE07FA810
:10185C0002459305000213F4F40FEFE0DFC8938701
:10186C00C1808C4737450000268613054596EF103E
:10187C006048EFE0FFA69387C18094472286854598
:10188C0013050019C53D85469387C1806312D506A3
:10189C001395240026959D451205EFE0BF83137523
:1018AC00F50F130640069387C18011CD9306C00631
:1018BC003385A6402A871375F50F6374A6001307AA
:1018CC0040061376F70F942F0547F8BB89EAF0AB67
:1018DC0098AFEFE03F9F054511016FE00FFDF42B32
:1018EC00139716003697090732970983F8ABD5B7CB
:1018FC000D466316C500EFE0FF9C0D45F1BF902F20
:10190C00F4BB21E22946F0AB94AF9D466383D4022D
:10191C00B706002003A5C6039447228626957D8929
:10192C001305C50381450605EFF0DFE48D47E3049D
:10193C00F5FC8504A147E39BF4F0EFE0BF9801456B
:10194C0061BFF02B93161600B296B1068982F4ABE8
:10195C006DBFEFE2EFF4130141FCF52EEF00504C9C
:10196C00716513050520EF00905237350000130503
:10197C000527EF10603AB707002083A5C70037355D
:10198C00000013058528EF10E036EFE0BFEDEFE027
:10199C009FF4EFF08F93EFE01FD80564373500000C
:1019AC00930584381305C529EF10C034130584380A
:1019BC00EF00504A373500001305452BEF10C035AA
:1019CC009307800873A00730373500001305852B6B
:1019DC00EF108034EFE0DF93EFE0DF8EEFF0EFE31A
:1019EC009387C182D8239386C182854736C66314F8
:1019FC00F70CAE22373500001305852CEF10802F25
:101A0C00954437140140914513050440EF00607D67
:101A1C0013054006EF001044914513050440EF00F8
:101A2C00807C13054006FD14EF00D042F9F8914577
:101A3C0013050440EF00207B373500001305C5303B
:101A4C00EF10802D41679387C1807D17D8C713078E
:101A5C00F00F98CB23A007002382070023930700E5
:101A6C0023A4070023AA0700239C0700B704002027
:101A7C00238401821387840323000700EFE0DFD85F
:101A8C00938784031384C1803EC8EF00A079EFE0F4
:101A9C009FBEC247AA849C2393F7F70F81E71C4093
:101AAC0091E315C5C24723800700EFE09FBE19C91B
:101ABC00EFF0DFADD9BF373500001305452EEF1021
:101ACC00A0253DBF89C42945EF00D0387DBFB24762
:101ADC000547C4236399E41CEFE05FFC3828AA8512
:101AEC0009EF68B408A837350000A308040024A83F
:101AFC0013058532EF10002039A07834631DA7023E
:101B0C00A308040018A80343C4009307F00F64341F
:101B1C00631CF30644B41ACAEFF0CFAEAA8528B8FA
:101B2C00373500001305053EEF10C01C2945EF00AA
:101B3C007032524395A81828631CE50210383735CB
:101B4C000000894605061376F60F1305453410B8C8
:101B5C00EF10401A1838E3F8E4FA0C28B14737357F
:101B6C0000006CB4A30804001CBC1305C53659B79F
:101B7C0008A837350000B14709461305053A04B8E3
:101B8C001CBCEF10201741B77A206302930A5C3417
:101B9C00638D971644B42307040085679387F7B3C6
:101BAC00E3EBE7F63C38A5DBA68568081ACAEFF02C
:101BBC000FD48342E4005243850293F2F20F631375
:101BCC00930AB73500009385C52683C781803735C6
:101BDC00000016873EC47C38A6861305C53F3EC25E
:101BEC007C281ACC16CA3EC03C381044EF1080102A
:101BFC006808EFF01FC58D47E309F5E88547D24229
:101C0C006317F5061C44624344A4850744B42307B8
:101C1C0004001CC4630A930037350000B147130558
:101C2C00C5431CBCEF10400F2313040011A885679B
:101C3C00A3066400230704009387F7B3E3EDE7ECF6
:101C4C00B247D82385476316F7001438A5E61C3C29
:101C5C00D9EF37350000BD451305C559EF10800984
:101C6C00BD449DA0B735000093858526B9BF373597
:101C7C0000002146968513054547EF10A0077C24EC
:101C8C0018448507050793F7F70F18C47CA4094778
:101C9C00E37CF7F837350000A6851305854A44A484
:101CAC00EF10400551B7373500001305854EEF1086
:101CBC00A00679B71028373500000947954513055C
:101CCC000551EF1020039544B73700001385C75B0F
:101CDC00EF1080042685EFE0BFE795452685EFE001
:101CEC006FBF7E201375F50FAA977EA079BB139654
:101CFC002700373500003E96954513058555EF00B6
:101D0C00707F1C3CFD171CBC7DBF74248947E3E924
:101D1C00D7F261B5B71702409843B706FFF81367BF
:101D2C00170098C3D843758FD8C39843B706F7FEEE
:101D3C00FD16758F98C39843B706FCFFFD16758F7B
:101D4C0098C3D843B70640FFFD16758FD8C3370725
:101D5C009F0098C78280B7160240D842B707002070
:101D6C001146318B9387C7006305C7002146630872
:101D7C00C70037376E011307076098C38280D842BB
:101D8C009316F700E3D706FE3777DC02130707C07C
:101D9C00EDB701A097F1FF1F938181A9138181FCFD
:101DAC001305000A97E5FF1F9385052517E6FF1F0E
:101DBC001306462563FAC5008322050023A05500AF
:101DCC0011059105E3EAC5FE172500001305C5BDF5
:101DDC0097E5FF1F9385052317E6FF1F130646257E
:101DEC0063FAC5008322050023A055001105910557
:101DFC00E3EAC5FE17E5FF1F130585239385C18311
:101E0C006377B500232005001105E36DB5FEB722FD
:101E1C00000093820288739002308D42739042804E
:101E2C0097E2FFFF9382421D93E23200739052308F
:101E3C00EFF05FEE970200009382E2B173901234E0
:101E4C0073002030B727014093870740631EF500CD
:101E5C00EFE20FA5854513050020612B8145130585
:101E6C000020412B6FE06FA482805C413707F1FFAB
:101E7C001307F7EF7D8FDC419441A207D58FD98FE3
:101E8C005CC11C4537F7F1FF1307D77FD4457D8F15
:101E9C009C49D58F94458606D58FD98F1CC55C552A
:101EAC00370710FF7D177D8FDC29FD1793F7F70F90
:101EBC00D207D98F5CD582801C4589C593E7170062
:101ECC001CC58280F99BEDBF1C4593E787001CC5A0
:101EDC00828008450D81058982801C4593E7470067
:101EEC001CC5828008450981058982801C4591C5E5
:101EFC0037075000D98F1CC582803707B0FF7D177C
:101F0C00F98FD5BFA54763F8B704138765FF9317FF
:101F1C0017008322C500BA971D433313F3001343F4
:101F2C00F3FF33735300B397F600B3E767005CC558
:101F3C00994763E3C7047D16931726003E965859BC
:101F4C00FD47B397C70093C7F7FFF98FB395C5004B
:101F5C00DD8D4CD982809397150003230501AE9734
:101F6C001D473317F7001347F7FF33776700B39715
:101F7C00F6005D8F18C96DBFB14763E2C7026516E5
:101F8C00931726003E961859FD47B397C70093C781
:101F9C00F7FFF98FB395C500DD8D0CD982804D16F6
:101FAC001317260054553A96FD47B397C70093C7AD
:101FBC00F7FFF58FB395C500DD8D4CD58280684554
:101FCC0042054181828008416D8D3335A0008280AD
:101FDC005841032305004C45370601409307064042
:101FEC003E979346F3FFB1C583250640F58D23201C
:101FFC00B640D043F18ED4C31443B3E6660014C389
:10200C00184190479346F7FF758E90C7D047F18ED5
:10201C00D4C7144541466399C6009447D98E94C7DA
:10202C00D447558FD8C78280B6979443558F98C3A1
:10203C0082801C43F58F1CC38280B7070140138735
:10204C00074083A70740584B698F09C77D8D3335EF
:10205C00A000828001458280B707014023AAA740D7
:10206C008280B707674537270240938737125CC3D6
:10207C00B797EFCD9387B79A5CC38280372702401E
:10208C001C4B93E707081CCB8280372702405C4728
:10209C000545858B91E748474189133515000D059A
:1020AC008280EFD2FFFF2A84EFF03FFE8547631951
:1020BC00F50019E0154531A0EFF03FFD7D14FDB79B
:1020CC0075D86FD09FFEEFD2BFFDAA8437050B00E9
:1020DC00EFF03FFD91476314F502372402401C4892
:1020EC0037050B0093E727001CC844C81C4893E72E
:1020FC0007041CC8EFF0FFFA1C48F59B1CC86FD0F6
:10210C00DFFAEFD2FFF96111AA8409652EC002C271
:10211C00EFF03FF911478245631FE5023724024077
:10212C001C48096593E717001CC893970501C183E8
:10213C009EA02EC0EFF0FFF611478245631AE50012
:10214C00890426C29247C18109658EA3EFF07FF501
:10215C001C48F99B1CC821016FD03FF5944593F79F
:10216C00060193F2F60081C7DC41B3E2F20083D39F
:10217C00050093F7F30FA5C303230500611122C2D9
:10218C0026C081471304800293048004054733164C
:10219C00F70033F7C3006312E602939527003D471F
:1021AC003317B7001347F7FF33736700B395B200CB
:1021BC0033E36500639D860050C985072147E3978B
:1021CC00E7FC124423206500824421018280E396BF
:1021DC0096FE10C9DDB7828008456D8D3335A000A1
:1021EC0082800CC982804CC9828037070140144719
:1021FC0086058D47B397B70093C7F7FFF58F1CC7BC
:10220C001C47B315B500DD8D0CC78280B737004075
:10221C0088C38280B7370040C8C38280B73700407C
:10222C0088C78280AD67373700409387A7AA1CC345
:10223C008280B567373700409387C7CC1CC33717EC
:10224C0002405C53898BF5DF828083A641838547EE
:10225C0018216390F6021C31639CD7023C219A072B
:10226C0093E707F8B7E600E093F7F70FBA962380E9
:10227C00F6408546935757003397E600544189CE74
:10228C00938707048A07B7E600E0B69798C3828065
:10229C00EDF33C219A07F9B793870706B7E600E000
:1022AC008A07B69798C30F100000828037770040DA
:1022BC001C4709C593E727001CC78280F59BEDBF1F
:1022CC00377700401C4BC19B5D8D08CB8280711110
:1022DC0002C0377700405C4793F707FC3EC082474B
:1022EC005D8D2AC082475CC711018280B7160240FF
:1022FC00DC4241771307F77FF98F5D8DC8C282806E
:10230C00371702405C5309C593E717005CD38280F2
:10231C00F99BEDBFEFD2DFD8371702405C439146F3
:10232C002A84B18B6385D700A1466380D708B73761
:10233C006E01938707601CC0B7160240DC42918384
:10234C0013F7F700B707002093874702BA978C233F
:10235C00DC42184093F5F50F93F707083355B70097
:10236C0081E73A85EFD01FD748C008C448C4B717D7
:10237C000240DC438D46AD83FD8B13D737008A07B3
:10238C00F18BD98F13F6370113F7370063F4C600BE
:10239C00138747FFB707002093870701BA978C2351
:1023AC00EFD05FD308C86FD05FD05C43B777DC0247
:1023BC00938707C049B799C5371702401C4F5D8DED
:1023CC0008CF8280B7170240984F1345F5FF798DDF
:1023DC0088CF828099C5371702405C4F5D8D48CFFE
:1023EC008280B7170240D84F1345F5FF798DC8CFBF
:1023FC00828099C5371702405C475D8D48C7828043
:10240C00B7170240D8471345F5FF798DC8C78280AE
:10241C001357550085476319F700B71702409C43C3
:10242C0033D5A70005898280B7170240DC53CDBF96
:10243C001A218D6793870704B6217D8F9E21D58F36
:10244C00D621D58FF621D58F9625D58FB625D58F4C
:10245C00D625D58FF625D58FD98F1EA19E291EA9DD
:10246C0082801E2189C593E707041EA18280C207C2
:10247C00C18393F7F7FBC207C183C5BF4EA582800A
:10248C004A2582800A256D8D3335A00082801E215D
:10249C0037370140130707C0C207C1836306E50045
:1024AC00370700406316E500BA2193F7F7F8D98F88
:1024BC00FA2193F7F7CFC207C183D98F1EA1DE2172
:1024CC005EB59E211EB5B7370140938707C06314D4
:1024DC00F5009C251EB985475EA982801E2189C501
:1024EC0093E717001EA18280C207C183F99BC20724
:1024FC00C183CDBF5E2501C6DD8D4EA5828093C5FF
:10250C00F5FFFD8DDDBF1E294A25ED8F420541816A
:10251C0089C76D8D3335A00082800145828093C5BB
:10252C00F5FFC205C1810EA98280EFD27FB71629B3
:10253C00F577FD17F58FF621DA252111D58F1EA918
:10254C005625FD779387379FF58FD6212A842EC089
:10255C00D58F9625D58FB625D58F5EA55E29C2075A
:10256C00C18393F7F7CF5D8F5AA94800EFF09FDA3C
:10257C00B74701409387078082456312F406C24730
:10258C005A24139517003E9542070E0541873E9538
:10259C008C41635807048605EFD0DFB393054006E2
:1025AC002AC0EFD03FB382479314450093054006F1
:1025BC003E85EFD0FFB45E24C207C18763D5070206
:1025CC000E059305400613052503EFD0BFB01D89FA
:1025DC00C98CC204C18006A461016FD01FADB24783
:1025EC0045B78A0555BF120593054006130525030B
:1025FC00EFD05FAE3D89E9BF91C55E250967D98FE4
:10260C005EA582805A25F977FD17F98FD5BF93F512
:10261C00F51F4EA182800A216D8D3335A00082807A
:10262C00EFD21FA8B707002003A5C700B7157A0083
:10263C0093850520EFD01FAA1375F50F238DA1826A
:10264C0093175500898F8A073E950E05239CA1820E
:10265C006FD0BFA5EFD2DFA437F400E05C40AA85B1
:10266C00F99B5CC003D58183EFD0DFA408C8232479
:10267C0004001C4093E717001CC0B7F700E0D843D8
:10268C00058B75DF9843799B98C36FD01FA2EFD24F
:10269C003FA12A8411651111854513050502EFF040
:1026AC009FD1930700027C80371501408D473EC2B5
:1026BC008A85E147130505403EC4EFF03FAA22C6C8
:1026CC0037440140B70708006C00130504803ECA6C
:1026DC0002C8231C0100EFF05FE58545130504805B
:1026EC00EFF09FF171016FD05F9CEFD27F9B711166
:1026FC00AE840144635FC402B7470140138707806F
:10270C003A859305000432C0EFF0FFF0B747014063
:10271C001387078002466DD5338784008305070035
:10272C00138507800504C205C181EFF05FEE0246F8
:10273C00D1B7328511016FD05F97411106C62EC0FB
:10274C000DCD1841AA8705C358417D5511CB85463F
:10275C00631BD70098472300070023A207000545F9
:10276C00B240410182809847824614A398470507DE
:10277C0098C7D8437D17D8C3DDB705468A85EFF0D7
:10278C00DFF6F1BF011122CC2EC206CE26CA2A8456
:10279C00814793050002634506029245BE958385E9
:1027AC0005008DE563D8C70263D4E702198E1305C3
:1027BC00000293F526002AC089C501E793050003A2
:1027CC002EC0858A81449DEAB28415A08507F1B795
:1027DC001D8EF1BF0146E1BF824522853AC832C643
:1027EC003EC4EFF09FF5A24732464247FD14E34545
:1027FC0090FEB284635306008144058E63C7E702E2
:10280C00A6879246338797403697830507009DED40
:10281C00B28463469004635306000146F24062445E
:10282C00D2443305F600056182801D8FBA8793056B
:10283C000003228532C83EC63AC4EFF01FF0B247FF
:10284C0022474246FD17E5F7BA945DBF228532C692
:10285C003EC4EFF09FEEA247324685075DB7824536
:10286C00228532C43EC2EFF05FEDFD142246924742
:10287C004DB7397106DE22DC26DA3EC232833A8647
:10288C0091ED92469307000301476C08FC86EFF02C
:10289C007FEFF2506254D25421618280AA84368434
:1028AC00AE8791CA294701446317E30063D505003D
:1028BC00B307B04005448646A30901021307310350
:1028CC00938666FC36C49A853E8532CA3AC81AC6C7
:1028DC003EC0EFD0FF82A546824732434247524664
:1028EC0063D4A600A2463695130505039306F7FF9D
:1028FC00A30FA7FE9A853E8532CC3ACA1AC83EC6AB
:10290C0036C0EFD02FFDB24742435247624663FDBB
:10291C00670409CC29CE9247898BB1CB9305D002A1
:10292C00268532C4EFF07FE122467D169247918BCB
:10293C0085C706479307100632C493050003268506
:10294C006311F704EFF07FDF930580072685EFF026
:10295C00DFDE224609047916164792468245268503
:10296C00EFF05FE2229535B7AA870247A9BF8246EE
:10297C009307D0020144A38FF6FE9307E7FF3EC0F6
:10298C0075B7EFF09FDB93058005C9B701458280D1
:10299C0001458280130181FD22D026CE06D22AC4A5
:1029AC00AE82328402C681448385020091EDA24737
:1029BC0089C781453E85EFF05FD892500254268539
:1029CC00F244130181028280930750026389F5005F
:1029DC00224516C88504EFF05FD6C24205A0838756
:1029EC00120013871200639DB70022459305500215
:1029FC003AC8EFF09FD442478504BA8285026DB77E
:102A0C00DDD79306B0026389D70463C8F60093063A
:102A1C0030026386D704814705A09306D002638AEF
:102A2C00D70093060003E398D7FE1387220089474B
:102A3C0021A0138722008547830607001306B002E6
:102A4C006383C6046341D60213063002638BC6024D
:102A5C00BA820145A54681A0138722006DBF13875A
:102A6C0022009147D1BF1306D0026389C60013061A
:102A7C000003E39FC6FC93E7270031A005078547B9
:102A8C00C1BF93E747000507E1B713162500329540
:102A9C0006053A95850203860200130706FD937519
:102AAC00F70FE3F4B6FE1307E0029946631EE60047
:102ABC0085028146A54503860200130606FD1377A1
:102ACC00F60F63F5E50236C6038702001306A0066F
:102ADC00630DC70A6343E6021306C0046307C70A03
:102AEC0013068006630CC70881452DA81397260092
:102AFC00BA968606B29685027DBF1306400763061A
:102B0C00C7081306A0076302C7081306C006814551
:102B1C00631AC700038612008D456314E600850214
:102B2C0091458502038602009303000613071006E5
:102B3C0063C4C300130710049303700663C4C30675
:102B4C0093035006635676189303700463C1C30451
:102B5C0093055004635EB61613073004E310E6EADF
:102B6C0018409303440016CA230CE1001EC8A30CA2
:102B7C0001000147BE862A862C0849A8038612004C
:102B8C008145E311E6FA890271BF8502B1BF930654
:102B9C003006E307D6FC63CFC606930680056303B5
:102BAC00D602A9BD930630076304D60463CBC602D4
:102BBC009306F0066305D60E9306000793E74700CD
:102BCC00E31ED6E291466392D50C930384000C402D
:102BDC00504016CA3AC23EC01EC8AA870147C14619
:102BEC0081A893065007630BD6069306800745BF52
:102BFC001840B7460000930344009385869A11C38E
:102C0C00BA85324716CA1EC8BE862A862245EFF000
:102C1C007FB715A091466395D502930384000C40B1
:102C2C00504016CA3AC23EC01EC8AA870547A946DC
:102C3C002245EFF0BFD5C243AA941E84D2427DBB7D
:102C4C00B2460C4016C836C23AC011042A878546D3
:102C5C0029462245EFF0FFC1AA9441B39146639DEA
:102C6C00D500930384000C40504016CA3AC23EC0B3
:102C7C001EC8AA87014765BFB2460C4016C836C2AB
:102C8C003AC011042A878146E1B7B24616C80C40F7
:102C9C00414636C23AC011042A8781465DBF91462F
:102CAC00639ED500930384000C40504016CA3AC270
:102CBC003EC01EC8AA870147A1469DBFB2460C4024
:102CCC0016C836C23AC011042A878146214651B72C
:102CDC000C401306840040403AC22A87224532C871
:102CEC003EC02286B687A94616CAEFF07FCAAA94C0
:102CFC004244A9B71301C1FD2EC832CAAA851008D7
:102D0C00014506C636CC3ACE3ED032C0EFF09FC855
:102D1C00B240130141028280411122C426C206C670
:102D2C001C21AA840144DC8183073100050499EF3E
:102D3C00A9479305310005460145DC81EFF0FF9A68
:102D4C002285B2402244924441018280054693057B
:102D5C0031000145EFF07F99B38784009C23DC811F
:102D6C00E1B700005B4C4F52412052585D2043525A
:102D7C0043204572726F72212044697363617264DF
:102D8C00696E67207061636B65742E0D0000000026
:102D9C000D0A3D3D3D3D3D3D3D3D3D3D3D3D3D3DBA
:102DAC003D3D3D3D3D3D3D3D3D3D3D3D3D3D3D3D47
:102DBC003D3D3D3D3D3D3D3D3D3D0D005B4C4F5250
:102DCC00415D202D2D2D20535831323738204C6F3A
:102DDC00526120496E697469616C697A6174696FBA
:102DEC006E202D2D2D0D00005B4C4F52415D20525D
:102DFC006573657474696E67206D6F64756C65209E
:102E0C00766961205044342E2E2E0D005B4C4F52AF
:102E1C00415D20526561642053696C69636F6E205B
:102E2C0056657273696F6E3A2030782530325820AF
:102E3C002845787065637465643A2030783132299E
:102E4C000D0A00005B4C4F52415D203F2045525211
:102E5C004F523A20535831323738206E6F742072EB
:102E6C006573706F6E64696E672120436865636B70
:102E7C002053434B2F4D49534F2F4D4F53492F4EFA
:102E8C0053532077697265732E0D00005B4C4F52C3
:102E9C00415D204F704D6F646520616674657220D2
:102EAC00696E69743A20307825303258202845787C
:102EBC007065637465642030783839290D0A000018
:102ECC005B4C4F52415D203F20496E697420436F2B
:102EDC006D706C6574653A203433334D487A207CC0
:102EEC0020534637207C204257203132356B487AAC
:102EFC00207C20506F776572202B313764426D2017
:102F0C0028536F66742D5374617274203130307590
:102F1C0073290D003D3D3D3D3D3D3D3D3D3D3D3D20
:102F2C003D3D3D3D3D3D3D3D3D3D3D3D3D3D3D3DC5
:102F3C003D3D3D3D3D3D3D3D3D3D3D3D0D0000009C
:102F4C005B4C4F52412052585D203F2052656365C7
:102F5C0069766564202564204279746573206672F5
:102F6C006F6D204649464F2028416464723A2030E8
:102F7C007825303258290D0A000000005B4C4F5266
:102F8C00412054585D203F205061636B6574205381
:102F9C00656E7421202854696D653A202564206D76
:102FAC00732C204952513A20307825303258290D53
:102FBC000A0000005B4C4F52412054585D203F20CA
:102FCC0054582054696D656F7574212046696E6183
:102FDC006C204F704D6F64653A2030782530325834
:102FEC002C204952515F464C4147533A20307825AA
:102FFC003032580D0A0000005B5057525D20536C64
:10300C00656570202825647320415755292E2E2E76
:10301C000D0A00005B5057525D2057616B650D0027
:10302C005B464C5D204D61676963203078253034F8
:10303C005820213D20307841413535202D3E2055FA
:10304C006E70726F6772616D6D656420466C617332
:10305C00682E20496E69742064656661756C7473A2
:10306C002E0D0A005B464C5D204352432045727284
:10307C006F722028526561643A30782530325820BE
:10308C00213D2043616C633A307825303258292138
:10309C0020466C61736820436F727275707465643E
:1030AC00202D3E2052657365742064656661756CD5
:1030BC0074732E0D0A0000005B464C5D204C6F6152
:1030CC006465642056616C69642053657474696E20
:1030DC006773202849443A3078253034582053748B
:1030EC00617475733A2564204352433A3078253025
:1030FC003258290D0A0000005B464C5D2053617666
:10310C0065642049443A30782530345820533A25A8
:10311C0064204352433A3078253032580D0A00006F
:10312C005B4144435D2054494D454F5554206368E1
:10313C002564210D0A0000005B5359535D20464164
:10314C0043544F525920524553455420283E357311
:10315C0020486F6C64290D0053656E64696E67209E
:10316C00554E50414952206265666F7265207265FA
:10317C007365740D000000005B5359535D2052655C
:10318C00626F6F742028337320486F6C64292E2E65
:10319C002E0D00005B5359535D2053696E676C65AF
:1031AC0020436C69636B202D3E20466F7263652053
:1031BC00496E7374616E742053656E640D0000006B
:1031CC005B5359535D204E6F742050616972656476
:1031DC00202D3E2052756E2050616972696E670D0C
:1031EC00000000005B444154415D20466F726365F2
:1031FC002053656E64202D3E2041434B204F4B0DD8
:10320C00000000005B444154415D20466F726365D1
:10321C002053656E64202D3E204E6F2041434B0D94
:10322C00000000005B5359535D2048617264776164
:10323C0072652049574447205761746368646F670F
:10324C0020496E697469616C697A656420287E38DE
:10325C00732054696D656F7574290D0043484700E0
:10326C00484200000D0A3D3D3D2054414E4B20424A
:10327C004F4F54203D3D3D0D00000000434833327C
:10328C0056303033204020256C75487A0D0A0000EA
:10329C005B5359535D205361666544656C617920BD
:1032AC0025646D732E2E20004F4B0D00496E6974F2
:1032BC0020526164696F2E2E2E0D00005B53595302
:1032CC005D205061697265642049443A307825303C
:1032DC0034580D0A000000005B5359535D204E4FCB
:1032EC0054205041495245442E20486F6C64206252
:1032FC007574746F6E20746F20706169720D0000AC
:10330C005B5359535D2049646C652028486F6C648D
:10331C002062746E3D70616972290D005B535953C4
:10332C0054454D5D20496E6974204C6576656C3A48
:10333C0020256425250D0A005B5359535D204361FC
:10334C006E646964617465204C766C202564252557
:10335C0020686F6C64202825642F2564290D0A00D1
:10336C005B5359535D204C766C20436F6E666972CB
:10337C006D65643A20256425252028312D4D696E14
:10338C002054696D65722052656C6F6164656429A7
:10339C000D0A00005B5359535D204E657720436145
:1033AC006E646964617465204C766C2025642525F7
:1033BC002028312F2564292028312D4D696E205469
:1033CC00696D65722052656C6F61646564290D0AC4
:1033DC00000000005B4241545D20426174746572D0
:1033EC0079206C6576656C3A20256425250D0A00DC
:1033FC005B54585D202573205365713A256C7520FC
:10340C004C3A25642525202857616B653A25642F95
:10341C00332920423A2564252520513A2575252546
:10342C0020523A257520463A25640D0A000000000A
:10343C005B5359535D204163746976652046696C12
:10344C006C696E672057696E646F77205374617274
:10345C0074656420283630732046617374204D6F78
:10346C006465290D000000005B54585D204E4F2010
:10347C0041434B206F6E2077616B652061747465DE
:10348C006D70742025642F3320616674657220255D
:10349C006420726574726965730D0A005B5359532D
:1034AC005D20332077616B6520617474656D707479
:1034BC007320646F6E6520776974686F7574204132
:1034CC00434B2E204C6576656C2025642525207396
:1034DC00746F707065642E0D0A0000005B535953B5
:1034EC005D204E6F74207061697265642E20486F88
:1034FC006C6420627574746F6E20746F20706169D7
:10350C00722E0D005B5359535D205472616E7369BA
:10351C0074696F6E2053746174653A2046617374DC
:10352C0020536C65657020256473202843616E649C
:10353C006964617465202564252520686F6C64209E
:10354C0025642F2564290D0A000000005B53595394
:10355C005D204163746976652046696C6C696E67A1
:10356C00204D6F64653A204661737420536C656519
:10357C0070202564732028486F6C642025647320A8
:10358C0072656D61696E696E67290D0A0000000035
:10359C005B5359535D205374656164792053746196
:1035AC0074653A20536C656570202564730D0A00B0
:1035BC002D2D2D2D2D2D2D2D2D2D0D005B41434B06
:1035CC005D20435243204D69736D61746368212003
:1035DC00476F743A203078253032580D0A000000BD
:1035EC005B53595354454D5D20427574746F6E2076
:1035FC00507265737365640D00000000496E74654C
:10360C00726E616C56726566000000005B4241543C
:10361C005D20256C756D56202825732C2052617702
:10362C003A25642525290D0A000000005B4241540F
:10363C005D20496E69743A20256425250D0A000029
:10364C005B4241545D204E65772042617474657213
:10365C0079205265706C61636564212048696768E4
:10366C00204A756D703A20256425250D0A0000004E
:10367C005B4241545D2046696C74657265643A2006
:10368C00256425250D0A00005B50524F4245535DC1
:10369C0020526177206869747320286F7574206FCD
:1036AC0066202564293A205B323525255D3A256450
:1036BC00205B353025255D3A2564205B3735252583
:1036CC005D3A2564205B31303025255D3A25640D4B
:1036DC000A0000005B444154415D2054616E6B2034
:1036EC004C6576656C3A20256425250D0A00000092
:1036FC000D0A5B504149525D204E657749443A3082
:10370C0078253034580D0A005B504149525D204CED
:10371C00766C3A25642052656164696E672062613B
:10372C00742E2E2E0D0A00005B504149525D204232
:10373C0061743A25640D0A005B504149525D20507A
:10374C006B743A2000000000253032582000000035
:10375C004352433A253032580D0A00005B50414920
:10376C00525D2042636173742025646D696E206222
:10377C0075727374733A25642061636B3A25646DBA
:10378C00730D0A005B504149525D2054696D656FA1
:10379C007574207265616368656420616674657216
:1037AC00202564206D696E730D0A00005B50414941
:1037BC00525D2052583A20533D2530325825303234
:1037CC005820543D253032580D0A00005B504149B9
:1037DC00525D204E6F726D616C2070616972696E02
:1037EC006720726573706F6E736520435243206D52
:1037FC0069736D61746368210D0000005B50414971
:10380C00525D204E53796E63205249443A307825EC
:10381C00303458204D593A30782530345820537470
:10382C00617475733D256420536C6F743D25640D74
:10383C000A0000005B504149525D20F09F8E8920A8
:10384C004D415443484544212050616972656420C0
:10385C007769746820536C6F742025642C20537422
:10386C006F7070696E672050616972696E67204C69
:10387C006F6F702E0D0A00005B504149525D20495C
:10388C006E7665727465642070616972696E67200A
:10389C00726573706F6E736520435243206D69734C
:1038AC006D61746368210D005B504149525D204984
:1038BC006E7653796E63205249443A307825303411
:1038CC0058204D593A30782530345820537461744F
:1038DC0075733D256420536C6F743D25640D0A008F
:1038EC005B504149525D20F09F8E89204D415443DD
:1038FC0048454428496E76292120506169726564D7
:10390C00207769746820536C6F742025642C2053C5
:10391C00746F7070696E672050616972696E672090
:10392C004C6F6F702E0D0A005B504149525D204464
:10393C004F4E450D000000005B504149525D204642
:10394C0041494C206166746572202564207472694B
:10395C0065730D0A000000005B54585D20536571BF
:10396C003A256C75207472793A25640D0A000000B2
:10397C005B41434B5D204F4B207472793A25640DAB
:10398C000A0000005B41434B5D204F4B28696E766B
:10399C0029207472793A25640D0A0000286E756C22
:0439AC006C29000082
:1039B000006CDC020204060804080C100810182031
:1039C00010203040204060800102030405060708F3
:0C39D000010203040506070800000000C7
:00000001FF
