:100000006F10D01F00000000FA190000FA1900005C
:1000100000000000000000000000000000000000E0
:1000200000000000000000000000000000000000D0
:10003000FA19000000000000FA190000000000009A
:10004000FA190000FA190000FA190000FA19000064
:100050001008000068070000FA190000FA190000F3
:10006000FA190000FA190000FA190000FA19000044
:10007000FA190000FA190000FA190000FA19000034
:10008000FA190000FA190000FA190000FA19000024
:10009000FA190000FA190000B6080000000000007C
:0C00A000730050107D157DFD8280000073
:1000AC00511126C022C206C4828282441244A2404C
:1000BC00310182802A86014593F6150091C2329552
:1000CC0085810606F5F9828000000000634E05026A
:1000DC0063C305042E86AA857D5515C285466378B3
:1000EC00B6006356C00006068606E36CB6FE0145F4
:1000FC0063E4C500918D558D85820582F5FA828069
:10010C008682C93F2E8582823305A04063D70500C5
:10011C00B305B040C1B7B305B0408682653F330527
:10012C00A0408282868263C70500634905005D3763
:10013C002E858282B305B040E35B05FE3305A040FB
:10014C00513F3305B040828200003D432A876373E0
:10015C00C3029377F700BDEFADE5937606FF3D8ABA
:10016C00BA960CC34CC30CC74CC74107E36BD7FE04
:10017C0011E28280B306C3408A069702000096966D
:10018C006780A6002307B700A306B7002306B700B5
:10019C00A305B7002305B700A304B7002304B700D9
:1001AC00A303B7002303B700A302B7002302B700D1
:1001BC00A301B7002301B700A300B7002300B700C9
:1001CC00828093F5F50F93968500D58D9396050156
:1001DC00D58D61B79396270097020000969686827C
:1001EC00E78086FA9680C1171D8F3E96E374C3F89C
:1001FC00A5B7EFF2FFEAA14537150140EF10904388
:10020C006DB5EFF2FFE92A84894537350140EF10CF
:10021C0070687DD9A28537350140EF103067854570
:10022C0037350140EF1010677DD937350140EF109D
:10023C0030661375F50F95BDEFF29FE69305000838
:10024C0037350140EF1010658547E309F5FEA145F0
:10025C0037150140EF10D03D89BDEFF27FE47111ED
:10026C002AC0413F02451375F507613F0145513FD7
:10027C002AC0D937024511010DBDEFF27FE26111A1
:10028C002EC02AC2BD371245136505089D3F824515
:10029C002E85853F5537210109BDEFF27FE03714DC
:1002AC000140C14513050440EF10D0382945EF102B
:1002BC00707BC14513050440EF1090375145EF108A
:1002CC00707AE5B3EFF2DFDD9305800805457537ED
:1002DC00E9BBEFF2FFDC930590080545793FF1B3DC
:1002EC00EFF21FDC930590080545413F0945EF10DF
:1002FC00707781453D45513781453545BD3F930567
:10030C00F00F49459D3F9305D0080545BD3771BB9E
:10031C00EFF21FD937350000011113050598EF20B6
:10032C00A060373500001305C59AEF20E05F056526
:10033C0085451305050302C002C202C402C602C8E9
:10034C0002CA02CC231E0100EF10F04793070006EF
:10035C007C80E1448D478A85371501403EC226C416
:10036C00EF10B024930700087C808A8593078004E3
:10037C00371501403EC4EF105023A14741448A85F4
:10038C00371501407C8022C4EF103022A14537156F
:10039C000140EF10F029608022C43714014013058E
:1003AC0004408A85EF10702013050440C145EF10FE
:1003BC003028B70704013EC6B70700023ECA6C00DE
:1003CC009D4737350140FC8602C826CCEF105047BC
:1003DC00854537350140EF10D049373500001305FE
:1003EC00859DEF206054553D13052004BD35AA852D
:1003FC002A84373500001305C59FEF20A050C9474C
:10040C00630BF40037350000130545A3EF20C051F2
:10041C000545056159B98145054585353D45EF10C3
:10042C007064930580080545893D3D45EF10906348
:10043C009305C00619459135930500041D45353DBE
:10044C00814521451D3D81453945053D81453D454C
:10045C002D359305300231450D359145130560025C
:10046C00293D930560077545093D9305400779457E
:10047C0029358D45130510030935A945130570035E
:10048C00ED3BC94513059003CD3BA1452945F533FB
:10049C009305F0082545D533930540081305D00482
:1004AC00E93B9305B0022D45C93B930590080545E2
:1004BC00E9333D45EF10105B05454533AA853735CB
:1004CC0000001305C5A7EF20E043373500001305E6
:1004DC0005ABEF20604537350000130545B0EF2024
:1004EC00A04401453DB7EFF2BFBB9307001071115B
:1004FC002A849304001063E3B700AE84930590083C
:10050C000545A53B7945EF10F05581453545B5338B
:10051C00CD3113050008F531B3079400639C8704B3
:10052C00213B93F5F40F13052002813B9305F00F4B
:10053C004945A1339305B0080545813313040032B6
:10054C004945213B9377850085CF2AC0A145494574
:10055C002D339305900805450D3302469305003263
:10056C0037350000818D1305C5B6EF20A039014544
:10057C00110125BE08203EC005046131824779BFB8
:10058C007D14420405454180EF10D04D55F80545CA
:10059C00E9312AC04945D13182452A8637350000D8
:1005AC00130545BAEF200036054593059008F13147
:1005BC0005457DBFEFF2DFAE49454531198105890F
:1005CC00EDB4EFF2FFAD61112AC24945AE84713131
:1005DC0013750504014409C94D4541312A8401E9CB
:1005EC009305F00F49455139228521017DBC4145C8
:1005FC00AD312AC0AA8535454931A2871374F40F51
:10060C0063F38400A68713F4F70FE5360145D53E56
:10061C00814463E084020D319305F00F4945B139F3
:10062C00024637350000A285130505B3EF20802D57
:10063C0065BF0145F9369247A69788A38504D1BFBB
:10064C00EFF21FA637150140930500041305054072
:10065C00EF10607D133515006FF03FA514211307C3
:10066C00A00AAA87639EE6021431130750050145C0
:10067C006399E602B4230D476395E602D433EA236B
:10068C009A27D02383D7C182A2064207D18E498FE5
:10069C0001456398D7003385E540133515008280FA
:1006AC0001458280EFF2DF9F613F1384C18015CD3D
:1006BC00B707002083A4C7031C4081EB373500002B
:1006CC00130585F004C0EF2020265C2099C301455A
:1006DC0019A81C409D8C856793878738E3F997FE92
:1006EC0085475CA009456FF05F9C18406DD3B70738
:1006FC000020542083A7C7032320040091EED517B4
:10070C00998F05671307C7376368F70003C5E18244
:10071C007D1513351500C1BF230204004DBFEFF248
:10072C003F983705001061118545EF10B00B05455A
:10073C00EF10007E13051006EF10900E65DD930789
:10074C005011231101007C8085475C810A85854707
:10075C003EC2EF10807021016FF03F951305002011
:10076C00EF104055B7E700E03707200023A0E7283B
:10077C0073002030EFF2DF92211185450545EF1013
:10078C0090048145094502C402C602C802CAEF1092
:10079C00A06A85450945EF10206A89450945EF1087
:1007AC00A06991450945EF102069DD4705443EC419
:1007BC002800C1473EC822CA02C6EF1020479945FF
:1007CC000D45EF106067930700043EC42800B14745
:1007DC003EC8EF10A045930700203EC42800A14757
:1007EC003EC822CA02C6EF10604493074011231181
:1007FC0001000A857C80408122C2EF1000666101F5
:10080C006FF0BF8A0545EF10004905C505472384E5
:10081C00E18213050004EF10004811C5B707002052
:10082C000547238CE70213057005EF10A0487300F1
:10083C0020300945EF10204671F91145EF10A04505
:10084C0071F54145EF10204571F1E1B7B74700084C
:10085C0003A707FC9387C18298C3C16642074183F3
:10086C00FD166316D70023900700238107008280B2
:10087C00EFF21F83EF10A044B7440008138504FC6B
:10088C00EF10E0491384C1820C40138504FCEF1077
:10089C00804CEF10604430200E20373500001305DB
:1008AC0005C1EF2020066FF05F80854537050040BD
:1008BC00EF10700609CDB70700209387C703984344
:1008CC00854537050040050798C3EF1050067300A7
:1008DC002030EFF2EFFC31118545054502C402C60C
:1008EC002318010002C002C2EF10C06FB70700202E
:1008FC0003A5C700896593850571EFF0AFFD7D15E4
:10090C00A54768842C00370500403EC6231501001E
:10091C00EF10E0780546854537050040EF10807EE6
:10092C00930760027C8085475C810A8585473EC2BF
:10093C00EF10A052854537050040EF10207B510188
:10094C006FF0AFF6EFF2CFF551118545130540026C
:10095C003714014002C002C202C4EF10C0669307F4
:10096C000004930480048A85130504407C8026C40B
:10097C00EF10A043914741477C808A858D47130532
:10098C0004403AC43EC2EF10404213050440914566
:10099C00EF10004AA14641478D478A851305044054
:1009AC0074803AC43EC2EF10404013050440A14588
:1009BC00EF10404885454145EF10E060DD478A85E2
:1009CC00371501407C8026C4EF10203E6533310181
:1009DC006FF0AFEDEFF2CFEC41112AC637150140A5
:1009EC00A14513050540EF10A0440D45EF109007ED
:1009FC0095473EC402C202C0814401448545371567
:100A0C000140EF10404201E505041374F40F8945D1
:100A1C0037150140EF10204101E5850493F4F40FE4
:100A2C00914537150140EF10004011E582478507CD
:100A3C0093F7F70F3EC0C14537150140EF10A03EAC
:100A4C0011E59247850793F7F70F3EC20945EF1062
:100A5C007001A247FD173EC4D5F337150140A145DF
:100A6C0013050540EF10003D0545EF10A07F9247A0
:100A7C00024737350000A68622869545130505FBEF
:100A8C00EF10506892470947637EF7028246814710
:100A9C006363D700914709476364970093E7270086
:100AAC0009476364870093E71700324719C7324739
:100ABC001CA31247894763F5E70213054006410161
:100ACC006FF0AFDE8247637CF70281476363970068
:100ADC00894709476364870093E71700324761FB36
:100AEC00024789471305B004E3EBE7FC1305200329
:100AFC00E3E797FC0145E3F487FC6545C9B78147FB
:100B0C00E37E97FC93373400D1BFEFF26FD97111AC
:100B1C0013053100A3010100753D98812A84AA8533
:100B2C00373500001305C5FF2384E180EF10905D7D
:100B3C00228511016FF06FD7EFF28FD6211161462C
:100B4C0081450A85EFF06FE0854513050020EF1015
:100B5C008047316537240140EF10403A13050440BB
:100B6C00EF001074B7070E003EC68A858547130543
:100B7C000440230AF10002C002C202C402C8EF0002
:100B8C009074854513050440EF00D078130504409C
:100B9C00EF005079930404402685EF0050796DFDE9
:100BAC001305044037240140EF00F078130404408F
:100BBC002285EF00F0786DFD61016FF00FCFEFF241
:100BCC002FCE37350000130585BEEF10F055794553
:100BDC00EF104069854537050010EF10A0403D45EA
:100BEC00EF10002F2945EF10802F0545EF10002D39
:100BFC007D5737040140232AE44013050020EF10F1
:100C0C00600BB7E700E03707200023A0E728370781
:100C1C00100023A0E728377700401C43F59B1CC32A
:100C2C00B7F700E003A707D11367470023A8E7D065
:100C3C0003A707D1118B6304070E9307800873B0C9
:100C4C0007300F10000083244440832704400327FF
:100C5C004440D98F2322F44037F400E0032704D119
:100C6C00832704D14D451377070293E78702232886
:100C7C00F4D0832704D193F7F7FDD98F2328F4D030
:100C8C00832704D193E787002328F4D097F0FF1F24
:100C9C00E7808036832704D14D4593E787002328CE
:100CAC00F4D097F0FF1FE7802035832704D1918B78
:100CBC00C9C7B707014023A297409307800873A0C8
:100CCC00073037F700E0832707D10145ED9B232838
:100CDC00F7D0EF10A01E13050020EF00B07DB7E792
:100CEC0000E03707200023A0E728EF00904CB7075F
:100CFC0001407D573735000023AAE740130545C056
:100D0C00EF1090420565854513055523EF10A02B78
:100D1C0015391D351545EF10E0546FF00FB903A7C9
:100D2C0007D11367070123A8E7D09307800873B096
:100D3C0007300F100000814405B7832704D1BD9BF9
:100D4C002328F4D09DBFEFF2AFB5372401407111C9
:100D5C00AA859D460546AA8413050440EF00506001
:100D6C00130504408545EF00305EB1679387073566
:100D7C003EC01304044089452285EF00906A09E5C2
:100D8C008247FD173EC0E5FB824781EF37350000F7
:100D9C00A6851305C5C2EF10F036014511016FF0A1
:100DAC00CFB03725014013050540EF001067FDB7A4
:100DBC00EFF20FAF7111A14401442145FD146137CD
:100DCC0093F4F40F2A94F5F8935534009397050196
:100DDC001387C180C1833AC091E7BA87A83B110140
:100DEC006FF0AFACC20537C51200C181130505B554
:100DFC00EFF04FAE05679306B7C1AA841304400603
:100E0C0063E4A602930677BB63F0A606120555773A
:100E1C0013078703058D930540063A95EFF08FABCA
:100E2C00130555051374F50F3736000037350000E0
:100E3C00A286130646F2A685130545F3EF10902CF7
:100E4C008247DC2B81C78247BC3BE1EB82470247E0
:100E5C0037350000A0BB85475CABA285130545F573
:100E6C00EF10502A82479DBF930637B563F1A60257
:100E7C00131725002A9749750A07130505D79305FB
:100E8C0040063A95EFF00FA51305150461BF9306C4
:100E9C00F7AE63F2A602131715002A970E072A97CE
:100EAC003D75130505E9930540063A95EFF08FA2C1
:100EBC001305850285BF9306D7AB63F0A602131703
:100ECC0025002A974D750A07130585929305200373
:100EDC003A95EFF02FA05105B1B79306B7A863FE72
:100EEC00A600120559771307C71C058D930520031F
:100EFC003A95EFF02F9E150535B7130797A50144CA
:100F0C00E374A7F20A05757726951307E7C39305D3
:100F1C0020033A95EFF00F9C31B713874701635AC2
:100F2C008700824737350000A285A0BB130585F6E4
:100F3C0005BF139517003E9509052A9409809375F2
:100F4C00F40F63F7B7001D8C154763438700BE850C
:100F5C00824737350000130585F9ACBB11B7B707CD
:100F6C00002003A5C7039317D500A98F13D517012C
:100F7C00A98F139557003D8D4205418111E105451F
:100F8C00828001478147FD156344B7003E8582800E
:100F9C00B306E5009422B58FA146139387011396EF
:100FAC001700135383419377F60F6356030093474F
:100FBC00760093F7F70FFD1693F6F60FF9FE05077B
:100FCC001377F70FD1B7EFF2AF8D1971EFF04FB474
:100FDC0013054006EF1000295937AA852A843735A6
:100FEC00000013058501EF10F011694681451305CA
:100FFC006102EFF08F95B75701209387A75A3ED027
:10100C0023128102EFF07FB0AA852303A1023735AA
:10101C00000013050503EF10F00E593BAA85A3033E
:10102C00A1023735000013050505EF10B00DC147BF
:10103C009305000208102304F102A137A30FA102AB
:10104C003735000013050506EF10D00B81443737F8
:10105C0000001C10A6978C23130507078504EF10BE
:10106C00700AA14737370000E395F4FE8345F1037E
:10107C003735000013058507EF10D0083735000011
:10108C00930600321306B004854513054508EF108E
:10109C007007B70700201387C70318439387C7034C
:1010AC003EC4BD67938707A63AC602C23ECAA24792
:1010BC0032479C43998F52476376F70637350000C9
:1010CC0085451305C50AEF10F00302C03715014022
:1010DC00914513050540EF00B055EFF0AF9E8247E8
:1010EC00638F071C1544B7140140914513850440C8
:1010FC00EF00505413054006EF10C01691451385B0
:10110C000440EF00F052130540067D14EF108015DB
:10111C0079F8373500001305051FEF10F000096151
:10112C006FE0BFF89247371501409145858B130549
:10113C0005408DEBEF001050EFF0AF9993050002D6
:10114C000810EFF04FBAEFF0AF99A2479C433EC89E
:10115C00A24742479C43998F1307F0316377F700FE
:10116C0002C065A0EF00D04CC1BFEFF0AFC42AC0E5
:10117C0063030514930500028800EFF08FC48346C7
:10118C0021040346110483450104B737000013857D
:10119C00470DEF102077034701049307A00A631251
:1011AC00F7080347110493075005631CF706034720
:1011BC0021049D476317F706834451048347410478
:1011CC000343B104A20403476104DD8C37350000EE
:1011DC009A862286A6851305450F1ACCEF108072CD
:1011EC006243631094048547631DF3029387C182A5
:1011FC0082A323816700EFF0AFE7834561043735A5
:10120C0000001305C512EF10E06F924785073EC230
:10121C0012479307B004E30BF7EA8247E38907E828
:10122C0075B581479306000298103306F7009800B5
:10123C003E97182385071347F7FF18A2E396D7FEAE
:10124C00034701069307A00A6317F7060347110625
:10125C00930750056311F706034721069D47631C4E
:10126C00F70483475106034741060343B106834401
:10127C006106A207D98F373500009A86BE8526876E
:10128C002286130505171ACE3ECCEF10A067E24755
:10129C0072436312F4028547631FF3009387C18284
:1012AC0082A323816700EFF0AFDC37350000A68501
:1012BC001305851A89BF0545EF00D07A51BD938778
:1012CC00C18223900700238107000D44EFF04FDA11
:1012DC00B7140140914513850440EF00B035130558
:1012EC00401FEF003078914513850440EF005034D7
:1012FC001305401F7D14EF00F07679F837350000A8
:10130C009305B00413050520EF10C05F09BDEFE293
:10131C003FD99387C18023A0070023820700B7071A
:10132C00002013878703130181FD93878703230014
:10133C0007003EC061C189476312F50C37350000C8
:10134C00130545C4EF10405E9387C182B8238547CF
:10135C001384C1809384C182631FF7049E20A1CFA4
:10136C00373500001305C5C5EF10005C6946814593
:10137C001305E100EFE07FDDB75706209387A75AEE
:10138C003EC49E209305000228007C86EFF07FBFB0
:10139C00A303A102EFE0FFF3D1479305000228005D
:1013AC003EC2EFF04F947945EF00D06B9247FD179A
:1013BC00EDF7EFE03FF12390040023810400EFF000
:1013CC002FCBC167FD175CC49307F00F1CC8238497
:1013DC00018282472320040023020400231304000B
:1013EC0023240400232A0400230C04002380070078
:1013FC00EFF07FBD130181026FE03FCB373500006A
:10140C001305C5C7EF10405213054006EF00906559
:10141C0037F700E0832707D1B7060080D58F232844
:10142C00F7D0C9BFEFE2DFC7B70700201387C703A8
:10143C00184379719387C7032AC22EC43284B684A9
:10144C003AC03EC6B24702479C43998F124763FD90
:10145C00E708A247B1CFEFF0EF9539C99305000229
:10146C000808EFF00F96A6850808EFF02F9F01CD26
:10147C0037350000A28513050522EF10A04805455D
:10148C0045616FE09FC21C08141898238507134709
:10149C00F7FFA38FE7FEE39AD7FEA6850808EFF0C7
:1014AC00EF9B19C537350000A28513054523F1B70D
:1014BC00EFF00F9937070020930787039C2313073E
:1014CC00870393F7F70F89E783A7C18091E309C9D5
:1014DC0023000700EFF00F9D01C5153D0D454DB7DD
:1014EC000545EF003058B9BF014559BFEFE25FBB6E
:1014FC005D71C121EF00D053716513050520EF001C
:10150C00105A373500001305C5C9EF10E041B70775
:10151C00002083A5C70037350000130545CBEF101D
:10152C00603EEFF00FBBEFF0EFC1EFF0EFE0EFF04C
:10153C000F9F05643735000093058438130585CC5F
:10154C00EF10403C13058438EF00D05137350000C4
:10155C00130505CEEF10403D9307800873A00730AC
:10156C0037350000130545CEEF10003CEFE05FDA95
:10157C00EFE05FD5EFF08FAD1387C18234239387F3
:10158C00C18205473EC86390E60C8E2337350000B8
:10159C00130545CFEF1000378D44371401409145AA
:1015AC0013050440EF0010091305401FEF00904B8A
:1015BC00914513050440EF00B0071305401FFD14BF
:1015CC00EF00504AF9F8914513050440EF0050061E
:1015DC0037350000130585D3EF100035416793872D
:1015EC00C1807D17D8C71307F00F98CB23A0070035
:1015FC00238207002393070023A4070023AA0700D4
:10160C00238C070023840182B707002013878703EC
:10161C0093878703230007009384C1803ECCEFF0AF
:10162C002F82E2472A849C2393F7F70F81E79C4093
:10163C0091E315C5E24723800700EFF0AF8619C987
:10164C00EFF0FFCCE9BF37350000130505D1EF10E3
:10165C00A02D99B709C42945EF00D040C9B7C2479E
:10166C00A0238547631AF42EEFF02FCABC28AA8555
:10167C0089EFE8B488A837350000A3880400A0A837
:10168C00130545D5EF10002839A0FC34639CA70244
:10169C00A38804009CA8DC24E0343EC632479307A0
:1016AC00F00F6316F706C0B4EFF08FF0AA85A8B858
:1016BC00373500001305C5DDEF10C0242945EF00B8
:1016CC00703ABDA09C28631AF5029038373500009B
:1016DC00894605061376F60F130505D790B8EF105B
:1016EC0060229C38E379F4FA8C2837350000A38803
:1016FC000400ECB4130585D971B788A83735000000
:10170C000946130545DB80B8EF10C01F69B7B24717
:10171C00FA20638E8714DC3463878724C0B4238754
:10172C00040091679387F783E3E0E7F8BC38ADDFFB
:10173C00614681452818EFE05FA1B75702209387D7
:10174C00A75A3ED8C247230B810265479E23231A12
:10175C00F102BC38A30BF1026365F7000547230CBB
:10176C00E10283C28180902CF828A30C51029306CD
:10177C00F00F11C2BA869044230DD102F4389305B0
:10178C00000208183AD616D43ED2A30DD10236D098
:10179C0032DE32CEEFF0EFFEEC24A307A10472464A
:1017AC00850593F7F50FB2453ECA82569257A25261
:1017BC0032576399850EB7350000938585C93AC0B9
:1017CC0052473735000036C216C4A286130585DF92
:1017DC00EF104013814713F7F70F3AC63ECEEFE0F8
:1017EC005FAF930500020818EFE0FFCFF2478C447F
:1017FC003E86B7370000138587E3EF10A010EFE0AB
:10180C003FAE94443246854513050019EFF09FC155
:10181C000547F2476316E50A139527003E959D454B
:10182C001205EFE03F8B1375F50F9306400611CDB3
:10183C001307C0063305A740AA871375F50F63F489
:10184C00A6009307400693F6F70F982C8547FCB833
:10185C0039EFF4A89CACEFE0FFA69C44C0A4C0B444
:10186C008507238704009CC42393040011A8B24766
:10187C0023870400DCB491679387F783E3E6E7E200
:10188C00B73700001385C7EEEF10000A373500009C
:10189C001305C5EFEF104009EFF06FB2FE2085077E
:1018AC00FEA0B5BBB7350000938545C909BFF82824
:1018BC0093171700BA978907B6978983FCA861BF5D
:1018CC008D466315D500EFE0FF9F91BB942CF8B8C3
:1018DC00A5EEA946F4A898AC1D476385E702370727
:1018EC0000200325C703944432463E957D89130599
:1018FC006509814506053ECEEFF0DFB20D47F24794
:10190C00E303E5FC85072147E397E7ECEFE09F9BBA
:10191C00D245373500002146130505E5EF00907ED2
:10192C00FC2498448507050793F7F70F98C4FCA48B
:10193C000947E37BF7F237350000A285130545E82C
:10194C00C0A4EF00307C0DB7F4281397160036971F
:10195C0031070983F8A849B737350000130545EC62
:10196C00EF00907C31BFF4248947E3EBD7F055BBF3
:10197C00B71702409843B706FFF81367170098C3D0
:10198C00D843758FD8C39843B706F7FEFD16758FED
:10199C0098C39843B706FCFFFD16758F98C3D843C0
:1019AC00B70640FFFD16758FD8C337079F0098C741
:1019BC008280B7160240D842B70700201146318BFF
:1019CC009387C7006305C70021466308C7003737F4
:1019DC006E011307076098C38280D8429316F700F4
:1019EC00E3D706FE3777DC02130707C0EDB701A07B
:1019FC0097F1FF1F9381C1E3138181FC1305000A4A
:101A0C0097E5FF1F9385455F17E6FF1F1306865F5B
:101A1C0063FAC5008322050023A05500110591052A
:101A2C00E3EAC5FE172500001305458297E5FF1F65
:101A3C009385455D17E6FF1F1306865F63FAC500A5
:101A4C008322050023A0550011059105E3EAC5FE8C
:101A5C0017E5FF1F1305C55D938581836377B5007B
:101A6C00232005001105E36DB5FEB722000093821B
:101A7C000288739002308D427390428097E2FFFF90
:101A8C009382825793E2320073905230EFF05FEE04
:101A9C00970200009382C2A5739012347300203019
:101AAC00B727014093870740631EF500EFE24FDF35
:101ABC00854513050020B123814513050020912392
:101ACC006FE0AFDE82805C413707F1FF1307F7EF61
:101ADC007D8FDC419441A207D58FD98F5CC11C4509
:101AEC0037F7F1FF1307D77FD4457D8F9C49D58FEE
:101AFC0094458606D58FD98F1CC55C55370710FFCA
:101B0C007D177D8FDC29FD1793F7F70FD207D98F3F
:101B1C005CD582801C4589C593E717001CC5828063
:101B2C00F99BEDBF1C4593E787001CC582800845D7
:101B3C000D81058982801C4593E747001CC5828076
:101B4C0008450981058982801C4591C537075000DD
:101B5C00D98F1CC582803707B0FF7D17F98FD5BF91
:101B6C00A54763F8B704138765FF93171700832203
:101B7C00C500BA971D433313F3001343F3FF3373BC
:101B8C005300B397F600B3E767005CC5994763E36E
:101B9C00C7047D16931726003E965859FD47B397F8
:101BAC00C70093C7F7FFF98FB395C500DD8D4CD9EE
:101BBC0082809397150003230501AE971D473317B9
:101BCC00F7001347F7FF33776700B397F6005D8F85
:101BDC0018C96DBFB14763E2C7026516931726009B
:101BEC003E961859FD47B397C70093C7F7FFF98F77
:101BFC00B395C500DD8D0CD982804D1613172600C8
:101C0C0054553A96FD47B397C70093C7F7FFF58F26
:101C1C00B395C500DD8D4CD5828068454205418168
:101C2C00828008416D8D3335A0008280584103239A
:101C3C0005004C4537060140930706403E979346F6
:101C4C00F3FFB1C583250640F58D2320B640D04364
:101C5C00F18ED4C31443B3E6660014C31841904705
:101C6C009346F7FF758E90C7D047F18ED4C71445B5
:101C7C0041466399C6009447D98E94C7D447558F73
:101C8C00D8C78280B6979443558F98C382801C43E3
:101C9C00F58F1CC38280B70701401387074083A7C9
:101CAC000740584B698F09C77D8D3335A000828062
:101CBC0001458280B707014023AAA7408280B7075D
:101CCC00674537270240938737125CC3B797EFCD30
:101CDC009387B79A5CC38280372702401C4B93E7EB
:101CEC0007081CCB8280372702405C470545858B53
:101CFC0091E748474189133515000D058280EFE2C5
:101D0C002FBA2A84CD3785476318F50019E015459D
:101D1C0029A0D13F7D14C5BF7DD86FE00FB9EFE28C
:101D2C002FB8AA8437050B00D93F91476313F502EE
:101D3C00372402401C4837050B0093E727001CC8CA
:101D4C0044C81C4893E707041CC8553F1C48F59B26
:101D5C001CC86FE08FB5EFE2AFB46111AA840965BE
:101D6C002EC002C2693F11478245631DE50237242C
:101D7C0002401C48096593E717001CC8939705019E
:101D8C00C1839EA02EC0A53F114782456319E50073
:101D9C00890426C29247C18109658EA38D371C48E0
:101DAC00F99B1CC821016FE04FB0944593F70601D5
:101DBC0093F2F60081C7DC41B3E2F20083D3050055
:101DCC0093F7F30FA5C303230500611122C226C0AC
:101DDC008147130480029304800405473316F700EF
:101DEC0033F7C3006312E602939527003D47331780
:101DFC00B7001347F7FF33736700B395B20033E3B3
:101E0C006500639D860050C985072147E397E7FC71
:101E1C00124423206500824421018280E39696FEC1
:101E2C0010C9DDB7828008456D8D3335A0008280E6
:101E3C000CC982804CC98280370701401447860543
:101E4C008D47B397B70093C7F7FFF58F1CC71C4797
:101E5C00B315B500DD8D0CC7828083A60183854741
:101E6C0018216390F6021C31639CD7023C219A071F
:101E7C0093E707F8B7E600E093F7F70FBA962380DD
:101E8C00F6408546935757003397E600544189CE68
:101E9C00938707048A07B7E600E0B69798C3828059
:101EAC00EDF33C219A07F9B793870706B7E600E0F4
:101EBC008A07B69798C30F100000828037770040CE
:101ECC001C4709C593E727001CC78280F59BEDBF13
:101EDC00377700401C4BC19B5D8D08CB8280711104
:101EEC0002C0377700405C4793F707FC3EC082473F
:101EFC005D8D2AC082475CC711018280B7160240F3
:101F0C00DC4241771307F77FF98F5D8DC8C2828061
:101F1C00371702405C5309C593E717005CD38280E6
:101F2C00F99BEDBFEFE2CF97371702405C43914628
:101F3C002A84B18B6385D700A1466380D708B73755
:101F4C006E01938707601CC0B7160240DC42918378
:101F5C0013F7F700B707002093874702BA978C2333
:101F6C00DC42184093F5F50F93F707083355B7008B
:101F7C0081E73A85EFE00F9648C008C448C4B7170C
:101F8C000240DC438D46AD83FD8B13D737008A07A7
:101F9C00F18BD98F13F6370113F7370063F4C600B2
:101FAC00138747FFB707002093870701BA978C2345
:101FBC00EFE04F9208C86FE04F8F5C43B777DC02BD
:101FCC00938707C049B799C5371702401C4F5D8DE1
:101FDC0008CF8280B7170240984F1345F5FF798DD3
:101FEC0088CF828099C5371702405C4F5D8D48CFF2
:101FFC008280B7170240D84F1345F5FF798DC8CFB3
:10200C00828099C5371702405C475D8D48C7828036
:10201C00B7170240D8471345F5FF798DC8C78280A2
:10202C001357550085476319F700B71702409C43B7
:10203C0033D5A70005898280B7170240DC53CDBF8A
:10204C001A218D6793870704B6217D8F9E21D58F2A
:10205C00D621D58FF621D58F9625D58FB625D58F40
:10206C00D625D58FF625D58FD98F1EA19E291EA9D1
:10207C0082801E2189C593E707041EA18280C207B6
:10208C00C18393F7F7FBC207C183C5BF4EA58280FE
:10209C004A2582800A256D8D3335A00082801E2151
:1020AC0037370140130707C0C207C1836306E50039
:1020BC00370700406316E500BA2193F7F7F8D98F7C
:1020CC00FA2193F7F7CFC207C183D98F1EA1DE2166
:1020DC005EB59E211EB5B7370140938707C06314C8
:1020EC00F5009C251EB985475EA982801E2189C5F5
:1020FC0093E717001EA18280C207C183F99BC20718
:10210C00C183CDBF5E2501C6DD8D4EA5828093C5F2
:10211C00F5FFFD8DDDBF1E294A25ED8F420541815E
:10212C0089C76D8D3335A00082800145828093C5AF
:10213C00F5FFC205C1810EA98280EFD27FF6162968
:10214C00F577FD17F58FF621DA252111D58F1EA90C
:10215C005625FD779387379FF58FD6212A842EC07D
:10216C00D58F9625D58FB625D58F5EA55E29C2074E
:10217C00C18393F7F7CF5D8F5AA94800EFF09FDA30
:10218C00B74701409387078082456312F406C24724
:10219C005A24139517003E9542070E0541873E952C
:1021AC008C41635807048605EFD0DFF29305400697
:1021BC002AC0EFD03FF282479314450093054006A6
:1021CC003E85EFD0FFF35E24C207C18763D50702BB
:1021DC000E059305400613052503EFD0BFEF1D89AF
:1021EC00C98CC204C18006A461016FD01FECB24738
:1021FC0045B78A0555BF12059305400613052503FF
:10220C00EFD05FED3D89E9BF91C55E250967D98F98
:10221C005EA582805A25F977FD17F98FD5BF93F506
:10222C00F51F4EA182800A216D8D3335A00082806E
:10223C00EFD21FE7B707002003A5C700B7157A0038
:10224C0093850520EFD01FE91375F50F238BA18221
:10225C0093175500898F8A073E950E05239AA18204
:10226C006FD0BFE4EFD2DFE337F400E05C40AA8527
:10227C00F99B5CC003D54183EFD0DFE308C823246E
:10228C0004001C4093E717001CC0B7F700E0D843CC
:10229C00058B75DF9843799B98C36FD01FE1EFD204
:1022AC003FE02A8411651111854513050502EFF0F5
:1022BC009FD1930700027C80371501408D473EC2A9
:1022CC008A85E147130505403EC4EFF01FAE22C6D8
:1022DC0037440140B70708006C00130504803ECA60
:1022EC0002C8231C0100EFF05FE58545130504804F
:1022FC00EFF09FF171016FD05FDBEFD27FDA7111DC
:10230C00AE840144635FC402B74701401387078062
:10231C003A859305000432C0EFF0FFF0B747014057
:10232C001387078002466DD5338784008305070029
:10233C00138507800504C205C181EFF05FEE0246EC
:10234C00D1B7328511016FD05FD6411106C62EC0B0
:10235C000DCD1841AA8705C358417D5511CB854633
:10236C00631BD70098472300070023A207000545ED
:10237C00B240410182809847824614A398470507D2
:10238C0098C7D8437D17D8C3DDB705468A85EFF0CB
:10239C00DFF6F1BF011122CC2EC206CE26CA2A844A
:1023AC00814793050002634506029245BE958385DD
:1023BC0005008DE563D8C70263D4E702198E1305B7
:1023CC00000293F526002AC089C501E79305000396
:1023DC002EC0858A81449DEAB28415A08507F1B789
:1023EC001D8EF1BF0146E1BF824522853AC832C637
:1023FC003EC4EFF09FF5A24732464247FD14E34539
:10240C0090FEB284635306008144058E63C7E702D5
:10241C00A6879246338797403697830507009DED34
:10242C00B28463469004635306000146F240624452
:10243C00D2443305F600056182801D8FBA8793055F
:10244C000003228532C83EC63AC4EFF01FF0B247F3
:10245C0022474246FD17E5F7BA945DBF228532C686
:10246C003EC4EFF09FEEA247324685075DB782452A
:10247C00228532C43EC2EFF05FEDFD142246924736
:10248C004DB7397106DE22DC26DA3EC232833A863B
:10249C0091ED92469307000301476C08FC86EFF020
:1024AC007FEFF2506254D25421618280AA84368428
:1024BC00AE8791CA294701446317E30063D5050031
:1024CC00B307B04005448646A30901021307310344
:1024DC00938666FC36C49A853E8532CA3AC81AC6BB
:1024EC003EC0EFD0FFC1A546824732434247524619
:1024FC0063D4A600A2463695130505039306F7FF91
:10250C00A30FA7FE9A853E8532CC3ACA1AC83EC69E
:10251C0036C0EFD03FBCB24742435247624663FDE0
:10252C00670409CC29CE9247898BB1CB9305D00295
:10253C00268532C4EFF07FE122467D169247918BBF
:10254C0085C706479307100632C4930500032685FA
:10255C006311F704EFF07FDF930580072685EFF01A
:10256C00DFDE2246090479161647924682452685F7
:10257C00EFF05FE2229535B7AA870247A9BF8246E2
:10258C009307D0020144A38FF6FE9307E7FF3EC0EA
:10259C0075B7EFF09FDB93058005C9B701458280C5
:1025AC0001458280130181FD22D026CE06D22AC499
:1025BC00AE82328402C681448385020091EDA2472B
:1025CC0089C781453E85EFF05FD89250025426852D
:1025DC00F244130181028280930750026389F50053
:1025EC00224516C88504EFF05FD6C24205A083874A
:1025FC00120013871200639DB70022459305500209
:10260C003AC8EFF09FD442478504BA8285026DB771
:10261C00DDD79306B0026389D70463C8F60093062E
:10262C0030026386D704814705A09306D002638AE3
:10263C00D70093060003E398D7FE1387220089473F
:10264C0021A0138722008547830607001306B002DA
:10265C006383C6046341D60213063002638BC60241
:10266C00BA820145A54681A0138722006DBF13874E
:10267C0022009147D1BF1306D0026389C60013060E
:10268C000003E39FC6FC93E7270031A005078547AD
:10269C00C1BF93E747000507E1B713162500329534
:1026AC0006053A95850203860200130706FD93750D
:1026BC00F70FE3F4B6FE1307E0029946631EE6003B
:1026CC0085028146A54503860200130606FD137795
:1026DC00F60F63F5E50236C6038702001306A00663
:1026EC00630DC70A6343E6021306C0046307C70AF7
:1026FC0013068006630CC70881452DA81397260086
:10270C00BA968606B29685027DBF1306400763060D
:10271C00C7081306A0076302C7081306C006814545
:10272C00631AC700038612008D456314E600850208
:10273C0091458502038602009303000613071006D9
:10274C0063C4C300130710049303700663C4C30669
:10275C0093035006635676189303700463C1C30445
:10276C0093055004635EB61613073004E310E6EAD3
:10277C0018409303440016CA230CE1001EC8A30C96
:10278C0001000147BE862A862C0849A80386120040
:10279C008145E311E6FA890271BF8502B1BF930648
:1027AC003006E307D6FC63CFC606930680056303A9
:1027BC00D602A9BD930630076304D60463CBC602C8
:1027CC009306F0066305D60E9306000793E74700C1
:1027DC00E31ED6E291466392D50C930384000C4021
:1027EC00504016CA3AC23EC01EC8AA870147C1460D
:1027FC0081A893065007630BD6069306800745BF46
:10280C001840B7360000930344009385C62411C3C7
:10281C00BA85324716CA1EC8BE862A862245EFF0F4
:10282C007FB715A091466395D502930384000C40A5
:10283C00504016CA3AC23EC01EC8AA870547A946D0
:10284C002245EFF0BFD5C243AA941E84D2427DBB71
:10285C00B2460C4016C836C23AC011042A878546C7
:10286C0029462245EFF0FFC1AA9441B39146639DDE
:10287C00D500930384000C40504016CA3AC23EC0A7
:10288C001EC8AA87014765BFB2460C4016C836C29F
:10289C003AC011042A878146E1B7B24616C80C40EB
:1028AC00414636C23AC011042A8781465DBF914623
:1028BC00639ED500930384000C40504016CA3AC264
:1028CC003EC01EC8AA870147A1469DBFB2460C4018
:1028DC0016C836C23AC011042A878146214651B720
:1028EC000C401306840040403AC22A87224532C865
:1028FC003EC02286B687A94616CAEFF07FCAAA94B4
:10290C004244A9B71301C1FD2EC832CAAA851008CA
:10291C00014506C636CC3ACE3ED032C0EFF09FC849
:10292C00B240130141028280411122C426C206C664
:10293C001C21AA840144DC8183073100050499EF32
:10294C00A9479305310005460145DC81EFF0FF9A5C
:10295C002285B2402244924441018280054693056F
:10296C0031000145EFF07F99B38784009C23DC8113
:10297C00E1B700000D0A3D3D3D3D3D3D3D3D3D3D3A
:10298C003D3D3D3D3D3D3D3D3D3D3D3D3D3D3D3D6B
:10299C003D3D3D3D3D3D3D3D3D3D3D3D3D3D0D00C8
:1029AC005B4C4F52415D202D2D2D20535831323729
:1029BC0038204C6F526120496E697469616C697A78
:1029CC006174696F6E202D2D2D0D00005B4C4F52E4
:1029DC00415D20526573657474696E67206D6F6418
:1029EC00756C6520766961205044342E2E2E0D00B6
:1029FC005B4C4F52415D20526561642053696C6998
:102A0C00636F6E2056657273696F6E3A203078254D
:102A1C00303258202845787065637465643A2030EC
:102A2C00783132290D0A00005B4C4F52415D203F3A
:102A3C00204552524F523A20535831323738206E7B
:102A4C006F7420726573706F6E64696E67212043BA
:102A5C006865636B2053434B2F4D49534F2F4D4F9C
:102A6C0053492F4E53532077697265732E0D000016
:102A7C005B4C4F52415D204F704D6F646520616619
:102A8C0074657220696E69743A203078253032583A
:102A9C00202845787065637465642030783839294E
:102AAC000D0A00005B4C4F52415D203F20496E697E
:102ABC007420436F6D706C6574653A203433334DFC
:102ACC00487A207C20534637207C204257203132D4
:102ADC00356B487A207C20506F776572202B31370C
:102AEC0064426D2028536F66742D53746172742088
:102AFC003130307573290D003D3D3D3D3D3D3D3D33
:102B0C003D3D3D3D3D3D3D3D3D3D3D3D3D3D3D3DE9
:102B1C003D3D3D3D3D3D3D3D3D3D3D3D3D3D3D3DD9
:102B2C000D0000005B4C4F52412052585D203F205D
:102B3C005265636569766564202564204279746505
:102B4C00732066726F6D204649464F20284164649D
:102B5C00723A20307825303258290D0A00000000D6
:102B6C005B4C4F52412054585D203F205061636BA9
:102B7C0065742053656E7421202854696D653A2064
:102B8C002564206D732C204952513A203078253021
:102B9C003258290D0A0000005B4C4F52412054580A
:102BAC005D203F2054582054696D656F7574212049
:102BBC0046696E616C204F704D6F64653A203078B9
:102BCC00253032582C204952515F464C4147533ADC
:102BDC00203078253032580D0A0000005B505752D7
:102BEC005D20536C6565702028357320415755293D
:102BFC002E2E2E0D000000005B5057525D205761A9
:102C0C006B650D005B464C5D205361766564204915
:102C1C00443A30782530345820533A25640D0A0054
:102C2C005B4144435D2054494D454F5554206368E6
:102C3C002564210D0A0000005B5359535D20464169
:102C4C0043544F52592052455345540D0000000037
:102C5C0053656E64696E6720554E5041495220622F
:102C6C0065666F72652072657365740D00000000F7
:102C7C005B5359535D20436C69636B202D3E20528E
:102C8C00657365740D00000043484700484200001E
:102C9C000D0A3D3D3D2054414E4B20424F4F542098
:102CAC003D3D3D0D0000000043483332563030337B
:102CBC00204020256C75487A0D0A00005B5359534F
:102CCC005D205361666544656C61792025646D7384
:102CDC002E2E20004F4B0D00496E697420526164FA
:102CEC00696F2E2E2E0D00005B5359535D205061E1
:102CFC00697265642049443A3078253034580D0A9D
:102D0C00000000005B5359535D204E4F542050413E
:102D1C00495245442E20486F6C6420627574746F60
:102D2C006E20746F20706169720D00005B535953F3
:102D3C005D2049646C652028486F6C642062746E59
:102D4C003D70616972290D005B53595354454D5DBB
:102D5C0020496E6974204C6576656C3A2025642593
:102D6C00250D0A005B5359535D2043616E64696401
:102D7C00617465204C766C202564252520686F6C69
:102D8C0064202825642F2564290D0A005B535953B0
:102D9C005D204C766C20436F6E6669726D65643A8B
:102DAC0020256425250D0A005B5359535D204E6583
:102DBC00772043616E646964617465204C766C2085
:102DCC00256425252028312F2564290D0A000000B3
:102DDC005B4241545D2042617474657279206C656C
:102DEC0076656C3A20256425250D0A005B54585DE8
:102DFC00202573205365713A256C75204C3A256457
:102E0C002525202857616B653A25642F33292042EC
:102E1C003A2564252520513A2575252520523A2539
:102E2C007520463A25640D0A000000005B54585D7D
:102E3C00205365713A256C75207472793A25640DAE
:102E4C000A0000005B54585D204E4F2041434B203C
:102E5C006F6E2077616B6520617474656D70742082
:102E6C0025642F3320616674657220256420726599
:102E7C0074726965730D0A005B5359535D203320DE
:102E8C0077616B6520617474656D70747320646F09
:102E9C006E6520776974686F75742041434B2E20E2
:102EAC004C6576656C20256425252073746F7070D5
:102EBC0065642E0D0A0000005B5359535D204E6F64
:102ECC0074207061697265642E20486F6C64206296
:102EDC007574746F6E20746F20706169722E0D00A2
:102EEC005B5359535D20536C6565700D00000000F9
:102EFC002D2D2D2D2D2D2D2D2D2D0D005B5359539D
:102F0C0054454D5D20427574746F6E20507265731C
:102F1C007365640D00000000496E7465726E616C1F
:102F2C0056726566000000005B4241545D20256CC2
:102F3C00756D56202825732C205261773A2564250F
:102F4C0025290D0A000000005B4241545D20496EAA
:102F5C0069743A20256425250D0A00005B42415412
:102F6C005D204E65772042617474657279205265DC
:102F7C00706C61636564212048696768204A756DCF
:102F8C00703A20256425250D0A0000005B4241544F
:102F9C005D2046696C74657265643A20256425254C
:102FAC000D0A00005B50524F4245535D2052617731
:102FBC00206869747320286F7574206F66202564EF
:102FCC00293A205B323525255D3A2564205B353066
:102FDC0025255D3A2564205B373525255D3A25642A
:102FEC00205B31303025255D3A25640D0A00000048
:102FFC005B444154415D2054616E6B204C65766599
:10300C006C3A20256425250D0A0000000D0A5B5042
:10301C004149525D204E657749443A307825303429
:10302C00580D0A005B504149525D204C766C3A2594
:10303C00642052656164696E67206261742E2E2E65
:10304C000D0A00005B504149525D204261743A25E3
:10305C00640D0A005B504149525D20506B743A205C
:10306C000000000025303258200000004352433A43
:10307C00253032580D0A00005B504149525D204208
:10308C00636173742025646D696E2062757273744C
:10309C00733A25642061636B3A25646D730D0A00E5
:1030AC005B504149525D2054696D656F7574207297
:1030BC0065616368656420616674657220256420AF
:1030CC006D696E730D0A00005B504149525D2052D0
:1030DC00583A20533D253032582530325820543D33
:1030EC00253032580D0A00005B504149525D204E8C
:1030FC0053796E63205249443A3078253034582045
:10310C004D593A30782530345820537461747573A6
:10311C003D256420536C6F743D25640D0A0000003E
:10312C005B504149525D20F09F8E89204D415443A4
:10313C004845442120506169726564207769746840
:10314C0020536C6F742025642C2053746F7070693D
:10315C006E672050616972696E67204C6F6F702EBC
:10316C000D0A00005B504149525D20496E7653793F
:10317C006E63205249443A307825303458204D59EA
:10318C003A307825303458205374617475733D256A
:10319C006420536C6F743D25640D0A005B504149EB
:1031AC00525D20F09F8E89204D4154434845442860
:1031BC00496E7629212050616972656420776974A3
:1031CC006820536C6F742025642C2053746F7070BE
:1031DC00696E672050616972696E67204C6F6F7001
:1031EC002E0D0A005B504149525D20444F4E450D57
:1031FC00000000005B504149525D204641494C2083
:10320C0061667465722025642074726965730D0A99
:10321C00000000005B41434B5D204F4B20747279E2
:10322C003A25640D0A0000005B41434B5D204F4B77
:10323C0028696E7629207472793A25640D0A00008B
:08324C00286E756C6C2900006E
:10325400006CDC020204060804080C100810182094
:103264001020304020406080010203040506070856
:0C3274000102030405060708000000002A
:00000001FF
