:100000006F00500B00000000B2080000B2080000B2
:1000100000000000000000000000000000000000E0
:1000200000000000000000000000000000000000D0
:10003000B208000000000000B2080000000000004C
:10004000B2080000B2080000B2080000B2080000C8
:10005000B2080000B2080000B2080000B2080000B8
:10006000B2080000B2080000B2080000B2080000A8
:10007000B2080000B2080000B2080000B208000098
:10008000B2080000B2080000B2080000B208000088
:10009000B2080000B2080000F201000000000000F9
:1000A000511126C022C206C4828282441244A24058
:1000B000310182802A86014593F6150091C232955E
:1000C00085810606F5F9828000000000634E050276
:1000D00063C305042E86AA857D5515C285466378BF
:1000E000B6006356C00006068606E36CB6FE014500
:1000F00063E4C500918D558D85820582F5FA828075
:100100008682C93F2E8582823305A04063D70500D1
:10011000B305B040C1B7B305B0408682653F330533
:10012000A0408282868263C70500634905005D376F
:100130002E858282B305B040E35B05FE3305A04007
:10014000513F3305B040828200003D432A876373EC
:10015000C3029377F700BDEFADE5937606FF3D8AC6
:10016000BA960CC34CC30CC74CC74107E36BD7FE10
:1001700011E28280B306C3408A0697020000969679
:100180006780A6002307B700A306B7002306B700C1
:10019000A305B7002305B700A304B7002304B700E5
:1001A000A303B7002303B700A302B7002302B700DD
:1001B000A301B7002301B700A300B7002300B700D5
:1001C000828093F5F50F93968500D58D9396050162
:1001D000D58D61B793962700970200009696868288
:1001E000E78086FA9680C1171D8F3E96E374C3F8A8
:1001F000A5B7854537050040EF00102109CDB707A9
:1002000000209387870298438545370500400507FE
:1002100098C3EF00F02073002030EFF27FE8311137
:100220008545054502C402C62318010002C002C26A
:10023000EF00500EB707002003A5070089659385DE
:100240000571493D7D15A54768842C0037050040A0
:100250003EC623150100EF00B0130546854537055E
:100260000040EF005019930760027C8085475C8155
:100270000A8585473EC2EF00C077854537050040B7
:10028000EF00F015510115B5EFF29FE151118545D1
:10029000130540023714014002C002C202C4EF003D
:1002A000900593070004930480048A851305044095
:1002B0007C8026C4EF00006B91477C80C1473EC420
:1002C0008A858D47130504403EC2EF00A0691305DF
:1002D00004409145EF00A07185454145EF00B00114
:1002E000DD478A85371501407C8026C4EF00806792
:1002F000310165BBB707002003A587029317D5001E
:10030000A98F13D51701A98F139557003D8D42056D
:10031000418111E105458280EFF29FD80111370438
:100320000020C93F1304C402AA850AA037150000A3
:1003300013058556EF1020090E2037150000130510
:10034000C558EF1040086946814513056100F53B2B
:10035000B75701209387A75A3EC01E2037150000CB
:100360001305C55A13978700A183D98F7C82EF109C
:10037000A0073521056513054543E52E01443715D2
:10038000014093771400914513050540A9EFEF0054
:10039000C0652285A9457933AA84050401E9B71708
:1003A0000000A2851385C75EEF10E00193050002EF
:1003B0000A85FD2E05CD99E437150000130505606B
:1003C000EF10800213052003EF00D0189307401FA1
:1003D000E317F4FA37150140914513050540EF0086
:1003E00000610561D9B1EF00806065B7E1FC3715A8
:1003F000000013054560E9B7EFF29FCA1301C1FD84
:100400009D29EF00F011716513050520EF003018EC
:100410003715000013058543EF00107DB707002056
:1004200083A507003715000013058545EF00B07957
:10043000ED33993D9307800873A00730371500000E
:1004400013058547EF00507AC12A3715000037049D
:10045000002013058549EF001077930484029C4027
:100460001305803E130484023EC0EF00B00E8247A5
:100470008C40371500001305454C9D8DB714014085
:10048000EF007074914513850440852313054006E1
:10049000EF00500C914513850440912B1305400645
:1004A000EF00500B9145138504408123130540064E
:1004B000EF00500A138504409145152B37150000B5
:1004C0001305454EEF005072814402C037150140BC
:1004D0009305000413050540212355E591E00440F0
:1004E00082478DE318408567938787BB058F63FB41
:1004F000E700B71700001385C751EF00F06E293DE4
:1005000085473EC09387818098431440998E096740
:10051000130707716375D706614681456800353159
:10052000375703201307A75A3AC23707002003574B
:10053000C7029145931687002183558F78841567EC
:100540001307275378853717014013050740712992
:10055000B924930500024800A12C37170140130568
:100560000740914569211840371500009387818025
:10057000930520031305455498C3EF00D0645145FB
:10058000EF00407DA1B702C08144ADBFEFF25FB183
:100590002A84894537350140FD2365DDA28537353D
:1005A0000140F12B854537350140F12B65DD3735AD
:1005B0000140C12B1375F50FCDBCEFF27FAE2E8439
:1005C000AA84A145371501401D2113E504027D3F92
:1005D00022856D3FA145371501400129F9B4EFF29D
:1005E0003FAC7111AA842E8437150140A14532C059
:1005F000FD2E13E50402593F0246B304C4006318FC
:100600009400A14537150140CD26110179BC0504A0
:100610000345F4FFA53FE5B7EFF29FA8056501117B
:1006200085451305050302C002C202C402C602C802
:1006300002CA02CC231E01007D29930700067C809C
:10064000E1448D478A853715014026C43EC2192EE4
:10065000930700087C808A859147371501403EC486
:100660001126A14741448A85371501407C8022C468
:10067000D52CA145371501408D2E608022C437143A
:1006800001408A8513050440F12C13050440C1453F
:10069000B92EB70704013EC6B70700023ECA6C0078
:1006A0009D4737350140FC8626CC02C85921854537
:1006B0003735014045293715000013050561EF0066
:1006C000B052130560097925371500001305C5647C
:1006D000EF00905189450145CD35371500001305D0
:1006E0000567EF00705081450545C13D3715000095
:1006F00013054569EF00504F85450D457D3D371584
:1007000000001305856BEF00304E814511457535AE
:10071000371500001305C56DEF00104D9305300629
:100720001545613D3715000013050570EF00D04BEE
:1007300093056002194551353715000013054572C0
:10074000EF00904A930500024545853D37150000AE
:1007500013058574EF005049930500071D45B13D11
:10076000371500001305C576EF00104805616FF0DE
:10077000DF93EFF2FF92342110310C212A843715D8
:10078000000013050579EF001044A2850D46414590
:10079000B9350D46A285294599356FF01F91EFF2C5
:1007A0003F9089450145113D15456D236FF0FF8F41
:1007B000EFF21F8F71112A84AE8437150140A145D5
:1007C0003D241305100ED933A14537150140312CB6
:1007D000A14537150140212C1305000A453B8147EF
:1007E00013F7F70F0145637597003307F4000823EB
:1007F0003EC0693B8247130700028507E392E7FE8C
:10080000A14537150140D52237140140C1451305D4
:100810000440E12A05453D2BC14513050440C12A8A
:1008200009450D2B930500031D45413B054511016D
:100830006FF0BF87B71702409843B706FFF81367FA
:10084000170098C3D843758FD8C39843B706F7FEEF
:10085000FD16758F98C39843B706FCFFFD16758F7C
:1008600098C3D843B70640FFFD16758FD8C3370726
:100870009F0098C78280B7160240D842B707002071
:100880001146318B938707006305C7002146630833
:10089000C70037376E011307076098C38280D842BC
:1008A0009316F700E3D706FE3777DC02130707C07D
:1008B000EDB701A097010020938141F7138181FDDD
:1008C0001305000A97F5FF1F9385C57317F6FF1FE1
:1008D0001306467363FAC5008322050023A0550062
:1008E00011059105E3EAC5FE17150000130585EE15
:1008F00097F5FF1F9385057117F6FF1F1306067303
:1009000063FAC5008322050023A055001105910557
:10091000E3EAC5FE17F5FF1F130545719385418175
:100920006377B500232005001105E36DB5FEB722FE
:10093000000093820288739002308D42739042804F
:1009400097F2FFFF9382026C93E232007390523071
:10095000EFF05FEE97020000938242AA7390123488
:1009600073002030944593F7060193F2F60081C797
:10097000DC41B3E2F20083D3050093F7F30FA5C384
:1009800003230500611122C226C08147130480029F
:100990009304800405473316F70033F7C30063124E
:1009A000E602939527003D473317B7001347F7FF3B
:1009B00033736700B395B20033E36500639D86002F
:1009C00050C985072147E397E7FC124423206500BF
:1009D000824421018280E39696FE10C9DDB78280B1
:1009E00008456D8D3335A00082800CC982804CC9CA
:1009F000828083A6C180854718216390F6021C314E
:100A0000639CD7023C219A0793E707F8B7E600E01A
:100A100093F7F70FBA962380F64085469357570011
:100A20003397E600544189CE938707048A07B7E6D7
:100A300000E0B69798C38280EDF33C219A07F9B79E
:100A400093870706B7E600E08A07B69798C30F10AA
:100A500000008280EFF2CFE4371702405C439146FA
:100A60002A84B18B6385D700A1466380D708B73746
:100A70006E01938707601CC0B7160240DC42918369
:100A800013F7F700B707002093878701BA978C23E5
:100A9000DC42184093F5F50F93F707083355B7007C
:100AA00081E73A85EFF00FE348C008C448C4B717A0
:100AB0000240DC438D46AD83FD8B13D737008A0798
:100AC000F18BD98F13F6370113F7370063F4C600A3
:100AD000138747FFB707002093874700BA978C23F7
:100AE000EFF04FDF08C86FF04FDC5C43B777DC02F4
:100AF000938707C049B799C5371702401C4F5D8DD2
:100B000008CF8280B7170240984F1345F5FF798DC3
:100B100088CF828099C5371702405C4F5D8D48CFE2
:100B20008280B7170240D84F1345F5FF798DC8CFA3
:100B300082801A218D6793870704B6217D8F9E21BD
:100B4000D58FD621D58FF621D58F9625D58FB62571
:100B5000D58FD625D58FF625D58FD98F1EA19E2965
:100B60001EA982801E2189C593E707041EA18280E9
:100B7000C207C18393F7F7FBC207C183C5BF4EA568
:100B800082804A2582800A256D8D3335A0008280BF
:100B90001E2137370140130707C0C207C183630610
:100BA000E500370700406316E500BA2193F7F7F830
:100BB000D98FFA2193F7F7CFC207C183D98F1EA12E
:100BC000DE215EB59E211EB5B7370140938707C071
:100BD0006314F5009C251EB985475EA982801E21FD
:100BE00089C593E717001EA18280C207C183F99BC4
:100BF000C207C183CDBF5E2501C6DD8D4EA58280B3
:100C000093C5F5FFFD8DDDBF1E294A25ED8F4205F9
:100C1000418189C76D8D3335A00082800145828076
:100C200093C5F5FFC205C1810EA98280EFF24FC7BF
:100C30001629F577FD17F58FF621DA252111D58FC5
:100C40001EA95625FD779387379FF58FD6212A84D5
:100C50002EC0D58F9625D58FB625D58F5EA55E295A
:100C6000C207C18393F7F7CF5D8F5AA94800DD33E0
:100C7000B74701409387078082456312F406C24755
:100C80005A24139517003E9542070E0541873E955D
:100C90008C41635807048605EFF0CFC393054006E7
:100CA0002AC0EFF02FC382479314450093054006F6
:100CB0003E85EFF0EFC45E24C207C18763D507020B
:100CC0000E059305400613052503EFF0AFC01D89FF
:100CD000C98CC204C18006A461016FF00FBDB24788
:100CE00045B78A0555BF1205930540061305250330
:100CF000EFF04FBE3D89E9BF91C55E250967D98FE9
:100D00005EA582805A25F977FD17F98FD5BF93F537
:100D1000F51F4EA182800A216D8D3335A00082809F
:100D2000EFF20FB8B707002003A50700B7157A0048
:100D300093850520EFF00FBA1375F50F2389A18075
:100D400093175500898F8A073E950E052398A18039
:100D50006FF0AFB5EFF2CFB437F400E05C40AA8596
:100D6000F99B5CC003D50181EFF0CFB408C8232400
:100D700004001C4093E717001CC0B7F700E0D843FD
:100D8000058B75DF9843799B98C36FF00FB2EFF234
:100D90002FB12A8411651111854513050502A13B68
:100DA000930700027C80371501408D473EC28A853B
:100DB000E147130505403EC4753622C6374401405D
:100DC000B70708006C00130504803ECA02C8231C44
:100DD0000100A93D854513050480393F71016FF07D
:100DE000CFACEFF2EFAB7111AE840144635DC4028E
:100DF000B7470140138707803A859305000432C046
:100E0000193FB747014013870780024675D53387DE
:100E1000840083050700138507800504C205C1818E
:100E2000FD350246E1B7328511016FF00FA841117F
:100E300006C62EC00DCD1841AA8705C358417D5561
:100E400011CB8546631BD70098472300070023A2D8
:100E500007000545B240410182809847824614A3AD
:100E60009847050798C7D8437D17D8C3DDB705460F
:100E70008A85853FF9BF011122CC2EC206CE26CA33
:100E80002A84814793050002634506029245BE9578
:100E9000838505008DE563D8C70263D4E702198E08
:100EA0001305000293F526002AC089C501E79305C2
:100EB00000032EC0858A814495EAB2840DA085077F
:100EC000F1B71D8EF1BF0146E1BF824522853AC8C8
:100ED00032C63EC4A93FA24732464247FD14E3460C
:100EE00090FEB284635306008144058E63C7E70217
:100EF000A68792463387974036978305070095ED7E
:100F0000B28463449004635306000146F240624495
:100F1000D2443305F600056182801D8FBA879305A0
:100F20000003228532C83EC63AC41137B247224771
:100F30004246FD17EDF7BA9465BF228532C63EC41E
:100F4000FD35A247324685076DB78245228532C4FA
:100F50003EC2F13DFD142246924765B7397106DE67
:100F600022DC26DA3EC232833A8689ED9246930726
:100F7000000301476C08FC86FD3DF2506254D254D8
:100F800021618280AA843684AE8791CA29470144B0
:100F90006317E30063D50500B307B04005448646F8
:100FA000A309010213073103938666FC36C49A85B0
:100FB0003E8532CA3AC81AC63EC0EFF06F94A546C5
:100FC000824732434247524663D4A600A246369532
:100FD000130505039306F7FFA30FA7FE9A853E8529
:100FE00032CC3ACA1AC83EC636C0EFF0AF8EB2470E
:100FF00042435247624663F9670401CC29CA9247CB
:10100000898BB1C79305D002268532C40D3522469F
:101010007D169247918B95C306479307100632C4FD
:10102000930500032685631EF7021135930580079B
:101030002685F53B224609047916164792468245D5
:101040002685153D229515BFAA8702478DB7824692
:101050009307D0020144A38FF6FE9307E7FF3EC03B
:101060004DBFF13393058005E1B70145828001450D
:101070008280130181FD22D026CE06D22AC4AE8200
:10108000328402C681448385020089EDA24781C76C
:1010900081453E85693B925002542685F2441301F6
:1010A00081028280930750026388F500224516C8AA
:1010B0008504B53BC24239A883871200138712000A
:1010C000639CB7002245930550023AC88D334247CE
:1010D0008504BA82850245BFD5DB9306B0026389D9
:1010E000D70463C8F600930630026386D7048147AD
:1010F00005A09306D002638AD70093060003E39805
:10110000D7FE13872200894721A013872200854735
:10111000830607001306B0026383C6046341D60248
:1011200013063002638BC602BA820145A54681A030
:10113000138722006DBF138722009147D1BF13068A
:10114000D0026389C60013060003E39FC6FC93E741
:10115000270031A005078547C1BF93E74700050772
:10116000E1B713162500329506053A9585020386E8
:101170000200130706FD9375F70FE3F4B6FE13079D
:10118000E0029946631EE60085028146A545038676
:101190000200130606FD1377F60F63F5E50236C667
:1011A000038702001306A006630DC70A6343E60225
:1011B0001306C0046307C70A13068006630CC7083A
:1011C00081452DA813972600BA968606B296850209
:1011D0007DBF130640076306C7081306A007630216
:1011E000C7081306C0068145631AC70003861200AC
:1011F0008D456314E6008502914585020386020051
:10120000930300061307100663C4C30013071004FA
:101210009303700663C4C3069303500663547618A1
:101220009303700463C1C30493055004635CB61652
:1012300013073004E310E6EA18409303440016CA8B
:10124000230CE1001EC8A30C01000147BE862A86BC
:101250002C0849A8038612008145E311E6FA8902A9
:1012600071BF8502B1BF93063006E307D6FC63CF9A
:10127000C606930680056303D602A9BD9306300710
:101280006304D60463CBC6029306F0066303D60E4E
:101290009306000793E74700E31ED6E2914663906A
:1012A000D50C930384000C40504016CA3AC23EC08D
:1012B0001EC8AA870147C14681A893065007630943
:1012C000D6069306800745BF1840B7160000930363
:1012D00044009385867C11C3BA85324716CA1EC85E
:1012E000BE862A862245EFF01FB90DA09146639471
:1012F000D502930384000C40504016CA3AC23EC047
:101300001EC8AA870547A94622458533C243AA9429
:101310001E84D242C1B3B2460C4016C836C23AC08F
:1013200011042A878546294622450D39AA9459B3C6
:101330009146639DD500930384000C40504016CA2B
:101340003AC23EC01EC8AA87014775BFB2460C40CC
:1013500016C836C23AC011042A878146E9B7B24698
:1013600016C80C40414636C23AC011042A8781464D
:1013700065BF9146639ED500930384000C405040A6
:1013800016CA3AC23EC01EC8AA870147A146ADBFD1
:10139000B2460C4016C836C23AC011042A878146AC
:1013A000214659B70C401306840040403AC22A87B0
:1013B000224532C83EC02286B687A94616CA45399C
:1013C000AA944244B9B71301C1FD2EC832CAAA85F6
:1013D0001008014506C636CC3ACE3ED032C051394F
:1013E000B240130141028280411122C426C206C6C6
:1013F0001C21AA840144DC8183073100050499EF94
:10140000A9479305310005460145DC81EFF07F9D3A
:101410002285B240224492444101828005469305D0
:1014200031000145EFF0FF9BB38784009C23DC81F2
:10143000E1B70000E7E7E7000D0A0D0A3D3D3D205A
:1014400054414E4B2053454E534F5220424F4F5420
:10145000203D3D3D0D000000506C6174666F726D63
:101460003A204348333256303033204020256C75C3
:1014700020487A0D0A000000496E697469616C6940
:101480007A696E6720526164696F2048617264777F
:101490006172652E2E2E0D005B53595354454D5DE0
:1014A00020436C6F636B2056616C69646174696F73
:1014B0006E3A20313030306D732064656C61792E66
:1014C0002E2E000020444F4E452E204D696C6C6935
:1014D0007320446966663A20256C75206D730D0A89
:1014E000000000005B53595354454D5D20456E7418
:1014F0006572696E672049646C65204D6F64652E66
:101500002028486F6C6420627574746F6E20666F5B
:10151000722070616972696E67290D005B535953BF
:1015200054454D5D20557365722074726967676517
:10153000723A2050414952494E47204D4F44450D83
:10154000000000005B444154415D204C6576656CB1
:101550003A20256425252064697370617463686589
:10156000642E0D0A000000000D0A5B504149525DD7
:101570002054616E6B204944206368616E67656426
:101580003A203078253034580D0A00000D0A5B509F
:101590004149525D2054616E6B204944206368616B
:1015A0006E6765643A2025640D0A00000D0A5B50E1
:1015B0004149525D205374617274696E67204449D9
:1015C00053434F564552592042524F414341535481
:1015D000205B332D42595445205241575D2028430A
:1015E000683A3939292E2E2E0D0000005B504149F2
:1015F000525D205265712025642F3530303A20002D
:101600004F4B0D00526164696F20427573790D0074
:101610005B524144494F5D20436F6E666967757246
:10162000696E67204861726477617265202832357F
:10163000306B6270732C202D313264426D2C204E41
:101640004F2D41434B292E2E2E0D00005B53504948
:101650005D2057524954452052454720307830305C
:10166000202D3E2056414C20307830320D000000B5
:101670005B5350495D2057524954452052454720FD
:1016800030783031202D3E2056414C20307830309B
:101690000D0000005B5350495D20575249544520CE
:1016A0005245472030783033202D3E2056414C2083
:1016B000307830310D0000005B5350495D205752A7
:1016C000495445205245472030783034202D3E2063
:1016D00056414C20307830300D0000005B535049AB
:1016E0005D205752495445205245472030783035C7
:1016F000202D3E2056414C20307836330D0000001E
:101700005B5350495D20575249544520524547206C
:1017100030783036202D3E2056414C2030783236FD
:101720000D0000005B5350495D205752495445203D
:101730005245472030783131202D3E2056414C20F3
:10174000307832300D0000005B5350495D20575215
:10175000495445205245472030783037202D3E20CF
:1017600056414C20307837300D0000005B52414428
:10177000494F5D20486172647761726520526561EE
:1017800064792028534146452D524157292E0D009A
:101790005B524144494F5D20546172676574696EC4
:1017A0006720416464726573732028332D42797415
:1017B00065293A20253032582025303258202530EE
:1017C00032580D0A00000000286E756C6C2900006C
:1017D000006CDC020204060804080C100810182033
:1017E00010203040204060800102030405060708F5
:0817F0000102030405060708CD
:00000001FF
