:100000006F10D021000000001A1A00001A1A000018
:1000100000000000000000000000000000000000E0
:1000200000000000000000000000000000000000D0
:100030001A1A0000000000001A1A00000000000058
:100040001A1A00001A1A00001A1A00001A1A0000E0
:1000500058030000DA0200001A1A00001A1A000001
:100060001A1A00001A1A00001A1A00001A1A0000C0
:100070001A1A00001A1A00001A1A00001A1A0000B0
:100080001A1A00001A1A00001A1A00001A1A0000A0
:100090001A1A00001A1A0000FC03000000000000F9
:0C00A000730050107D157DFD8280000073
:1000AC00511126C022C206C4828282441244A2404C
:1000BC00310182802A86014593F6150091C2329552
:1000CC0085810606F5F9828000000000634E05026A
:1000DC0063C305042E86AA857D5515C285466378B3
:1000EC00B6006356C00006068606E36CB6FE0145F4
:1000FC0063E4C500918D558D85820582F5FA828069
:10010C008682C93F2E8582823305A04063D70500C5
:10011C00B305B040C1B7B305B0408682653F330527
:10012C00A0408282868263C70500634905005D3763
:10013C002E858282B305B040E35B05FE3305A040FB
:10014C00513F3305B040828200003D432A876373E0
:10015C00C3029377F700BDEFADE5937606FF3D8ABA
:10016C00BA960CC34CC30CC74CC74107E36BD7FE04
:10017C0011E28280B306C3408A069702000096966D
:10018C006780A6002307B700A306B7002306B700B5
:10019C00A305B7002305B700A304B7002304B700D9
:1001AC00A303B7002303B700A302B7002302B700D1
:1001BC00A301B7002301B700A300B7002300B700C9
:1001CC00828093F5F50F93968500D58D9396050156
:1001DC00D58D61B79396270097020000969686827C
:1001EC00E78086FA9680C1171D8F3E96E374C3F89C
:1001FC00A5B7EFF2FFEA371501409305000413058C
:10020C000540EF1090441384C18029E11C4081EF1C
:10021C00B707002083A7C70337350000130505BEB9
:10022C001CC0EF20A0725C2099C3014539A8B70708
:10023C00002003A7C7031C401D8F85679387873851
:10024C00E3F5E7FE85475CA00D4585B5184071DFE9
:10025C00B7070020542083A7C7032320040091EE86
:10026C00D517998F05671307C7376368F70003C560
:10027C0061823335A0000505C9BF2302040075B7A0
:10028C00EFF21FE23705001061118545EF10D057D2
:10029C000545EF10304A13051006EF10B05A65DD16
:1002AC003D45EF1030452145EF10B0450545EF10A9
:1002BC00304393075011231101007C8085475C81EA
:1002CC000A8585473EC2EF10903B2101F9BB7300B4
:1002DC002030EFF2FFDC211185450545EF10F05081
:1002EC008145094502C402C602C802CAEF10103784
:1002FC0085450945EF10903689450945EF101036B4
:10030C0091450945EF109035DD4705443EC4280062
:10031C00C1473EC822CA02C6EF10501399450D457D
:10032C00EF10D033930700043EC42800B1473EC8F9
:10033C00EF10D01193074011231101000A857C8026
:10034C00408122C2EF10B033610185B30545EF1037
:10035C00901605C505472380E18213050004EF10B4
:10036C00901511C5B70700200547238CE70213052C
:10037C007005EF103016730020300945EF10B013E4
:10038C0071F91145EF10301371F54145EF10B012B2
:10039C0071F1E1B7B747000803A707FC93874182C7
:1003AC0098C3C16642074183FD166316D70023909C
:1003BC000700238107008280EFF29FCEEF103012EE
:1003CC00B7440008138504FCEF10701713844182A6
:1003DC000C40138504FCEF10101AEF10F0113020B4
:1003EC000E20373500001305459CEF20E05375B9FE
:1003FC00854537050040EF10505409CDB707002054
:10040C009387C7039843854537050040050798C374
:10041C00EF10305473002030EFF29FC83111854536
:10042C00054502C402C62318010002C002C2EF1027
:10043C00B03DB707002003A5C700896593850571FA
:10044C0051397D15A54768842C00370500403EC600
:10045C0023150100EF10F046054685453705004091
:10046C00EF10904C930760027C8085475C810A8575
:10047C0085473EC2EF10B020854537050040EF1090
:10048C00304951011DB1EFF2BFC151118545130522
:10049C0040023714014002C002C202C4EF10F03413
:1004AC0093070004930480048A85130504407C8020
:1004BC0026C4EF10D01191477C80C1473EC48A8579
:1004CC008D47130504403EC2EF1070101305044015
:1004DC009145EF10301885454145EF101031DD473F
:1004EC008A85371501407C8026C4EF10500ED53319
:1004FC00310165BEEFF2DFBA61112AC285453715AD
:10050C000140EF10901489452A8437150140EF10F3
:10051C00D0139145AA8437150140EF1010132AC04F
:10052C00C14537150140EF105012024792460DE1BC
:10053C00B337E0008A0799C093E7270019C093E707
:10054C00170099C29CA209ED130540062101B1BE0A
:10055C0015E3B3379000860719C093E71700FDF237
:10056C001305B00465D713052003EDD0014579FCC4
:10057C006545E9BF8147E5F4B3378000CDB7EFF2AD
:10058C003FB2711113051100B5372A840945EF10DC
:10059C00B04F13052100B93FAA840945EF10D04E86
:1005AC0013053100813F1C81908013F7F40F5D8E91
:1005BC009C815D8E2384C18063E484001377F40FE7
:1005CC009377F40F6374940093F7F40F26942A94A2
:1005DC00AA866373A700BA86158C2A876373F50005
:1005EC003E87198C1374F40FB367860081CB3735B3
:1005FC000000A2851305C5C0EF2000332285110130
:10060C006DB4EFF2FFA9A53F9387C180FC37AA8593
:10061C001384C18081EF48B4930700103735000074
:10062C007EA4130585E3EF20203031A05C34639663
:10063C00A7002307040048348DBC7C24850793F75E
:10064C00F70F7CA4EDDB48B437350000230704001A
:10065C00130545E5C9BFEFF2BFA41301C1FD614607
:10066C0081456800DD3485451305402002C002C277
:10067C0002C4EF1090173165EF10900A3715014046
:10068C0089478A8513050580372401407C8002C484
:10069C00EF10E07313050440EF108042B7070E0013
:1006AC003ECC6C008547130504402300F10202C6C2
:1006BC0002C802CA02CEEF10004385451305044060
:1006CC00EF10404713050440EF10C047930404405B
:1006DC002685EF10C0476DFD1305044037240140FB
:1006EC00EF106047130404402285EF1060476DFD46
:1006FC00130141025DBAEFF2BF9A373500001305C2
:10070C00859AEF20A02413052003EF10F037FD5637
:10071C0037070140232AD740B77600409C42F59B0F
:10072C009CC2B7F700E083A607D193E6460023A846
:10073C00D7D083A607D1918A6388060E93078008C9
:10074C0073B007300F100000832447408327074005
:10075C0083264740D58F2322F74037F400E0032748
:10076C0004D1832704D14D451377070293E7870201
:10077C002328F4D0832704D193F7F7FDD98F2328AE
:10078C00F4D0832704D193E787002328F4D0970073
:10079C000020E7806086832704D14D4593E78700CE
:1007AC002328F4D097000020E7800085832704D10C
:1007BC00918BC9CBB707014023A2974093078008C0
:1007CC0073A0073037F700E0832707D137140140B7
:1007DC00ED9B2328F7D0EF10C01FB70701407D57C2
:1007EC003735000023AAE7401305859BEF20001640
:1007FC00914513050440EF10206613052003EF10FC
:10080C00B028130504409145EF10C06485451305CD
:10081C005023EF10807D85393D3D653C1305800CE0
:10082C00EF1090266FF07F8803A707D1136707019D
:10083C0023A8E7D09307800873B007300F1000008F
:10084C00814421BF832704D1BD9B2328F4D0BDB79D
:10085C00EFF21F85372401407111AA859D4605468C
:10086C00AA8413050440EF10A031130504408545FC
:10087C00EF10802FB167938707353EC013040440F7
:10088C0089452285EF10E03B09E58247FD173EC004
:10089C00E5FB824781EF37350000A6851305059EE1
:1008AC00EF208008014511016FF03F803725014092
:1008BC0013050540EF106038FDB7EFF26FFE7111B4
:1008CC0021448144214569377D14AA9465FC8D80AF
:1008DC0093970401C18389E7014511016FF0EFFC87
:1008EC00A147014405453EC0A53782472A94FD1710
:1008FC00F5FBC165FD150D806D8C131524002A9434
:10090C0013154400018DE58D1605EFF0AFFCAA859B
:10091C002A84373500001305C5BFEF20E00085673A
:10092C001387770613054006E36987FA938787BB1D
:10093C00E3F487FA93171400A2978E07A2973775E2
:10094C00FBFF8A07130505C29305004B3E95EFF09C
:10095C006FF81375F50F51B7B707002003A5C70340
:10096C009317D500A98F13D51701A98F139557008D
:10097C003D8D4205418111E105458280014781474A
:10098C00FD156344B7003E858280B306E5009422D2
:10099C00B58FA14613938701139617001353834108
:1009AC009377F60F635603009347760093F7F70F90
:1009BC00FD1693F6F60FF9FE05071377F70FD1B76F
:1009CC0018219307A00A631AF704EFF26FED1431A4
:1009DC00130750052A848147639EE60234210D4794
:1009EC00639AE602AE8493050002493F783C814746
:1009FC006312A7021A246E20543042074D8F4C20EC
:100A0C0003D64182A206CD8E6316D600B387E4408E
:100A1C0093B717003E856FF04FE981473E85828082
:100A2C00EFF20FE81301C1F8EF0070301305400628
:100A3C00EF1090051537AA852A8437350000130569
:100A4C0085C3EF10706E694681451305A101EFF067
:100A5C00CFEFB75701209387A75A3ECAE0840536DB
:100A6C00AA85230DA10037350000130505C5EF102D
:100A7C00B06BA135AA85A30DA10037350000130575
:100A8C0005C7EF10706AC147930500024808230E92
:100A9C00F100ED35A309A10237350000130505C897
:100AAC00EF1090688144373700005C08A6978C23C0
:100ABC00130507C98504EF103067A14737370000CD
:100ACC00E395F4FE8345310337350000130585C9E2
:100ADC00EF109065373500009306401F1306004B4E
:100AEC008545130545CAEF10306402C00245A9457F
:100AFC00EFF04FE39147914563CCA70637150140C2
:100B0C0013050540EF1040350245D145EFF08FE15C
:100B1C0009EDEF0010678245B7370000AA8613066F
:100B2C00004B1385C7CCEF103060EF00B03A0D6569
:100B3C001305459AEF005037930500024808EF0063
:100B4C001047EF00B05CEF00103CB7070020138794
:100B5C00C70318439387C7033EC43AC2A247124740
:100B6C009C43998F1307301F637BF7008144C9A8FE
:100B7C003715014013050540EF10C02D71B7EF007C
:100B8C00704DAA846309051E930500024818EF00F6
:100B9C00F04E834661030346510383454103B73747
:100BAC000000138587CEEF1030580347410393079D
:100BBC00A00A6313F7100347510393075005631DF5
:100BCC00F70E034761039D476318F70E9305000268
:100BDC0048186D338347910303478103AA86A20704
:100BEC00D98F034731052AC8373500002286BE85C8
:100BFC00130585D03EC6EF103053034731054243F1
:100C0C006316670AB2476313F40A0347F1033735D7
:100C1C0000001305C5D3BA853AC2EF10F050124745
:100C2C008547E315F7F49387418282A3B8A3EFF0CD
:100C3C00AFF837350000A285130505D5EF10D04E5F
:100C4C00824785073EC002479307004B6304F700B9
:100C5C00E38E04E837150140914513050540EF106C
:100C6C00601FEF00904F638C04101544B7140140C3
:100C7C00914513850440EF10201E13054006EF101C
:100C8C00A060914513850440EF10C01C130540066D
:100C9C007D14EF10605F79F837350000130585E09F
:100CAC00EF10D04A130141076FF02FC03735000009
:100CBC00130585D6EF109049814793060002D8089A
:100CCC003306F70058183E97182385071347F7FF8C
:100CDC0018A2E396D7FE034741059307A00A631CAD
:100CEC00F70803475105930750056316F7080347A8
:100CFC0061059D476311F70893050002C808BD39CB
:100D0C008347910503478105AA86A207D98F03471C
:100D1C0031072AC8373500002286BE85130505D851
:100D2C003EC6EF107040034731074243631F670212
:100D3C00B247631CF4020347F10537350000130575
:100D4C0085DBBA853AC2EF10303E12478547E31F68
:100D5C00F7E09387418282A3B8A3EFF0EFE5373534
:100D6C000000A285130505DDD1BD37350000130544
:100D7C00C5DEEF10B03D0545EF100051C5B39387AC
:100D8C00418223900700238107000D44EFF0CFE24E
:100D9C00B7140140914513850440EF10E00B130587
:100DAC00401FEF10604E914513850440EF10800AF0
:100DBC001305401F7D14EF10204D79F837350000D6
:100DCC009305004B130585E1EF101036E1BDEFF2F2
:100DDC002FAD370700209384C1809307870313013D
:100DEC0081FD1307870323A00400238204002380C2
:100DFC0007003AC055CD0D476310E50C37350000A0
:100E0C001305859FEF10903493874182B823854753
:100E1C001384C180938441826313F7069E20A5C37B
:100E2C0037350000130505A1EF1050326946814596
:100E3C001305E100EFF06FB1B75706209387A75A5F
:100E4C003EC49E209305000228007C86053EA30329
:100E5C00A102EF0030080D651305459AEF00D00490
:100E6C00D1479305000228003EC2EF00501479458B
:100E7C00EF1080419247FD17EDF7EF00102E2390F5
:100E8C00040023810400EFF02FD39307F00F5CC410
:100E9C0023800182824723200400230204002313B1
:100EAC0004002324040023180400238007008D3E33
:100EBC00130181026FF06F9F0547631CE502373504
:100ECC000000130505A3EF1070281307F00FD8C40A
:100EDC00B707002023A004002382040023930400FE
:100EEC0023A40400239804002380018293878703A2
:100EFC006DBF37350000130585A4EF1030251305A1
:100F0C004006EF10603837F700E0832707D1B706AB
:100F1C000080D58F2328F7D061BFEFF26F981301B3
:100F2C0081FC3EC8B70700203AC61387C703184395
:100F3C009387C7032AC22EC43284B6843AC03ECAF1
:100F4C00D24702479C43998F124763E4E70001455F
:100F5C0005A8A247B9CFEF00F00F21CD93050002F1
:100F6C002808EF00B011A6852808EFF07FA509CD61
:100F7C0037350000A2851305C5E6EF10F01A0545BC
:100F8C00130181036FF06F923C0834189823850786
:100F9C001347F7FFA38FE7FEE39AD7FEA685280831
:100FAC00EFF01FA219C537350000A285130505E81F
:100FBC00E9B7138701821C2393F7F70F9DC3230016
:100FCC000700EFF00FE4C247AA8588A3B247630A73
:100FDC00F50037350000130585E9EF10F0140945CD
:100FEC0045B7B70700201387870318239387870318
:100FFC001377F70F09CB23800700EFF08F9F05C500
:10100C00F9330D45B5BF03A7C18075F737150140FE
:10101C009305000413050540EF003063B70700206B
:10102C009387870369D90545EF10002611BFEFF2AE
:10103C002F873971EF00F019EF10C021716513057E
:10104C000520EF10002837350000130585A6EF109A
:10105C00F00FB707002083A5C70037350000130534
:10106C0005A8EF10700CEFF02FBBEFF0CFC1EFF035
:10107C008FDEEFF0EFA00564373500009305843860
:10108C00130545A9EF10500A13058438EF10C01F43
:10109C00373500001305C5AAEF10500B93078008D5
:1010AC0073A0073037350000130505ABEF10100A9D
:1010BC00BD29EF00900AEFF0EFAD13874182342386
:1010CC009387418205473EC06393E60C8E233735E8
:1010DC000000130505ACEF1030050D651305459A9E
:1010EC00E1238D4437140140914513050440EF0072
:1010FC00B0561305401FEF102019914513050440FD
:10110C00EF0050551305401FFD14EF10E017F9F8D0
:10111C00130504409145EF00F053373500001305DB
:10112C0045B0EF10B0029387C1801307F00FD8C7FA
:10113C0023A00700238207002393070023A40700A2
:10114C002398070023800182B707002013878703A9
:10115C0093878703230007001384C1803EC4A247F2
:10116C009C2393F7F70F9DCBA24723800700EFF04A
:10117C004F8869E1371501409305000413050540BC
:10118C00EF00B04C1DE52945EF100010C9BF3735F5
:10119C0000001305C5ADEF10607BA1B71C40E9F74B
:1011AC00371501409305000413050540EF00F04985
:1011BC0045DD8247B82385476315F728EFF06FC4E8
:1011CC007A204424A30FA1003AC21307F00FAA8778
:1011DC006385E40692461307F03B6360D70663957C
:1011EC00970812479307F03B63FFE7000C38BDCD1F
:1011FC00FD1593F5F50F0CB8B5C93735000013057F
:10120C00C5B3EF1060728247B8238547631EF700A1
:10121C00B7370000138547BCEF104073373500001B
:10122C00130545BDEF108072EFF0EFCC7E208507E3
:10123C007EA035B7EFF0BFB91DB73EC6EFF0EFE7B4
:10124C00AA8508A837350000130505B2EF10C06D4C
:10125C0013054006EF10400354241307F00FB24758
:10126C00E39FE6F6E38497F8A3080400814754242F
:10127C001307F00F8344F1016389E600639796002E
:10128C0012461307F03B6379C71C61468145281051
:10129C0036C6EFE09FEBB75702209387A75A3ED094
:1012AC0082471828230391029E23A303E102B2462E
:1012BC002312F102BD4763E5E70085472304F102E1
:1012CC0083C7818010449305000208103ACC36CABB
:1012DC00A304F1023EC832D632C6EFF02FEAD24652
:1012EC00A30FA1023246C247624763909606B735F8
:1012FC000000938545A637350000A686130505B575
:10130C00EF1080622D248144F1268D671385479A56
:10131C00612E0D439305000208101AC64929034794
:10132C00F10114449307F101268681452945F536D0
:10133C00894732436310F502EF0020621C44A30876
:10134C00040085071CC485471DB7B735000093857D
:10135C0005A655B78D476315F500EF00006001B584
:10136C007D13E31903FA89E80C4437350000014674
:10137C00130585B7EF10405BEF0040596926034712
:10138C00F10114449307F101268685451305C0121B
:10139C00EFF0BFB885476318F504EF00005C834796
:1013AC00F101A308040085445CA41C4485071CC4FB
:1013BC00854723130400E38807E437150140130520
:1013CC0005409145EF0050291305200399E01305C2
:1013DC00401FEF00706B3715014091451305054018
:1013EC00EF0050270DB58942E30855F40D43E30691
:1013FC0065F6B9476383F4020347F101144493077C
:10140C00F1012686814513054006EFF01FB1894294
:10141C00E30455F20D43E30265F4850493F4F40FF1
:10142C00BD47E393F4EEEF00405337350000BD4564
:10143C00130505B9EF10404F91471CB885478144FF
:10144C008DBF37350000130505BBEF102050130579
:10145C004006EF00706345BBE38707DA8147C5B7E9
:10146C00EFE21FC42A84894537350140EF00D04490
:10147C007DD9A28537350140EF009043854537353E
:10148C000140EF0070437DD937350140EF009042A9
:10149C001375F50F6FE07FC1EFE29FC02E84AA8415
:1014AC00A14537150140EF00301B13E504024D3FF9
:1014BC0022857D37A14537150140EF00B0196FE04B
:1014CC00DFBEEFE2FFBD7111AA842E8437150140F7
:1014DC00A14532C0EF00501813E504025137024603
:1014EC00B304C400631A9400A14537150140EF0002
:1014FC00701611016FE07FBB05040345F4FF8D37B7
:10150C00D5B7EFE2FFB9A1452A8437150140EF00AA
:10151C00B0142285B1371305F00F99372A84A145F1
:10152C0037150140EF00101322856FE01FB8EFE272
:10153C003FB70565130181FD85451305050302C4FD
:10154C0002C602C802CA02CC02CE02D02312010289
:10155C00EF00B029930700067C84E1448D472C00F2
:10156C003715014026C83EC6EF00700693070008E9
:10157C007C842C009147371501403EC8EF003005A4
:10158C00A14741442C00371501407C8422C8EF0050
:10159C001004A14537150140EF00D00B608422C820
:1015AC00371401402C0013050440EF0050021305C2
:1015BC000440C145EF00500AB70704013ECAB70703
:1015CC0000023ECE4C089D47373501402312F102F4
:1015DC0026D002CCEF001029854537350140EF00AD
:1015EC00902B37350000130545EDEF102036130511
:1015FC006009EF00704981450145793D2945EF00AF
:10160C00B048B9450145493D81450545713585458C
:10161C000945593585450D45413581451145AD3D4A
:10162C009305300615458D3D99451945B5359305FE
:10163C00000245459535930500071D45B13DA14573
:10164C0037150140EF0050011305100E113DA14557
:10165C0037150140EF001000A14537150140EF0090
:10166C00A07F1305200EED3BA14537150140EF007F
:10167C00607E014579352AC2154561352AC0194568
:10168C00493502469245AA8637350000130585EF89
:10169C00EF10802937350000130585F1EF10002B72
:1016AC00130181026FE07FA0EFE29F9F3421103184
:1016BC000C212A8437350000130545F4EF10C026A1
:1016CC00A2850D464145F53B0D46A2852945D53BE6
:1016DC006FE0BF9DEFE2DF9C37150140C14513055C
:1016EC000540EF00607781450145EFF0FFDA0945D1
:1016FC00EF009039B9450145EFF01FDA0945EF00CD
:10170C00B0386FE09F9AEFE2BF9937140140130590
:10171C000440C145EF00407481450145EFF0DFD72F
:10172C000945EF00703681450545EFF0FFD693056E
:10173C0030061545EFF05FD699451945EFF0DFD52A
:10174C00930500024545EFF03FD5930500071D4575
:10175C00EFF09FD4A14537150140EF00E06F130562
:10176C00100EEFF0FFCFA14537150140EF00806E52
:10177C00A14537150140EF00206E1305200EEFF048
:10178C003FCEA14537150140EF00C06CBD4501456A
:10179C00EFF09FD00945EF00302FC14513050440F1
:1017AC00EF00406B0545EF00302E6FE01F90EFE22D
:1017BC003F8F2A8437150140711113050540AE8403
:1017CC00C145592D930500071D45EFF0FFCCA145F0
:1017DC003715014051251305100EEFF07FC8A145B8
:1017EC0037150140852DA14537150140B525130549
:1017FC00000AEFF0FFC6814713F7F70F0145637539
:10180C0097003307F40008233EC0EFF07FC58247F2
:10181C00130700028507E391E7FEA1453715014048
:10182C00152D37140140C1451305044025250545E8
:10183C00EF009025C14513050440392D0945EF00F3
:10184C00B024930500031D45EFF01FC5054511019C
:10185C006FE0BF85EFE2DF841D45EFF09FCA137781
:10186C00050419CBAA85373500001305C5EBEF101D
:10187C00A00B05456FE07F830145EDBFEFE25F8272
:10188C0071112A84AE8437150140A145F12313054B
:10189C001006EFF0FFBC81471305F00F3EC0EFF0D0
:1018AC003FBC824713F7F70F637597003307F400BB
:1018BC0008A3850713070002E390E7FEA14537153F
:1018CC000140492B930500041D45EFF0FFBC373553
:1018DC000000130585F3EF10200581443737000015
:1018EC00B30794008C23130507C98504EF10C003BC
:1018FC00A14737370000E395F4FE37350000130598
:10190C0045EFEF10A00411016FE02FFAEFE24FF951
:10191C0037150140C145130505403D2B93050007C4
:10192C001D45EFF07FB7A145371501403523130551
:10193C00200EEFF0FFB2A14537150140212BA14538
:10194C0037150140112B1305100EEFF07FB1A14597
:10195C003715014001236FE04FF5EFE26FF4373597
:10196C000000130585F2EF00707E37150140C1456C
:10197C0013050540D521A1450145EFF0FFB16FE0FE
:10198C00CFF2EFE2EFF11D45EFF0BFB76FE0EFF1F3
:10199C00B71702409843B706FFF81367170098C3B0
:1019AC00D843758FD8C39843B706F7FEFD16758FCD
:1019BC0098C39843B706FCFFFD16758F98C3D843A0
:1019CC00B70640FFFD16758FD8C337079F0098C721
:1019DC008280B7160240D842B70700201146318BDF
:1019EC009387C7006305C70021466308C7003737D4
:1019FC006E011307076098C38280D8429316F700D4
:101A0C00E3D706FE3777DC02130707C0EDB701A05A
:101A1C0097F1FF1F9381C1E1138181FC1305000A2B
:101A2C0097E5FF1F9385455D17E6FF1F1306865D3F
:101A3C0063FAC5008322050023A05500110591050A
:101A4C00E3EAC5FE171500001305C55197E5FF1F06
:101A5C009385455B17E6FF1F1306865D63FAC50089
:101A6C008322050023A0550011059105E3EAC5FE6C
:101A7C0017E5FF1F1305C55B938501836377B500DD
:101A8C00232005001105E36DB5FEB72200009382FB
:101A9C000288739002308D427390428097E2FFFF70
:101AAC009382825593E2320073905230EFF05FEEE6
:101ABC0097F2FFFF9382E257739012347300203039
:101ACC00B727014093870740631EF500EFE24FDD17
:101ADC00854513050020812B814513050020A1238A
:101AEC006FE0AFDC82805C413707F1FF1307F7EF43
:101AFC007D8FDC419441A207D58FD98F5CC11C45E9
:101B0C0037F7F1FF1307D77FD4457D8F9C49D58FCD
:101B1C0094458606D58FD98F1CC55C55370710FFA9
:101B2C007D177D8FDC29FD1793F7F70FD207D98F1F
:101B3C005CD582801C4589C593E717001CC5828043
:101B4C00F99BEDBF1C4593E787001CC582800845B7
:101B5C000D81058982801C4593E747001CC5828056
:101B6C0008450981058982801C4591C537075000BD
:101B7C00D98F1CC582803707B0FF7D17F98FD5BF71
:101B8C00A54763F8B704138765FF931717008322E3
:101B9C00C500BA971D433313F3001343F3FF33739C
:101BAC005300B397F600B3E767005CC5994763E34E
:101BBC00C7047D16931726003E965859FD47B397D8
:101BCC00C70093C7F7FFF98FB395C500DD8D4CD9CE
:101BDC0082809397150003230501AE971D47331799
:101BEC00F7001347F7FF33776700B397F6005D8F65
:101BFC0018C96DBFB14763E2C7026516931726007B
:101C0C003E961859FD47B397C70093C7F7FFF98F56
:101C1C00B395C500DD8D0CD982804D1613172600A7
:101C2C0054553A96FD47B397C70093C7F7FFF58F06
:101C3C00B395C500DD8D4CD5828068454205418148
:101C4C00828008416D8D3335A0008280584103237A
:101C5C0005004C4537060140930706403E979346D6
:101C6C00F3FFB1C583250640F58D2320B640D04344
:101C7C00F18ED4C31443B3E6660014C318419047E5
:101C8C009346F7FF758E90C7D047F18ED4C7144595
:101C9C0041466399C6009447D98E94C7D447558F53
:101CAC00D8C78280B6979443558F98C382801C43C3
:101CBC00F58F1CC38280B70701401387074083A7A9
:101CCC000740584B698F09C77D8D3335A000828042
:101CDC0001458280B707014023AAA7408280B7073D
:101CEC00674537270240938737125CC3B797EFCD10
:101CFC009387B79A5CC38280372702401C4B93E7CB
:101D0C0007081CCB8280372702405C470545858B32
:101D1C0091E748474189133515000D058280EFE2A4
:101D2C002FB82A84CD3785476318F50019E015457F
:101D3C0029A0D13F7D14C5BF7DD86FE00FB7EFE26E
:101D4C002FB6AA8437050B00D93F91476313F502D0
:101D5C00372402401C4837050B0093E727001CC8AA
:101D6C0044C81C4893E707041CC8553F1C48F59B06
:101D7C001CC86FE08FB3EFE2AFB26111AA840965A2
:101D8C002EC002C2693F11478245631FE50237240A
:101D9C0002401C48096593E717001CC8939705017E
:101DAC00C1839EA02EC0EFF09FF711478245631AA6
:101DBC00E500890426C29247C18109658EA3EFF024
:101DCC001FF61C48F99B1CC821016FE00FAE94450F
:101DDC0093F7060193F2F60081C7DC41B3E2F200FF
:101DEC0083D3050093F7F30FA5C3032305006111FB
:101DFC0022C226C081471304800293048004054745
:101E0C003316F70033F7C3006312E60293952700ED
:101E1C003D473317B7001347F7FF33736700B3958C
:101E2C00B20033E36500639D860050C985072147E6
:101E3C00E397E7FC12442320650082442101828051
:101E4C00E39696FE10C9DDB7828008456D8D33355B
:101E5C00A00082800CC982804CC982803707014067
:101E6C00144786058D47B397B70093C7F7FFF58FD7
:101E7C001CC71C47B315B500DD8D0CC7828083A62B
:101E8C008182854718216390F6021C31639CD7022E
:101E9C003C219A0793E707F8B7E600E093F7F70FB2
:101EAC00BA962380F6408546935757003397E60041
:101EBC00544189CE938707048A07B7E600E0B697AA
:101ECC0098C38280EDF33C219A07F9B793870706F4
:101EDC00B7E600E08A07B69798C30F10000082801F
:101EEC00377700401C4709C593E727001CC7828041
:101EFC00F59BEDBF377700401C4BC19B5D8D08CB2C
:101F0C008280711102C0377700405C4793F707FC61
:101F1C003EC082475D8D2AC082475CC7110182801A
:101F2C00B7160240DC4241771307F77FF98F5D8DBE
:101F3C00C8C28280371702405C5309C593E717006B
:101F4C005CD38280F99BEDBFEFE28F95371702408F
:101F5C005C4391462A84B18B6385D700A14663808C
:101F6C00D708B7376E01938707601CC0B7160240BD
:101F7C00DC42918313F7F700B707002093874702E1
:101F8C00BA978C23DC42184093F5F50F93F70708AA
:101F9C003355B70081E73A85EFE0CF9348C008C4CA
:101FAC0048C4B7170240DC438D46AD83FD8B13D775
:101FBC0037008A07F18BD98F13F6370113F73700E7
:101FCC0063F4C600138747FFB70700209387070108
:101FDC00BA978C23EFE00F9008C86FE00F8D5C432D
:101FEC00B777DC02938707C049B799C5371702400A
:101FFC001C4F5D8D08CF8280B7170240984F134558
:10200C00F5FF798D88CF828099C5371702405C4FD8
:10201C005D8D48CF8280B7170240D84F1345F5FF2E
:10202C00798DC8CF828099C5371702405C475D8D8A
:10203C0048C78280B7170240D8471345F5FF798D02
:10204C00C8C782801357550085476319F700B71727
:10205C0002409C4333D5A70005898280B717024004
:10206C00DC53CDBF1A218D6793870704B6217D8F72
:10207C009E21D58FD621D58FF621D58F9625D58F3C
:10208C00B625D58FD625D58FF625D58FD98F1EA100
:10209C009E291EA982801E2189C593E707041EA1D3
:1020AC008280C207C18393F7F7FBC207C183C5BF08
:1020BC004EA582804A2582800A256D8D3335A0007D
:1020CC0082801E2137370140130707C0C207C18326
:1020DC006306E500370700406316E500BA2193F765
:1020EC00F7F8D98FFA2193F7F7CFC207C183D98FAD
:1020FC001EA1DE215EB59E211EB5B7370140938728
:10210C0007C06314F5009C251EB985475EA9828023
:10211C001E2189C593E717001EA18280C207C183C7
:10212C00F99BC207C183CDBF5E2501C6DD8D4EA5CF
:10213C00828093C5F5FFFD8DDDBF1E294A25ED8FED
:10214C004205418189C76D8D3335A00082800145E0
:10215C00828093C5F5FFC205C1810EA98280EFD2A2
:10216C003FF41629F577FD17F58FF621DA252111A5
:10217C00D58F1EA95625FD779387379FF58FD621CE
:10218C002A842EC0D58F9625D58FB625D58F5EA5E2
:10219C005E29C207C18393F7F7CF5D8F5AA9480018
:1021AC00EFF09FDAB74701409387078082456312AF
:1021BC00F406C2475A24139517003E9542070E05A4
:1021CC0041873E958C41635807048605EFD09FF0FC
:1021DC00930540062AC0EFD0FFEF824793144500C9
:1021EC00930540063E85EFD0BFF15E24C207C18740
:1021FC0063D507020E059305400613052503EFD0A2
:10220C007FED1D89C98CC204C18006A461016FD009
:10221C00DFE9B24745B78A0555BF1205930540065D
:10222C0013052503EFD01FEB3D89E9BF91C55E2552
:10223C000967D98F5EA582805A25F977FD17F98F2A
:10224C00D5BF93F5F51F4EA182800A216D8D3335D4
:10225C00A0008280EFD2DFE4B707002003A5C700FF
:10226C00B7157A0093850520EFD0DFE61375F50FCF
:10227C002387A18293175500898F8A073E950E05F7
:10228C002396A1826FD07FE2EFD29FE137F400E07A
:10229C005C40AA85F99B5CC003D5C182EFD09FE15D
:1022AC0008C8232404001C4093E717001CC0B7F790
:1022BC0000E0D843058B75DF9843799B98C36FD0AA
:1022CC00DFDEEFD2FFDD2A84116511118545130580
:1022DC000502EFF09FD1930700027C803715014077
:1022EC008D473EC28A85E147130505403EC4EFF099
:1022FC001FAE22C637440140B70708006C00130517
:10230C0004803ECA02C8231C0100EFF05FE585453E
:10231C0013050480EFF09FF171016FD01FD9EFD23C
:10232C003FD87111AE840144635FC402B7470140CA
:10233C00138707803A859305000432C0EFF0FFF055
:10234C00B74701401387078002466DD53387840059
:10235C0083050700138507800504C205C181EFF0D2
:10236C005FEE0246D1B7328511016FD01FD44111F7
:10237C0006C62EC00DCD1841AA8705C358417D5500
:10238C0011CB8546631BD70098472300070023A277
:10239C0007000545B240410182809847824614A34C
:1023AC009847050798C7D8437D17D8C3DDB70546AE
:1023BC008A85EFF0DFF6F1BF011122CC2EC206CEDA
:1023CC0026CA2A848147930500026345060292457A
:1023DC00BE95838505008DE563D8C70263D4E702FB
:1023EC00198E1305000293F526002AC089C501E752
:1023FC00930500032EC0858A81449DEAB28415A002
:10240C008507F1B71D8EF1BF0146E1BF82452285DC
:10241C003AC832C63EC4EFF09FF5A2473246424757
:10242C00FD14E34590FEB284635306008144058E8F
:10243C0063C7E702A6879246338797403697830592
:10244C0007009DEDB2846346900463530600014679
:10245C00F2406244D2443305F600056182801D8F40
:10246C00BA8793050003228532C83EC63AC4EFF002
:10247C001FF0B24722474246FD17E5F7BA945DBFFD
:10248C00228532C63EC4EFF09FEEA2473246850746
:10249C005DB78245228532C43EC2EFF05FEDFD147C
:1024AC00224692474DB7397106DE22DC26DA3EC24F
:1024BC0032833A8691ED92469307000301476C08EC
:1024CC00FC86EFF07FEFF2506254D254216182808F
:1024DC00AA843684AE8791CA294701446317E30066
:1024EC0063D50500B307B04005448646A309010235
:1024FC0013073103938666FC36C49A853E8532CA2F
:10250C003AC81AC63EC0EFD0BFBFA5468247324379
:10251C004247524663D4A600A246369513050503DE
:10252C009306F7FFA30FA7FE9A853E8532CC3ACAD5
:10253C001AC83EC636C0EFD0FFB9B2474243524725
:10254C00624663FD670409CC29CE9247898BB1CBD7
:10255C009305D002268532C4EFF07FE122467D162A
:10256C009247918B85C706479307100632C4930593
:10257C00000326856311F704EFF07FDF93058007D6
:10258C002685EFF0DFDE22460904791616479246BF
:10259C0082452685EFF05FE2229535B7AA87024780
:1025AC00A9BF82469307D0020144A38FF6FE93077E
:1025BC00E7FF3EC075B7EFF09FDB93058005C9B709
:1025CC000145828001458280130181FD22D026CEF7
:1025DC0006D22AC4AE82328402C6814483850200AC
:1025EC0091EDA24789C781453E85EFF05FD89250A7
:1025FC0002542685F2441301810282809307500213
:10260C006389F500224516C88504EFF05FD6C242F7
:10261C0005A08387120013871200639DB700224523
:10262C00930550023AC8EFF09FD442478504BA8212
:10263C0085026DB7DDD79306B0026389D70463C8F2
:10264C00F600930630026386D704814705A09306F3
:10265C00D002638AD70093060003E398D7FE138752
:10266C002200894721A01387220085478306070093
:10267C001306B0026383C6046341D602130630020C
:10268C00638BC602BA820145A54681A0138722003E
:10269C006DBF138722009147D1BF1306D002638907
:1026AC00C60013060003E39FC6FC93E7270031A086
:1026BC0005078547C1BF93E747000507E1B7131628
:1026CC002500329506053A9585020386020013070C
:1026DC0006FD9375F70FE3F4B6FE1307E002994677
:1026EC00631EE60085028146A5450386020013069B
:1026FC0006FD1377F60F63F5E50236C60387020075
:10270C001306A006630DC70A6343E6021306C00452
:10271C006307C70A13068006630CC70881452DA8FA
:10272C0013972600BA968606B29685027DBF1306CD
:10273C0040076306C7081306A0076302C708130601
:10274C00C0068145631AC700038612008D456314C9
:10275C00E60085029145850203860200930300067C
:10276C001307100663C4C300130710049303700609
:10277C0063C4C30693035006635676189303700420
:10278C0063C1C30493055004635EB616130730048B
:10279C00E310E6EA18409303440016CA230CE10048
:1027AC001EC8A30C01000147BE862A862C0849A826
:1027BC00038612008145E311E6FA890271BF850296
:1027CC00B1BF93063006E307D6FC63CFC60693066B
:1027DC0080056303D602A9BD930630076304D604B3
:1027EC0063CBC6029306F0066305D60E930600076C
:1027FC0093E74700E31ED6E291466392D50C930310
:10280C0084000C40504016CA3AC23EC01EC8AA876B
:10281C000147C14681A893065007630BD606930661
:10282C00800745BF1840B7360000930344009385DA
:10283C0046F611C3BA85324716CA1EC8BE862A860A
:10284C002245EFF07FB715A091466395D50293030F
:10285C0084000C40504016CA3AC23EC01EC8AA871B
:10286C000547A9462245EFF0BFD5C243AA941E8462
:10287C00D2427DBBB2460C4016C836C23AC01104D7
:10288C002A87854629462245EFF0FFC1AA9441B319
:10289C009146639DD500930384000C40504016CAAA
:1028AC003AC23EC01EC8AA87014765BFB2460C405B
:1028BC0016C836C23AC011042A878146E1B7B2461F
:1028CC0016C80C40414636C23AC011042A878146CC
:1028DC005DBF9146639ED500930384000C4050402D
:1028EC0016CA3AC23EC01EC8AA870147A1469DBF60
:1028FC00B2460C4016C836C23AC011042A8781462B
:10290C00214651B70C401306840040403AC22A8736
:10291C00224532C83EC02286B687A94616CAEFF0B9
:10292C007FCAAA944244A9B71301C1FD2EC832CA6A
:10293C00AA851008014506C636CC3ACE3ED032C028
:10294C00EFF09FC8B240130141028280411122C4B2
:10295C0026C206C61C21AA840144DC8183073100EF
:10296C00050499EFA9479305310005460145DC8123
:10297C00EFF0FF9A2285B2402244924441018280BA
:10298C000546930531000145EFF07F99B38784002C
:10299C009C23DC81E1B70000E7E7E7005B5057526E
:1029AC005D20536C6565700D000000005B50575244
:1029BC005D2057616B650D005B464C5D2053617665
:1029CC0065642049443A30782530345820533A25F0
:1029DC00640D0A005B4144435D2054494D454F55FD
:1029EC00542063682564210D0A0000005B53595381
:1029FC005D20464143544F52592052455345540D86
:102A0C000000000053656E64696E6720554E50419E
:102A1C004952206265666F72652072657365740D2C
:102A2C00000000005B5359535D20436C69636B20BD
:102A3C002D3E20506169720D000000005B5359530C
:102A4C005D20436C69636B202D3E20526573657469
:102A5C000D00000043484700484200000D0A3D3D70
:102A6C003D2054414E4B20424F4F54203D3D3D0D97
:102A7C0000000000434833325630303320402025CC
:102A8C006C75487A0D0A00005B5359535D205361F5
:102A9C00666544656C61792025646D732E2E20006B
:102AAC004F4B0D00496E697420526164696F2E2E74
:102ABC002E0D00005B5359535D20506169726564A3
:102ACC002049443A3078253034580D0A0000000073
:102ADC005B5359535D204E4F54205041495245444D
:102AEC002E20486F6C6420627574746F6E20746F46
:102AFC0020706169720D00005B5359535D2049646D
:102B0C006C652028486F6C642062746E3D7061693E
:102B1C0072290D005B4241545D20426174746572F0
:102B2C0079206C6576656C3A20256425250D0A00A4
:102B3C005B54585D20436F6F6C646F776E20256417
:102B4C000D0A00005B54585D202573205365713AC3
:102B5C00256C75204C3A2564252520423A256425A0
:102B6C002520463A25640D0A000000005B54585D90
:102B7C00205365713A256C75207472793A25640D71
:102B8C000A0000005B54585D204E4F2041434B20FF
:102B9C0061667465722025642074726965730D0A10
:102BAC00000000005B5359535D204E6F7420706120
:102BBC00697265640D0000005B5359535D20536CC2
:102BCC006565700D000000002D2D2D2D2D2D2D2D4A
:102BDC002D2D0D005B53595354454D5D204275749A
:102BEC00746F6E20507265737365640D0000000085
:102BFC005B4241545D20256C756D560D0A0000003A
:102C0C005B444154415D204C6576656C3A202564EB
:102C1C002525207C204661756C74204D61736B3AC0
:102C2C00203078253032580D0A0000000D0A5B5018
:102C3C004149525D204E657749443A30782530340D
:102C4C00580D0A005B504149525D204C766C3A2578
:102C5C00642052656164696E67206261742E2E2E49
:102C6C000D0A00005B504149525D204261743A25C7
:102C7C00640D0A005B504149525D20506B743A2040
:102C8C000000000025303258200000004352433A27
:102C9C00253032580D0A00005B504149525D2042EC
:102CAC00636173742025646D696E20627572737430
:102CBC00733A25642061636B3A25646D730D0A00C9
:102CCC005B504149525D202325642F256420533AE3
:102CDC003078253032580D0A000000005B50414915
:102CEC00525D2052583A20533D253032582530320F
:102CFC005820543D253032580D0A00005B50414994
:102D0C00525D204E53796E63205249443A307825F7
:102D1C00303458204D593A307825303458204343BC
:102D2C003A253032582050433A253032580D0A009B
:102D3C005B504149525D2041434B2073743A2564EA
:102D4C000D0A00005B504149525D204F4B21204938
:102D5C00443A3078253034580D0A00005B50414914
:102D6C00525D204352432F4944206D69736D617449
:102D7C0063680D005B504149525D20496E76537972
:102D8C006E63205249443A307825303458204D59DE
:102D9C003A3078253034582043433A253032582085
:102DAC0050433A253032580D0A0000005B5041491F
:102DBC00525D2041434B28496E76292073743A2585
:102DCC00640D0A005B504149525D204F4B28496EFF
:102DDC007629212049443A3078253034580D0A00A0
:102DEC005B504149525D20496E76204352432F4936
:102DFC0044206D69736D617463680D005B504149CB
:102E0C00525D20444F4E450D000000005B5041497F
:102E1C00525D204641494C206166746572202564E0
:102E2C002074726965730D0A000000005B535953DE
:102E3C0054454D5D20496E6974204C6576656C3A3D
:102E4C0020256425250D0A005B5359535D204C76D3
:102E5C006C4368673A20256425250D0A00000000A4
:102E6C005B41434B5D204F4B207472793A25640DC6
:102E7C000A0000005B41434B5D204F4B28696E7686
:102E8C0029207472793A25640D0A00005B54585D50
:102E9C00204C766C20757064617465206475726961
:102EAC006E672054583A20256425250D0A00000031
:102EBC005B4E52465D2052585F44522120533A30AB
:102ECC0078253032580D0A005B4E52465D20496E13
:102EDC0069743A20314D203064426D2032424352A5
:102EEC0043204E4F2D41434B0D0000005B4E52468C
:102EFC005D204346473D253032582043483D2564EC
:102F0C002052463D253032580D0A00005B4E524689
:102F1C005D2052656164790D000000005B4E5246E5
:102F2C005D20507772446E0D000000005B4E5246DF
:102F3C005D2052583A2000005B4E52465D2054589A
:102F4C00616464723A20253032582530325825306D
:102F5C0032580D0A00000000286E756C6C290000B8
:102F6C00006CDC020204060804080C10081018207F
:102F7C001020304020406080010203040506070841
:0C2F8C0001020304050607080000000015
:00000001FF
