:100000006F10700C00000000C4180000C41800003D
:1000100000000000000000000000000000000000E0
:1000200000000000000000000000000000000000D0
:10003000C418000000000000C41800000000000008
:10004000C4180000C4180000C4180000C418000040
:100050000A08000062070000C4180000C41800006D
:10006000C4180000C4180000C4180000C418000020
:10007000C4180000C4180000C4180000C418000010
:10008000C4180000C4180000C4180000C418000000
:10009000C4180000C4180000B008000000000000F0
:0C00A000730050107D157DFD8280000073
:1000AC00511126C022C206C4828282441244A2404C
:1000BC00310182802A86014593F6150091C2329552
:1000CC0085810606F5F9828000000000634E05026A
:1000DC0063C305042E86AA857D5515C285466378B3
:1000EC00B6006356C00006068606E36CB6FE0145F4
:1000FC0063E4C500918D558D85820582F5FA828069
:10010C008682C93F2E8582823305A04063D70500C5
:10011C00B305B040C1B7B305B0408682653F330527
:10012C00A0408282868263C70500634905005D3763
:10013C002E858282B305B040E35B05FE3305A040FB
:10014C00513F3305B040828200003D432A876373E0
:10015C00C3029377F700BDEFADE5937606FF3D8ABA
:10016C00BA960CC34CC30CC74CC74107E36BD7FE04
:10017C0011E28280B306C3408A069702000096966D
:10018C006780A6002307B700A306B7002306B700B5
:10019C00A305B7002305B700A304B7002304B700D9
:1001AC00A303B7002303B700A302B7002302B700D1
:1001BC00A301B7002301B700A300B7002300B700C9
:1001CC00828093F5F50F93968500D58D9396050156
:1001DC00D58D61B79396270097020000969686827C
:1001EC00E78086FA9680C1171D8F3E96E374C3F89C
:1001FC00A5B7EFF2FFEAA14537150140EF103030FB
:10020C006DB5EFF2FFE92A84894537350140EF10CF
:10021C0010557DD9A28537350140EF10D053854557
:10022C0037350140EF10B0537DD937350140EF1011
:10023C00D0521375F50F95BDEFF29FE693050008AC
:10024C0037350140EF10B0518547E309F5FEA14564
:10025C0037150140EF10702A89BDEFF27FE4711160
:10026C002AC0413F02451375F507613F0145513FD7
:10027C002AC0D937024511010DBDEFF27FE26111A1
:10028C002EC02AC2BD371245136505089D3F824515
:10029C002E85853F5537210109BDEFF27FE03714DC
:1002AC000140C14513050440EF1070252945EF109E
:1002BC001068C14513050440EF1030245145EF1070
:1002CC001067E5B3EFF2DFDD930580080545753760
:1002DC00E9BBEFF2FFDC930590080545793FF1B3DC
:1002EC00EFF21FDC930590080545413F0945EF10DF
:1002FC00106481453D45513781453545BD3F9305DA
:10030C00F00F49459D3F9305D0080545BD3771BB9E
:10031C00EFF21FD937350000011113058584EF204A
:10032C00404D3735000013054587EF20804C05659F
:10033C0085451305050302C002C202C402C602C8E9
:10034C0002CA02CC231E0100EF1090349307000662
:10035C007C80E1448D478A85371501403EC226C416
:10036C00EF105011930700087C808A859307800456
:10037C00371501403EC4EF10F00FA14741448A8568
:10038C00371501407C8022C4EF10D00EA1453715E3
:10039C000140EF109016608022C437140140130501
:1003AC0004408A85EF10100D13050440C145EF1071
:1003BC00D014B70704013EC6B70700023ECA6C0052
:1003CC009D4737350140FC8602C826CCEF10F03330
:1003DC00854537350140EF10703637350000130571
:1003EC00058AEF200041553D13052004BD35AA8533
:1003FC002A84373500001305458CEF20403DC94752
:10040C00630BF400373500001305C58FEF20603EF9
:10041C000545056159B98145054585353D45EF10C3
:10042C001051930580080545893D3D45EF1030502E
:10043C009305C00619459135930500041D45353DBE
:10044C00814521451D3D81453945053D81453D454C
:10045C002D359305300231450D359145130560025C
:10046C00293D930560077545093D9305400779457E
:10047C0029358D45130510030935A945130570035E
:10048C00ED3BC94513059003CD3B9305F00825457D
:10049C00ED33930540081305D004C5339305B00222
:1004AC002D45E13B930590080545C13B3D45EF10BB
:1004BC00104805455D33AA85373500001305459472
:1004CC00EF20E0303735000013058597EF206032C0
:1004DC00373500001305C59BEF20A031014515BF32
:1004EC00EFF21FBC9307001071112A8493040010C3
:1004FC0063E3B700AE84930590080545BD3B1545F5
:10050C00EF10F042814535458D3BE5311305000870
:10051C00CD39B3079400639C8704393B93F5F40FF2
:10052C0013052002993B9305F00F4945B933930508
:10053C00B00805459933130400324945393B93778C
:10054C00850085CF2AC0A1454945053B93059008F8
:10055C000545253302469305003237350000818D61
:10056C00130545A2EF20A026014511013DBE082030
:10057C003EC005047931824779BF7D14420405459C
:10058C004180EF10D03A55F80545C1392AC049458C
:10059C00E93182452A86373500001305C5A5EF20C1
:1005AC000023054593059008C93905457DBFEFF239
:1005BC003FAF49455D3119810589C5BCEFF25FAE8E
:1005CC0061112AC24945AE844939137505040144A9
:1005DC0009C94D4559312A8401E99305F00F494564
:1005EC00693922852101D1B4414585392AC0AA85B2
:1005FC0035456131A2871374F40F63F38400A68729
:10060C0013F4F70FFD360145ED3E814463E084029F
:10061C0025319305F00F49458D31024637350000E1
:10062C00A2851305859EEF20801A65BF0145D13E3A
:10063C009247A69788A38504D1BFEFF27FA6371502
:10064C0001409305000413050540EF10606A133553
:10065C0015006FF09FA514211307A00AAA87639EAB
:10066C00E60214311307500501456399E602B423E1
:10067C000D476395E602D433EA239A27D02383D718
:10068C008182A2064207D18E498F01456398D7001B
:10069C003385E54013351500828001458280EFF2E9
:1006AC003FA0613F1384C18015CDB707002083A400
:1006BC00C7031C4081EB373500001305C5D604C0B9
:1006CC00EF2020135C2099C3014519A81C409D8C78
:1006DC00856793878738E3F997FE85475CA00945C2
:1006EC006FF0BF9C18406DD3B7070020542083A730
:1006FC00C7032320040091EED517998F05671307C4
:10070C00C7376368F70003C5A1827D151335150043
:10071C00C1BF230204004DBFEFF29F9837050010B4
:10072C0061118545EF10A0780545EF10006B13059E
:10073C001006EF10807B65DD93075011231101002B
:10074C007C8085475C810A8585473EC2EF10805DC1
:10075C0021016FF09F9513050020EF104042B7E781
:10076C0000E03707200023A0E72873002030EFF2C9
:10077C003F93211185450545EF1080718145094551
:10078C0002C402C602C802CAEF10A057854509452B
:10079C00EF10205789450945EF10A05691450945A2
:1007AC00EF102056DD4705443EC42800C1473EC823
:1007BC0022CA02C6EF10203499450D45EF10605443
:1007CC00930700043EC42800B1473EC8EF10A03286
:1007DC00930700203EC42800A1473EC822CA02C687
:1007EC00EF10603193074011231101000A857C80C2
:1007FC00408122C2EF10005361016FF01F8B054541
:10080C00EF10003605C505472382E182130500046D
:10081C00EF10003511C5B70700200547238CE70200
:10082C0013057005EF10A035730020300945EF104B
:10083C00203371F91145EF10A03271F54145EF10DD
:10084C00203271F1E1B7B747000803A707FC938783
:10085C00818298C3C16642074183FD166316D70097
:10086C0023900700238107008280EFF27F83EF1033
:10087C00A031B7440008138504FCEF10E036138454
:10088C0081820C40138504FCEF108039EF1060312D
:10089C0030200E2037350000130585ACEF10307377
:1008AC006FF0BF80854537050040EF10607309CDB0
:1008BC00B70700209387C703984385453705004049
:1008CC00050798C3EF10407373002030EFF24FFD13
:1008DC0031118545054502C402C62318010002C02A
:1008EC0002C2EF10C05CB707002003A5C7008965E2
:1008FC0093850571EFF00FFE7D15A54768842C00DC
:10090C00370500403EC623150100EF10E065054693
:10091C00854537050040EF10806B930760027C80A3
:10092C0085475C810A8585473EC2EF10A03F85450F
:10093C0037050040EF10206851016FF00FF7EFF210
:10094C002FF651118545130540023714014002C0A2
:10095C0002C202C4EF10C053930700049304800436
:10096C008A85130504407C8026C4EF10A030914783
:10097C0041477C808A858D47130504403AC43EC2AA
:10098C00EF10402F130504409145EF100037A1469E
:10099C0041478D478A851305044074803AC43EC292
:1009AC00EF10402D13050440A145EF10403585454F
:1009BC004145EF10E04DDD478A85371501407C80BD
:1009CC0026C4EF10202B653331016FF00FEEEFF2E0
:1009DC002FED41112AC637150140A14513050540DD
:1009EC00EF10A0311545EF10807495473EC402C23C
:1009FC0002C081440144854537150140EF10402F5A
:100A0C0001E505041374F40F894537150140EF1007
:100A1C00202E01E5850493F4F40F91453715014020
:100A2C00EF10002D11E58247850793F7F70F3EC0B5
:100A3C00C14537150140EF10A02B11E592478507F2
:100A4C0093F7F70F3EC20545EF10606EA247FD17F6
:100A5C003EC4D5F337150140A14513050540EF10F1
:100A6C00002A12478246373500002686A2851305D8
:100A7C0085D9EF10D05592470547637EF702824621
:100A8C0081476363D700914705476364970093E7F9
:100A9C00270005476364870093E71700324719C79F
:100AAC0032471CA31247854763F5E702130540063E
:100ABC0041016FF08FDF8247637CF70281476363EC
:100ACC009700894705476364870093E7170032470F
:100ADC0061FB024785471305B004E3EBE7FC130504
:100AEC002003E3E797FC0145E3F487FC6545C9B7B0
:100AFC008147E37E97FC93372400D1BFEFF24FDAA6
:100B0C00711113053100A3010100D13598812A849C
:100B1C00AA8537350000130545DE2384E180EF10EC
:100B2C00104B228511016FF04FD8EFF26FD71301E4
:100B3C00C1FD614681456800EFF02FE18545130545
:100B4C00402002C002C202C4EF1080343165EF10A5
:100B5C0080273715014089478A851305058037247E
:100B6C0001407C8002C4EF10E01013050440EF003C
:100B7C00D05FB7070E003ECC6C00854713050440D0
:100B8C002300F10202C602C802CA02CEEF00506076
:100B9C00854513050440EF00906413050440EF00F5
:100BAC001065930404402685EF0010656DFD130558
:100BBC00044037240140EF00B06413040440228544
:100BCC00EF00B0646DFD130141026FF00FCEEFF238
:100BDC002FCD37350000130505AAEF10904179454C
:100BEC00EF10E054854537050010EF10402C3D45C3
:100BFC00EF10A01A2945EF10201B0545EF10A01887
:100C0C007D5737040140232AE44013050020EF00F0
:100C1C001077B7E700E03707200023A0E728370755
:100C2C00100023A0E728377700401C43F59B1CC31A
:100C3C00B7F700E003A707D11367470023A8E7D055
:100C4C0003A707D1118B6304070E9307800873B0B9
:100C5C0007300F10000083244440832704400327EF
:100C6C004440D98F2322F44037F400E0032704D109
:100C7C00832704D14D451377070293E78702232876
:100C8C00F4D0832704D193F7F7FDD98F2328F4D020
:100C9C00832704D193E787002328F4D097F0FF1F14
:100CAC00E7808035832704D14D4593E787002328BF
:100CBC00F4D097F0FF1FE7802034832704D1918B69
:100CCC00C9C7B707014023A297409307800873A0B8
:100CDC00073037F700E0832707D10145ED9B232828
:100CEC00F7D0EF10400A13050020EF005069B7E76A
:100CFC0000E03707200023A0E728EF003038B707C3
:100D0C0001407D573735000023AAE7401305C5ABDA
:100D1C00EF10302E0565854513055523EF10401750
:100D2C00393921351545EF1080406FF00FB803A706
:100D3C0007D11367070123A8E7D09307800873B086
:100D4C0007300F100000814405B7832704D1BD9BE9
:100D5C002328F4D09DBFEFF2AFB4372401407111BA
:100D6C00AA859D460546AA8413050440EF00F04B66
:100D7C00130504408545EF00D049B16793870735CB
:100D8C003EC01304044089452285EF00305609E526
:100D9C008247FD173EC0E5FB824781EF37350000E7
:100DAC00A685130545AEEF109022014511016FF099
:100DBC00CFAF3725014013050540EF00B052FDB70A
:100DCC00EFF20FAE71112144814421457D1461373E
:100DDC001374F40FAA9475F88D8093970401C18352
:100DEC0089E7014511016FF04FACA147014405455E
:100DFC003EC0953782472A94FD1793F7F70FE5FB12
:100E0C00C165FD150D806D8C131524002A941315E6
:100E1C004400018DE58D1605EFF0CFABAA852A8431
:100E2C0037350000130585D8EF10701A85671387C6
:100E3C0037CE13054006E36787FA9387C7A8E3F21A
:100E4C0087FA93171400A2978E07A29737E5FBFF3A
:100E5C008A0713050515930580253E95EFF08FA79E
:100E6C001375F50F41B7B707002003A5C7039317F8
:100E7C00D500A98F13D51701A98F139557003D8D58
:100E8C004205418111E10545828001478147FD15ED
:100E9C006344B7003E858280B306E5009422B58F8B
:100EAC00A14613938701139617001353834193772D
:100EBC00F60F635603009347760093F7F70FFD1672
:100ECC0093F6F60FF9FE05071377F70FD1B7EFF28C
:100EDC002F9D1971EFF0CFC313054006EF1020259D
:100EEC005937AA852A8437350000130505E0EF1021
:100EFC00100E6946814513056102EFF00FA5B75737
:100F0C0001209387A75A3ED023128102EFF01FBF16
:100F1C00AA852303A10237350000130585E1EF10E4
:100F2C00100B793DAA85A303A102373500001305E8
:100F3C0085E3EF10D009C147930500020810230484
:100F4C00F102A137A30FA10237350000130585E488
:100F5C00EF10F0078144373700001C10A6978C2344
:100F6C00130587E58504EF109006A147373700007D
:100F7C00E395F4FE8345F10337350000130505E6D0
:100F8C00EF10F00437350000930600321306B0045E
:100F9C0085451305C5E6EF109003B70700201387AE
:100FAC00C70318439387C7033EC4BD67938707A63F
:100FBC003AC602C23ECAA24732479C43998F524757
:100FCC006376F706373500008545130545E9EF10C4
:100FDC00100002C037150140914513050540EF0084
:100FEC00D051EFF02FAE8247638F071C1544B71416
:100FFC000140914513850440EF00705013054006E5
:10100C00EF10E012914513850440EF00104F1305CB
:10101C0040067D14EF10A01179F837350000130548
:10102C0085FDEF10007D09616FF02F889247371511
:10103C0001409145858B130505408DEBEF00304C3D
:10104C00EFF02FA9930500020810EFF06FC9EFF035
:10105C002FA9A2479C433EC8A24742479C43998F65
:10106C001307F0316377F70002C065A0EF00F0487A
:10107C00C1BFEFF0CFD32AC0630305149305000260
:10108C008800EFF0AFD38346210403461104834557
:10109C000104B73700001385C7EBEF10407303470B
:1010AC0001049307A00A6312F7080347110493077E
:1010BC005005631CF706034721049D476317F70689
:1010CC0083445104834741040343B104A2040347FE
:1010DC006104DD8C373500009A862286A6851305BF
:1010EC00C5ED1ACCEF10A06E6243631094048547D3
:1010FC00631DF3029387818282A323816700EFF043
:10110C00CFF68345610437350000130545F1EF1028
:10111C00006C924785073EC212479307B004E30B5D
:10112C00F7EA8247E38907E875B581479306000221
:10113C0098103306F70098003E971823850713473D
:10114C00F7FF18A2E396D7FE034701069307A00A00
:10115C006317F70603471106930750056311F7064B
:10116C00034721069D47631CF70483475106034739
:10117C0041060343B10683446106A207D98F373574
:10118C0000009A86BE8526872286130585F51ACE21
:10119C003ECCEF10C063E24772436312F402854702
:1011AC00631FF3009387818282A323816700EFF092
:1011BC00CFEB37350000A685130505F989BF05452A
:1011CC00EF00F07651BD9387818223900700238135
:1011DC0007000D44EFF06FE9B714014091451385FA
:1011EC000440EF00D0311305401FEF0050749145BF
:1011FC0013850440EF0070301305401F7D14EF0081
:10120C00107379F8373500009305B004130585FE8B
:10121C00EF10E05B09BDEFE2BFE89387C18023A02C
:10122C00070023820700B7070020138787031301E9
:10123C0081FD93878703230007003EC05DCD89475E
:10124C006311F50C373500001305C5AFEF10605A6C
:10125C0093878182B82385471384C18093848182CC
:10126C00631FF7049E20A1CF37350000130545B14D
:10127C00EF102058694681451305E100EFE0FFECC3
:10128C00B75706209387A75A3EC49E2093050002A9
:10129C0028007C86EFF07FBFA303A102EFF06F83E1
:1012AC00D1479305000228003EC2EFF06FA37945A9
:1012BC00EF00F0679247FD17EDF7EFF0AF8023904A
:1012CC00040023810400EFF04FDAC167FD175CC402
:1012DC00238201828247232004002302040023136B
:1012EC0004002324040023280400231A0400230BE5
:1012FC00040023800700EFF09FBD130181026FE013
:10130C00DFDA37350000130545B3EF10804E1305B7
:10131C004006EF00D06137F700E0832707D1B7060E
:10132C000080D58F2328F7D0C9BFEFE27FD7B7074E
:10133C0000201387C703184379719387C7032AC208
:10134C002EC43284B6843AC03EC6B24702479C4390
:10135C00998F124763FDE708A247B1CFEFF02FA595
:10136C0039C9930500020808EFF04FA5A6850808B7
:10137C00EFF06FAE01CD37350000A2851305850067
:10138C00EF10E044054545616FE03FD21C0814188E
:10139C00982385071347F7FFA38FE7FEE39AD7FE41
:1013AC00A6850808EFF02FAB19C537350000A285CC
:1013BC001305C501F1B7EFF04FA8370700209307CD
:1013CC0087039C231307870393F7F70F89E783A7FA
:1013DC00C18091E309C923000700EFF04FAC01C5B0
:1013EC001D3D0D454DB70545EF007054B9BF014586
:1013FC0059BFEFE2FFCA5D715121EF0010507165CA
:10140C0013050520EF00505637350000130545B580
:10141C00EF10203EB707002083A5C700373500002A
:10142C001305C5B6EF10A03AEFF04FCAEFF02FD16D
:10143C00EFF0AFEFEFF04FAE0564373500009305DA
:10144C008438130505B8EF10803813058438EF0085
:10145C00104E37350000130585B9EF10803993070E
:10146C00800873A00730373500001305C5B9EF109D
:10147C004038EFE0FFE9EFE0FFE4EFF0CFBC13877B
:10148C00818234239387818205473EC8639FE60A95
:10149C008E23373500001305C5BAEF1040338D4449
:1014AC0037140140914513050440EF005005130516
:1014BC00401FEF00D047914513050440EF00F003A7
:1014CC001305401FFD14EF009046F9F891451305E4
:1014DC000440EF00900237350000130505BFEF10F4
:1014EC00403141679387C1807D17D8C723A007007F
:1014FC00238207002393070023A4070023A80700D7
:10150C00239A0700238B070023820182B707002050
:10151C001387870393878703230007009384C18075
:10152C003ECCEFF08F91E2472A849C2393F7F70F80
:10153C0081E79C4091E315C5E24723800700EFF05B
:10154C000F9619C9EFF03FCDE9BF373500001305F1
:10155C0085BCEF10002AA1B709C42945EF00303D26
:10156C00C9B7C247B8238547631DF72AEFF00FD9D7
:10157C009C38AA8581EFE8B493070010373500003A
:10158C009EA81305C5C0EF10802431A0FC34639BCA
:10159C00A70223880400DC24E0343EC632479307BC
:1015AC00F00F631FF702C0B4EFF09F81AA85A8A8C3
:1015BC0037350000130505C4EF1060212945EF00F5
:1015CC00103781A09C28850793F7F70F9CA8E1D7CB
:1015DC00E8B43735000023880400130585C265B7CD
:1015EC00B247FA20638F8714DC3463838724C0B43A
:1015FC002387040091679387F783E3E7E7FABC2816
:10160C00C5D7614681452818EFE03FB4B757022093
:10161C009387A75A3ED8C247230B810265479E2366
:10162C00231AF102BC28A30BF1026365F7000547EE
:10163C00230CE10283C28180F028D828A30C51022C
:10164C009306F00F11C2BA869044230DD102D43800
:10165C009305000208183AD616D43ED2A30DD10237
:10166C0036D032DE32CEEFF05F82EC24A307A10439
:10167C007246850593F7F50FB2453ECA82569257CE
:10168C00A2523257639A850EB7350000938505B583
:10169C003AC052473735000036C216C4A28613052D
:1016AC00C5C5EF10C01281473EC6EFE09FC293053F
:1016BC0000020818EFE0DFE2B24791EB8C44B73739
:1016CC0000001385C7C90146EF106010B2473EC633
:1016DC00EFE01FC1B247944485453E8613050019BF
:1016EC00EFF0BFC40547B2476316E50A1395270010
:1016FC003E95B9451205EFE0FF9D1375F50F930666
:10170C00400611CD1307C0063305A740AA871375F1
:10171C00F50F63F4A6009307400693F6F70FF8282D
:10172C008547DCB839EFD4A8FCA8EFE0BFB99C44DE
:10173C00C0A4C0B48507238704009CC42393040071
:10174C0011A8B24723870400DCB491679387F78311
:10175C00E3ECE7E4B7370000138507D5EF10600919
:10176C0037350000130505D6EF10A008EFF02FC693
:10177C00FE208507FEA075B3B73500009385C5B470
:10178C0001BFD82893171700BA978907B697898392
:10179C00DCA861BF8D466315D500EFE0BFB251B335
:1017AC00F428D8B8BDE6A946D4A8F8A83947638E62
:1017BC00E70094443E868145130540063EC6EFF093
:1017CC00DFB60D47B247E30AE5FC850793F7F70F41
:1017DC003D47E39BE7ECEFE0FFAED2453735000029
:1017EC003D46130545CBEF00907EFC2498448507BD
:1017FC00050793F7F70F98C4FCA40947E370F7F4B7
:10180C0037350000A285130585CEC0A4EF00307CCF
:10181C0035B7D42813971600369731070983D8A803
:10182C0071B737350000130585D2EF00907C1DB7DA
:10183C00F4248947E3E0D7F275BBB717024098430D
:10184C00B706FFF81367170098C3D843758FD8C332
:10185C009843B706F7FEFD16758F98C39843B706E5
:10186C00FCFFFD16758F98C3D843B70640FFFD16D5
:10187C00758FD8C337079F0098C78280B716024070
:10188C00D842B70700201146318B9387C7006305F8
:10189C00C70021466308C70037376E01130707607E
:1018AC0098C38280D8429316F700E3D706FE3777A9
:1018BC00DC02130707C0EDB701A097F1FF1F93815E
:1018CC0021F7138181FC1305000A97E5FF1F93850F
:1018DC00A57217E6FF1F1306E67263FAC500832292
:1018EC00050023A0550011059105E3EAC5FE171567
:1018FC0000001305257497E5FF1F9385A57017E667
:10190C00FF1F1306E67263FAC5008322050023A0AD
:10191C00550011059105E3EAC5FE17E5FF1F1305F8
:10192C002571938541836377B5002320050011054C
:10193C00E36DB5FEB72200009382028873900230EB
:10194C008D427390428097E2FFFF9382E26A93E2AA
:10195C00320073905230EFF05FEE970200009382EA
:10196C0082A97390123473002030B72701409387FB
:10197C000740631EF500EFE2AFF28545130500202A
:10198C00B12381451305002091236FE00FF2828073
:10199C005C413707F1FF1307F7EF7D8FDC41944172
:1019AC00A207D58FD98F5CC11C4537F7F1FF130700
:1019BC00D77FD4457D8F9C49D58F94458606D58F8E
:1019CC00D98F1CC55C55370710FF7D177D8FDC291F
:1019DC00FD1793F7F70FD207D98F5CD582801C4582
:1019EC0089C593E717001CC58280F99BEDBF1C4588
:1019FC0093E787001CC5828008450D81058982808C
:101A0C001C4593E747001CC5828008450981058960
:101A1C0082801C4591C537075000D98F1CC5828028
:101A2C003707B0FF7D17F98FD5BFA54763F8B7040B
:101A3C00138765FF931717008322C500BA971D43C0
:101A4C003313F3001343F3FF33735300B397F600D0
:101A5C00B3E767005CC5994763E3C7047D1693172A
:101A6C0026003E965859FD47B397C70093C7F7FF1A
:101A7C00F98FB395C500DD8D4CD9828093971500F5
:101A8C0003230501AE971D473317F7001347F7FFE4
:101A9C0033776700B397F6005D8F18C96DBFB147F8
:101AAC0063E2C7026516931726003E961859FD4748
:101ABC00B397C70093C7F7FFF98FB395C500DD8DBA
:101ACC000CD982804D161317260054553A96FD47B3
:101ADC00B397C70093C7F7FFF58FB395C500DD8D9E
:101AEC004CD58280684542054181828008416D8DCC
:101AFC003335A00082805841032305004C4537063E
:101B0C000140930706403E979346F3FFB1C58325EA
:101B1C000640F58D2320B640D043F18ED4C3144338
:101B2C00B3E6660014C3184190479346F7FF758ED1
:101B3C0090C7D047F18ED4C7144541466399C6006F
:101B4C009447D98E94C7D447558FD8C78280B697FF
:101B5C009443558F98C382801C43F58F1CC382809D
:101B6C00B70701401387074083A70740584B698F7D
:101B7C0009C77D8D3335A000828001458280B7076F
:101B8C00014023AAA7408280B70767453727024048
:101B9C00938737125CC3B797EFCD9387B79A5CC323
:101BAC008280372702401C4B93E707081CCB8280AE
:101BBC00372702405C470545858B91E748474189AB
:101BCC00133515000D058280EFE28FCD2A84CD37B9
:101BDC0085476318F50019E0154529A0D13F7D1400
:101BEC00C5BF7DD86FE06FCCEFE28FCBAA843705F1
:101BFC000B00D93F91476313F502372402401C4870
:101C0C0037050B0093E727001CC844C81C4893E712
:101C1C0007041CC8553F1C48F59B1CC86FE0EFC857
:101C2C00EFE20FC86111AA8409652EC002C2693F98
:101C3C0011478245631DE502372402401C480965A3
:101C4C0093E717001CC893970501C1839EA02EC073
:101C5C00A53F114782456319E500890426C29247C6
:101C6C00C18109658EA38D371C48F99B1CC82101C5
:101C7C006FE0AFC3944593F7060193F2F60081C76A
:101C8C00DC41B3E2F20083D3050093F7F30FA5C355
:101C9C0003230500611122C226C081471304800270
:101CAC009304800405473316F70033F7C30063121F
:101CBC00E602939527003D473317B7001347F7FF0C
:101CCC0033736700B395B20033E36500639D860000
:101CDC0050C985072147E397E7FC12442320650090
:101CEC00824421018280E39696FE10C9DDB7828082
:101CFC0008456D8D3335A00082800CC982804CC99B
:101D0C00828037070140144786058D47B397B7008B
:101D1C0093C7F7FFF58F1CC71C47B315B500DD8DB6
:101D2C000CC7828083A6C182854718216390F60276
:101D3C001C31639CD7023C219A0793E707F8B7E65E
:101D4C0000E093F7F70FBA962380F6408546935739
:101D5C0057003397E600544189CE938707048A07CE
:101D6C00B7E600E0B69798C38280EDF33C219A0762
:101D7C00F9B793870706B7E600E08A07B69798C3CA
:101D8C000F1000008280377700401C4709C593E78D
:101D9C0027001CC78280F59BEDBF377700401C4B9A
:101DAC00C19B5D8D08CB8280711102C037770040DA
:101DBC005C4793F707FC3EC082475D8D2AC0824783
:101DCC005CC711018280B7160240DC4241771307D1
:101DDC00F77FF98F5D8DC8C28280371702405C5344
:101DEC0009C593E717005CD38280F99BEDBFEFE246
:101DFC002FAB371702405C4391462A84B18B638525
:101E0C00D700A1466380D708B7376E019387076068
:101E1C001CC0B7160240DC42918313F7F700B707DA
:101E2C00002093874702BA978C23DC42184093F525
:101E3C00F50F93F707083355B70081E73A85EFE0C4
:101E4C006FA948C008C448C4B7170240DC438D468C
:101E5C00AD83FD8B13D737008A07F18BD98F13F61F
:101E6C00370113F7370063F4C600138747FFB70732
:101E7C00002093870701BA978C23EFE0AFA508C821
:101E8C006FE0AFA25C43B777DC02938707C049B71A
:101E9C0099C5371702401C4F5D8D08CF8280B7174C
:101EAC000240984F1345F5FF798D88CF828099C5F4
:101EBC00371702405C4F5D8D48CF8280B7170240C8
:101ECC00D84F1345F5FF798DC8CF828099C5371748
:101EDC0002405C475D8D48C78280B7170240D847E7
:101EEC001345F5FF798DC8C7828013575500854778
:101EFC006319F700B71702409C4333D5A700058937
:101F0C008280B7170240DC53CDBF1A218D679387AF
:101F1C000704B6217D8F9E21D58FD621D58FF62132
:101F2C00D58F9625D58FB625D58FD625D58FF62569
:101F3C00D58FD98F1EA19E291EA982801E2189C5ED
:101F4C0093E707041EA18280C207C18393F7F7FBB6
:101F5C00C207C183C5BF4EA582804A2582800A254F
:101F6C006D8D3335A00082801E2137370140130759
:101F7C0007C0C207C1836306E5003707004063163C
:101F8C00E500BA2193F7F7F8D98FFA2193F7F7CF39
:101F9C00C207C183D98F1EA1DE215EB59E211EB55D
:101FAC00B7370140938707C06314F5009C251EB911
:101FBC0085475EA982801E2189C593E717001EA163
:101FCC008280C207C183F99BC207C183CDBF5E2546
:101FDC0001C6DD8D4EA5828093C5F5FFFD8DDDBF5D
:101FEC001E294A25ED8F4205418189C76D8D3335F8
:101FFC00A00082800145828093C5F5FFC205C18196
:10200C000EA98280EFE2CF891629F577FD17F58F9F
:10201C00F621DA252111D58F1EA95625FD77938738
:10202C00379FF58FD6212A842EC0D58F9625D58F34
:10203C00B625D58F5EA55E29C207C18393F7F7CF6E
:10204C005D8F5AA94800EFF09FDAB747014093879C
:10205C00078082456312F406C2475A241395170071
:10206C003E9542070E0541873E958C416358070407
:10207C008605EFE02F86930540062AC0EFE08F859A
:10208C00824793144500930540063E85EFE04F8749
:10209C005E24C207C18763D507020E05930540066F
:1020AC0013052503EFE00F831D89C98CC204C18081
:1020BC0006A461016FD07FFFB24745B78A0555BFB3
:1020CC0012059305400613052503EFE0AF803D890B
:1020DC00E9BF91C55E250967D98F5EA582805A2517
:1020EC00F977FD17F98FD5BF93F5F51F4EA18280B7
:1020FC000A216D8D3335A0008280EFD27FFAB707AD
:10210C00002003A5C700B7157A0093850520EFD0F2
:10211C007FFC1375F50F2389A18293175500898FC6
:10212C008A073E950E052398A1826FD01FF8EFD237
:10213C003FF737F400E05C40AA85F99B5CC003D5FF
:10214C000183EFD03FF708C8232404001C4093E719
:10215C0017001CC0B7F700E0D843058B75DF984318
:10216C00799B98C36FD07FF4EFD29FF32A841165CB
:10217C001111854513050502EFF09FD1930700025D
:10218C007C80371501408D473EC28A85E147130597
:10219C0005403EC4EFF01FAE22C637440140B707DE
:1021AC0008006C00130504803ECA02C8231C010001
:1021BC00EFF05FE5854513050480EFF09FF17101A9
:1021CC006FD0BFEEEFD2DFED7111AE840144635FCF
:1021DC00C402B7470140138707803A859305000472
:1021EC0032C0EFF0FFF0B74701401387078002467B
:1021FC006DD533878400830507001385078005049C
:10220C00C205C181EFF05FEE0246D1B732851101F4
:10221C006FD0BFE9411106C62EC00DCD1841AA875B
:10222C0005C358417D5511CB8546631BD700984794
:10223C002300070023A207000545B240410182801C
:10224C009847824614A39847050798C7D8437D172B
:10225C00D8C3DDB705468A85EFF0DFF6F1BF011173
:10226C0022CC2EC206CE26CA2A84814793050002B0
:10227C00634506029245BE95838505008DE563D8BE
:10228C00C70263D4E702198E1305000293F52600EA
:10229C002AC089C501E7930500032EC0858A8144B5
:1022AC009DEAB28415A08507F1B71D8EF1BF0146DA
:1022BC00E1BF824522853AC832C63EC4EFF09FF595
:1022CC00A24732464247FD14E34590FEB284635365
:1022DC0006008144058E63C7E702A68792463387C2
:1022EC0097403697830507009DEDB28463469004B2
:1022FC00635306000146F2406244D2443305F600B3
:10230C00056182801D8FBA8793050003228532C830
:10231C003EC63AC4EFF01FF0B24722474246FD17C3
:10232C00E5F7BA945DBF228532C63EC4EFF09FEE4E
:10233C00A247324685075DB78245228532C43EC22C
:10234C00EFF05FEDFD14224692474DB7397106DE72
:10235C0022DC26DA3EC232833A8691ED924693070E
:10236C00000301476C08FC86EFF07FEFF2506254DB
:10237C00D25421618280AA843684AE8791CA2947BF
:10238C0001446317E30063D50500B307B04005446F
:10239C008646A309010213073103938666FC36C4F3
:1023AC009A853E8532CA3AC81AC63EC0EFD05FD570
:1023BC00A546824732434247524663D4A600A24602
:1023CC003695130505039306F7FFA30FA7FE9A8511
:1023DC003E8532CC3ACA1AC83EC636C0EFD09FCF23
:1023EC00B24742435247624663FD670409CC29CE8B
:1023FC009247898BB1CB9305D002268532C4EFF07E
:10240C007FE122467D169247918B85C7064793073D
:10241C00100632C49305000326856311F704EFF010
:10242C007FDF930580072685EFF0DFDE2246090467
:10243C0079161647924682452685EFF05FE2229583
:10244C0035B7AA870247A9BF82469307D002014439
:10245C00A38FF6FE9307E7FF3EC075B7EFF09FDB47
:10246C0093058005C9B7014582800145828013011F
:10247C0081FD22D026CE06D22AC4AE82328402C678
:10248C0081448385020091EDA24789C781453E8531
:10249C00EFF05FD8925002542685F244130181026A
:1024AC008280930750026389F500224516C8850483
:1024BC00EFF05FD6C24205A083871200138712008B
:1024CC00639DB7002245930550023AC8EFF09FD4A4
:1024DC0042478504BA8285026DB7DDD79306B002F8
:1024EC006389D70463C8F600930630026386D70469
:1024FC00814705A09306D002638AD7009306000398
:10250C00E398D7FE13872200894721A01387220066
:10251C008547830607001306B0026383C604634134
:10252C00D60213063002638BC602BA820145A54659
:10253C0081A0138722006DBF138722009147D1BF62
:10254C001306D0026389C60013060003E39FC6FC82
:10255C0093E7270031A005078547C1BF93E74700E4
:10256C000507E1B713162500329506053A95850245
:10257C0003860200130706FD9375F70FE3F4B6FE0E
:10258C001307E0029946631EE60085028146A545C5
:10259C0003860200130606FD1377F60F63F5E502BA
:1025AC0036C6038702001306A006630DC70A6343F1
:1025BC00E6021306C0046307C70A13068006630C01
:1025CC00C70881452DA813972600BA968606B296A1
:1025DC0085027DBF130640076306C7081306A007D4
:1025EC006302C7081306C0068145631AC700038639
:1025FC0012008D456314E600850291458502038621
:10260C000200930300061307100663C4C3001307EC
:10261C0010049303700663C4C306930350066356F9
:10262C0076189303700463C1C30493055004635E6E
:10263C00B61613073004E310E6EA1840930344007F
:10264C0016CA230CE1001EC8A30C01000147BE866C
:10265C002A862C0849A8038612008145E311E6FA64
:10266C00890271BF8502B1BF93063006E307D6FC21
:10267C0063CFC606930680056303D602A9BD9306F5
:10268C0030076304D60463CBC6029306F0066305D9
:10269C00D60E9306000793E74700E31ED6E2914659
:1026AC006392D50C930384000C40504016CA3AC276
:1026BC003EC01EC8AA870147C14681A89306500791
:1026CC00630BD6069306800745BF1840B73600004B
:1026DC00930344009385460311C3BA85324716CA47
:1026EC001EC8BE862A862245EFF07FB715A09146FC
:1026FC006395D502930384000C40504016CA3AC22D
:10270C003EC01EC8AA870547A9462245EFF0BFD593
:10271C00C243AA941E84D2427DBBB2460C4016C85A
:10272C0036C23AC011042A87854629462245EFF065
:10273C00FFC1AA9441B39146639DD50093038400D5
:10274C000C40504016CA3AC23EC01EC8AA87014768
:10275C0065BFB2460C4016C836C23AC011042A876F
:10276C008146E1B7B24616C80C40414636C23AC063
:10277C0011042A8781465DBF9146639ED500930361
:10278C0084000C40504016CA3AC23EC01EC8AA87EC
:10279C000147A1469DBFB2460C4016C836C23AC08E
:1027AC0011042A878146214651B70C401306840038
:1027BC0040403AC22A87224532C83EC02286B6879C
:1027CC00A94616CAEFF07FCAAA944244A9B71301CE
:1027DC00C1FD2EC832CAAA851008014506C636CCE2
:1027EC003ACE3ED032C0EFF09FC8B2401301410246
:1027FC008280411122C426C206C61C21AA8401442F
:10280C00DC8183073100050499EFA947930531005A
:10281C0005460145DC81EFF0FF9A2285B240224447
:10282C009244410182800546930531000145EFF049
:10283C007F99B38784009C23DC81E1B70D0A3D3D71
:10284C003D3D3D3D3D3D3D3D3D3D3D3D3D3D3D3DAC
:10285C003D3D3D3D3D3D3D3D3D3D3D3D3D3D3D3D9C
:10286C003D3D3D3D3D3D0D005B4C4F52415D202DAE
:10287C002D2D20535831323738204C6F526120495E
:10288C006E697469616C697A6174696F6E202D2D43
:10289C002D0D00005B4C4F52415D205265736574E9
:1028AC0074696E67206D6F64756C65207669612044
:1028BC005044342E2E2E0D005B4C4F52415D205255
:1028CC006561642053696C69636F6E205665727321
:1028DC00696F6E3A20307825303258202845787050
:1028EC0065637465643A2030783132290D0A000032
:1028FC005B4C4F52415D203F204552524F523A2083
:10290C00535831323738206E6F7420726573706F84
:10291C006E64696E672120436865636B2053434B7B
:10292C002F4D49534F2F4D4F53492F4E5353207713
:10293C00697265732E0D00005B4C4F52415D204F48
:10294C00704D6F646520616674657220696E697480
:10295C003A203078253032582028457870656374D9
:10296C0065642030783839290D0A00005B4C4F52D1
:10297C00415D203F20496E697420436F6D706C651A
:10298C0074653A203433334D487A207C20534637D3
:10299C00207C204257203132356B487A207C2050E5
:1029AC006F776572202B313764426D0D000000008B
:1029BC003D3D3D3D3D3D3D3D3D3D3D3D3D3D3D3D3B
:1029CC003D3D3D3D3D3D3D3D3D3D3D3D3D3D3D3D2B
:1029DC003D3D3D3D3D3D3D3D0D0000005B4C4F52AE
:1029EC00412052585D203F205265636569766564CD
:1029FC002025642042797465732066726F6D2046C1
:102A0C0049464F2028416464723A20307825303290
:102A1C0058290D0A000000005B4C4F5241205458BD
:102A2C005D203F205061636B65742053656E74218B
:102A3C00202854696D653A202564206D732C20493B
:102A4C0052513A20307825303258290D0A000000B6
:102A5C005B4C4F52412054585D203F205458205419
:102A6C00696D656F7574212046696E616C204F70BD
:102A7C004D6F64653A203078253032582C204952FD
:102A8C00515F464C4147533A203078253032580D2F
:102A9C000A0000005B5057525D20536C6565702036
:102AAC0028357320415755292E2E2E0D000000007D
:102ABC005B5057525D2057616B650D005B464C5D5A
:102ACC002053617665642049443A30782530345877
:102ADC0020533A25640D0A005B4144435D20544960
:102AEC004D454F55542063682564210D0A000000A4
:102AFC005B5359535D20464143544F525920524524
:102B0C005345540D0000000053656E64696E6720D8
:102B1C00554E50414952206265666F726520726550
:102B2C007365740D000000005B5359535D20436CBA
:102B3C0069636B202D3E2052657365740D00000097
:102B4C0043484700484200000D0A3D3D3D2054419A
:102B5C004E4B20424F4F54203D3D3D0D0000000098
:102B6C004348333256303033204020256C75487A38
:102B7C000D0A00005B5359535D2053616665446533
:102B8C006C61792025646D732E2E20004F4B0D0047
:102B9C00496E697420526164696F2E2E2E0D0000EF
:102BAC005B5359535D205061697265642049443A06
:102BBC003078253034580D0A000000005B5359530F
:102BCC005D204E4F54205041495245442E20486FB1
:102BDC006C6420627574746F6E20746F2070616900
:102BEC00720D00005B5359535D2049646C652028BD
:102BFC00486F6C642062746E3D70616972290D00BF
:102C0C005B53595354454D5D20496E6974204C6596
:102C1C0076656C3A20256425250D0A005B535953C3
:102C2C005D204C766C4368673A20256425250D0A97
:102C3C00000000005B4241545D2042617474657277
:102C4C0079206C6576656C3A20256425250D0A0083
:102C5C005B54585D202573205365713A256C7520A3
:102C6C004C3A25642525202857616B653A25642F3D
:102C7C00332920423A2564252520513A25752525EE
:102C8C0020523A257520463A25640D0A00000000B2
:102C9C005B54585D205365713A256C7520747279BC
:102CAC003A25640D0A0000005B54585D204E4F20FD
:102CBC0041434B206F6E2077616B652061747465A6
:102CCC006D70742025642F33206166746572202525
:102CDC006420726574726965730D0A005B535953F5
:102CEC005D20332077616B6520617474656D707441
:102CFC007320646F6E6520776974686F75742041FA
:102D0C00434B2E204C6576656C202564252520735D
:102D1C00746F707065642E0D0A0000005B5359537C
:102D2C005D204E6F74207061697265642E20486F4F
:102D3C006C6420627574746F6E20746F207061699E
:102D4C00722E0D005B5359535D20536C6565700DED
:102D5C00000000002D2D2D2D2D2D2D2D2D2D0D0098
:102D6C005B53595354454D5D20427574746F6E20FE
:102D7C00507265737365640D000000005B42415432
:102D8C005D20256C756D560D0A0000005B50524F8E
:102D9C004245535D20526177206869747320286F17
:102DAC007574206F662035293A205B323525255DF8
:102DBC003A2564205B353025255D3A2564205B3748
:102DCC003525255D3A2564205B31303025255D3A6B
:102DDC0025640D0A000000005B444154415D205401
:102DEC00616E6B204C6576656C3A20256425250D4B
:102DFC000A0000000D0A5B504149525D204E657778
:102E0C0049443A3078253034580D0A005B5041491A
:102E1C00525D204C766C3A25642052656164696E73
:102E2C0067206261742E2E2E0D0A00005B50414902
:102E3C00525D204261743A25640D0A005B50414991
:102E4C00525D20506B743A2000000000253032583F
:102E5C00200000004352433A253032580D0A00003E
:102E6C005B504149525D2042636173742025646D4F
:102E7C00696E206275727374733A25642061636B9A
:102E8C003A25646D730D0A005B504149525D205424
:102E9C00696D656F75742072656163686564206126
:102EAC0066746572202564206D696E730D0A0000CE
:102EBC005B504149525D2052583A20533D253032E7
:102ECC00582530325820543D253032580D0A000018
:102EDC005B504149525D204E53796E6320524944F8
:102EEC003A307825303458204D593A3078253034E2
:102EFC0058205374617475733D256420536C6F7442
:102F0C003D25640D0A0000005B504149525D20F0E4
:102F1C009F8E89204D41544348454421205061697E
:102F2C00726564207769746820536C6F7420256413
:102F3C002C2053746F7070696E67205061697269D0
:102F4C006E67204C6F6F702E0D0A00005B5041496C
:102F5C00525D20496E7653796E63205249443A3063
:102F6C007825303458204D593A3078253034582053
:102F7C005374617475733D256420536C6F743D25D7
:102F8C00640D0A005B504149525D20F09F8E8920F0
:102F9C004D41544348454428496E762921205061BF
:102FAC0069726564207769746820536C6F7420258E
:102FBC00642C2053746F7070696E67205061697255
:102FCC00696E67204C6F6F702E0D0A005B50414983
:102FDC00525D20444F4E450D000000005B504149AE
:102FEC00525D204641494C2061667465722025640F
:102FFC002074726965730D0A000000005B41434B3D
:10300C005D204F4B207472793A25640D0A00000044
:10301C005B41434B5D204F4B28696E7629207472BF
:10302C00793A25640D0A0000286E756C6C29000035
:10303C00006CDC020204060804080C1008101820AE
:10304C001020304020406080010203040506070870
:0C305C0001020304050607080000000044
:00000001FF
