:100000006F10E059000000009C1500009C150000D6
:1000100000000000000000000000000000000000E0
:1000200000000000000000000000000000000000D0
:100030009C150000000000009C150000000000005E
:100040009C1500009C1500009C1500009C150000EC
:100050004C030000CE0200009C1500009C1500001F
:100060009C1500009C1500009C1500009C150000CC
:100070009C1500009C1500009C1500009C150000BC
:100080009C1500009C1500009C1500009C150000AC
:100090009C1500009C150000DE030000000000001D
:0C00A000730050107D157DFD8280000073
:1000AC00511126C022C206C4828282441244A2404C
:1000BC00310182802A86014593F6150091C2329552
:1000CC0085810606F5F9828000000000634E05026A
:1000DC0063C305042E86AA857D5515C285466378B3
:1000EC00B6006356C00006068606E36CB6FE0145F4
:1000FC0063E4C500918D558D85820582F5FA828069
:10010C008682C93F2E8582823305A04063D70500C5
:10011C00B305B040C1B7B305B0408682653F330527
:10012C00A0408282868263C70500634905005D3763
:10013C002E858282B305B040E35B05FE3305A040FB
:10014C00513F3305B040828200003D432A876373E0
:10015C00C3029377F700BDEFADE5937606FF3D8ABA
:10016C00BA960CC34CC30CC74CC74107E36BD7FE04
:10017C0011E28280B306C3408A069702000096966D
:10018C006780A6002307B700A306B7002306B700B5
:10019C00A305B7002305B700A304B7002304B700D9
:1001AC00A303B7002303B700A302B7002302B700D1
:1001BC00A301B7002301B700A300B7002300B700C9
:1001CC00828093F5F50F93968500D58D9396050156
:1001DC00D58D61B79396270097020000969686827C
:1001EC00E78086FA9680C1171D8F3E96E374C3F89C
:1001FC00A5B7EFF2FFEA371501409305000413058C
:10020C000540EF10607C9387C1801DE9984311E78E
:10021C00370700200327C70398C3D82319C3014508
:10022C0039A8370700208326C7039843998E0567A2
:10023C0013078738E375D7FE0547D8A30945B5B52D
:10024C009443F1DE37070020D0230327C70323A0F4
:10025C00070011EE5517158F85669386C63763E830
:10026C00E60003C561827D1513351500C9BF2382D5
:10027C00070075B7EFF2DFE2370500106111854515
:10028C00EF1070100545EF10D00213051006EF109B
:10029C00501365DD3D45EF10C07D2145EF10407ECC
:1002AC000545EF10C07B93075011231101007C8092
:1002BC0085475C810A8585473EC2EF102074210179
:1002CC00EDB373002030EFF2BFDD211185450545FC
:1002DC00EF1090098145094502C402C602C802CA42
:1002EC00EF10A06F85450945EF10206F8945094532
:1002FC00EF10A06E91450945EF10206EDD470544C7
:10030C003EC42800C1473EC822CA02C6EF10204C8A
:10031C0099450D45EF10606C930700043EC428000E
:10032C00B1473EC8EF10A04A9307401123110100BA
:10033C000A857C80408122C2EF10406C6101B5B30C
:10034C000545EF10604F05C505472380E182130575
:10035C000004EF10604E11C5B70700200547238C31
:10036C00E70213057005EF10004F730020300945AC
:10037C00EF10804C71F91145EF10004C71F54145AF
:10038C00EF10804B71F1E1B7B747000803A707FCEA
:10039C009387418298C3C16642074183FD16631659
:1003AC00D70023900700238107008280EFF25FCFF4
:1003BC00EF10004B37440008130504FCEF104050BD
:1003CC0083A54182130504FCEF100053EF10E04AA3
:1003DC00E9B9854537050040EF10100E09CDB70778
:1003EC0000209387C70398438545370500400507D0
:1003FC0098C3EF10F00D73002030EFF27FCA31116B
:10040C008545054502C402C62318010002C002C27C
:10041C00EF106077B707002003A5C70089659385A7
:10042C0005714D397D15A54768842C0037050040B2
:10043C003EC623150100EF10B00005468545370573
:10044C000040EF105006930760027C8085475C816A
:10045C000A8585473EC2EF10605A85453705004036
:10046C00EF10F002510191B1EFF29FC3511185458C
:10047C00130540023714014002C002C202C4EF103F
:10048C00A06E93070004930480048A85130504402E
:10049C007C8026C4EF10804B91477C80C1473EC4C2
:1004AC008A858D47130504403EC2EF10204A130580
:1004BC0004409145EF10E05185454145EF10C06A6D
:1004CC00DD478A85371501407C8026C4EF10004833
:1004DC00DD3B3101D9BEEFF2BFBC61112AC28545AB
:1004EC0037150140EF10404E89452A8437150140DD
:1004FC00EF10804D9145AA8437150140EF10C04C88
:10050C002AC0C14537150140EF10004C02479246F6
:10051C000DE1B337E0008A0799C093E7270019C0B3
:10052C0093E7170099C29CA209ED1305400621011F
:10053C00ADBE15E3B3379000860719C093E71700DB
:10054C00FDF21305B00465D713052003EDD001456A
:10055C0079FC6545E9BF8147E5F4B3378000CDB739
:10056C00EFF21FB4711113051100B5372A84094538
:10057C00EF10500813052100B93FAA840945EF106C
:10058C00700713053100813F18819C80D98F9881A9
:10059C00D98F2384F18013F7F40F63E4840013776D
:1005AC00F40F9377F40F6374940093F7F40F26947D
:1005BC002A94AA866373A700BA86158C2A8763735C
:1005CC00F5003E873305E4401375F50F1101F1BCBE
:1005DC00EFF21FAD71371387C18078379387C180D5
:1005EC0019E713070010C8B7FAA7C8377DBCD8376E
:1005FC006315A70023870700CDBFF82705071377DE
:10060C00F70FF8A77DD3C8B7F5B7EFF27FA91301A1
:10061C00C1FD6146814568000D3E854513054020AE
:10062C0002C002C202C4EF1020543165EF10204703
:10063C003715014089478A85130505803724014009
:10064C007C8002C4EF10803013050440EF00707FF3
:10065C00B7070E003ECC6C00854713050440230001
:10066C00F10202C602C802CA02CEEF00F07F854535
:10067C0013050440EF10200413050440EF10A004F0
:10068C00930404402685EF10A0046DFD130504406F
:10069C0037240140EF104004130404402285EF106E
:1006AC0040046DFD1301410209B4EFF27F9F130565
:1006BC002003EF102074FD5637070140232AD74042
:1006CC00B77600409C42F59B9CC2B7F700E083A62E
:1006DC0007D193E6460023A8D7D083A607D1918AE9
:1006EC006382060E9307800873B007300F1000006A
:1006FC00832447408327074083264740D58F2322F6
:10070C00F74037F400E0032704D1832704D14D458B
:10071C001377070293E787022328F4D0832704D1A9
:10072C0093F7F7FDD98F2328F4D0832704D193E7CF
:10073C0087002328F4D097000020E780E08B8327E4
:10074C0004D14D4593E787002328F4D0970000206F
:10075C00E780808A832704D1918BD9C3B7070140E6
:10076C0023A297409307800873A0073037F700E067
:10077C00832707D137140140ED9B2328F7D0EF00D6
:10078C00705DB70701407D5723AAE74091451305DB
:10079C000440EF10402413052003EF10A06513054F
:1007AC0004409145EF10E022854513055023EF10CE
:1007BC00A03B5D39993D013E1305800CEF10806321
:1007CC006FF0BF8E03A707D11367070123A8E7D0EB
:1007DC009307800873B007300F100000814415B7E1
:1007EC00832704D1BD9B2328F4D0ADBFEFF25F8BE0
:1007FC00372401407111AA859D4613050440054616
:10080C00EF003070130504408545EF00106EB167A2
:10081C00938707353EC01304044089452285EF00B9
:10082C00707A09E58247FD173EC0E5FB824701451A
:10083C0099C73725014013050540EF0030781101A9
:10084C006FF0BF86EFF2DF857111214481442145A1
:10085C00713F7D14AA9465FC8D8093970401C1832C
:10086C0089E7014511016FF05F84A14701440545FB
:10087C003EC0AD3F82472A94FD17F5FBC165FD15BF
:10088C000D806D8C131524002A9413154400018DD2
:10089C00E58D1605EFF01F8485672A87938637CE82
:1008AC0013054006E3E0E6FC9387C7A8E3FBE7FAF1
:1008BC0093171700BA978E07BA9737E5FBFF8A078D
:1008CC0013050515930580253E95EFF0BF80137534
:1008DC00F50F49BFB707002003A5C7039317D50031
:1008EC00A98F13D51701A98F139557003D8D42057C
:1008FC00418111E10545828001478147FD15634423
:10090C00B7003E858280B306E5009422B58FA146E0
:10091C001393870113961700135383419377F60FA4
:10092C00635603009347760093F7F70FFD1693F683
:10093C00F60FF9FE05071377F70FD1B718219307B8
:10094C00A00A631AF704EFF2AFF514311307500540
:10095C002A848147639EE60234210D47639AE6029E
:10096C00AE8493050002493F783C81476312A7028D
:10097C001A246E20543042074D8F4C2003D64182EE
:10098C00A206CD8E6316D600B387E44093B717004A
:10099C003E856FF08FF181473E858280EFF24FF0FC
:1009AC005971EF00807D13054006EF10A0441D37F0
:1009BC0069468145AA8413056101EFF00FF9B75719
:1009CC0001209387A75A3EC8E482593E230BA1000D
:1009DC00953DA30BA100C147930500020808230C09
:1009EC00F100193FA307A10202C08247371501404D
:1009FC009145858B13050540B1E7EF00D07DEF00E5
:100A0C00D00D8967138547E9EF00900B9305000221
:100A1C000808EF007018EF003029EF00F00EB70750
:100A2C0000201387C70318439387C7033EC43AC2F9
:100A3C00A24712479C43998F1307301F6377F70027
:100A4C000144ADA8EF00F0785DBFEF00501F2A8481
:100A5C0063070512930500020818EF00701F034787
:100A6C0001039307A00A6319F70A034711039307BD
:100A7C0050056313F70A834621031D478147639E84
:100A8C00E6089305000208183EC6BD350347F1047D
:100A9C00B2476314A7080347510383464103220757
:100AAC00558F639CE4060347B1038547E31AF7F8B7
:100ABC009387418286A3B8A3EFF05F8F82478507A7
:100ACC003EC002479307004B6304F700E30F04F0AA
:100ADC0037150140914513050540EF00906FEF006D
:100AEC00902155C01544B71401409145138504401D
:100AFC00EF00706E13054006EF10C02F9145138563
:100B0C000440EF00106D130540067D14EF10802E8D
:100B1C0079F865616FF06FD98147930600029808E8
:100B2C003306F70018183E97182385071347F7FF6D
:100B3C0018A2E396D7FE034701059307A00A63109A
:100B4C00F7040347110593075005631AF70203478F
:100B5C0021059D476315F702930500028808693B40
:100B6C008347F106639DA700834751050347410561
:100B7C00A207D98F6395F4000347B1053DB705452E
:100B8C00EF10402775B5938741822390070023818E
:100B9C0007000D44EFF09F81B71401409145138578
:100BAC000440EF0050631305401FEF10A024914543
:100BBC0013850440EF00F0611305401F7D14EF1006
:100BCC00602379F8B9B7EFF2AFCD9387C18023A03A
:100BDC00070023820700B707002013878703130140
:100BEC0081FD93878703230007003EC05DC18947C1
:100BFC006315F50A93874182B82385471384C18016
:100C0C0093844182631EF7049A2039CB694681454F
:100C1C001305E1003AC2EFF04FD31247B757062045
:100C2C009387A75A9305000228003EC47886E931C1
:100C3C00A303A102EF00606A0965130545E9EF0003
:100C4C002068D1479305000228003EC2EF00C07413
:100C5C007945EF10201A9247FD17EDF7EF00B00918
:100C6C002390040023810400EFF04FF49307F00F5E
:100C7C005CC42380018282472320040023020400E9
:100C8C0023130400232404002318040023800700EA
:100C9C003133130181026FF04FC113054006EF1081
:100CAC00601537F700E0832707D1B7060080D58F92
:100CBC002328F7D0F9BFEFF2AFBE1301C1FCB70781
:100CCC0000203AC61387C70318439387C7032AC269
:100CDC00AE84328436C43AC03EC8C24702479C43F5
:100CEC00998F124763E4E70001452DA8A1C0EF00DE
:100CFC0000750DCD930500024808EF006075A285C4
:100D0C0048082D3919ED5C085418982385071347AA
:100D1C00F7FFA38FE7FEE39AD7FEA285480839397F
:100D2C0011C50545130141036FF02FB813870182DC
:100D3C001C2393F7F70F9DE3B70700201387870356
:100D4C001823938787031377F70F05C723800700B2
:100D5C00EFF02FCA1DCD853D0D45E9B723000700E7
:100D6C00EFF01F87B24788A3A247E307F5FC0945BC
:100D7C0055BF03A7C18079FB3715014093050004CB
:100D8C0013050540EF005044B707002093878703F5
:100D9C0055DD0545EF10000689B7EFF26FB0130172
:100DAC00C1FCEF00207BEF10A0017165130505203D
:100DBC00EF10E007EFF06FE4EFF00FEBEFF0FF84D4
:100DCC00EFF04FCB056513058538EF10A0029307A4
:100DDC00800873A007305526EF00E071EFF0CFDAF2
:100DEC001387418234239387418205473EC2639621
:100DFC00E6000965130545E9E1218D4437140140EE
:100E0C00914513050440EF00103D1305401FEF0002
:100E1C00707E914513050440EF00B03B1305401F55
:100E2C00FD14EF00307DF9F8130504409145EF00F7
:100E3C00503A9387C1801307F00FD8C723A007003F
:100E4C00238207002393070023A40700239807009D
:100E5C0023800182B70700201387870393878703BA
:100E6C00230007001384C1803EC4A2479C2393F740
:100E7C00F70F85C7A24723800700EFF08FB759E122
:100E8C00371501409305000413050540EF00D033DE
:100E9C0005E12945EF001076C9BF1C40E1FF37156D
:100EAC0001409305000413050540EF00F03179D1A2
:100EBC009247B82385476312F71EEFF06FF17A2043
:100ECC004424A309A1003AC01307F00FAA87638D2D
:100EDC00E40282461307F03B6368D70263969704DB
:100EEC0002479307F03B63F9E7001C38A1C3FD17D9
:100EFC0093F7F70F1CB89DCBEFF02FFB7E208507E7
:100F0C007EA0A5B7C93195B73EC6EFF0BF9308A830
:100F1C0013054006EF00106E54241307F00FB24770
:100F2C00E39EE6FAE38397FCA30804008147582468
:100F3C009306F00F834431016309D70063179700C0
:100F4C0082461307F03B637FD714614681456808DE
:100F5C00EFF0AF9FB75702209387A75A3ECA92472C
:100F6C00230D910065479E23FC841C28A30DF100E2
:100F7C006365F7008547230EF10083C781809305D5
:100F8C0000024808A30EF1001C4481443ED0EFF04F
:100F9C00BF96A309A102D52289268967138547E943
:100FAC0005268D4293050002480816C6F526834691
:100FBC00310110441307310181452945ED390943AD
:100FCC00B242631B6500EF0000531C44A3080400ED
:100FDC0085071CC48547A1BF8D476315F500EF003D
:100FEC00805161B5FD12E39F02FA7D29312E8346B3
:100FFC00310110441307310185451305C0126539C1
:10100C00054709438D476318E504EF00C04E83473D
:10101C003101A308040085445CA41C4485071CC44E
:10102C00854723130400E38907EC371501401305AA
:10103C0005409145EF00301A1305200399E0130584
:10104C00401FEF00305B37150140914513050540FB
:10105C00EF00301855B5E30865F6E302F5F83947AB
:10106C006381E40283463101104413073101814549
:10107C001305400689310943E30765F48D47E30006
:10108C00F5F6850493F4F40FBD47E397F4F0A5212E
:10109C0091471CB88547814469B713054006EF009A
:1010AC00705599BDE38A07E48147F5B7EFE25FFF1E
:1010BC002A84894537350140EF00F0377DD9A28568
:1010CC0037350140EF00B036854537350140EF002C
:1010DC0090367DD937350140EF00B0351375F50FDB
:1010EC006FE0BFFCEFE2DFFB2E84AA84A14537152D
:1010FC000140EF00500E13E504024D3F22857D3771
:10110C00A14537150140EF00D00C6FE01FFAEFE25C
:10111C003FF97111AA842E8437150140A14532C0C4
:10112C00EF00700B13E5040251370246B304C40000
:10113C00631A9400A14537150140EF009009110185
:10114C006FE0BFF605040345F4FF8D37D5B7EFE22A
:10115C003FF5A1452A8437150140EF00D0072285C1
:10116C00B1371305F00F99372A84A1453715014083
:10117C00EF00300622856FE05FF3EFE27FF205654A
:10118C00011185451305050302C002C202C402C643
:10119C0002C802CA02CC231E0100EF00F01C930708
:1011AC0000067C80E1448D478A853715014026C4B2
:1011BC003EC2EF00A079930700087C808A85914796
:1011CC00371501403EC4EF006078A14741448A8541
:1011DC00371501407C8022C4EF004077A1453715BC
:1011EC000140EF00007F608022C4371401408A85E3
:1011FC0013050440EF00807513050440C145EF0052
:10120C00807DB70704013EC6B70700023ECA6C00DA
:10121C009D4737350140FC8626CC02C8EF00701C78
:10122C00854537350140EF00F01E13056009EF00CE
:10123C00703C814501457D352945EF00B03BB945F2
:10124C0001454D3581450545713D85450945593D5E
:10125C0085450D45413D8145114569359305300660
:10126C001545493599451945B53D93050002454548
:10127C00953D930500071D45B535A1453715014032
:10128C00EF0060751305100E1535A145371501409B
:10129C00EF002074A14537150140EF00C073130512
:1012AC00200E2935A14537150140EF00807201450C
:1012BC00793D1545693D1945593D05616FE0FFDEE6
:1012CC00EFE21FDE2A84AA850D46414589350D467D
:1012DC00A28529452D3D6FE05FDDEFE27FDC371500
:1012EC000140C14513050540EF00E06E8145014505
:1012FC00D53B0945EF001030B9450145E5330945AB
:10130C00EF00502F6FE07FDAEFE29FD937140140E6
:10131C0013050440C145EF00006C81450145D933EC
:10132C000945EF00302D814505456D3B9305300691
:10133C0015454D3B994519457533930500024545B7
:10134C005533930500071D45713BA14537150140E9
:10135C00EF0060681305100E913BA1453715014055
:10136C008D2DA14537150140BD251305200EEFF03D
:10137C00FFD3A14537150140A92DBD4501459D332E
:10138C000945EF003027C145130504409925054553
:10139C00EF0050266FE07FD1EFE29FD02A84371503
:1013AC000140711113050540AE84C1452D259305EF
:1013BC0000071D45EFF01FD3A14537150140212D26
:1013CC001305100EEFF09FCEA145371501401125E6
:1013DC00A1453715014001251305000AEFF01FCD7B
:1013EC00814713F7F70F0145637597003307F40036
:1013FC0008233EC0EFF09FCB8247130700028507FE
:10140C00E391E7FEA14537150140E1233714014074
:10141C00C14513050440752B0545EF00B01DC145B2
:10142C00130504404D2B0945EF00D01C9305000318
:10143C001D45EFF03FCB054511016FE01FC7EFE2F3
:10144C003FC61D45EFF0BFD0198105896FE0FFC580
:10145C00EFE21FC571112A84AE8437150140A145F6
:10146C009D2B13051006EFF07FC481471305F00F79
:10147C003EC0EFF0BFC3824713F7F70F63759700B9
:10148C003307F40008A3850713070002E390E7FE77
:10149C00A14537150140352B930500041D45EFF090
:1014AC007FC411016FE07FC0EFE29FBF3715014091
:1014BC00C145130505400523930500071D45EFF0B5
:1014CC007FC2A1453715014039231305200EEFF0DB
:1014DC00FFBDA14537150140ED29A1453715014048
:1014EC00DD291305100EEFF07FBCA1453715014027
:1014FC00CD216FE09FBBEFE2BFBA37150140C1456C
:10150C0013050540C929A1450145EFF0BFBD6FE0AA
:10151C00DFB9B71702409843B706FFF813671700F7
:10152C0098C3D843758FD8C39843B706F7FEFD16FA
:10153C00758F98C39843B706FCFFFD16758F98C33B
:10154C00D843B70640FFFD16758FD8C337079F00E9
:10155C0098C78280B7160240D842B70700201146C0
:10156C00318B9387C7006305C70021466308C7000A
:10157C0037376E011307076098C38280D8429316E1
:10158C00F700E3D706FE3777DC02130707C0EDB789
:10159C0001A097F1FF1F9381A129138181FC1305F1
:1015AC00000A97F5FF1F938525A517F6FF1F130655
:1015BC0066A563FAC5008322050023A0550011051A
:1015CC009105E3EAC5FE171500001305658C97F528
:1015DC00FF1F938525A317F6FF1F130666A563FA55
:1015EC00C5008322050023A0550011059105E3EAEF
:1015FC00C5FE17F5FF1F1305A5A39385018363771C
:10160C00B500232005001105E36DB5FEB7220000DF
:10161C0093820288739002308D427390428097F2CD
:10162C00FFFF9382629D93E2320073905230EFF091
:10163C005FEE97F2FFFF9382827673901234730001
:10164C002030B727014093870740631EF500EFE277
:10165C003FA5854513050020B123814513050020C6
:10166C0091236FE09FA482805C413707F1FF130741
:10167C00F7EF7D8FDC419441A207D58FD98F5CC1E8
:10168C001C4537F7F1FF1307D77FD4457D8F9C4955
:10169C00D58F94458606D58FD98F1CC55C553707D9
:1016AC0010FF7D177D8FDC29FD1793F7F70FD207FD
:1016BC00D98F5CD582801C4589C593E717001CC562
:1016CC008280F99BEDBF1C4593E787001CC5828087
:1016DC0008450D81058982801C4593E747001CC590
:1016EC00828008450981058982801C4591C5370790
:1016FC005000D98F1CC582803707B0FF7D17F98F3A
:10170C00D5BFA54763F8B704138765FF9317170078
:10171C008322C500BA971D433313F3001343F3FF21
:10172C0033735300B397F600B3E767005CC5994772
:10173C0063E3C7047D16931726003E965859FD4760
:10174C00B397C70093C7F7FFF98FB395C500DD8D2D
:10175C004CD982809397150003230501AE971D4742
:10176C003317F7001347F7FF33776700B397F6008B
:10177C005D8F18C96DBFB14763E2C7026516931739
:10178C0026003E961859FD47B397C70093C7F7FF3D
:10179C00F98FB395C500DD8D0CD982804D161317CA
:1017AC00260054553A96FD47B397C70093C7F7FFE9
:1017BC00F58FB395C500DD8D4CD58280684542050B
:1017CC004181828008416D8D3335A0008280584163
:1017DC00032305004C4537060140930706403E970E
:1017EC009346F3FFB1C583250640F58D2320B64003
:1017FC00D043F18ED4C31443B3E6660014C318412E
:10180C0090479346F7FF758E90C7D047F18ED4C79B
:10181C00144541466399C6009447D98E94C7D44762
:10182C00558FD8C78280B6979443558F98C38280C2
:10183C001C43F58F1CC38280B707014013870740F8
:10184C0083A70740584B698F09C77D8D3335A0009E
:10185C00828001458280B707014023AAA74082807D
:10186C00B707674537270240938737125CC3B79792
:10187C00EFCD9387B79A5CC38280372702401C4B0D
:10188C0093E707081CCB8280372702405C4705454D
:10189C00858B91E748474189133515000D058280EA
:1018AC00EFE21F802A84CD3785476318F50019E0D5
:1018BC00154529A0D13F7D14C5BF7DD86FE0EFFE43
:1018CC00EFE20FFEAA8437050B00D93F9147631353
:1018DC00F502372402401C4837050B0093E727001C
:1018EC001CC844C81C4893E707041CC8553F1C4837
:1018FC00F59B1CC86FE06FFBEFE28FFA6111AA84B5
:10190C0009652EC002C2693F11478245631DE5027D
:10191C00372402401C48096593E717001CC89397AD
:10192C000501C1839EA02EC0A53F114782456319B6
:10193C00E500890426C29247C18109658EA38D37C3
:10194C001C48F99B1CC821016FE02FF6944593F7B6
:10195C00060193F2F60081C7DC41B3E2F20083D3B7
:10196C00050093F7F30FA5C303230500611122C2F1
:10197C0026C0814713048002930480040547331664
:10198C00F70033F7C3006312E602939527003D4737
:10199C003317B7001347F7FF33736700B395B200E3
:1019AC0033E36500639D860050C985072147E397A3
:1019BC00E7FC124423206500824421018280E396D7
:1019CC0096FE10C9DDB7828008456D8D3335A000B9
:1019DC0082800CC982804CC9828037070140144731
:1019EC0086058D47B397B70093C7F7FFF58F1CC7D4
:1019FC001C47B315B500DD8D0CC7828083A6818290
:101A0C00854718216390F6021C31639CD7023C2158
:101A1C009A0793E707F8B7E600E093F7F70FBA9643
:101A2C002380F6408546935757003397E600544180
:101A3C0089CE938707048A07B7E600E0B69798C368
:101A4C008280EDF33C219A07F9B793870706B7E636
:101A5C0000E08A07B69798C30F1000008280377792
:101A6C0000401C4709C593E727001CC78280F59BE3
:101A7C00EDBF377700401C4BC19B5D8D08CB82803E
:101A8C00711102C0377700405C4793F707FC3EC0EA
:101A9C0082475D8D2AC082475CC711018280B716D0
:101AAC000240DC4241771307F77FF98F5D8DC8C286
:101ABC008280371702405C5309C593E717005CD34B
:101ACC008280F99BEDBFEFE2AFDD371702405C433C
:101ADC0091462A84B18B6385D700A1466380D708D1
:101AEC00B7376E01938707601CC0B7160240DC4203
:101AFC00918313F7F700B707002093874702BA9733
:101B0C008C23DC42184093F5F50F93F707083355F7
:101B1C00B70081E73A85EFE0EFDB48C008C448C462
:101B2C00B7170240DC438D46AD83FD8B13D73700CE
:101B3C008A07F18BD98F13F6370113F7370063F44B
:101B4C00C600138747FFB707002093870701BA9792
:101B5C008C23EFE02FD808C86FE02FD55C43B77704
:101B6C00DC02938707C049B799C5371702401C4F51
:101B7C005D8D08CF8280B7170240984F1345F5FF53
:101B8C00798D88CF828099C5371702405C4F5D8D67
:101B9C0048CF8280B7170240D84F1345F5FF798D97
:101BAC00C8CF828099C5371702405C475D8D48C706
:101BBC008280B7170240D8471345F5FF798DC8C707
:101BCC0082801357550085476319F700B7170240F9
:101BDC009C4333D5A70005898280B7170240DC539C
:101BEC00CDBF1A218D6793870704B6217D8F9E2167
:101BFC00D58FD621D58FF621D58F9625D58FB625A5
:101C0C00D58FD625D58FF625D58FD98F1EA19E2998
:101C1C001EA982801E2189C593E707041EA182801C
:101C2C00C207C18393F7F7FBC207C183C5BF4EA59B
:101C3C0082804A2582800A256D8D3335A0008280F2
:101C4C001E2137370140130707C0C207C183630643
:101C5C00E500370700406316E500BA2193F7F7F863
:101C6C00D98FFA2193F7F7CFC207C183D98F1EA161
:101C7C00DE215EB59E211EB5B7370140938707C0A4
:101C8C006314F5009C251EB985475EA982801E2130
:101C9C0089C593E717001EA18280C207C183F99BF7
:101CAC00C207C183CDBF5E2501C6DD8D4EA58280E6
:101CBC0093C5F5FFFD8DDDBF1E294A25ED8F42052D
:101CCC00418189C76D8D3335A000828001458280AA
:101CDC0093C5F5FFC205C1810EA98280EFE24FBC0E
:101CEC001629F577FD17F58FF621DA252111D58FF9
:101CFC001EA95625FD779387379FF58FD6212A8409
:101D0C002EC0D58F9625D58FB625D58F5EA55E298D
:101D1C00C207C18393F7F7CF5D8F5AA94800EFF044
:101D2C009FDAB74701409387078082456312F40618
:101D3C00C2475A24139517003E9542070E0541875A
:101D4C003E958C41635807048605EFE0AFB89305C8
:101D5C0040062AC0EFE00FB8824793144500930564
:101D6C0040063E85EFE0CFB95E24C207C18763D53C
:101D7C0007020E059305400613052503EFE08FB50A
:101D8C001D89C98CC204C18006A461016FE0EFB14A
:101D9C00B24745B78A0555BF120593054006130592
:101DAC002503EFE02FB33D89E9BF91C55E25096797
:101DBC00D98F5EA582805A25F977FD17F98FD5BF8B
:101DCC00EFE20FAEB707002003A5C700B7157A00E6
:101DDC0093850520EFE00FB01375F50F2387A182D3
:101DEC0093175500898F8A073E950E052396A1827D
:101DFC006FE0AFABEFE2CFAA37F400E05C40AA850E
:101E0C00F99B5CC003D5C182EFE0CFAA08C823249C
:101E1C0004001C4093E717001CC0B7F700E0D84340
:101E2C00058B75DF9843799B98C36FE00FA8EFE2A1
:101E3C002FA72A8411651111854513050502EFF0B2
:101E4C00BFD2930700027C80371501408D473EC2FC
:101E5C008A85E147130505403EC4EFF03FAF22C62B
:101E6C0037440140B70708006C00130504803ECAD4
:101E7C0002C8231C0100EFF07FE6854513050480A2
:0C1E8C002D3771016FE06FA2E7E7E7005F
:101E9800006CDC020204060804080C100810182064
:101EA8001020304020406080010203040506070826
:0C1EB800010203040506070800000000FA
:00000001FF
