:100000006F10504A00000000A21C0000A21C00005B
:1000100000000000000000000000000000000000E0
:1000200000000000000000000000000000000000D0
:10003000A21C000000000000A21C00000000000044
:10004000A21C0000A21C0000A21C0000A21C0000B8
:100050000608000072070000A21C0000A21C00009D
:10006000A21C0000A21C0000A21C0000A21C000098
:10007000A21C0000A21C0000A21C0000A21C000088
:10008000A21C0000A21C0000A21C0000A21C000078
:10009000A21C0000A21C00005A0800000000000082
:0C00A000730050107D157DFD8280000073
:1000AC00511126C022C206C4828282441244A2404C
:1000BC00310182802A86014593F6150091C2329552
:1000CC0085810606F5F9828000000000634E05026A
:1000DC0063C305042E86AA857D5515C285466378B3
:1000EC00B6006356C00006068606E36CB6FE0145F4
:1000FC0063E4C500918D558D85820582F5FA828069
:10010C008682C93F2E8582823305A04063D70500C5
:10011C00B305B040C1B7B305B0408682653F330527
:10012C00A0408282868263C70500634905005D3763
:10013C002E858282B305B040E35B05FE3305A040FB
:10014C00513F3305B040828200003D432A876373E0
:10015C00C3029377F700BDEFADE5937606FF3D8ABA
:10016C00BA960CC34CC30CC74CC74107E36BD7FE04
:10017C0011E28280B306C3408A069702000096966D
:10018C006780A6002307B700A306B7002306B700B5
:10019C00A305B7002305B700A304B7002304B700D9
:1001AC00A303B7002303B700A302B7002302B700D1
:1001BC00A301B7002301B700A300B7002300B700C9
:1001CC00828093F5F50F93968500D58D9396050156
:1001DC00D58D61B79396270097020000969686827C
:1001EC00E78086FA9680C1171D8F3E96E374C3F89C
:1001FC00A5B7EFF2FFEAA14537150140EF10B06E3D
:10020C006DB5EFF2FFE92A84894537350140EF20BF
:10021C0060177DD9A28537350140EF202016854522
:10022C0037350140EF2000167DD937350140EF20DE
:10023C0020151375F50F95BDEFF29FE69305000899
:10024C0037350140EF2000148547E309F5FEA14541
:10025C0037150140EF10F06889BDEFF27FE47111A2
:10026C002AC0413F02451375F507613F0145513FD7
:10027C002AC0D937024511010DBDEFF27FE26111A1
:10028C002EC02AC2BD371245136505089D3F824515
:10029C002E85853F5537210109BDEFF27FE03714DC
:1002AC000140C14513050440EF10F0632945EF20D0
:1002BC00602AC14513050440EF10B0625145EF2090
:1002CC006029E5B3EFF2DFDD93058008054575374E
:1002DC00E9BBEFF2FFDC930590080545793FF1B3DC
:1002EC00EFF21FDC930590080545413F0945EF20CF
:1002FC00602681453D45513781453545BD3F9305C8
:10030C00F00F49459D3F9305D0080545BD3771BB9E
:10031C00EFF21FD9373500000111130505C7EF2087
:10032C00B00F373500001305C5C9EF20F00E056579
:10033C0085451305150302C002C202C402C602C8D9
:10034C0002CA02CC231E0100EF10F07693070006C0
:10035C007C80E1448D478A85371501403EC226C416
:10036C00EF10D04F930700087C808A859307800498
:10037C00371501403EC4EF10704EA14741448A85A9
:10038C00371501407C8022C4EF10504DA145371524
:10039C000140EF101055608022C437140140130542
:1003AC0004408A85EF10904B13050440C145EF10B3
:1003BC005053B70704013EC6B70700023ECA6C0093
:1003CC009D4737350140FC8602C826CCEF1050768D
:1003DC00854537350140EF10D078373500001305CF
:1003EC0085CCEF207003553D13052004BD35AA853F
:1003FC002A84373500001305C5CEEF20A07FC947EE
:10040C00630BF40037350000130545D2EF20D00004
:10041C000545056159B98145054585353D45EF20B3
:10042C006013930580080545893D3D45EF208012FA
:10043C009305C00619459135930500041D45353DBE
:10044C00814521451D3D81453945053D81453D454C
:10045C002D359305300231450D359145130560025C
:10046C00293D930560077545093D9305400779457E
:10047C0029358D45130510030935A945130570035E
:10048C00ED3BC94513059003CD3BA1452945F533FB
:10049C009305F0082545D533930540081305D00482
:1004AC00E93B9305B0022D45C93B930590080545E2
:1004BC00E9333D45EF20000A05454533AA8537351C
:1004CC0000001305C5D6EF20E07237350000130588
:1004DC0005DAEF20607437350000130545DFEF2097
:1004EC00A07301453DB7EFF2BFBB9307001071112C
:1004FC002A849304001063E3B700AE84930590083C
:10050C000545A53B7945EF20E00481453545B533DC
:10051C00CD3113050008F531B3079400639C8704B3
:10052C00213B93F5F40F13052002813B9305F00F4B
:10053C004945A1339305B0080545813313040032B6
:10054C004945213B9377850085CF2AC0A145494574
:10055C002D339305900805450D3302469305003263
:10056C0037350000818D1305C5E5EF20A0680145E6
:10057C00110125BE08203EC005046131824779BFB8
:10058C007D14420405454180EF10D07C55F805459B
:10059C00E9312AC04945D13182452A8637350000D8
:1005AC00130545E9EF200065054593059008F131E9
:1005BC0005457DBFEFF2DFAE49454531198105890F
:1005CC00EDB4EFF2FFAD61112AC24945AE84713131
:1005DC0013750504014409C94D4541312A8401E9CB
:1005EC009305F00F49455139228521017DBC4145C8
:1005FC00AD312AC0AA8535454931A2871374F40F51
:10060C0063F38400A68713F4F70FE5360145D53E56
:10061C00814463E084020D319305F00F4945B139F3
:10062C00024637350000A285130505E2EF20805CF9
:10063C0065BF0145F9369247A69788A38504D1BFBB
:10064C00EFF21FA637150140930500041305054072
:10065C00EF109028133515006FF03FA514211307E8
:10066C00A00AAA87639EE6021431130750050145C0
:10067C006399E602B4230D476395E602D433EA236B
:10068C009A27D02383D7E182A2064207D18E498FC5
:10069C0001456398D7003385E540133515008280FA
:1006AC0001458280EFF2DF9F613F1384C18015CD3D
:1006BC00B707002083A4C7031C4081EB373500002B
:1006CC001305054A04C0EF2020555C2099C3014551
:1006DC0019A81C409D8C856793877738E3F997FEA2
:1006EC0085475CA00D456FF05F9C08406DD1B70746
:1006FC000020582083A7C7032320040001C723022E
:10070C000400F1B77D77898F130787443E979306D2
:10071C00F07C0945E3F9E6FC05659387E7FC1305D6
:10072C0065B833B5A700C1B7EFF29F973705001036
:10073C0061118545EF10103A0545EF10702C13052B
:10074C001006EF10F03C65DD9307501123110100EA
:10075C007C8085475C810A8585473EC2EF10F01E80
:10076C0021016FF09F9413050020EF10207FB7E755
:10077C0000E03707200023A0E72873002030EFF2B9
:10078C003F92211185450545EF10F032854537051F
:10079C000010EF10303499450D4502C402C602C852
:1007AC0002CA02C002C2EF105014930700040544A1
:1007BC003EC42800B1473EC822CA02C6EF10807161
:1007CC00930700203EC42800A1473EC822CA02C697
:1007DC00EF104070930740110A857C80408122C243
:1007EC00EF10B016930750110A857C80408122C20D
:1007FC00EF10B01561016FF05F8B13050004EF1063
:10080C00007411C9B7070020054713050004238C99
:10081C00E702EF10A07473002030EFF27F881565AB
:10082C0013055555EF10900E1945EF10B00E0565D8
:10083C007D15EF10B00EEF10F00EEF10900F373556
:10084C00000013054510EF20203D6FF01F868545F5
:10085C0037050040EF10303B09CDB70700209387D8
:10086C00C7039843854537050040050798C3EF102B
:10087C00103B73002030EFF2BF82311185450545E6
:10088C0002C402C62318010002C002C2EF10902459
:10089C00B707002003A5C700896593850571EFF0A4
:1008AC007F837D15A54768842C00370500403EC624
:1008BC0023150100EF10B02D054685453705004086
:1008CC00EF105033930760027C8085475C810A856A
:1008DC0085473EC2EF107007854537050040EF1085
:1008EC00F02F51016FF06FFCEFF28FFB511185452A
:1008FC00130540023714014002C002C202C4EF10BB
:10090C00901B93070004930480048A85130504400C
:10091C007C8026C4EF108074914741477C808A8587
:10092C008D47130504403AC43EC2EF1020731305E3
:10093C0004409145EF10207BA14641478D478A85A5
:10094C001305044074803AC43EC2EF1020711305A5
:10095C000440A145EF10E07885454145EF10B015F6
:10096C00DD478A85371501407C8026C4EF10006F67
:10097C00393531016FF06FF3EFF28FF241112AC666
:10098C0037150140A14513050540EF10C0752945E9
:10099C00EF10503C95473EC402C202C08144014452
:1009AC00854537150140EF10207301E505041374DC
:1009BC00F40F894537150140EF10007201E58504ED
:1009CC0093F4F40F914537150140EF10E07011E5E9
:1009DC008247850793F7F70F3EC0C1453715014095
:1009EC00EF10806F11E59247850793F7F70F3EC222
:1009FC000945EF103036A247FD173EC4D5F3371525
:100A0C000140A14513050540EF10A06D0545EF1001
:100A1C0070349247024737350000A68622869545EA
:100A2C0013058554EF20001D92470947637EF7029A
:100A3C00824681476363D7009147094763649700F7
:100A4C0093E7270009476364870093E71700324751
:100A5C0019C732471CA31247894763F5E7021305F0
:100A6C00400641016FF06FE48247637CF7028147D7
:100A7C0063639700894709476364870093E717000E
:100A8C00324761FB024789471305B004E3EBE7FCEF
:100A9C0013052003E3E797FC0145E3F487FC654568
:100AAC00C9B78147E37E97FC93373400D1BFEFF28F
:100ABC002FDF711113053100A3010100753D9881E1
:100ACC002A84AA8537350000130545592384E18013
:100ADC00EF204012228511016FF02FDDEFF24FDC79
:100AEC002111614681450A85EFF02FE685451305F6
:100AFC000020EF10407C316537240140EF10006F6F
:100B0C0013050440EF104024B7070E003EC68A853B
:100B1C00854713050440230AF10002C002C202C437
:100B2C0002C8EF10C024854513050440EF100029BE
:100B3C0013050440EF108029930404402685EF1020
:100B4C0080296DFD1305044037240140EF10202946
:100B5C00130404402285EF1020296DFD61016FF014
:100B6C00CFD4EFF2EFD3AA852A8437350000611178
:100B7C00130585EDEF2000081545EF10B01DB714D7
:100B8C00014013850440A145EF10A0551385044086
:100B9C009145EF104055EFF0EFF2814537050040DD
:100BAC00EF10D0030146854537050040EF10900447
:100BBC00B7E700E01307000423A2E7180F100000AA
:100BCC0023A2E728054791473AC063F9870095456A
:100BDC002285EFF02FD09377F50F3EC08545370572
:100BEC000010EF10206F0144B7F400E03D45EF100A
:100BFC00205D2945EF10A05D0545EF10205B370700
:100C0C0001407D56232AC74013050024EF10003500
:100C1C00B7E600E03706200023A0C62837061000F0
:100C2C0023A0C628377600401442F59A14C283A636
:100C3C0004D193E6460023A8D4D0EF10A04E83A68F
:100C4C0004D1918A638006129306800873B0063033
:100C5C000F1000003707014083264740032607404A
:100C6C00832547404D8E2322C74003A604D103A7FA
:100C7C0004D136C2137606021367870223A8E4D088
:100C8C0003A704D14D451377F7FD518F23A8E4D06A
:100C9C0003A704D11367870023A8E4D097F0FF1FA4
:100CAC00E780803503A704D14D451367870023A83F
:100CBC00E4D097F0FF1FE780203403A704D1118BF9
:100CCC0061C39246370701402322D740130780089F
:100CDC0073200730EF10004503A704D101456D9B2D
:100CEC0023A8E4D0EF10804C13050024EF1000274C
:100CFC0037E700E0B70620002320D728370700206D
:100D0C00034787031377F70F51C3EF001075B7072D
:100D1C0001407D57054623AAE7408545370500402D
:100D2C00EF10406DB7E700E01307000423A2E710B3
:100D3C00854537050040EF10606A37350000130514
:100D4C0045EFEF10706D0565854513055523EF10C4
:100D5C008056EFF07FB959331545EF10A07F210174
:100D6C006FF0AFB403A704D11367070123A8E4D035
:100D7C0013078008733007300F1000008146F5B55B
:100D8C0003A704D13D9B23A8E4D089B737150140B4
:100D9C009305000413050540EF1000343DD5824740
:100DAC0005041374F40FE39387E485B7EFF24FAFA8
:100DBC00372401407111AA859D460546AA84130566
:100DCC000440EF106004130504408545EF10400209
:100DDC00B167938707353EC01304044089452285CB
:100DEC00EF10A00E09E58247FD173EC0E5FB8247D8
:100DFC0081EF37350000A68513050500EF10905FD5
:100E0C00014511016FF06FAA37250140130505400C
:100E1C00EF10200BFDB7EFF2AFA87111A144014404
:100E2C002145FD14613793F4F40F2A94F5F893558A
:100E3C00340093970501C1839384C18089E7A83856
:100E4C0011016FF08FA6C20537C51200C1811305C1
:100E5C0005B5EFF02FA805679306D7C4AA8713042E
:100E6C00400663E8A602930697BE63FFA604131719
:100E7C0025002A972AC045750A071305851B93057B
:100E8C0040063A95EFF00FA513050505824713743C
:100E9C00F50F3736000037350000BE85A2861306E5
:100EAC00C64B1305C54CEF10F054DC2899C3BC3865
:100EBC00C5E7854737350000A0B8DCA8A285130527
:100ECC00C54EEF103053A5BF930657B863F2A60278
:100EDC0013174500098F2AC0297506071305C56429
:100EEC00930540063A95EFF0EF9E1305250379BF65
:100EFC009306F7B363F1A60213174500098F2AC0B6
:100F0C002D750607130505E8930560043A95EFF077
:100F1C006F9C5105A5BF930637B063FFA600120561
:100F2C0059771D8D130747AC9305C0033A953EC006
:100F3C00EFF04F9A150599BF1307F7AE0144E37A0A
:100F4C00A7F40A0575773E9513070795D1453A9591
:100F5C003EC0EFF02F981DBF1387470163598700E0
:100F6C0037350000A0B8A2851305055099BF13951D
:100F7C0017003E9509052A9409809375F40F63F7C1
:100F8C00B7001D8C154763438700BE8537350000BD
:100F9C00ACB81305055335B7B707002003A5C70335
:100FAC009317D500A98F13D51701A98F1395570047
:100FBC003D8D4205418111E1054582800147814704
:100FCC00FD156344B7003E858280B306E50094228C
:100FDC00B58FA146139387011396170013538341C2
:100FEC009377F60F635603009347760093F7F70F4A
:100FFC00FD1693F6F60FF9FE05071377F70FD1B729
:10100C00EFF20F8AB747000883A407FC1384C18250
:10101C0004C083A747FCC204C1805CC0AD67938742
:10102C0057A56381F40237350000A685130505F03A
:10103C00EF10503CAD67938757A51CC023120400DA
:10104C006FF0AF8695451385C1828D3F4C30AA86D3
:10105C00630BB5002A8637350000130545F4EF10F5
:10106C00703904C0E1BF50202E2037350000130525
:10107C0085F9EF103038E9B7EFF28F82ED771384F2
:10108C00C182938757A595451385C1821EA03D3714
:10109C00B744000848B023130400EF00D06C13854C
:1010AC0004FCEF0050720C40138504FCEF007075CB
:1010BC004C40138544FCEF00D074EF00706C54303E
:1010CC0050202E2037350000130585FDEF1090328F
:1010DC006FE0BFFDEFE2DFFCAE841306000281453A
:1010EC002A84EFF08F86B75702209387A75A1CC02B
:1010FC0083D7E18264A05EA01387C180343B2304B4
:10110C0004009387C18074B0343B93B6560114A489
:10111C0083C6818014B4142F1307F00F91C2F82BDF
:10112C0038A4F83B93050002228538B49C475CC474
:10113C00713568BC6FE07FF7EFE29FF61971EFF045
:10114C002F9D1305401FEF10E040B935AA852A8466
:10115C00373500001305055BEF10D0296946814532
:10116C0013056102EFE07FFEB75701209387A75A62
:10117C003ED023128102EFF09F93AA852303A10294
:10118C00373500001305855CEF10D026EFF0BFC893
:10119C00AA85A303A102373500001305855EEF1065
:1011AC007025C1479305000208102304F10239355C
:1011BC00A30FA102373500001305855FEF109023B4
:1011CC008144373700001C10A6978C2313058760C9
:1011DC008504EF103022A14737370000E395F4FE69
:1011EC008345F1033735000013050561EF1090209E
:1011FC0037350000930600321306B00485451305FD
:10120C00C561EF10301FB70700201387C7031843C1
:10121C009387C7033EC4BD67938707A63AC602C22D
:10122C003ECAA24732479C43998F52476376F706D2
:10123C0037350000854513054564EF10B01B02C01F
:10124C0037150140914513050540EF00D069EFF0CB
:10125C006F8782476386071E1544B714014091457A
:10126C0013850440EF00F06713054006EF10802E45
:10127C00914513850440EF001067130540067D145B
:10128C00EF10402D79F83735000013058578EF10F5
:10129C00B01809616FE07FE1EF00D068B71401402E
:1012AC00914513850440EF001064EFF08F82930595
:1012BC0000020810EFF02FA3EFF08F8292479145B8
:1012CC0013850440858B85E3EF00B061A2479C43F6
:1012DC003EC8A24742479C43998F1307F03163776E
:1012EC00F70002C065A0EF001060CDB7EFF08FAC37
:1012FC002AC063030514930500028800EFF06FAC5D
:10130C00834621040346110483450104B7370000CA
:10131C001385C766EF10100E034701049307A00A4C
:10132C006312F7080347110493075005631CF70673
:10133C00034721049D476317F706834451048347F1
:10134C0041040343B104A20403476104DD8C373527
:10135C0000009A862286A6851305C5681ACCEF1064
:10136C0070096243631094048547631DF3029387ED
:10137C00C182A2A323826700EFF01FD083456104D2
:10138C00373500001305456CEF10D00692478507E2
:10139C003EC212479307B004E304F7EA8247E382A4
:1013AC0007E879BD81479306000298103306F700D1
:1013BC0098003E97182385071347F7FF18A2E3966A
:1013CC00D7FE034701069307A00A6317F7060347E6
:1013DC001106930750056311F706034721069D4735
:1013EC00631CF70483475106034741060343B106C8
:1013FC0083446106A207D98F373500009A86BE85D3
:10140C0026872286130585701ACE3ECCEF10807E7F
:10141C00E24772436312F4028547631FF30093871C
:10142C00C182A2A323826700EFF01FC537350000ED
:10143C00A6851305057489BF0545EF10A01151BD94
:10144C009387C18223910700238207000D44EFF09C
:10145C00BFC2B7140140914513850440EF0070489A
:10146C001305401FEF10000F914513850440EF004A
:10147C0090471305401F7D14EF10C00D79F83735D8
:10148C0000009305B00413058579EF10A07611B513
:10149C00EFE21FC1B70700209384C1801387870335
:1014AC00130181FD9387870323A00400238204008A
:1014BC00230007003EC061C10D476312E50C3735B0
:1014CC00000013058501EF1020759387C182D82386
:1014DC0085471384C1809384C182631FF704BE20A7
:1014EC00A1CF3735000013058503EF10E072694674
:1014FC0081451305E100EFE05FC5B75706209387E0
:10150C00A75A3EC4BE209305000228007C86EFF04B
:10151C00FFAAA303A102EFE0DFDBD1479305000292
:10152C0028003EC2EFE03FFC7945EF10A002924745
:10153C00FD17EDF7EFE01FD923910400238204007F
:10154C00EFF09FB3C167FD175CC49307F00F1CC885
:10155C00238401828247232A0400231C04002320B5
:10156C00040023020400231304002324040023801A
:10157C000700EFF07FBC130181026FE01FB3094736
:10158C006318E5063735000013058505EF10C068B4
:10159C0037140140914513050440EF0090341305B6
:1015AC006009EF00307B914513050440EF00B03328
:1015BC0013056009EF00107A914513050440EF0004
:1015CC00503213056009EF00F07891451305044083
:1015DC00EF00703113056009EF00D07737F700E0AA
:1015EC00832707D1B7060080D58F2328F7D061B7A2
:1015FC000547E312E5F82AC0373500001305450707
:10160C00EF10806137140140914513050440EF0041
:10161C00502D13052003EF00F07313050440914582
:10162C00EF00702C03C4018382476309F400373543
:10163C0000001305050AEF10205E35BFEFF02FC731
:10164C00E8B4C8A42AC023930400EFF0CFFC824571
:10165C002800EFF03FA82800FD209C4485079CC47F
:10166C0063178500373500001305450CE9B737358E
:10167C0000001305450EC1B7EFE29FA2B70700208B
:10168C001387C703184379719387C7032AC22EC4E3
:10169C003284B6843AC03EC6B24702479C43998F07
:1016AC00124763F0E70AA247B1CFEFE0BFF039C9A8
:1016BC00930500020808EFE0DFF0A6850808EFE0CC
:1016CC00FFF901CD37350000A2851305057DEF101C
:1016DC006052054545616FE05F9D1C081418982306
:1016EC0085071347F7FFA38FE7FEE39AD7FEA6857E
:1016FC000808EFE0BFF619C537350000A2851305C1
:10170C00457EF1B7EFE0DFF337070020930787033F
:10171C009C231307870393F7F70F89E783A7C180EF
:10172C0091E311C923000700EFE0DFF709C5EFF0E3
:10173C003FD60D4545B7EF00F01E0545EF00906113
:10174C00A1BF014541BFEFE2BF9571112AC0814491
:10175C00EFE03FB802459305000213F4F40FEFE0FD
:10176C009FD89387C1808C47373500002686130598
:10177C00857BEF102048EFE0BFB69387C18094477C
:10178C002286854513050019C53D85469387C18082
:10179C006312D5061395240026959D451205EFE09E
:1017AC007F931375F50F130640069387C18011CDF7
:1017BC009306C0063385A6402A871375F50F63740C
:1017CC00A600130740061376F70F942F0547F8BBB6
:1017DC0089EAF0AB98AFEFE0FFAE054511016FE081
:1017EC00DF8CF42B13971600369709073297098371
:1017FC00F8ABD5B70D466316C500EFE0BFAC0D4591
:10180C00F1BF902FF4BB21E22946F0AB94AF9D467B
:10181C006383D402B706002003A5C603944722862F
:10182C0026957D891305C50381450605EFF0DFE498
:10183C008D47E304F5FC8504A147E39BF4F0EFE04E
:10184C007FA8014561BFF02B93161600B296B10626
:10185C008982F4AB6DBFEFE2BF84130141FCF52E1E
:10186C00EF00104C716513050520EF005052373511
:10187C00000013058514EF10203AB707002083A54C
:10188C00C7003735000013050516EF10A036EFE042
:10189C009FFEEFF06F85EFF06FA4EFE0FFE80564BB
:1018AC00373500009305843813054517EF10803445
:1018BC0013058438EF00104A373500001305C5189E
:1018CC00EF1080359307800873A007303735000080
:1018DC0013050519EF104034EFE09FA3EFE09F9E36
:1018EC00EFF00FF29387C182D8239386C18285478C
:1018FC0036C66314F70CAE22373500001305051AF3
:10190C00EF10402F954437140140914513050440C6
:10191C00EF00207D13054006EF00D04391451305E1
:10192C000440EF00407C13054006FD14EF0090428C
:10193C00F9F8914513050440EF00E07A37350000C3
:10194C001305451EEF10402D41679387C1807D170D
:10195C00D8C71307F00F98CB23A0070023820700EA
:10196C002393070023A4070023AA0700239C070046
:10197C00B70400202384018213878403230007000B
:10198C00EFE0BFE9938784031384C1803EC8EF0066
:10199C006079EFE0FFCAC247AA849C2393F7F70F44
:1019AC0081E71C4091E315C5C24723800700EFE097
:1019BC007FCF19C9EFF0DFADD9BF37350000130564
:1019CC00C51BEF1060253DBF89C42945EF00903839
:1019DC007DBFB2470547C4236399E41CEFF02F8DFC
:1019EC003828AA8509EF68B408A837350000A30881
:1019FC00040024A813050520EF10C01F39A078346B
:101A0C00631DA702A308040018A80343C40093078E
:101A1C00F00F6434631CF30644B41ACAEFF0AFBF82
:101A2C00AA8528B8373500001305852BEF10801CCC
:101A3C002945EF003032524395A81828631CE50263
:101A4C00103837350000894605061376F60F130556
:101A5C00C52110B8EF10001A1838E3F8E4FA0C2876
:101A6C00B147373500006CB4A30804001CBC130547
:101A7C00452459B708A837350000B1470946130566
:101A8C00852704B81CBCEF10E01641B77A2063021E
:101A9C00930A5C34638D971644B42307040085675E
:101AAC009387F7B3E3EBE7F63C38A5DBA68568082C
:101ABC001ACAEFF02FE28342E4005243850293F2FC
:101ACC00F20F6313930AB73500009385451483C74F
:101ADC0081803735000016873EC47C38A6861305F6
:101AEC00452D3EC27C281ACC16CA3EC03C38104448
:101AFC00EF1040106808EFF01FC58D47E309F5E8BB
:101B0C008547D2426317F5061C44624344A48507FB
:101B1C0044B4230704001CC4630A93003735000047
:101B2C00B147130545311CBCEF10000F2313040003
:101B3C0011A88567A3066400230704009387F7B3F5
:101B4C00E3EDE7ECB247D82385476316F70014386A
:101B5C00A5E61C3CD9EF37350000BD4513054547BC
:101B6C00EF104009BD449DA0B735000093850514C6
:101B7C00B9BF37350000214696851305C534EF10E3
:101B8C0060077C2418448507050793F7F70F18C4E2
:101B9C007CA40947E37CF7F837350000A6851305CC
:101BAC00053844A4EF10000551B737350000130574
:101BBC00053CEF10600679B710283735000009474F
:101BCC0095451305853EEF10E0029544B7370000AC
:101BDC0013854749EF1040042685EFE09FF89545A3
:101BEC002685EFE02FCF7E201375F50FAA977EA0E8
:101BFC0079BB13962700373500003E9695451305A3
:101C0C000543EF00307F1C3CFD171CBC7DBF7424CA
:101C1C008947E3E9D7F261B5B71702409843B70695
:101C2C00FFF81367170098C3D843758FD8C3984330
:101C3C00B706F7FEFD16758F98C39843B706FCFFE1
:101C4C00FD16758F98C3D843B70640FFFD16758FE8
:101C5C00D8C337079F0098C78280B7160240D84276
:101C6C00B70700201146318B9387C7006305C70067
:101C7C0021466308C70037376E011307076098C306
:101C8C008280D8429316F700E3D706FE3777DC0242
:101C9C00130707C0EDB701A097F1FF1F938141B95E
:101CAC00138181FC1305000A97E5FF1F9385C5344A
:101CBC0017E6FF1F1306063563FAC50083220500DD
:101CCC0023A0550011059105E3EAC5FE1725000078
:101CDC001305C5B297E5FF1F9385C53217E6FF1FA5
:101CEC001306063563FAC5008322050023A05500B0
:101CFC0011059105E3EAC5FE17E5FF1F13054533F2
:101D0C009385C1836377B500232005001105E36D2E
:101D1C00B5FEB722000093820288739002308D4288
:101D2C007390428097E2FFFF9382022D93E2320080
:101D3C0073905230EFF05FEE970200009382E2B1A5
:101D4C007390123473002030B727014093870740FB
:101D5C00631EF500EFE2CFB4854513050020512B2F
:101D6C0081451305002071236FE02FB482805C4104
:101D7C003707F1FF1307F7EF7D8FDC419441A20782
:101D8C00D58FD98F5CC11C4537F7F1FF1307D77F6F
:101D9C00D4457D8F9C49D58F94458606D58FD98F98
:101DAC001CC55C55370710FF7D177D8FDC29FD178F
:101DBC0093F7F70FD207D98F5CD582801C4589C564
:101DCC0093E717001CC58280F99BEDBF1C4593E778
:101DDC0087001CC5828008450D81058982801C45C1
:101DEC0093E747001CC582800845098105898280DC
:101DFC001C4591C537075000D98F1CC58280370709
:101E0C00B0FF7D17F98FD5BFA54763F8B7041387CB
:101E1C0065FF931717008322C500BA971D43331330
:101E2C00F3001343F3FF33735300B397F600B3E798
:101E3C0067005CC5994763E3C7047D1693172600BA
:101E4C003E965859FD47B397C70093C7F7FFF98FD4
:101E5C00B395C500DD8D4CD9828093971500032373
:101E6C000501AE971D473317F7001347F7FF33777C
:101E7C006700B397F6005D8F18C96DBFB14763E279
:101E8C00C7026516931726003E961859FD47B3975F
:101E9C00C70093C7F7FFF98FB395C500DD8D0CD93B
:101EAC0082804D161317260054553A96FD47B3976A
:101EBC00C70093C7F7FFF58FB395C500DD8D4CD5E3
:101ECC008280684542054181828008416D8D3335A1
:101EDC00A00082805841032305004C453706014081
:101EEC00930706403E979346F3FFB1C58325064002
:101EFC00F58D2320B640D043F18ED4C31443B3E602
:101F0C00660014C3184190479346F7FF758E90C72F
:101F1C00D047F18ED4C7144541466399C600944707
:101F2C00D98E94C7D447558FD8C78280B69794431F
:101F3C00558F98C382801C43F58F1CC38280B707D2
:101F4C0001401387074083A70740584B698F09C787
:101F5C007D8D3335A000828001458280B70701401A
:101F6C0023AAA7408280B70767453727024093878B
:101F7C0037125CC3B797EFCD9387B79A5CC3828057
:101F8C00372702401C4B93E707081CCB828037276E
:101F9C0002405C470545858B91E7484741891335DD
:101FAC0015000D058280EFE2AF8F2A84CD3785476F
:101FBC006318F50019E0154529A0D13F7D14C5BF64
:101FCC007DD86FE08F8EEFE2AF8DAA8437050B00C2
:101FDC00EFF07FFD91476314F502372402401C4853
:101FEC0037050B0093E727001CC844C81C4893E72F
:101FFC0007041CC8EFF03FFB1C48F59B1CC86FE0A6
:10200C00CF8AEFE2EF896111AA8409652EC002C262
:10201C00EFF07FF911478245631FE5023724024038
:10202C001C48096593E717001CC893970501C183E9
:10203C009EA02EC0EFF03FF711478245631AE500D2
:10204C00890426C29247C18109658EA3EFF0BFF5C2
:10205C001C48F99B1CC821016FE02F85944593F710
:10206C00060193F2F60081C7DC41B3E2F20083D3A0
:10207C00050093F7F30FA5C303230500611122C2DA
:10208C0026C081471304800293048004054733164D
:10209C00F70033F7C3006312E602939527003D4720
:1020AC003317B7001347F7FF33736700B395B200CC
:1020BC0033E36500639D860050C985072147E3978C
:1020CC00E7FC124423206500824421018280E396C0
:1020DC0096FE10C9DDB7828008456D8D3335A000A2
:1020EC0082800CC982804CC982803707014014471A
:1020FC0086058D47B397B70093C7F7FFF58F1CC7BD
:10210C001C47B315B500DD8D0CC78280B737004076
:10211C0088C38280B7370040C8C38280B73700407D
:10212C0088C78280AD67373700409387A7AA1CC346
:10213C008280B567373700409387C7CC1CC33717ED
:10214C0002405C53898BF5DF828083A641838547EF
:10215C0018216390F6021C31639CD7023C219A072C
:10216C0093E707F8B7E600E093F7F70FBA962380EA
:10217C00F6408546935757003397E600544189CE75
:10218C00938707048A07B7E600E0B69798C3828066
:10219C00EDF33C219A07F9B793870706B7E600E001
:1021AC008A07B69798C30F100000828037770040DB
:1021BC001C4709C593E727001CC78280F59BEDBF20
:1021CC00377700401C4BC19B5D8D08CB8280711111
:1021DC0002C0377700405C4793F707FC3EC082474C
:1021EC005D8D2AC082475CC711018280B716024000
:1021FC00DC4241771307F77FF98F5D8DC8C282806F
:10220C00371702405C5309C593E717005CD38280F3
:10221C00F99BEDBFEFD2DFE8371702405C439146E4
:10222C002A84B18B6385D700A1466380D708B73762
:10223C006E01938707601CC0B7160240DC42918385
:10224C0013F7F700B707002093874702BA978C2340
:10225C00DC42184093F5F50F93F707083355B70098
:10226C0081E73A85EFD01FE748C008C448C4B717C8
:10227C000240DC438D46AD83FD8B13D737008A07B4
:10228C00F18BD98F13F6370113F7370063F4C600BF
:10229C00138747FFB707002093870701BA978C2352
:1022AC00EFD05FE308C86FD05FE05C43B777DC0228
:1022BC00938707C049B799C5371702401C4F5D8DEE
:1022CC0008CF8280B7170240984F1345F5FF798DE0
:1022DC0088CF828099C5371702405C4F5D8D48CFFF
:1022EC008280B7170240D84F1345F5FF798DC8CFC0
:1022FC00828099C5371702405C475D8D48C7828044
:10230C00B7170240D8471345F5FF798DC8C78280AF
:10231C001357550085476319F700B71702409C43C4
:10232C0033D5A70005898280B7170240DC53CDBF97
:10233C001A218D6793870704B6217D8F9E21D58F37
:10234C00D621D58FF621D58F9625D58FB625D58F4D
:10235C00D625D58FF625D58FD98F1EA19E291EA9DE
:10236C0082801E2189C593E707041EA18280C207C3
:10237C00C18393F7F7FBC207C183C5BF4EA582800B
:10238C004A2582800A256D8D3335A00082801E215E
:10239C0037370140130707C0C207C1836306E50046
:1023AC00370700406316E500BA2193F7F7F8D98F89
:1023BC00FA2193F7F7CFC207C183D98F1EA1DE2173
:1023CC005EB59E211EB5B7370140938707C06314D5
:1023DC00F5009C251EB985475EA982801E2189C502
:1023EC0093E717001EA18280C207C183F99BC20725
:1023FC00C183CDBF5E2501C6DD8D4EA5828093C500
:10240C00F5FFFD8DDDBF1E294A25ED8F420541816B
:10241C0089C76D8D3335A00082800145828093C5BC
:10242C00F5FFC205C1810EA98280EFD27FC71629A4
:10243C00F577FD17F58FF621DA252111D58F1EA919
:10244C005625FD779387379FF58FD6212A842EC08A
:10245C00D58F9625D58FB625D58F5EA55E29C2075B
:10246C00C18393F7F7CF5D8F5AA94800EFF09FDA3D
:10247C00B74701409387078082456312F406C24731
:10248C005A24139517003E9542070E0541873E9539
:10249C008C41635807048605EFD0DFC393054006D3
:1024AC002AC0EFD03FC382479314450093054006E2
:1024BC003E85EFD0FFC45E24C207C18763D50702F7
:1024CC000E059305400613052503EFD0BFC01D89EB
:1024DC00C98CC204C18006A461016FD01FBDB24774
:1024EC0045B78A0555BF120593054006130525030C
:1024FC00EFD05FBE3D89E9BF91C55E250967D98FD5
:10250C005EA582805A25F977FD17F98FD5BF93F513
:10251C00F51F4EA182800A216D8D3335A00082807B
:10252C00EFD21FB8B707002003A5C700B7157A0074
:10253C0093850520EFD01FBA1375F50F238DA1825B
:10254C0093175500898F8A073E950E05239CA1820F
:10255C006FD0BFB5EFD2DFB437F400E05C40AA8592
:10256C00F99B5CC003D58183EFD0DFB408C823246A
:10257C0004001C4093E717001CC0B7F700E0D843D9
:10258C00058B75DF9843799B98C36FD01FB2EFD240
:10259C003FB12A8411651111854513050502EFF031
:1025AC009FD1930700027C80371501408D473EC2B6
:1025BC008A85E147130505403EC4EFF03FAA22C6C9
:1025CC0037440140B70708006C00130504803ECA6D
:1025DC0002C8231C0100EFF05FE58545130504805C
:1025EC00EFF09FF171016FD05FACEFD27FAB711147
:1025FC00AE840144635FC402B74701401387078070
:10260C003A859305000432C0EFF0FFF0B747014064
:10261C001387078002466DD5338784008305070036
:10262C00138507800504C205C181EFF05FEE0246F9
:10263C00D1B7328511016FD05FA7411106C62EC0EC
:10264C000DCD1841AA8705C358417D5511CB854640
:10265C00631BD70098472300070023A207000545FA
:10266C00B240410182809847824614A398470507DF
:10267C0098C7D8437D17D8C3DDB705468A85EFF0D8
:10268C00DFF6F1BF011122CC2EC206CE26CA2A8457
:10269C00814793050002634506029245BE958385EA
:1026AC0005008DE563D8C70263D4E702198E1305C4
:1026BC00000293F526002AC089C501E793050003A3
:1026CC002EC0858A81449DEAB28415A08507F1B796
:1026DC001D8EF1BF0146E1BF824522853AC832C644
:1026EC003EC4EFF09FF5A24732464247FD14E34546
:1026FC0090FEB284635306008144058E63C7E702E3
:10270C00A6879246338797403697830507009DED41
:10271C00B28463469004635306000146F24062445F
:10272C00D2443305F600056182801D8FBA8793056C
:10273C000003228532C83EC63AC4EFF01FF0B24700
:10274C0022474246FD17E5F7BA945DBF228532C693
:10275C003EC4EFF09FEEA247324685075DB7824537
:10276C00228532C43EC2EFF05FEDFD142246924743
:10277C004DB7397106DE22DC26DA3EC232833A8648
:10278C0091ED92469307000301476C08FC86EFF02D
:10279C007FEFF2506254D25421618280AA84368435
:1027AC00AE8791CA294701446317E30063D505003E
:1027BC00B307B04005448646A30901021307310351
:1027CC00938666FC36C49A853E8532CA3AC81AC6C8
:1027DC003EC0EFD0FF92A546824732434247524655
:1027EC0063D4A600A2463695130505039306F7FF9E
:1027FC00A30FA7FE9A853E8532CC3ACA1AC83EC6AC
:10280C0036C0EFD03F8DB24742435247624663FD1C
:10281C00670409CC29CE9247898BB1CB9305D002A2
:10282C00268532C4EFF07FE122467D169247918BCC
:10283C0085C706479307100632C493050003268507
:10284C006311F704EFF07FDF930580072685EFF027
:10285C00DFDE224609047916164792468245268504
:10286C00EFF05FE2229535B7AA870247A9BF8246EF
:10287C009307D0020144A38FF6FE9307E7FF3EC0F7
:10288C0075B7EFF09FDB93058005C9B701458280D2
:10289C0001458280130181FD22D026CE06D22AC4A6
:1028AC00AE82328402C681448385020091EDA24738
:1028BC0089C781453E85EFF05FD89250025426853A
:1028CC00F244130181028280930750026389F50060
:1028DC00224516C88504EFF05FD6C24205A0838757
:1028EC00120013871200639DB70022459305500216
:1028FC003AC8EFF09FD442478504BA8285026DB77F
:10290C00DDD79306B0026389D70463C8F60093063B
:10291C0030026386D704814705A09306D002638AF0
:10292C00D70093060003E398D7FE1387220089474C
:10293C0021A0138722008547830607001306B002E7
:10294C006383C6046341D60213063002638BC6024E
:10295C00BA820145A54681A0138722006DBF13875B
:10296C0022009147D1BF1306D0026389C60013061B
:10297C000003E39FC6FC93E7270031A005078547BA
:10298C00C1BF93E747000507E1B713162500329541
:10299C0006053A95850203860200130706FD93751A
:1029AC00F70FE3F4B6FE1307E0029946631EE60048
:1029BC0085028146A54503860200130606FD1377A2
:1029CC00F60F63F5E50236C6038702001306A00670
:1029DC00630DC70A6343E6021306C0046307C70A04
:1029EC0013068006630CC70881452DA81397260093
:1029FC00BA968606B29685027DBF1306400763061B
:102A0C00C7081306A0076302C7081306C006814552
:102A1C00631AC700038612008D456314E600850215
:102A2C0091458502038602009303000613071006E6
:102A3C0063C4C300130710049303700663C4C30676
:102A4C0093035006635676189303700463C1C30452
:102A5C0093055004635EB61613073004E310E6EAE0
:102A6C0018409303440016CA230CE1001EC8A30CA3
:102A7C0001000147BE862A862C0849A8038612004D
:102A8C008145E311E6FA890271BF8502B1BF930655
:102A9C003006E307D6FC63CFC606930680056303B6
:102AAC00D602A9BD930630076304D60463CBC602D5
:102ABC009306F0066305D60E9306000793E74700CE
:102ACC00E31ED6E291466392D50C930384000C402E
:102ADC00504016CA3AC23EC01EC8AA870147C1461A
:102AEC0081A893065007630BD6069306800745BF53
:102AFC001840B7360000930344009385C67F11C37A
:102B0C00BA85324716CA1EC8BE862A862245EFF001
:102B1C007FB715A091466395D502930384000C40B2
:102B2C00504016CA3AC23EC01EC8AA870547A946DD
:102B3C002245EFF0BFD5C243AA941E84D2427DBB7E
:102B4C00B2460C4016C836C23AC011042A878546D4
:102B5C0029462245EFF0FFC1AA9441B39146639DEB
:102B6C00D500930384000C40504016CA3AC23EC0B4
:102B7C001EC8AA87014765BFB2460C4016C836C2AC
:102B8C003AC011042A878146E1B7B24616C80C40F8
:102B9C00414636C23AC011042A8781465DBF914630
:102BAC00639ED500930384000C40504016CA3AC271
:102BBC003EC01EC8AA870147A1469DBFB2460C4025
:102BCC0016C836C23AC011042A878146214651B72D
:102BDC000C401306840040403AC22A87224532C872
:102BEC003EC02286B687A94616CAEFF07FCAAA94C1
:102BFC004244A9B71301C1FD2EC832CAAA851008D8
:102C0C00014506C636CC3ACE3ED032C0EFF09FC856
:102C1C00B240130141028280411122C426C206C671
:102C2C001C21AA840144DC8183073100050499EF3F
:102C3C00A9479305310005460145DC81EFF0FF9A69
:102C4C002285B2402244924441018280054693057C
:102C5C0031000145EFF07F99B38784009C23DC8120
:102C6C00E1B700000D0A3D3D3D3D3D3D3D3D3D3D47
:102C7C003D3D3D3D3D3D3D3D3D3D3D3D3D3D3D3D78
:102C8C003D3D3D3D3D3D3D3D3D3D3D3D3D3D0D00D5
:102C9C005B4C4F52415D202D2D2D20535831323736
:102CAC0038204C6F526120496E697469616C697A85
:102CBC006174696F6E202D2D2D0D00005B4C4F52F1
:102CCC00415D20526573657474696E67206D6F6425
:102CDC00756C6520766961205044342E2E2E0D00C3
:102CEC005B4C4F52415D20526561642053696C69A5
:102CFC00636F6E2056657273696F6E3A203078255B
:102D0C00303258202845787065637465643A2030F9
:102D1C00783132290D0A00005B4C4F52415D203F47
:102D2C00204552524F523A20535831323738206E88
:102D3C006F7420726573706F6E64696E67212043C7
:102D4C006865636B2053434B2F4D49534F2F4D4FA9
:102D5C0053492F4E53532077697265732E0D000023
:102D6C005B4C4F52415D204F704D6F646520616626
:102D7C0074657220696E69743A2030782530325847
:102D8C00202845787065637465642030783839295B
:102D9C000D0A00005B4C4F52415D203F20496E698B
:102DAC007420436F6D706C6574653A203433334D09
:102DBC00487A207C20534637207C204257203132E1
:102DCC00356B487A207C20506F776572202B313719
:102DDC0064426D2028536F66742D53746172742095
:102DEC003130307573290D003D3D3D3D3D3D3D3D40
:102DFC003D3D3D3D3D3D3D3D3D3D3D3D3D3D3D3DF7
:102E0C003D3D3D3D3D3D3D3D3D3D3D3D3D3D3D3DE6
:102E1C000D0000005B4C4F52412052585D203F206A
:102E2C005265636569766564202564204279746512
:102E3C00732066726F6D204649464F2028416464AA
:102E4C00723A20307825303258290D0A00000000E3
:102E5C005B4C4F52412054585D203F205061636BB6
:102E6C0065742053656E7421202854696D653A2071
:102E7C002564206D732C204952513A20307825302E
:102E8C003258290D0A0000005B4C4F524120545817
:102E9C005D203F2054582054696D656F7574212056
:102EAC0046696E616C204F704D6F64653A203078C6
:102EBC00253032582C204952515F464C4147533AE9
:102ECC00203078253032580D0A0000005B505752E4
:102EDC005D20536C6565702028256473204157551F
:102EEC00292E2E2E0D0A00005B5057525D20576183
:102EFC006B650D005B464C5D204D6167696320304E
:102F0C00782530345820213D20307841413535200A
:102F1C002D3E20556E70726F6772616D6D65642009
:102F2C00466C6173682E20496E6974206465666115
:102F3C00756C74732E0D0A005B464C5D2043524336
:102F4C00204572726F722028526561643A30782580
:102F5C0030325820213D2043616C633A3078253063
:102F6C003258292120466C61736820436F72727548
:102F7C0070746564202D3E20526573657420646501
:102F8C006661756C74732E0D0A0000005B464C5D17
:102F9C00204C6F616465642056616C6964205365D4
:102FAC007474696E6773202849443A30782530343C
:102FBC0058205374617475733A2564204352433A14
:102FCC00307825303258290D0A0000005B464C5DE4
:102FDC002053617665642049443A30782530345862
:102FEC0020533A2564204352433A307825303258E6
:102FFC000D0A00005B4144435D2054494D454F553B
:10300C00542063682564210D0A0000005B5359535A
:10301C005D20464143544F5259205245534554204C
:10302C00283E357320486F6C64290D0053656E641F
:10303C00696E6720554E50414952206265666F7229
:10304C00652072657365740D000000005B53595365
:10305C005D205265626F6F742028337320486F6C4B
:10306C0064292E2E2E0D00005B5359535D2053699D
:10307C006E676C6520436C69636B202D3E20466F38
:10308C0072636520496E7374616E742053656E644F
:10309C000D0000005B5359535D204E6F742050613E
:1030AC0069726564202D3E2052756E2050616972E4
:1030BC00696E670D000000005B444154415D204681
:1030CC006F7263652053656E64202D3E2041434B27
:1030DC00204F4B0D000000005B444154415D2046E5
:1030EC006F7263652053656E64202D3E204E6F20F9
:1030FC0041434B0D000000005B5359535D20486168
:10310C007264776172652049574447205761746334
:10311C0068646F6720496E697469616C697A65646B
:10312C0020287E3130732054696D656F7574290DBC
:10313C000000000043484700484200000D0A3D3D96
:10314C003D2054414E4B20424F4F54203D3D3D0DB0
:10315C0000000000434833325630303320402025E5
:10316C006C75487A0D0A00005B5359535D2053610E
:10317C00666544656C61792025646D732E2E200084
:10318C004F4B0D00496E697420526164696F2E2E8D
:10319C002E0D00005B5359535D20506169726564BC
:1031AC002049443A3078253034580D0A000000008C
:1031BC005B5359535D204E4F542050414952454466
:1031CC002E20486F6C6420627574746F6E20746F5F
:1031DC0020706169720D00005B5359535D20496486
:1031EC006C652028486F6C642062746E3D70616958
:1031FC0072290D005B53595354454D5D20496E693E
:10320C0074204C6576656C3A20256425250D0A00E2
:10321C005B5359535D2043616E646964617465202E
:10322C004C766C202564252520686F6C642028253D
:10323C00642F2564290D0A005B5359535D204C768D
:10324C006C20436F6E6669726D65643A2025642547
:10325C00252028312D4D696E2054696D65722052E0
:10326C00656C6F61646564290D0A00005B535953EA
:10327C005D204E65772043616E64696461746520DE
:10328C004C766C20256425252028312F2564292097
:10329C0028312D4D696E2054696D65722052656C14
:1032AC006F61646564290D0A000000005B424154A3
:1032BC005D2042617474657279206C6576656C3A38
:1032CC0020256425250D0A005B54585D20257320AC
:1032DC005365713A256C75204C3A256425252028B8
:1032EC0057616B653A25642F332920423A256425B2
:1032FC002520513A2575252520523A257520463A28
:10330C0025640D0A000000005B5359535D20416396
:10331C00746976652046696C6C696E672057696EB6
:10332C00646F77205374617274656420283630732F
:10333C002046617374204D6F6465290D00000000F8
:10334C005B54585D204E4F2041434B206F6E2077CD
:10335C00616B6520617474656D70742025642F3306
:10336C0020616674657220256420726574726965CB
:10337C00730D0A005B5359535D20332077616B65E5
:10338C0020617474656D70747320646F6E65207742
:10339C006974686F75742041434B2E204C657665BB
:1033AC006C20256425252073746F707065642E0D58
:1033BC000A0000005B5359535D204E6F74207061FE
:1033CC00697265642E20486F6C6420627574746F2A
:1033DC006E20746F20706169722E0D005B5359530F
:1033EC005D205472616E736974696F6E20537461E1
:1033FC0074653A204661737420536C6565702025A2
:10340C006473202843616E6469646174652025646B
:10341C00252520686F6C642025642F2564290D0AEE
:10342C00000000005B5359535D204163746976655D
:10343C002046696C6C696E67204D6F64653A204656
:10344C0061737420536C6565702025647320284863
:10345C006F6C64202564732072656D61696E696E92
:10346C0067290D0A000000005B5359535D2053740B
:10347C00656164792053746174653A20536C656599
:10348C0070202564730D0A002D2D2D2D2D2D2D2D25
:10349C002D2D0D005B53595354454D5D20427574D1
:1034AC00746F6E20507265737365640D00000000BC
:1034BC00496E7465726E616C567265660000000030
:1034CC005B4241545D20256C756D56202825732C6C
:1034DC00205261773A25642525290D0A0000000049
:1034EC005B4241545D20496E69743A202564252560
:1034FC000D0A00005B4241545D204E65772042610D
:10350C007474657279205265706C616365642120F6
:10351C0048696768204A756D703A20256425250D29
:10352C000A0000005B4241545D2046696C74657270
:10353C0065643A20256425250D0A00005B50524F26
:10354C004245535D20526177206869747320286F5F
:10355C007574206F66202564293A205B3235252549
:10356C005D3A2564205B353025255D3A2564205B6A
:10357C00373525255D3A2564205B31303025255DB6
:10358C003A25640D0A0000005B444154415D20540F
:10359C00616E6B204C6576656C3A20256425250D93
:1035AC000A0000000D0A5B504149525D204E6577C0
:1035BC0049443A3078253034580D0A005B50414963
:1035CC00525D204C766C3A25642052656164696EBC
:1035DC0067206261742E2E2E0D0A00005B5041494B
:1035EC00525D204261743A25640D0A005B504149DA
:1035FC00525D20506B743A20000000002530325888
:10360C00200000004352433A253032580D0A000086
:10361C005B504149525D2042636173742025646D97
:10362C00696E206275727374733A25642061636BE2
:10363C003A25646D730D0A005B504149525D20546C
:10364C00696D656F7574207265616368656420616E
:10365C0066746572202564206D696E730D0A000016
:10366C005B504149525D2052583A20533D2530322F
:10367C00582530325820543D253032580D0A000060
:10368C005B504149525D204E53796E632052494440
:10369C003A307825303458204D593A30782530342A
:1036AC0058205374617475733D256420536C6F748A
:1036BC003D25640D0A0000005B504149525D20F02D
:1036CC009F8E89204D4154434845442120506169C7
:1036DC00726564207769746820536C6F742025645C
:1036EC002C2053746F7070696E6720506169726919
:1036FC006E67204C6F6F702E0D0A00005B504149B5
:10370C00525D20496E7653796E63205249443A30AB
:10371C007825303458204D593A307825303458209B
:10372C005374617475733D256420536C6F743D251F
:10373C00640D0A005B504149525D20F09F8E892038
:10374C004D41544348454428496E76292120506107
:10375C0069726564207769746820536C6F742025D6
:10376C00642C2053746F7070696E6720506169729D
:10377C00696E67204C6F6F702E0D0A005B504149CB
:10378C00525D20444F4E450D000000005B504149F6
:10379C00525D204641494C20616674657220256457
:1037AC002074726965730D0A000000005B54585D4B
:1037BC00205365713A256C75207472793A25640D25
:1037CC000A0000005B41434B5D204F4B2074727923
:1037DC003A25640D0A0000005B41434B5D204F4BC2
:1037EC0028696E7629207472793A25640D0A0000D6
:0837FC00286E756C6C290000B9
:10380400006CDC020204060804080C1008101820DE
:1038140010203040204060800102030405060708A0
:0C38240001020304050607080000000074
:00000001FF
