:100000006F100013000000002E1100002E110000E0
:1000100000000000000000000000000000000000E0
:1000200000000000000000000000000000000000D0
:100030002E110000000000002E1100000000000042
:100040002E1100002E1100002E1100002E110000B4
:10005000CA0200004C0200002E1100002E11000008
:100060002E1100002E1100002E1100002E11000094
:100070002E1100002E1100002E1100002E11000084
:100080002E1100002E1100002E1100002E11000074
:100090002E1100002E1100003203000000000000AD
:0C00A000730050107D157DFD8280000073
:1000AC00511126C022C206C4828282441244A2404C
:1000BC00310182802A86014593F6150091C2329552
:1000CC0085810606F5F9828000000000634E05026A
:1000DC0063C305042E86AA857D5515C285466378B3
:1000EC00B6006356C00006068606E36CB6FE0145F4
:1000FC0063E4C500918D558D85820582F5FA828069
:10010C008682C93F2E8582823305A04063D70500C5
:10011C00B305B040C1B7B305B0408682653F330527
:10012C00A0408282868263C70500634905005D3763
:10013C002E858282B305B040E35B05FE3305A040FB
:10014C00513F3305B040828200003D432A876373E0
:10015C00C3029377F700BDEFADE5937606FF3D8ABA
:10016C00BA960CC34CC30CC74CC74107E36BD7FE04
:10017C0011E28280B306C3408A069702000096966D
:10018C006780A6002307B700A306B7002306B700B5
:10019C00A305B7002305B700A304B7002304B700D9
:1001AC00A303B7002303B700A302B7002302B700D1
:1001BC00A301B7002301B700A300B7002300B700C9
:1001CC00828093F5F50F93968500D58D9396050156
:1001DC00D58D61B79396270097020000969686827C
:1001EC00E78086FA9680C1171D8F3E96E374C3F89C
:1001FC00A5B7EFF2FFEA3705001061118545EF1046
:10020C00C04F0545EF10204213051006EF10A05209
:10021C0065DD3D45EF10203D2145EF10A03D054526
:10022C00EF10203B93075011231101007C80854770
:10023C005C810A8585473EC2EF1080332101B5B53C
:10024C0073002030EFF2DFE5211185450545EF10F5
:10025C00E0488145094502C402C602C802CAEF1033
:10026C00002F85450945EF10802E89450945EF1073
:10027C00002E91450945EF10802DDD4705443EC405
:10028C002800C1473EC822CA02C6EF10600D99452E
:10029C000D45EF10C02B930700043EC42800B14756
:1002AC003EC8EF10E00B93074011231101000A85A3
:1002BC007C80408122C2EF10A02B6101FDB313059D
:1002CC007005EF10801073002030B747000803A7AB
:1002DC0007FC9387818098C3C16642074183FD1652
:1002EC006316D70023900700238107008280EFF26A
:1002FC003FDBEF10200EB7440008138504FCEF1011
:10030C006013138481800C40138504FCEF100016DD
:10031C00EF10E00D30200E20373500001305450698
:10032C00EF10104E59B3854537050040EF100050C3
:10033C0009CDB70700209387870398438545370578
:10034C000040050798C3EF10E04F73002030EFF228
:10035C003FD531118545054502C402C6231801005D
:10036C0002C002C2EF106039B707002003A5C70016
:10037C00896593850571B93B7D15A54768842C006B
:10038C00370500403EC623150100EF10A04205467C
:10039C00854537050040EF104048930760027C808C
:1003AC0085475C810A8585473EC2EF10601C8545F8
:1003BC0037050040EF10E0445101C5B9EFF25FCEB4
:1003CC0051118545130540023714014002C002C289
:1003DC0002C4EF10A03093070004930480048A85B4
:1003EC00130504407C8026C4EF10800D91477C805F
:1003FC00C1473EC48A858D47130504403EC2EF10A9
:10040C00200C130504409145EF10E0138545414540
:10041C00EF10C02CDD478A85371501407C8026C43F
:10042C00EF10000A0535310149B1EFF27FC75111C8
:10043C00854537150140EF10601089452A84371522
:10044C000140EF10A00F9145AA8437150140EF1021
:10045C00E00E2AC0C14537150140EF10200E3707BA
:10046C0000202A83933515001307C703824611E930
:10047C00B3679400D58F93F7F70F91EB2300070028
:10048C002DA081E6B3679400FDB7EDF865D837353C
:10049C0000008547130585472EC41AC236C01CA31D
:1004AC00EF10503882461243A245630E030285CEEC
:1004BC0085CC1334140081448147373500002287E2
:1004CC00BE8626861305C54A1AC23EC0EF105033AD
:1004DC001243630E030099EC824785E311C0654417
:1004EC0022853101D9B6854485470544F9B71304F3
:1004FC004006FDB71304B004E5B713042003CDB7D1
:10050C00EFF21FBA1D37AA840D372A84393FA28710
:10051C0063E38400A68713F7F70F1374F50F637466
:10052C00E50013F4F70F01C837350000A285130559
:10053C00854DEF10F02C22858DBEEFF27FB61301A6
:10054C00C1FD614681456800093185451305402090
:10055C0002C002C202C4EF1060183165EF10600BCC
:10056C003715014089478A851305058037240140DA
:10057C007C8002C4EF00D07413050440EF0090455A
:10058C00B7070E003ECC6C008547130504402300D2
:10059C00F10202C602C802CA02CEEF00104685451F
:1005AC0013050440EF00504A13050440EF00D04AF5
:1005BC00930404402685EF00D04A6DFD13050440DA
:1005CC0037240140EF00704A130404402285EF00E9
:1005DC00704A6DFD13014102C9BCEFF27FAC373597
:1005EC00000013054503EF10F02313052003EF1053
:1005FC00A038FD5637070140232AD740B776004074
:10060C009C42F59B9CC2B7F700E083A607D193E60A
:10061C00460023A8D7D083A607D1918A6387060EFC
:10062C009307800873B007300F10000083244740F5
:10063C008327074083264740D58F2322F74037F482
:10064C0000E0032704D1832704D14D45137707021B
:10065C0093E787022328F4D0832704D193F7F7FD7F
:10066C00D98F2328F4D0832704D193E7870023283C
:10067C00F4D097000020E7802098832704D14D45C3
:10068C0093E787002328F4D097000020E780C096DA
:10069C00832704D1918BC1CBB707014023A297408C
:1006AC009307800873A0073037F700E0832707D142
:1006BC0037140140ED9B2328F7D0EF00D022B70769
:1006CC0001407D573735000023AAE7401305450547
:1006DC00EF105015914513050440EF0010671305FA
:1006EC002003EF106029130504409145EF00B0651D
:1006FC00854513055023EF00707EC9313D3D993679
:10070C001305800CEF1040274DB203A707D11367D8
:10071C00070123A8E7D09307800873B007300F10A8
:10072C000000814429BF832704D1BD9B2328F4D02A
:10073C0085BFEFF2FF9637240140AA859D460546FA
:10074C0013050440EF001035854513050440EF00F8
:10075C00F0329304044089452685EF00D03F65DDD7
:10076C0013050440EF00B03E6FF03F94EFF25F933F
:10077C007111C144014421456D3FFD142A94E5FCDF
:10078C0011804204418011E481473E8511016FF0D4
:10079C00DF91C147814405453EC0613F8247AA9421
:1007AC00FD17F5FB13D5440042054181EF20A073E2
:1007BC00B737000083A50744EF202006AA85EF1069
:1007CC00100BAA842285EF200072AA852685EF10D3
:1007DC00D042B734000083A544442A84EF20E003C0
:1007EC00EF20006593054006EFF0DF932AC02285C9
:1007FC00EF2000640246AA853735000013054545F5
:10080C00EF101000B737000083A587442285EF1046
:10081C00B06F93074006E35A05F6B737000083A77D
:10082C00C7442285BE853EC0EF107076E35EA0F40F
:10083C0082472285BE85EF20402783A54444EF10D4
:10084C00D07DB737000083A50745EF10103BEF2094
:10085C0020649377F50F15BFB707002003A5870316
:10086C009317D500A98F13D51701A98F139557008E
:10087C003D8D4205418111E105458280014781474B
:10088C00FD156344B7003E858280B306E5009422D3
:10089C00B58FA14613938701139617001353834109
:1008AC009377F60F635603009347760093F7F70F91
:1008BC00FD1693F6F60FF9FE05071377F70FD1B770
:1008CC00EFF20FFE0111752313054006EF10C00A5D
:1008DC006137054793878180B8A32A848AA3013C9A
:1008EC0037350000A2851305C54FEF1060716946BE
:1008FC00814513056100EFF05F85B75701209387A1
:10090C00A75A3EC06082ED3E48838D35C147C883EF
:10091C00930500020A855C849537A30FA100373537
:10092C00000085451305C551EF10806DEF00E06A9E
:10093C000D6513050503EF0080670144A945228569
:10094C00EFF04FFE9147914563C6A7043715014060
:10095C0013050540EF00703F930500020A85EF0078
:10096C00006913052003EF10200105049307004BC9
:10097C00E316F4FC37150140914513050540EF00D3
:10098C00903C3735000013050554EF10A069056144
:10099C006FF0AFF13715014013050540EF00B03A89
:1009AC0065BFEFF2EFEF3971EF00E073EF00907974
:1009BC00716513050520EF00D07F37350000130556
:1009CC00C50AEF102066B707002083A5C70037358E
:1009DC0000001305C50CEF10A062EFF05F97EFF06D
:1009EC00FF9DA13EEFF0FF80373500001305C50ECB
:1009FC00EF100061056513058538EF00F07737358A
:100A0C00000013058511EF10E0619307800873A0B7
:100A1C0007303735000013050512EF10A06091293F
:100A2C00EF00E065EFF07F8A93878180B8238547DC
:100A3C00938481806310F7188E20373500001305DE
:100A4C000514EF10E05B0D65130505038D23373599
:100A5C0000001305C51AEF10A05A370400209307A5
:100A6C00840398431305803E3AC0EF00F07093075F
:100A7C0084038C430247373500001305851D998D7F
:100A8C00EF100058130784038D473ACE37140140FA
:100A9C009145130504403EC0EF00302B1305401F59
:100AAC00EF00906D914513050440EF00D02913051C
:100ABC00401FEF00706C8247FD17E9FB9145130551
:100ACC000440EF005028373500001305851FEF1048
:100ADC0060559307F00F02C802C602CA3EC002C49A
:100AEC0002C202CC014437150140930500041305E2
:100AFC000540EF00B0246316050C09E8F2473735C2
:100B0C000000130505238043EF10C051F2479843B2
:100B1C00E247C9EF8567018F9387873863F8E70849
:100B2C00373500001305C524EF10C04FB82085479A
:100B3C006310F7069E20A9CF373500001305452812
:100B4C00EF10404E6946814513056102EFF0EFDF6F
:100B5C00B75706209387A75A3ED09E2093050002D4
:100B6C0008102312F102193BA30FA102BD210D6540
:100B7C00130505032D29D1479305000208103EC02B
:100B8C00BD217945EF00505F8247FD17F5F7C52968
:100B9C002390040023810400EFF06FF515339307C5
:100BAC00F00F3EC0854702C602C43ECC2945EF007B
:100BBC00B05C15BF373500001305C516EF10804625
:100BCC0079B529C0F2478C43E2476396071A818DA9
:100BDC008567138755FF9387C73763E5E70237357A
:100BEC0000001305052CEF10A04113054006EF0083
:100BFC00B05837F700E0832707D1B7060080D58FB0
:100C0C002328F7D0B82085476314F71AEFF05F8FCD
:100C1C00B2472A8463930716AA853735000013055B
:100C2C00C52FEF10E03D02479307F00F6307F70065
:100C3C0012479307F03B63F9E7180D3EAA852AC8C3
:100C4C003735000013050535EF10803B13054006C2
:100C5C00EF00905202479307F00F6304F70063070D
:100C6C0087128147130700021410BE9623800600DA
:100C7C008507E39BE7FEB75702209387A75A3ED020
:100C8C009E204247230381022312F102C247A30391
:100C9C00F102BD4763F5E71023040102B7070020FA
:100CAC0083C7C703930500020810A304F1023EC2D8
:100CBC00A2473ED6E1360247A30FA1029247631426
:100CCC00870EB73500009385050A42472246373513
:100CDC000000A2861305C536EF108032592AF52C78
:100CEC000D6513050503E1241305800CEF00D048B6
:100CFC00A9479305000208103EC0D52C7945EF009A
:100D0C00B0478247FD17F5F713052003EF00D046D7
:100D1C00A24785073EC4A526B71701401385074097
:100D2C009145EF00900213054006EF00F044B71711
:100D3C000140138507409145EF00F000854722CA1A
:100D4C003EC602C2B8208547631EF700B7370000C5
:100D5C001385873EEF10002D3735000013054541F4
:100D6C00EF10402CEFF07F87924722C08507C20717
:100D7C00C1833EC285BB02CC71B5D247E385A7EADD
:100D8C00AA85373500001305453261BD124793071C
:100D9C00F03BE3E8E7EC854722CA3EC665B78547DA
:100DAC002304F102E5BDB73500009385850931BFF9
:100DBC00373500001305453CEF10C02613054006DF
:100DCC00EF00903B0244BDBF8247E38687FC51BDD8
:100DDC00EFF20FAD2A84894537350140EF00F01C46
:100DEC007DD9A28537350140EF00B01B85453735DD
:100DFC000140EF00901B7DD937350140EF00B01A50
:100E0C001375F50F6FF06FAAEFF28FA92E84AA84D9
:100E1C00A14537150140EF00407313E504024D3F27
:100E2C0022857D37A14537150140EF00C0716FF069
:100E3C00CFA7EFF2EFA67111AA842E8437150140CB
:100E4C00A14532C0EF00607013E504025137024631
:100E5C00B304C400631A9400A14537150140EF0098
:100E6C00806E11016FF06FA405040345F4FF8D37FC
:100E7C00D5B7EFF2EFA20565011185451305050302
:100E8C0002C002C202C402C602C802CA02CC231E9D
:100E9C000100EF00B004930700067C80E1448D470D
:100EAC008A853715014026C43EC2192D93070008C8
:100EBC007C808A859147371501403EC41125A14796
:100ECC0041448A85371501407C8022C4D52BA1452D
:100EDC0037150140EF002067608022C437140140B1
:100EEC008A8513050440E92B13050440C145B12D37
:100EFC00B70704013EC6B70700023ECA6C009D4707
:100F0C0037350140FC8626CC02C8EF00D00485455D
:100F1C0037350140EF0050073735000013050558F1
:100F2C00EF10401013056009EF00102581450145B5
:100F3C00E13D2945EF005024B9450145F135814586
:100F4C000545D93585450D45C135814511456D3D65
:100F5C009305300615454D3D9305400219456D35F9
:100F6C009305000245454D35930500071D45693D28
:100F7C00A14537150140D12B1305100E913DA1450C
:100F8C0037150140C923A145371501407D2B1305A9
:100F9C00200E3D3DA1453715014075233735000026
:100FAC001305455CEF10000805616FF00F90EFF230
:100FBC002F8F342110310C212A8437350000130572
:100FCC00C55FEF10E003A2850D4641459D350D46EA
:100FDC00A2852945B93D6FF04F8DEFF26F8CB94565
:100FEC0001451D351545EF0030196FF00F8CEFF2F0
:100FFC002F8B71112A84AE841D459305000729356A
:10100C00A1453715014091231305100ED133A1458D
:10101C00371501400D2BA145371501403D23130514
:10102C00000A7D33814713F7F70F0145637597006D
:10103C003307F40008233EC0613B824713070002CC
:10104C008507E392E7FEA14537150140ED293714DA
:10105C000140C14513050440FD211545EF00D01199
:10106C00C14513050440D5210945EF00F010930547
:10107C0000031D45513B054511016FF00F83EFF245
:10108C002F82373500001305055EEF00B079371558
:10109C000140C145130505404D29A1450145AD331E
:1010AC006FF0AF80B71702409843B706FFF813678D
:1010BC00170098C3D843758FD8C39843B706F7FE6B
:1010CC00FD16758F98C39843B706FCFFFD16758FF8
:1010DC0098C3D843B70640FFFD16758FD8C33707A2
:1010EC009F0098C78280B7160240D842B7070020ED
:1010FC001146318B9387C7006305C70021466308EF
:10110C00C70037376E011307076098C38280D84237
:10111C009316F700E3D706FE3777DC02130707C0F8
:10112C00EDB701A097F1FF1F93818170138181FCB2
:10113C001305000A97F5FF1F938505EC17F6FF1FA3
:10114C00130646EC63FAC5008322050023A0550064
:10115C0011059105E3EAC5FE172500001305856905
:10116C0097F5FF1F938505EA17F6FF1F130646EC4C
:10117C0063FAC5008322050023A0550011059105D3
:10118C00E3EAC5FE17F5FF1F130585EA9385418138
:10119C006377B500232005001105E36DB5FEB7227A
:1011AC00000093820288739002308D4273904280CB
:1011BC0097F2FFFF938242E493E232007390523035
:1011CC00EFF05FEE97F2FFFF9382E27D73901234A3
:1011DC0073002030B727014093870740631EF5004A
:1011EC00EFE21FEC8545130500203D2381451305D7
:1011FC0000201D236FE07FEB82805C413707F1FFFD
:10120C001307F7EF7D8FDC419441A207D58FD98F5F
:10121C005CC11C4537F7F1FF1307D77FD4457D8F91
:10122C009C49D58F94458606D58FD98F1CC55C55A6
:10123C00370710FF7D177D8FDC29FD1793F7F70F0C
:10124C00D207D98F5CD582801C4589C593E71700DE
:10125C001CC58280F99BEDBF1C4593E787001CC51C
:10126C00828008450D81058982801C4593E74700E3
:10127C001CC5828008450981058982801C4591C561
:10128C0037075000D98F1CC582803707B0FF7D17F8
:10129C00F98FD5BFA54763F8B704138765FF93177C
:1012AC0017008322C500BA971D433313F300134371
:1012BC00F3FF33735300B397F600B3E767005CC5D5
:1012CC00994763E3C7047D16931726003E96585939
:1012DC00FD47B397C70093C7F7FFF98FB395C500C8
:1012EC00DD8D4CD982809397150003230501AE97B1
:1012FC001D473317F7001347F7FF33776700B39792
:10130C00F6005D8F18C96DBFB14763E2C702651661
:10131C00931726003E961859FD47B397C70093C7FD
:10132C00F7FFF98FB395C500DD8D0CD982804D1672
:10133C001317260054553A96FD47B397C70093C729
:10134C00F7FFF58FB395C500DD8D4CD582806845D0
:10135C0042054181828008416D8D3335A000828029
:10136C005841032305004C453706014093070640BE
:10137C003E979346F3FFB1C583250640F58D232098
:10138C00B640D043F18ED4C31443B3E6660014C305
:10139C00184190479346F7FF758E90C7D047F18E52
:1013AC00D4C7144541466399C6009447D98E94C757
:1013BC00D447558FD8C78280B6979443558F98C31E
:1013CC0082801C43F58F1CC38280B707014023AA7F
:1013DC00A7408280B70767453727024093873712AB
:1013EC005CC3B797EFCD9387B79A5CC382803727DE
:1013FC0002401C4B93E707081CCB82803727024026
:10140C005C470545858B91E74847418913351500A5
:10141C000D058280EFE2DFC82A84CD37854763183B
:10142C00F50019E0154529A0D13F7D14C5BF7DD825
:10143C006FE0BFC7EFE2DFC6AA8437050B00D93FC8
:10144C0091476313F502372402401C4837050B0003
:10145C0093E727001CC844C81C4893E707041CC822
:10146C00553F1C48F59B1CC86FE03FC4EFE25FC3BF
:10147C006111AA8409652EC002C2693F11478245D9
:10148C00631DE502372402401C48096593E71700E9
:10149C001CC893970501C1839EA02EC0A53F114780
:1014AC0082456319E500890426C29247C18109650A
:1014BC008EA38D371C48F99B1CC821016FE0FFBE21
:1014CC00944593F7060193F2F60081C7DC41B3E231
:1014DC00F20083D3050093F7F30FA5C30323050094
:1014EC00611122C226C08147130480029304800438
:1014FC0005473316F70033F7C3006312E6029395E2
:10150C0027003D473317B7001347F7FF33736700C6
:10151C00B395B20033E36500639D860050C985071F
:10152C002147E397E7FC1244232065008244210104
:10153C008280E39696FE10C9DDB7828008456D8DDA
:10154C003335A00082800CC982804CC98280370759
:10155C000140144786058D47B397B70093C7F7FF33
:10156C00F58F1CC71C47B315B500DD8D0CC78280E9
:10157C0083A6C180854718216390F6021C31639CB9
:10158C00D7023C219A0793E707F8B7E600E093F7F8
:10159C00F70FBA962380F64085469357570033973A
:1015AC00E600544189CE938707048A07B7E600E02A
:1015BC00B69798C38280EDF33C219A07F9B79387CD
:1015CC000706B7E600E08A07B69798C30F1000002D
:1015DC008280377700401C4709C593E727001CC75A
:1015EC008280F59BEDBF377700401C4BC19B5D8D16
:1015FC0008CB8280711102C0377700405C4793F7AB
:10160C0007FC3EC082475D8D2AC082475CC7110132
:10161C008280B7160240DC4241771307F77FF98FBF
:10162C005D8DC8C28280371702405C5309C593E7B1
:10163C0017005CD38280F99BEDBFEFE27FA63717D2
:10164C0002405C4391462A84B18B6385D700A14646
:10165C006380D708B7376E01938707601CC0B71635
:10166C000240DC42918313F7F700B7070020938701
:10167C004702BA978C23DC42184093F5F50F93F789
:10168C0007083355B70081E73A85EFE0BFA448C09F
:10169C0008C448C4B7170240DC438D46AD83FD8BAC
:1016AC0013D737008A07F18BD98F13F6370113F74D
:1016BC00370063F4C600138747FFB70700209387F2
:1016CC000701BA978C23EFE0FFA008C86FE0FF9DDD
:1016DC005C43B777DC02938707C049B799C53717C6
:1016EC0002401C4F5D8D08CF8280B7170240984F87
:1016FC001345F5FF798D88CF828099C53717024045
:10170C005C4F5D8D48CF8280B7170240D84F134590
:10171C00F5FF798DC8CF828099C5371702405C4799
:10172C005D8D48C78280B7170240D8471345F5FF37
:10173C00798DC8C782801357550085476319F70008
:10174C00B71702409C4333D5A70005898280B71791
:10175C000240DC53CDBF1A218D6793870704B62155
:10176C007D8F9E21D58FD621D58FF621D58F9625AD
:10177C00D58FB625D58FD625D58FF625D58FD98F74
:10178C001EA19E291EA982801E2189C593E70704EC
:10179C001EA18280C207C18393F7F7FBC207C183E6
:1017AC00C5BF4EA582804A2582800A256D8D3335B2
:1017BC00A00082801E2137370140130707C0C207E3
:1017CC00C1836306E500370700406316E500BA21C4
:1017DC0093F7F7F8D98FFA2193F7F7CFC207C183A4
:1017EC00D98F1EA1DE215EB59E211EB5B7370140F3
:1017FC00938707C06314F5009C251EB985475EA925
:10180C0082801E2189C593E717001EA18280C20722
:10181C00C183F99BC207C183CDBF5E2501C6DD8D97
:10182C004EA5828093C5F5FFFD8DDDBF1E294A258F
:10183C00ED8F4205418189C76D8D3335A0008280C3
:10184C000145828093C5F5FFC205C1810EA9828036
:10185C00EFE21F851629F577FD17F58FF621DA25AE
:10186C002111D58F1EA95625FD779387379FF58FAC
:10187C00D6212A842EC0D58F9625D58FB625D58F07
:10188C005EA55E29C207C18393F7F7CF5D8F5AA976
:10189C0048006533B7470140938707808245631240
:1018AC00F406C2475A24139517003E9542070E05BD
:1018BC0041873E958C41635807048605EFE09F8174
:1018CC00930540062AC0EFE0FF8082479314450041
:1018DC00930540063E85EFE0BF825E24C207C187B8
:1018EC0063D507020E059305400613052503EFE0AB
:1018FC006FFE1D89C98CC204C18006A461016FE012
:10190C00CFFAB24745B78A0555BF12059305400675
:10191C0013052503EFE00FFC3D89E9BF91C55E255A
:10192C000967D98F5EA582805A25F977FD17F98F43
:10193C00D5BF93F5F51F4EA182800A216D8D3335ED
:10194C00A0008280EFE2CFF5B707002003A5C70007
:10195C00B7157A0093850520EFE0CFF71375F50FD7
:10196C002389A18093175500898F8A073E950E0510
:10197C002398A1806FE06FF3EFE28FF237F400E071
:10198C005C40AA85F99B5CC003D50181EFE08FF226
:10199C0008C8232404001C4093E717001CC0B7F7A9
:1019AC0000E0D843058B75DF9843799B98C36FE0B3
:1019BC00CFEFEFE2EFEE2A84116511118545130587
:1019CC000502EFF0BFD1930700027C803715014070
:1019DC008D473EC28A85E147130505403EC4EFF0B2
:1019EC003FAE22C637440140B70708006C00130510
:1019FC0004803ECA02C8231C0100993D854513058D
:101A0C000480293F71016FE04FEAEFE26FE9711139
:101A1C00AE840144635DC402B7470140138707805D
:101A2C003A859305000432C0093FB747014013873C
:101A3C000780024675D5338784008305070013851C
:101A4C0007800504C205C181ED350246E1B7328538
:101A5C0011016FE08FE5411106C62EC00DCD184166
:101A6C00AA8705C358417D5511CB8546631BD7000A
:101A7C0098472300070023A207000545B240410107
:101A8C0082809847824614A39847050798C7D84385
:101A9C007D17D8C3DDB705468A85853FF9BF01118F
:101AAC0022CC2EC206CE26CA2A8481479305000278
:101ABC00634506029245BE95838505008DE563D886
:101ACC00C70263D4E702198E1305000293F52600B2
:101ADC002AC089C501E7930500032EC0858A81447D
:101AEC0095EAB2840DA08507F1B71D8EF1BF0146B2
:101AFC00E1BF824522853AC832C63EC4A93FA247FF
:101B0C0032464247FD14E34690FEB284635306000E
:101B1C008144058E63C7E702A687924633879740B8
:101B2C0036978305070095EDB284634490046353A4
:101B3C0006000146F2406244D2443305F6000561CA
:101B4C0082801D8FBA8793050003228532C83EC65A
:101B5C003AC41137B24722474246FD17EDF7BA9403
:101B6C0065BF228532C63EC4FD35A2473246850785
:101B7C006DB78245228532C43EC2F13DFD1422462A
:101B8C00924765B7397106DE22DC26DA3EC2328313
:101B9C003A8689ED92469307000301476C08FC8650
:101BAC00FD3DF2506254D25421618280AA84368465
:101BBC00AE8791CA294701446317E30063D505003A
:101BCC00B307B04005448646A3090102130731034D
:101BDC00938666FC36C49A853E8532CA3AC81AC6C4
:101BEC003EC0EFE0EFD1A546824732434247524612
:101BFC0063D4A600A2463695130505039306F7FF9A
:101C0C00A30FA7FE9A853E8532CC3ACA1AC83EC6A7
:101C1C0036C0EFE02FCCB24742435247624663FBDB
:101C2C00670401CC39CA9247898BA1CB9305D002AA
:101C3C00268532C40D3522467D169247918B85C779
:101C4C0006479307100632C49305000326856310DC
:101C5C00F704EFF05FE0930580072685EFF0BFDF18
:101C6C002246090479161647924682452685053D7B
:101C7C00229505BFAA870247B9BF82469307D002B7
:101C8C000144A38FF6FE9307E7FF3EC07DB7EFF04C
:101C9C009FDC93058005D1B7014582800145828088
:101CAC00130181FD22D026CE06D22AC4AE82328404
:101CBC0002C681448385020091EDA24789C7814504
:101CCC003E85EFF05FD9925002542685F244130101
:101CDC0081028280930750026389F500224516C861
:101CEC008504EFF05FD7C24205A0838712001387EB
:101CFC001200639DB7002245930550023AC8EFF0DD
:101D0C009FD542478504BA8285026DB7DDD793060D
:101D1C00B0026389D70463C8F60093063002638669
:101D2C00D704814705A09306D002638AD700930697
:101D3C000003E398D7FE13872200894721A013875D
:101D4C0022008547830607001306B0026383C6048E
:101D5C006341D60213063002638BC602BA82014578
:101D6C00A54681A0138722006DBF138722009147DF
:101D7C00D1BF1306D0026389C60013060003E39F8C
:101D8C00C6FC93E7270031A005078547C1BF93E741
:101D9C0047000507E1B713162500329506053A955D
:101DAC00850203860200130706FD9375F70FE3F413
:101DBC00B6FE1307E0029946631EE60085028146D3
:101DCC00A54503860200130606FD1377F60F63F58F
:101DDC00E50236C6038702001306A006630DC70A88
:101DEC006343E6021306C0046307C70A13068006A2
:101DFC00630CC70881452DA813972600BA96860652
:101E0C00B29685027DBF130640076306C70813060A
:101E1C00A0076302C7081306C0068145631AC700F2
:101E2C00038612008D456314E600850291458502F8
:101E3C0003860200930300061307100663C4C30055
:101E4C00130710049303700663C4C3069303500670
:101E5C00635676189303700463C1C304930550044E
:101E6C00635EB61613073004E310E6EA18409303DA
:101E7C00440016CA230CE1001EC8A30C0100014744
:101E8C00BE862A862C0849A8038612008145E311D8
:101E9C00E6FA890271BF8502B1BF93063006E307EB
:101EAC00D6FC63CFC606930680056303D602A9BD94
:101EBC00930630076304D60463CBC6029306F00680
:101ECC006305D60E9306000793E74700E31ED6E2A0
:101EDC0091466392D50C930384000C40504016CA73
:101EEC003AC23EC01EC8AA870147C14681A89306C4
:101EFC005007630BD6069306800745BF1840B736CC
:101F0C000000930344009385466311C3BA8532479E
:101F1C0016CA1EC8BE862A862245EFF05FB815A0E9
:101F2C0091466395D502930384000C40504016CA29
:101F3C003AC23EC01EC8AA870547A9462245EFF003
:101F4C00BFD5C243AA941E84D2427DBBB2460C407C
:101F5C0016C836C23AC011042A878546294622453E
:101F6C00EFF05FC2AA9441B39146639DD5009303F1
:101F7C0084000C40504016CA3AC23EC01EC8AA8704
:101F8C00014765BFB2460C4016C836C23AC01104B0
:101F9C002A878146E1B7B24616C80C40414636C284
:101FAC003AC011042A8781465DBF9146639ED500D5
:101FBC00930384000C40504016CA3AC23EC01EC85F
:101FCC00AA870147A1469DBFB2460C4016C836C22F
:101FDC003AC011042A878146214651B70C4013069A
:101FEC00840040403AC22A87224532C83EC022862D
:101FFC00B687A94616CAEFF07FCAAA944244A9B77D
:10200C001301C1FD2EC832CAAA851008014506C6A7
:10201C0036CC3ACE3ED032C0EFF09FC8B24013015E
:10202C0041028280411122C426C206C61C21AA8408
:10203C000144DC8183073100050499EFA94793051E
:10204C00310005460145DC81EFF03F9C2285B24012
:10205C00224492444101828005469305310001459A
:10206C00EFF0BF9AB38784009C23DC81E1B737077C
:10207C0080007D1741113373A70013D6750193129D
:10208C00330022C4135475011374F40F6D8F26C2E0
:10209C001376F60F9354F50116C006C6FD819A8788
:1020AC00A286268593133700B302C440638EB40E08
:1020BC006352500C630806149307F00F630DF4146D
:1020CC00B7070004B3E3F300ED4763C85728930741
:1020DC000002B3875740B397F300B3D25300B33722
:1020EC00F000B3E7F2000247B307F740139757002D
:1020FC00635F0718370300047D13B3F767003E8551
:10210C003EC0EF00306B82476D15B397A700634656
:10211C00851A018D0505130300023303A340339385
:10212C00670033336000B3D7A700B3E767000144FF
:10213C0013F7770019C713F7F70091466303D7001D
:10214C009107139757006358071405041307F00FF2
:10215C0026856300E4169A07A5839376F40FB240A4
:10216C002244A607DE06A5837E05DD8E9244558D9E
:10217C00410182806399020A130614001376E60F5C
:10218C006318061463160422024663020620E388D1
:10219C0003FC0247B307774013965700635A062295
:1021AC00B387E340AE8469B76359500A49CE9307AD
:1021BC00F00F6302F406B7070004B3E3F300ED4736
:1021CC0063C4572093070002B3875740B397F300BB
:1021DC00B3D25300B337F000B3E7F2000247BA971B
:1021EC00139757006355070A05041307F00F630292
:1021FC00E40CB706007E13D71700FD16858B758F80
:10220C00D98F3DB7638B0308FD12638702189307C0
:10221C00F00FE31BF4EA630D030801459306F00F7E
:10222C00B70740002DBFB307864065EC8246638537
:10223C000614FD176383071A9306F00F631CD60E62
:10224C00AE843A83C9BF638A0304FD12638302120E
:10225C009307F00FE315F4F67DBF639802080504AD
:10226C001376E40F631E0612639C06100246630B82
:10227C000616E38603EEB307760013975700014466
:10228C0063570700370700FC7D17F98F054413F7D8
:10229C007700E31207EA13D337009307F00FE30C30
:1022AC00F4F693179300A5839376F40F268545BD1A
:1022BC0026859306F00F81475DB5370300FC7D132F
:1022CC00B3F7670013F77700098CE31607E6E1B75D
:1022DC008247B3877740139757006342070EE3900A
:1022EC0007E20145814681479DBDB307864025E83D
:1022FC008246FDCAFD17F5CF9306F00FE303D6F423
:10230C006D476346F70E8246130700021D8F339705
:10231C00E600B3D7F6003337E000D98F9E973284AE
:10232C00C1B59306F00FE30DD6F0824637070004D3
:10233C00558F3AC06D47634BF7088246130700026E
:10234C001D8F3397E600B3D7F6003337E000D98FF3
:10235C00B387F3403284AE8451BB854769B393068F
:10236C00F00FE300D6EE824637070004558F3AC0D3
:10237C0041BF82479E97ADB53A833284AE8431BF5C
:10238C0093173300E38F07EAE38703E879B5638398
:10239C0003042E85BA87E1B38247B3877740B9B37C
:1023AC009307F00FE307F4F082479E978583C5B53A
:1023BC0093173300F1FBE38203E6AE8459B58247F1
:1023CC00AE84B387F34025BB854709BD854749B724
:1023DC00E39F07EA0145814759B3B387D340328461
:1023EC00AE8429B3BA87A5BB3A8332847DB58547C1
:1023FC0035B7B38776003284E5B31301C1FD93562C
:10240C00750126CC131695009354F50106D022CEF7
:10241C0093F6F60F2582A682638B06109307F00FB6
:10242C00638CF6100E06B70700045D8E938616F8C3
:10243C000144814393D775011393950093F7F70FDC
:10244C0013539300FD81E5C31307F00F6386E70276
:10245C00938717F80E03370700049D8E3363E30050
:10246C0081475D8C171500001305C51C0A042A94BE
:10247C000040AD8C22950285938616F06314030CF4
:10248C0089475D8C171500001305C51E0A042A9494
:10249C0003230400AD8C1A95028581449305F00F3B
:1024AC00B7074000139597008250724493977501BB
:1024BC002581FE045D8D458DE2441301410282802D
:1024CC009305F00F8147F9BF1A86AE82BE83894708
:1024DC006386F3228D47E382F3FC85476386F30C16
:1024EC009385F60793F412006358B018937776002F
:1024FC0099C79377F60011456383A70011069317CC
:10250C00460063D80700B70700F8FD177D8E93854A
:10251C0006089307E00FE3C5B7FA93176600A58387
:10252C0093F5F50F41B763190304854799BF15E27D
:10253C00114481468543FDBD01EA21449306F00F09
:10254C008943CDBD8D4731BF31449306F00F8D4388
:10255C00D5B532852EC432C026C2EF00B025024656
:10256C009307B5FF9306A0F83316F600898E014445
:10257C0081439242A2457DBD1A8536CA16C832C621
:10258C001EC42EC21AC0EF00F022D246024393079B
:10259C00B5FFAA963313F3009386660781479245DD
:1025AC00A2433246C24275BD93F412008145814765
:1025BC00D5BDC16713175300FD17F98F3ACA3EC238
:1025CC0013540701637D660E3285A28536C632C46C
:1025DC00EFD05FB092452AC0EFD0DFAD2246B246B5
:1025EC00AA873283FD160146A2851A8536C83EC6D7
:1025FC0032C4EFD0FFB02246B2474205518DC246DD
:10260C00637FF500524782453A951386F5FF636266
:10261C00E50E6370F50E1386E5FF32C03A95B307ED
:10262C00F5403E85A28536C83EC6EFD0BFAA92457E
:10263C002AC4EFD03FA8B2472AC2A2853E85EFD06C
:10264C003FAC124642052243C246637CC50052474A
:10265C009307F3FF3A95636CE508637AC508791321
:10266C003A9582473306C5403336C000C207B3E7FC
:10267C0067005D8EA682ADB505433303B34091C5AB
:10268C006D4581458147E34F65E09386E609B316B6
:10269C00D600B35766003336D000D18F93F677004F
:1026AC0099C693F6F70011466383C60091071397FA
:1026BC005700634207049A07A5838145E5B313537A
:1026CC0016001A85A28536C832C61AC4EFD09FA050
:1026DC0092452AC0EFD01F9E3246AA87C2467E067C
:1026EC004182224311B7AE82BE830146CDB33E83F5
:1026FC008DBF32C02DB7854581476DB393F4120061
:10270C009305F00F814779BB13577501B70780000C
:10271C00FD1793D675011377F70F9302F00F33F370
:10272C00A7001356F501ED8F93F6F60FFD816301AB
:10273C005702638C56000DE391E2B1C3630E0302A2
:10274C006305B60405451DE68280F5D77955828070
:10275C00E31E03FE6389E60291E2EDD7E314B6FEB5
:10276C00E3C2E6FE6347D700E3EE67FC0145E37D79
:10277C00F3FC01E67D558280F5DD0545828001453F
:10278C00E31203FC8280F9DBD1B70147E1BF13569A
:10279C007501B7078000FD1713D775011376F60F77
:1027AC001303F00FB3F2A7009356F501ED8F1377D7
:1027BC00F70FFD81630766026309670005EA11EBF9
:1027CC0089EB0145639B020082800945F5FF65DAC0
:1027DC0031A8638C02026380B6040545F5D67D559D
:1027EC0082800945639802026304C70211E3F5D79E
:1027FC00E395B6FEE343C7FE6347E600E3EF57FC01
:10280C000145E3F3F2FC99E2D9BFF1D90545828089
:10281C00E5D3828082800146C5B7011122CC1354C6
:10282C00750126CA06CE931495001374F40FA58077
:10283C009356F5014DCC9307F00F630CF40CB707CE
:10284C0000048E04DD8C130414F88147014613D563
:10285C007501139795001375F50F2583FD814DC5F3
:10286C001303F00F630D65020E07130515F83703FC
:10287C000004336767002A9481431305140033C3A3
:10288C00B6002AC03D459A826362F5101715000008
:10289C00130545E28A07AA979C433E9502851304CB
:1028AC00F40F61EB93E727008943C1BF0143130782
:1028BC00F00FB7074000F2406244A6075E07A583FD
:1028CC001315F301D98FD2445D8D05618280AE82E0
:1028DC00BA841E8689476306F60A8D47E308F6FC20
:1028EC0085471683631EF61A01478147E9B7B5E0A1
:1028FC0013D57501139795001375F50F9147014486
:10290C0005462583FD8129FD19EB93E717008543C7
:10291C00ADB79DE8A1471304F00F09460DBF3A85EA
:10292C0032C83EC62EC436C23AC0692502471303CC
:10293C00B5FF098C331767001304A4F88143924642
:10294C00A245B247424615BFB1471304F00F0D46DE
:10295C00FDBD26852EC236C0B12D9307B5FF1304DD
:10296C00A0F8B394F400098C814701468246924545
:10297C00F9BD93E737008D4309B78947B682E31E4B
:10298C00F6F416831307F00F814735B7C167FD17AF
:10299C00B3F3F400F98FC18041831E85BE85EFD05F
:1029AC006FF1AA82BA851E85EFD0CFF0AA83BE85BF
:1029BC002685EFD02FF0AA87BA852685EFD08FEF2A
:1029CC0013D70201BE93BA9363F4F300C1673E952B
:1029DC00C167FD17B3F4F300C204B3F2F200A69280
:1029EC009394620093D30301B334900093D2A20169
:1029FC00AA93B3E2540093946300B3E45400939706
:102A0C00440063D70700024493D714008588DD8CFB
:102A1C001307F407635FE00293F7740099C793F709
:102A2C00F40091466383D70091049397440063D8D4
:102A3C000700B70700F8FD17FD8C13070408930770
:102A4C00E00F63CBE70493976400A5831377F70F2C
:102A5C009DB58547B386E74011C76D460147814751
:102A6C00E34BD6E41304E40933948400B3D7D400C5
:102A7C00B3348000C58F13F7770019C713F7F7002D
:102A8C0091466303D700910713975700634C0700D7
:102A9C009A07A583014705B51307F00F814721BDA0
:102AAC000244BDB70547814739B5B7068000FD160E
:102ABC003111B3F7A6001357750113D675017D813B
:102ACC001377F70FED8E22C626C41376F60F06C8C1
:102ADC009303F00F3EC22AC03A8493943700FD81D1
:102AEC00939236003303C7406303761093C51500E9
:102AFC00630EB5106354600C631106106388021EDC
:102B0C007D13B3875440630703029307F00F630BE5
:102B1C00F716ED4763CA672893070002B38767402F
:102B2C00B397F20033D36200B337F000B367F3000E
:102B3C00B387F440139757006354071AB704000483
:102B4C00FD14E58F3E853EC2B52192476D15B397B6
:102B5C00A7006341851C018D050593020002B38219
:102B6C00A240B3925700B3325000B3D7A700B3E7DB
:102B7C005700014413F7770019C713F7F700914674
:102B8C006303D700910713975700635F07148246BE
:102B9C0005041307F00F13F516006309E4169A07E2
:102BAC00A5831377F40FC2403244A6075E07A583B2
:102BBC007E055D8FA244598D510182806315030AF5
:102BCC00130617001376E60F63110616631307221C
:102BDC0063800420E38902FCB3875440939657002A
:102BEC0063D20622B387924001442EC061B7E38FB3
:102BFC0002EE630DB50AE35360FC9307F00F630319
:102C0C00F708B7070004B3E2F20021B76350600A7B
:102C1C0051C29307F00F6307F706B7070004B3E23E
:102C2C00F200ED4763CC671C93070002B387674043
:102C3C00B397F20033D36200B337F000B367F300FD
:102C4C00A69713975700635D070805041307F00F49
:102C5C00630EE40AB706007E13D71700FD16858BAA
:102C6C00758FD98F01BFB307E640631607106388D1
:102C7C000414FD17638E07181307F00F6314E61086
:102C8C002EC036C29247C1C301451307F00FB707D8
:102C9C00400011BF638C02047D13B3875400E30220
:102CAC0003FA9307F00FE31EF7F6E9BF631B030863
:102CBC00130417001376E40F631106126315071043
:102CCC00638D0414E38102EEB3875400139757000D
:102CDC00014463570700370700FC7D17F98F054443
:102CEC0013F77700E31B07E88D833EC29307F00FC1
:102CFC00E30AF4F8924782461377F40FA607A583EC
:102D0C0013F516004DB5824713F517001307F00F96
:102D1C00814751BDB70200FCFD12B3F7570013F702
:102D2C007700098CE31B07E4C1B7B38754401397B2
:102D3C005700634C070AE39707E0014501478147B9
:102D4C009DB5B307E6403DC31307F00FE30BE6F266
:102D5C0037070004D98C6D476346F70C1307000244
:102D6C001D8F3397E400B3D7F4003337E000D98FCD
:102D7C0096973284F9B51307F00FE303E6F03707A3
:102D8C000004D98C6D47634DF706130700021D8FA5
:102D9C003397E400B3D7F4003337E000D98FB3870F
:102DAC00F24032842EC079B3854759B3ADC8FD17B4
:102DBC00A5CF1307F00FE310E6FA36C2E1B536C221
:102DCC0032842EC025B7E38E04EAE38D02EA6DBD92
:102DDC00638D02022E85B687F9B39307F00FE307D4
:102DEC00F4F2B38754008583E5BDB38792402EC0BF
:102DFC0091BBE1FCE38A02E82EC061B5854789B539
:102E0C00854771BF0144E39D07EC0145814761BBD8
:102E1C00B387924032842EC031BBB68769B336C2B9
:102E2C003284E9B58547A9B7B3875400328411BD04
:102E3C0037068000935775011307F6FF93F7F70FCA
:102E4C009305E007698F9356F50163FCF500930534
:102E5C00D00963FAF500370500801345F5FF369568
:102E6C0082800145828093055009518F63CDF50016
:102E7C0013066009B307F640B357F7003305F0406B
:102E8C00F5F23E8582809387A7F6B317F700FDB75E
:102E9C0013577501370680009307F6FF1377F70F6A
:102EAC009305E007B3F6A7009357F501014563F4CA
:102EBC00E50099C3828082809307E0097D55E3EB9E
:102ECC00E7FE93055009B3E7C60063D7E500130787
:102EDC00A7F63395E7008280130560093307E540B8
:102EEC0033D5E7008280511106C422C215CD2A8445
:102EFC00D1209307E0093387A7409307600963C08B
:102F0C00E704A1469377F70F63D5A6006115331438
:102F1C00A40026042580260413559400A2401244D4
:102F2C00DE075D8D31018280014426041355940027
:102F3C00A24012448147DE075D8D310182809307E8
:102F4C00900963DDE7009306B5019547B316D400ED
:102F5C00898FB336D0003354F400558C954763D623
:102F6C00A7009307B5FF3314F400B70600FCFD1659
:102F7C00937774003376D40085C39377F40091452E
:102F8C00638CB70011069317560063D7070093079D
:102F9C00F009758E3387A74013146600258026042C
:102FAC0013559400A24012449377F70FDE075D8D02
:102FBC0031018280C167637CF5029307F00F130720
:102FCC00000263EBA700970700009387A772AA97EC
:102FDC0088233305A74082802181970700009387BF
:102FEC006771AA97882361473305A7408280B7078A
:102FFC000001636DF5006181970700009387876F6F
:10300C00AA97882321473305A740828041819707DF
:10301C0000009387276EAA97882341473305A74062
:10302C0082800000E7E7E7005B5057525D20456E59
:10303C00746572696E67204465657020536C6565B4
:10304C00702E2E2E0D0000005B5057525D20576FD6
:10305C006B652055502E0D005B464C4153485D204E
:10306C0053657474696E67732053617665642E20A2
:10307C0049443A203078253034582C2053746174EC
:10308C0075733A2025640D0A000000004348414E38
:10309C004745000048454152544245415400000008
:1030AC000D0A0D0A3D3D3D2054414E4B2053454EDB
:1030BC00534F5220424F4F54203D3D3D0D000000D8
:1030CC00506C6174666F726D3A20434833325630DF
:1030DC003033204020256C7520487A0D0A00000002
:1030EC005B53595354454D5D20536166657479208B
:1030FC0044656C6179202835732920666F722046EF
:10310C006C617368696E672E2E2E200052656164A7
:10311C00792E0D00496E697469616C697A696E6704
:10312C0020526164696F2048617264776172652E08
:10313C002E2E0D005B53595354454D5D2050616943
:10314C007265642053656E736F722E204C6F6164D0
:10315C0065642049443A203078253034580D0A00F3
:10316C005B53595354454D5D204E4F5420504149AB
:10317C005245442E2057616974696E6720666F72E0
:10318C00207573657220746F20747269676765723D
:10319C002070616972696E672E2E2E0D0000000082
:1031AC005B53595354454D5D20436C6F636B2056F4
:1031BC00616C69646174696F6E3A20313030306DC6
:1031CC00732064656C61792E2E2E000020444F4EC6
:1031DC00452E204D696C6C697320446966663A20F3
:1031EC00256C75206D730D0A000000005B5359535C
:1031FC0054454D5D20456E746572696E6720496457
:10320C006C65204D6F64652E2028486F6C642062BD
:10321C007574746F6E20666F722070616972696E5E
:10322C0067290D005B53595354454D5D204275740D
:10323C00746F6E20507265737365642E2E2E0D00A4
:10324C005B53595354454D5D202A2A2A204641434D
:10325C00544F5259205245534554205452494747D4
:10326C004552454420284C6F6E672050726573732D
:10327C0029202A2A2A0D00005B5057525D205365E5
:10328C006E64696E6720554E5041495220706163DF
:10329C006B657420746F2072656365697665722046
:1032AC006265666F72652072657365742E2E2E0DC5
:1032BC00000000005B53595354454D5D2053696E1B
:1032CC00676C6520436C69636B2028256C75206DD9
:1032DC007329202D3E2052657374617274696E6778
:1032EC00204465766963652E2E2E0D0A00000000C1
:1032FC005B53595354454D5D20496E697469616C3B
:10330C00204C6576656C2044657465637465643A1D
:10331C0020256425250D0A005B53595354454D5DFA
:10332C00204C6576656C204368616E676564202669
:10333C0020436F6E6669726D65643A20256425259D
:10334C000D0A00005B4241545D2042617474657249
:10335C0079206C6576656C3A20256425250D0A006C
:10336C005B444154415D20526561736F6E3A202578
:10337C0073207C205365713A256C75207C204C762B
:10338C006C3A25642525207C204261743A256425FD
:10339C0025207C20675F70726F62655F6661756C5B
:1033AC00743A202564202D3E2053454E44494E4707
:1033BC002E2E2E0D0A0000005B53595354454D5DC3
:1033CC00204E6F74207061697265642C20736C657B
:1033DC006570696E672E2E2E0D0000005B535953DD
:1033EC0054454D5D205461736B20446F6E652E20E7
:1033FC00476F696E6720746F204465657020536C4D
:10340C006565702E2E2E0D002D2D2D2D2D2D2D2D77
:10341C002D2D2D2D2D2D2D2D2D2D2D2D2D2D2D2DD0
:10342C002D2D2D2D2D2D2D2D2D2D2D2D2D2D2D2DC0
:10343C002D2D0D009A99993F0000C8426666864072
:10344C00000040409899993F5B4241545D20416394
:10345C007475616C20566F6C746167653A202564D5
:10346C002E25303264560D0A000000005B414C459D
:10347C0052545D2050726F6265204661756C7420E9
:10348C0044657465637465642120284761707320FA
:10349C00696E2072656164696E6773290D000000A6
:1034AC005B44454255475D2050726F6265733A200C
:1034BC003130303A25642037353A25642035303A9E
:1034CC0025642032353A25640D0A00005B444542E0
:1034DC0055475D2054616E6B204C6576656C2044BD
:1034EC00657465637465643A20256425250D0A00AE
:1034FC000D0A5B504149525D204E65772054616E38
:10350C006B2049443A203078253034580D0A00009D
:10351C005B504149525D2042726F61646361737408
:10352C00696E6720666F72202564206D696E2E2E81
:10353C002E0D0A005B504149525D2042726F61644E
:10354C006361737420636F6D706C6574652E2053AA
:10355C0074617475732053415645442E2044617434
:10356C00612077696C6C206E6F7720737461727454
:10357C002E0D00005B524144494F5D20436F6E6637
:10358C0069677572696E67204861726477617265EC
:10359C0020283235306B6270732C202D3664426DCE
:1035AC002C2032422D4352432C204E4F2D41434B65
:1035BC00292E2E2E0D0000005B524144494F5D20F8
:1035CC0048617264776172652052656164792E0D71
:1035DC00000000005B524144494F5D20506F7765FD
:1035EC0072696E6720444F574E2E2E2E0D00000030
:1035FC005B524144494F5D20546172676574696E3A
:10360C006720416464726573732028332D4279748A
:10361C0065293A2025303258202530325820253063
:10362C0032580D0A00000000286E756C6C290000E1
:10363C0082EFFFFF90EEFFFF7CEFFFFF98EEFFFFA6
:10364C007CEFFFFF6AEEFFFF7CEFFFFF98EEFFFFC2
:10365C0090EEFFFF90EEFFFF6AEEFFFF98EEFFFF8C
:10366C009EEEFFFF9EEEFFFF9EEEFFFF6AEEFFFF5A
:10367C0050EEFFFF50EEFFFF3CEFFFFF76F0FFFF39
:10368C003CEFFFFF2AEEFFFF3CEFFFFF76F0FFFF62
:10369C0050EEFFFF50EEFFFF2AEEFFFF76F0FFFF2C
:1036AC005EEEFFFF5EEEFFFF5EEEFFFF2AEEFFFF1A
:1036BC00DCF2FFFF20F2FFFF20F2FFFF1EF2FFFF04
:1036CC0024F2FFFF24F2FFFFFCF1FFFF1EF2FFFFCD
:1036DC0024F2FFFFFCF1FFFF24F2FFFF1EF2FFFFBD
:1036EC00CAF2FFFFCAF2FFFFCAF2FFFFFCF1FFFFB5
:1036FC00000102020303030304040404040404048D
:10370C00050505050505050505050505050505055D
:10371C00060606060606060606060606060606063D
:10372C00060606060606060606060606060606062D
:10373C00070707070707070707070707070707070D
:10374C0007070707070707070707070707070707FD
:10375C0007070707070707070707070707070707ED
:10376C0007070707070707070707070707070707DD
:10377C0008080808080808080808080808080808BD
:10378C0008080808080808080808080808080808AD
:10379C00080808080808080808080808080808089D
:1037AC00080808080808080808080808080808088D
:1037BC00080808080808080808080808080808087D
:1037CC00080808080808080808080808080808086D
:1037DC00080808080808080808080808080808085D
:1037EC00080808080808080808080808080808084D
:1037FC00006CDC020204060804080C1008101820E7
:10380C0010203040204060800102030405060708A8
:0C381C000102030405060708000000007C
:00000001FF
