:100000006F00E06F00000000FC060000FC0600002E
:1000100000000000000000000000000000000000E0
:1000200000000000000000000000000000000000D0
:10003000FC06000000000000FC06000000000000BC
:10004000FC060000FC060000FC060000FC060000A8
:10005000FC060000FC060000FC060000FC06000098
:10006000FC060000FC060000FC060000FC06000088
:10007000FC060000FC060000FC060000FC06000078
:10008000FC060000FC060000FC060000FC06000068
:10009000FC060000FC060000F20100000000000069
:1000A000511126C022C206C4828282441244A24058
:1000B000310182802A86014593F6150091C232955E
:1000C00085810606F5F9828000000000634E050276
:1000D00063C305042E86AA857D5515C285466378BF
:1000E000B6006356C00006068606E36CB6FE014500
:1000F00063E4C500918D558D85820582F5FA828075
:100100008682C93F2E8582823305A04063D70500D1
:10011000B305B040C1B7B305B0408682653F330533
:10012000A0408282868263C70500634905005D376F
:100130002E858282B305B040E35B05FE3305A04007
:10014000513F3305B040828200003D432A876373EC
:10015000C3029377F700BDEFADE5937606FF3D8AC6
:10016000BA960CC34CC30CC74CC74107E36BD7FE10
:1001700011E28280B306C3408A0697020000969679
:100180006780A6002307B700A306B7002306B700C1
:10019000A305B7002305B700A304B7002304B700E5
:1001A000A303B7002303B700A302B7002302B700DD
:1001B000A301B7002301B700A300B7002300B700D5
:1001C000828093F5F50F93968500D58D9396050162
:1001D000D58D61B793962700970200009696868288
:1001E000E78086FA9680C1171D8F3E96E374C3F8A8
:1001F000A5B7854537050040EF00500509CDB70785
:10020000002093870703984385453705004005077D
:1002100098C3EF00300573002030EFF27FE8311112
:100220008545054502C402C62318010002C002C26A
:10023000EF008072B707002003A54700896593850A
:100240000571493D7D15A54768842C0037050040A0
:100250003EC623150100EF00E077054685453705CA
:100260000040EF00807D930760027C8085475C81C1
:100270000A8585473EC2EF00C05B854537050040D3
:10028000EF00207A510115B5EFF29FE1511185453C
:100290001305400202C002C202C4EF00006A9307C5
:1002A0000004371501407C808A859307800413057C
:1002B00005403EC4ED293101CDBBEFF27FDE0111D7
:1002C00069468145130561004935B7570120938779
:1002D000A75A3EC0B707002083D707003715000094
:1002E0001305453413978700A183D98F7C82EF00D3
:1002F000D073ED2C056513054527E12401442285C3
:10030000A9450D35AA84050401E9B7170000A285A7
:1003100013854738EF00506F930500020A85F92CCA
:1003200015C199E43715000013058539EF00F06F0A
:1003300013052003EF0050069307401FE311F4FC60
:100340000561A5B3F5F4371500001305C539F9BFEC
:10035000EFF21FD5B526EF00F000716513050520FB
:10036000EF0030073715000013058527EF00F06B0D
:10037000B707002083A5470037150000130585291E
:10038000EF009068593D09379307800873A0073044
:10039000371500001305852BEF003069F92037155C
:1003A00000001305852DEF0030663704002013048C
:1003B00004031305803E0440EF00007E0C40371517
:1003C000000013054530858DEF001064FD353715AD
:1003D000000013054532EF0050650145F9B1EFF219
:1003E0003FCC2A84894537350140C52365DDA28588
:1003F00037350140F923854537350140F92365DD5F
:1004000037350140C9231375F50F45B1EFF25FC9C8
:100410002E84AA84A14537150140112913E5040251
:100420007D3F22856D3FA14537150140FD2EB5B9B1
:10043000EFF21FC77111AA842E8437150140A14520
:1004400032C0F52613E50402593F0246B304C40046
:1004500063189400A14537150140C12E1101B1B1B7
:1004600005040345F4FFA53FE5B7EFF27FC305653B
:10047000011185451305050302C002C202C402C66C
:1004800002C802CA02CC231E0100452993070006B8
:100490007C80E1448D478A853715014026C43EC2E1
:1004A0003926930700087C808A85914737150140DB
:1004B0003EC4F52CA14741448A85371501407C8014
:1004C00022C4F524A145371501408526608022C449
:1004D000371401408A8513050440D12C13050440CC
:1004E000C145B126B70704013EC6B70700023ECAA0
:1004F0006C009D4737350140FC8626CC02C8A529F3
:100500008545373501404D21371500001305853AE3
:10051000EF00B051130560094125371500001305A0
:10052000453EEF00905089450145CD353715000017
:1005300013058540EF00704F81450545C13D3715D6
:1005400000001305C542EF00504E85450D457D3D29
:100550003715000013050545EF00304D8145114565
:1005600075353715000013054547EF00104C93050E
:1005700030061545613D3715000013058549EF002C
:10058000D04A93056002194551353715000013050F
:10059000C54BEF009049930500024545853D371551
:1005A00000001305054EEF005048930500071D4558
:1005B000B13D3715000013054550EF0010470561A8
:1005C000EDB4EFF2FFAD342110310C212A84371540
:1005D000000013058552EF003043A2850D464145CA
:1005E000813D0D46A2852945A135C1B4EFF25FAB2F
:1005F00089450145213D1545452345BCEFF25FAADC
:1006000071112A84AE8437150140A1450D241305CC
:10061000100EF133A14537150140012CA1453715C6
:10062000014031241305000A5D3B814713F7F70FA2
:100630000145637597003307F40008233EC0453336
:100640008247130700028507E392E7FEA1453715AD
:100650000140E12A37140140C14513050440F1224D
:1006600005451D2BC14513050440D12209452D2305
:10067000930500031D45593B054511013DB4B717CE
:1006800002409843B706FFF81367170098C3D84392
:10069000758FD8C39843B706F7FEFD16758F98C3BC
:1006A0009843B706FCFFFD16758F98C3D843B7066D
:1006B00040FFFD16758FD8C337079F0098C782800B
:1006C000B7160240D842B70700201146318B9387F6
:1006D00047006305C70021466308C70037376E012E
:1006E0001307076098C38280D8429316F700E3D7B8
:1006F00006FE3777DC02130707C0EDB701A09701AC
:10070000002093812113138101FD1305000A970531
:1007100000209385258F170600201306A68E63FA06
:10072000C5008322050023A0550011059105E3EAC9
:10073000C5FE17150000130565E397050020938596
:10074000658C170600201306E68E63FAC500832227
:10075000050023A0550011059105E3EAC5FE170524
:1007600000201305258D9385C1806377B500232074
:1007700005001105E36DB5FEB722000093820288E3
:10078000739002308D4273904280970200009382F2
:10079000628793E2320073905230EFF05FEE97027F
:1007A0000000938222BB7390123473002030944572
:1007B00093F7060193F2F60081C7DC41B3E2F20041
:1007C00083D3050093F7F30FA5C30323050061113D
:1007D00022C226C081471304800293048004054787
:1007E0003316F70033F7C3006312E6029395270030
:1007F0003D473317B7001347F7FF33736700B395CF
:10080000B20033E36500639D860050C98507214728
:10081000E397E7FC12442320650082442101828093
:10082000E39696FE10C9DDB782800CC982804CC960
:100830008280B707002083A647038547182163906D
:10084000F6021C31639CD7023C219A0793E707F814
:10085000B7E600E093F7F70FBA962380F640854697
:10086000935757003397E600544189CE9387070486
:100870008A07B7E600E0B69798C38280EDF33C2183
:100880009A07F9B793870706B7E600E08A07B69795
:1008900098C30F1000008280EFF29F80371702404C
:1008A0005C4391462A84B18B6385D700A14663805F
:1008B000D708B7376E01938707601CC0B716024090
:1008C000DC42918313F7F700B70700209387C70135
:1008D000BA978C23DC42184093F5F50F93F707087D
:1008E0003355B70081E73A85EFF0CFFE48C008C422
:1008F00048C4B7170240DC438D46AD83FD8B13D748
:1009000037008A07F18BD98F13F6370113F73700B9
:1009100063F4C600138747FFB7070020938787005B
:10092000BA978C23EFF00FFB08C86FF00FF85C4309
:10093000B777DC02938707C049B799C537170240DC
:100940001C4F5D8D08CF8280B7170240984F13452A
:10095000F5FF798D88CF828099C5371702405C4FAB
:100960005D8D48CF8280B7170240D84F1345F5FF01
:10097000798DC8CF82801A218D6793870704B621AD
:100980007D8F9E21D58FD621D58FF621D58F9625A7
:10099000D58FB625D58FD625D58FF625D58FD98F6E
:1009A0001EA19E291EA982801E2189C593E70704E6
:1009B0001EA18280C207C18393F7F7FBC207C183E0
:1009C000C5BF4EA582804A2582800A256D8D3335AC
:1009D000A00082801E2137370140130707C0C207DD
:1009E000C1836306E500370700406316E500BA21BE
:1009F00093F7F7F8D98FFA2193F7F7CFC207C1839E
:100A0000D98F1EA1DE215EB59E211EB5B7370140EC
:100A1000938707C06314F5009C251EB985475EA91E
:100A200082801E2189C593E717001EA18280C2071C
:100A3000C183F99BC207C183CDBF5E2501C6DD8D91
:100A40004EA5828093C5F5FFFD8DDDBF1E294A2589
:100A5000ED8F4205418189C76D8D3335A0008280BD
:100A60000145828093C5F5FFC205C1810EA9828030
:100A7000EFF20FE31629F577FD17F58FF621DA254A
:100A80002111D58F1EA95625FD779387379FF58FA6
:100A9000D6212A842EC0D58F9625D58FB625D58F01
:100AA0005EA55E29C207C18393F7F7CF5D8F5AA970
:100AB0004800DD33B74701409387078082456312C2
:100AC000F406C2475A24139517003E9542070E05B7
:100AD00041873E958C41635807048605EFF08FDF10
:100AE000930540062AC0EFF0EFDE824793144500DD
:100AF000930540063E85EFF0AFE05E24C207C18754
:100B000063D507020E059305400613052503EFF094
:100B10006FDC1D89C98CC204C18006A461016FF01D
:100B2000CFD8B24745B78A0555BF12059305400691
:100B300013052503EFF00FDA3D89E9BF91C55E2566
:100B40000967D98F5EA582805A25F977FD17F98F3D
:100B5000D5BF93F5F51F4EA182800A216D8D3335E7
:100B6000A0008280EFF2CFD3B707002003A5470093
:100B7000B7157A0093850520EFF0CFD51375F50FE3
:100B80002385A18093175500898F8A073E950E050E
:100B90002394A1806FF06FD1EFF28FD037F400E093
:100BA0005C40AA85F99B5CC003D58180EFF08FD0B3
:100BB00008C8232404001C4093E717001CC0B7F7A3
:100BC00000E0D843058B75DF9843799B98C36FF09D
:100BD000CFCDEFF2EFCC2A841165111185451305B5
:100BE0000502A13B930700027C80371501408D4729
:100BF0003EC28A85E147130505403EC44D3E22C6EC
:100C000037440140B70708006C00130504803ECA52
:100C100002C8231C0100A93D854513050480393F06
:100C200071016FF08FC8EFF2AFC77111AE8401444C
:100C3000635DC402B7470140138707803A85930577
:100C4000000432C0193FB7470140138707800246AE
:100C500075D5338784008305070013850780050455
:100C6000C205C181FD350246E1B7328511016FF041
:100C7000CFC3411106C62EC00DCD1841AA8705C3AA
:100C800058417D5511CB8546631BD70098472300FB
:100C9000070023A207000545B24041018280984722
:100CA000824614A39847050798C7D8437D17D8C331
:100CB000DDB705468A85853FF9BF011122CC2EC2DA
:100CC00006CE26CA2A8481479305000263450602A0
:100CD0009245BE95838505008DE563D8C70263D430
:100CE000E702198E1305000293F526002AC089C574
:100CF00001E7930500032EC0858A814495EAB284FA
:100D00000DA08507F1B71D8EF1BF0146E1BF8245F9
:100D100022853AC832C63EC4A93FA247324642475E
:100D2000FD14E34690FEB284635306008144058EB1
:100D300063C7E702A68792463387974036978305B5
:100D4000070095EDB28463449004635306000146A6
:100D5000F2406244D2443305F600056182801D8F63
:100D6000BA8793050003228532C83EC63AC41137BC
:100D7000B24722474246FD17EDF7BA9465BF228578
:100D800032C63EC4FD35A247324685076DB782455F
:100D9000228532C43EC2F13DFD142246924765B71A
:100DA000397106DE22DC26DA3EC232833A8689EDCC
:100DB00092469307000301476C08FC86FD3DF25004
:100DC0006254D25421618280AA843684AE8791CA4B
:100DD000294701446317E30063D50500B307B0401A
:100DE00005448646A309010213073103938666FC76
:100DF00036C49A853E8532CA3AC81AC63EC0EFF05C
:100E00002FB0A546824732434247524663D4A600DC
:100E1000A2463695130505039306F7FFA30FA7FE19
:100E20009A853E8532CC3ACA1AC83EC636C0EFF023
:100E30006FAAB24742435247624663F9670401CC46
:100E400029CA9247898BB1C79305D002268532C43F
:100E50000D3522467D169247918B95C30647930721
:100E6000100632C4930500032685631EF702113570
:100E7000930580072685F53B224609047916164717
:100E8000924682452685153D229515BFAA870247C1
:100E90008DB782469307D0020144A38FF6FE9307D5
:100EA000E7FF3EC04DBFF13393058005E1B7014533
:100EB000828001458280130181FD22D026CE06D298
:100EC0002AC4AE82328402C681448385020089ED41
:100ED000A24781C781453E85693B925002542685D1
:100EE000F244130181028280930750026388F50067
:100EF000224516C88504B53BC24239A88387120033
:100F000013871200639CB7002245930550023AC82C
:100F10008D3342478504BA82850245BFD5DB9306EF
:100F2000B0026389D70463C8F60093063002638673
:100F3000D704814705A09306D002638AD7009306A1
:100F40000003E398D7FE13872200894721A0138767
:100F500022008547830607001306B0026383C60498
:100F60006341D60213063002638BC602BA82014582
:100F7000A54681A0138722006DBF138722009147E9
:100F8000D1BF1306D0026389C60013060003E39F96
:100F9000C6FC93E7270031A005078547C1BF93E74B
:100FA00047000507E1B713162500329506053A9567
:100FB000850203860200130706FD9375F70FE3F41D
:100FC000B6FE1307E0029946631EE60085028146DD
:100FD000A54503860200130606FD1377F60F63F599
:100FE000E50236C6038702001306A006630DC70A92
:100FF0006343E6021306C0046307C70A13068006AC
:10100000630CC70881452DA813972600BA9686065B
:10101000B29685027DBF130640076306C708130614
:10102000A0076302C7081306C0068145631AC700FC
:10103000038612008D456314E60085029145850202
:1010400003860200930300061307100663C4C3005F
:10105000130710049303700663C4C306930350067A
:10106000635376189303700463C1C304930550045B
:10107000635BB61613073004E310E6EA18409303E7
:10108000440016CA230CE1001EC8A30C010001474E
:10109000BE862A862C0849A8038612008145E311E2
:1010A000E6FA890271BF8502B1BF93063006E307F5
:1010B000D6FC63CEC606930680056303D602A9BD9F
:1010C000930630076304D60463CBC6029306F0068A
:1010D0006302D60E9306000793E74700E31ED6E2AD
:1010E0009146639FD50A930384000C40504016CA72
:1010F0003AC23EC01EC8AA870147C146B9A093069E
:1011000050076308D6069306800745BF1840B716F8
:101110000000930344009385065611C3BA853247F5
:1011200016CA1EC8BE862A862245413E0DA091469B
:101130006394D502930384000C40504016CA3AC20F
:101140003EC01EC8AA870547A94622458D33C24323
:10115000AA941E84D242C9B3B2460C4016C836C205
:101160003AC011042A878546294622451539AA9492
:1011700061B39146639DD500930384000C405040B9
:1011800016CA3AC23EC01EC8AA87014775BFB246FA
:101190000C4016C836C23AC011042A878146E9B706
:1011A000B24616C80C40414636C23AC011042A87DE
:1011B000814665BF9146639ED500930384000C4031
:1011C000504016CA3AC23EC01EC8AA870147A1466F
:1011D000ADBFB2460C4016C836C23AC011042A87C9
:1011E0008146214659B70C401306840040403AC25C
:1011F0002A87224532C83EC02286B687A94616CA2B
:101200004D39AA944244B9B71301C1FD2EC832CA60
:10121000AA851008014506C636CC3ACE3ED032C06B
:101220005939B240130141028280411122C426C2C1
:1012300006C61C21AA840144DC8183073100050411
:1012400099EFA9479305310005460145DC81EFF090
:101250009F9D2285B24022449244410182800546EE
:10126000930531000145EFF01F9CB38784009C2358
:10127000DC81E1B7E7E7E7000D0A0D0A3D3D3D20BF
:1012800054414E4B2053454E534F5220424F4F54E2
:10129000203D3D3D0D000000506C6174666F726D25
:1012A0003A204348333256303033204020256C7585
:1012B00020487A0D0A000000496E697469616C6902
:1012C0007A696E6720526164696F20486172647741
:1012D0006172652E2E2E0D005B53595354454D5DA2
:1012E00020436C6F636B2056616C69646174696F35
:1012F0006E3A20313030306D732064656C61792E28
:101300002E2E000020444F4E452E204D696C6C69F6
:101310007320446966663A20256C75206D730D0A4A
:10132000000000005B53595354454D5D20456E74D9
:101330006572696E67204461696C79204D6F6465E0
:101340002E0D00000D0A5B504149525D205374611F
:101350007274696E6720444953434F564552592071
:1013600042524F4143415354205B332D425954451F
:10137000205241575D202843683A3939292E2E2EB4
:101380000D0000005B504149525D205265712025DF
:10139000642F3530303A20004F4B0D0052616469A4
:1013A0006F20427573790D005B524144494F5D20B7
:1013B000436F6E6669677572696E67204861726413
:1013C0007761726520283235306B6270732C202D66
:1013D000313264426D2C204E4F2D41434B292E2E2D
:1013E0002E0D00005B5350495D2057524954452053
:1013F0005245472030783030202D3E2056414C2039
:10140000307830320D0000005B5350495D20575258
:10141000495445205245472030783031202D3E2018
:1014200056414C20307830300D0000005B5350495D
:101430005D2057524954452052454720307830337B
:10144000202D3E2056414C20307830310D000000D8
:101450005B5350495D20575249544520524547201F
:1014600030783034202D3E2056414C2030783030BA
:101470000D0000005B5350495D20575249544520F0
:101480005245472030783035202D3E2056414C20A3
:10149000307836330D0000005B5350495D205752C1
:1014A000495445205245472030783036202D3E2083
:1014B00056414C20307832360D0000005B535049C5
:1014C0005D205752495445205245472030783131EC
:1014D000202D3E2056414C20307832300D00000047
:1014E0005B5350495D20575249544520524547208F
:1014F00030783037202D3E2056414C203078373020
:101500000D0000005B524144494F5D204861726408
:1015100077617265205265616479202853414645A0
:101520002D524157292E0D005B524144494F5D20F9
:10153000546172676574696E672041646472657393
:10154000732028332D42797465293A20253032588A
:10155000202530325820253032580D0A0000000076
:08156000286E756C6C29000077
:1015680034120000006CDC020204060804080C10A7
:101578000810182010203040204060800102030429
:101588000506070801020304050607080000000015
:00000001FF
