:100000006F00300F00000000F0080000F008000052
:1000100000000000000000000000000000000000E0
:1000200000000000000000000000000000000000D0
:10003000F008000000000000F008000000000000D0
:10004000F0080000F0080000F0080000F0080000D0
:10005000F0080000F0080000F0080000F0080000C0
:10006000F0080000F0080000F0080000F0080000B0
:10007000F0080000F0080000F0080000F0080000A0
:10008000F0080000F0080000F0080000F008000090
:10009000F0080000F0080000F2010000000000007D
:1000A000511126C022C206C4828282441244A24058
:1000B000310182802A86014593F6150091C232955E
:1000C00085810606F5F9828000000000634E050276
:1000D00063C305042E86AA857D5515C285466378BF
:1000E000B6006356C00006068606E36CB6FE014500
:1000F00063E4C500918D558D85820582F5FA828075
:100100008682C93F2E8582823305A04063D70500D1
:10011000B305B040C1B7B305B0408682653F330533
:10012000A0408282868263C70500634905005D376F
:100130002E858282B305B040E35B05FE3305A04007
:10014000513F3305B040828200003D432A876373EC
:10015000C3029377F700BDEFADE5937606FF3D8AC6
:10016000BA960CC34CC30CC74CC74107E36BD7FE10
:1001700011E28280B306C3408A0697020000969679
:100180006780A6002307B700A306B7002306B700C1
:10019000A305B7002305B700A304B7002304B700E5
:1001A000A303B7002303B700A302B7002302B700DD
:1001B000A301B7002301B700A300B7002300B700D5
:1001C000828093F5F50F93968500D58D9396050162
:1001D000D58D61B793962700970200009696868288
:1001E000E78086FA9680C1171D8F3E96E374C3F8A8
:1001F000A5B7854537050040EF00F02409CDB707C6
:1002000000209387870298438545370500400507FE
:1002100098C3EF00D02473002030EFF27FE8311153
:100220008545054502C402C62318010002C002C26A
:10023000EF003012B707002003A5070089659385FA
:100240000571493D7D15A54768842C0037050040A0
:100250003EC623150100EF0090170546854537057A
:100260000040EF00301D930760027C8085475C8171
:100270000A8585473EC2EF00A07B854537050040D3
:10028000EF00D019510115B5EFF29FE151118545ED
:10029000130540023714014002C002C202C4EF003D
:1002A000700993070004930480048A8513050440B1
:1002B0007C8026C4EF00E06E91477C80C1473EC43D
:1002C0008A858D47130504403EC2EF00806D1305FB
:1002D00004409145EF00407585454145EF0090058C
:1002E000DD478A85371501407C8026C4EF00606BAE
:1002F000310165BBB707002003A587029317D5001E
:10030000A98F13D51701A98F139557003D8D42056D
:10031000418111E10545828081470147FD1563C494
:10032000B7003A858280B306F5009422850793F7DB
:10033000F70F358FEDB7EFF2BFD60111352E13054C
:100340004006EF001025370400206D371304C40267
:10035000AA850AA0371500001305855CEF10800AF6
:100360006946814513056100CD33B7570120938756
:10037000A75A3EC01E20930500020A857C82693F71
:10038000A30FA1003715000089451305C55EEF10C6
:1003900060078345F101371500001305C562EF10B2
:1003A00060060D29056513050547FD2E0144B714A8
:1003B0000000D1452285BD33A547914563C2A706FC
:1003C0003715014013050540EF004066228593056F
:1003D0002003893B050409E9056613060696A285F4
:1003E00013858464EF100002930500020A85E52E50
:1003F00013052003EF00F019856793870796E31A2A
:10040000F4FA37150140914513050540EF00C0612E
:10041000371500001305C566EF10E000056171B1E6
:100420003715014013050540EF00006045B7EFF2B6
:100430003FC7130141FDBD29EF007012716513051F
:100440000520EF00B0183715000013054547EF00F1
:10045000907DB707002083A507003715000013051E
:100460004549EF00307A553B05359307800873A066
:100470000730371500001305454BEF00D07AED2A01
:1004800037150000370400201305454DEF00907725
:10049000930484029C401305803E130484023EC0F2
:1004A000EF00300F82478C403715000013050550D0
:1004B0009D8DEF0030758D47B71401409145138530
:1004C00004403EC0A5231305401FEF00900C91454A
:1004D00013850440912B1305401FEF00900B8247BA
:1004E000FD17F9FB1385044091453D2B371500009E
:1004F00013050552EF003073814402C037150140E7
:100500009305000413050540192B631E050C91E0AB
:10051000044082478DE318408567938787BB058F2A
:1005200063FBE700B717000013858755EF00B06F36
:10053000193585473EC083A7818018409386818006
:1005400036C21D8F89679387077163FAE708614692
:1005500081454808DD3EB75703209387A75A3EC61A
:10056000B707002083D7C702930500026800FC800C
:10057000956793872753FC8103A7C1803ACC3AC47F
:10058000613B2247AA86A305A10237150000BA8560
:100590001306200313050558EF00D06637150140F8
:1005A000914513050540592135240D479305000257
:1005B00068003AC40D2C2945EF00A07D22477D1725
:1005C00075F737150140914513050540B1291840CD
:1005D000924798C39387C1809843050798C35145B4
:1005E000EF00207B21BF02C08144B1B7EFF25FABC7
:1005F0002A84894537350140F12365DDA2853735E9
:1006000001406D2B8545373501406D2B65DD373554
:1006100001407D231375F50F49BCEFF27FA82E84AE
:10062000AA84A14537150140112113E504027D3F3D
:1006300022856D3FA14537150140FD26BDB4EFF27F
:100640003FA67111AA842E8437150140A14532C0FE
:10065000F12E13E50402593F0246B304C4006318A7
:100660009400A14537150140C12611013DBC050488
:100670000345F4FFA53FE5B7EFF29FA20565011121
:1006800085451305050302C002C202C402C602C8A2
:1006900002CA02CC231E01007129930700067C8048
:1006A000E1448D478A853715014026C43EC2D52CCA
:1006B000930700087C808A859147371501403EC426
:1006C000CD24A14741448A85371501407C8022C44E
:1006D000C92CA14537150140812E608022C43714F2
:1006E00001408A85130504406D2C13050440C14563
:1006F000352EB70704013EC6B70700023ECA6C009C
:100700009D4737350140FC8626CC02C8952185459A
:10071000373501407921371500001305456AEF0090
:10072000905013056009B52581450145FD352945E2
:100730008D2589450145D53581450545F93D8545D9
:100740000D45E13D81451145C93D930530061545EF
:10075000E935930560021945C93593050002454501
:100760006D3D930500071D454D3DA14537150140E1
:10077000752C1305100E9D3DA145371501406D24C4
:10078000A145371501405D241305200E8535A1458F
:1007900037150140512C371500001305056EEF0089
:1007A000904805616FF07F90EFF29F8F34211031F8
:1007B0000C212A843715000013054570EF00904482
:1007C000A2850D464145A53D0D46A2852945853D9D
:1007D0006FF0BF8DEFF2DF8C894501453D3D15453A
:1007E0004D2B6FF09F8CEFF2BF8B71112A84AE847A
:1007F0001D45930500071535A145371501403D24DA
:100800001305100EE533A14537150140312CA145E4
:1008100037150140212C1305000AC93B814713F706
:10082000F70F0145637597003307F40008233EC0B6
:10083000753B8247130700028507E392E7FEA14557
:1008400037150140D52237140140C1451305044036
:10085000E12A15453D2BC14513050440C12A094530
:100860000D2B930500031D454D3B054511016FF010
:10087000DF83B71702409843B706FFF813671700E6
:1008800098C3D843758FD8C39843B706F7FEFD16B3
:10089000758F98C39843B706FCFFFD16758F98C3F4
:1008A000D843B70640FFFD16758FD8C337079F00A2
:1008B00098C78280B7160240D842B7070020114679
:1008C000318B938707006305C70021466308C70083
:1008D00037376E011307076098C38280D84293169A
:1008E000F700E3D706FE3777DC02130707C0EDB742
:1008F00001A097010020938161F3138181FD13050D
:10090000000A97F5FF1F9385E56F17F6FF1F130683
:10091000666F63FAC5008322050023A05500110508
:100920009105E3EAC5FE171500001305E5E197F50B
:10093000FF1F9385256D17F6FF1F1306266F63FAB9
:10094000C5008322050023A0550011059105E3EAA7
:10095000C5FE17F5FF1F1305656D938581816377CC
:10096000B500232005001105E36DB5FEB722000098
:1009700093820288739002308D427390428097F286
:10098000FFFF9382226893E2320073905230EFF0BF
:100990005FEE970200009382C2A973901234730035
:1009A0002030944593F7060193F2F60081C7DC41AD
:1009B000B3E2F20083D3050093F7F30FA5C303233B
:1009C0000500611122C226C08147130480029304EE
:1009D000800405473316F70033F7C3006312E602BD
:1009E000939527003D473317B7001347F7FF33733D
:1009F0006700B395B20033E36500639D860050C97C
:100A000085072147E397E7FC1244232065008244D1
:100A100021018280E39696FE10C9DDB782800845E9
:100A20006D8D3335A00082800CC982804CC98280D4
:100A300083A60181854718216390F6021C31639CCF
:100A4000D7023C219A0793E707F8B7E600E093F74F
:100A5000F70FBA962380F640854693575700339791
:100A6000E600544189CE938707048A07B7E600E081
:100A7000B69798C38280EDF33C219A07F9B7938724
:100A80000706B7E600E08A07B69798C30F10000084
:100A90008280EFF2EFE0371702405C4391462A84F0
:100AA000B18B6385D700A1466380D708B7376E0145
:100AB000938707601CC0B7160240DC42918313F78E
:100AC000F700B707002093878701BA978C23DC4291
:100AD000184093F5F50F93F707083355B70081E7F2
:100AE0003A85EFF02FDF48C008C448C4B71702406A
:100AF000DC438D46AD83FD8B13D737008A07F18B1E
:100B0000D98F13F6370113F7370063F4C600138744
:100B100047FFB707002093874700BA978C23EFF071
:100B20006FDB08C86FF06FD85C43B777DC02938740
:100B300007C049B799C5371702401C4F5D8D08CFD4
:100B40008280B7170240984F1345F5FF798D88CF03
:100B5000828099C5371702405C4F5D8D48CF8280F7
:100B6000B7170240D84F1345F5FF798DC8CF828063
:100B70001A218D6793870704B6217D8F9E21D58F1B
:100B8000D621D58FF621D58F9625D58FB625D58F31
:100B9000D625D58FF625D58FD98F1EA19E291EA9C2
:100BA00082801E2189C593E707041EA18280C207A7
:100BB000C18393F7F7FBC207C183C5BF4EA58280EF
:100BC0004A2582800A256D8D3335A00082801E2142
:100BD00037370140130707C0C207C1836306E5002A
:100BE000370700406316E500BA2193F7F7F8D98F6D
:100BF000FA2193F7F7CFC207C183D98F1EA1DE2157
:100C00005EB59E211EB5B7370140938707C06314B8
:100C1000F5009C251EB985475EA982801E2189C5E5
:100C200093E717001EA18280C207C183F99BC20708
:100C3000C183CDBF5E2501C6DD8D4EA5828093C5E3
:100C4000F5FFFD8DDDBF1E294A25ED8F420541814F
:100C500089C76D8D3335A00082800145828093C5A0
:100C6000F5FFC205C1810EA98280EFF26FC316297C
:100C7000F577FD17F58FF621DA252111D58F1EA9FD
:100C80005625FD779387379FF58FD6212A842EC06E
:100C9000D58F9625D58FB625D58F5EA55E29C2073F
:100CA000C18393F7F7CF5D8F5AA94800DD33B7476B
:100CB00001409387078082456312F406C2475A2495
:100CC000139517003E9542070E0541873E958C41CE
:100CD000635807048605EFF0EFBF930540062AC06E
:100CE000EFF04FBF824793144500930540063E85C1
:100CF000EFF00FC15E24C207C18763D507020E055E
:100D00009305400613052503EFF0CFBC1D89C98C60
:100D1000C204C18006A461016FF02FB9B24745B784
:100D20008A0555BF12059305400613052503EFF00C
:100D30006FBA3D89E9BF91C55E250967D98F5EA568
:100D400082805A25F977FD17F98FD5BF93F5F51FE6
:100D50004EA182800A216D8D3335A0008280EFF292
:100D60002FB4B707002003A50700B7157A009385B5
:100D70000520EFF02FB61375F50F238BA180931785
:100D80005500898F8A073E950E05239AA1806FF042
:100D9000CFB1EFF2EFB037F400E05C40AA85F99BE9
:100DA0005CC003D54181EFF0EFB008C823240400F4
:100DB0001C4093E717001CC0B7F700E0D843058B31
:100DC00075DF9843799B98C36FF02FAEEFF24FAD6C
:100DD0002A8411651111854513050502A13B93076E
:100DE00000027C80371501408D473EC28A85E1476D
:100DF000130505403EC4753622C637440140B70787
:100E000008006C00130504803ECA02C8231C0100C0
:100E1000A93D854513050480393F71016FF0EFA8A6
:100E2000EFF20FA87111AE840144635DC402B747AD
:100E30000140138707803A859305000432C0193FAB
:100E4000B747014013870780024675D53387840072
:100E500083050700138507800504C205C181FD35A0
:100E60000246E1B7328511016FF02FA4411106C689
:100E70002EC00DCD1841AA8705C358417D5511CB11
:100E80008546631BD70098472300070023A207006D
:100E90000545B240410182809847824614A3984795
:100EA000050798C7D8437D17D8C3DDB705468A859F
:100EB000853FF9BF011122CC2EC206CE26CA2A8454
:100EC000814793050002634506029245BE958385DE
:100ED00005008DE563D8C70263D4E702198E1305B8
:100EE000000293F526002AC089C501E79305000397
:100EF0002EC0858A814495EAB2840DA08507F1B79A
:100F00001D8EF1BF0146E1BF824522853AC832C637
:100F10003EC4A93FA24732464247FD14E34690FE35
:100F2000B284635306008144058E63C7E702A68737
:100F300092463387974036978305070095EDB28434
:100F400063449004635306000146F2406244D24475
:100F50003305F600056182801D8FBA879305000373
:100F6000228532C83EC63AC41137B24722474246AC
:100F7000FD17EDF7BA9465BF228532C63EC4FD3534
:100F8000A247324685076DB78245228532C43EC2EC
:100F9000F13DFD142246924765B7397106DE22DC29
:100FA00026DA3EC232833A8689ED924693070003E1
:100FB00001476C08FC86FD3DF2506254D254216119
:100FC0008280AA843684AE8791CA29470144631778
:100FD000E30063D50500B307B04005448646A30986
:100FE000010213073103938666FC36C49A853E8559
:100FF00032CA3AC81AC63EC0EFF08F90A546824763
:1010000032434247524663D4A600A24636951305A2
:1010100005039306F7FFA30FA7FE9A853E8532CC02
:101020003ACA1AC83EC636C0EFF0CF8AB24742432A
:101030005247624663F9670401CC29CA9247898BFB
:10104000B1C79305D002268532C40D3522467D16E0
:101050009247918B95C306479307100632C49305B8
:1010600000032685631EF702113593058007268548
:10107000F53B224609047916164792468245268595
:10108000153D229515BFAA8702478DB78246930763
:10109000D0020144A38FF6FE9307E7FF3EC04DBF89
:1010A000F13393058005E1B70145828001458280D7
:1010B000130181FD22D026CE06D22AC4AE8232840C
:1010C00002C681448385020089EDA24781C781451C
:1010D0003E85693B925002542685F24413018102F9
:1010E0008280930750026388F500224516C8850464
:1010F000B53BC24239A88387120013871200639C54
:10110000B7002245930550023AC88D334247850403
:10111000BA82850245BFD5DB9306B0026389D70446
:1011200063C8F600930630026386D704814705A0A2
:101130009306D002638AD70093060003E398D7FE94
:1011400013872200894721A0138722008547830641
:1011500007001306B0026383C6046341D602130678
:101160003002638BC602BA820145A54681A013876F
:1011700022006DBF138722009147D1BF1306D00212
:101180006389C60013060003E39FC6FC93E72700AC
:1011900031A005078547C1BF93E747000507E1B7C1
:1011A00013162500329506053A958502038602003E
:1011B000130706FD9375F70FE3F4B6FE1307E0027D
:1011C0009946631EE60085028146A5450386020016
:1011D000130606FD1377F60F63F5E50236C603879F
:1011E00002001306A006630DC70A6343E602130656
:1011F000C0046307C70A13068006630CC70881454D
:101200002DA813972600BA968606B29685027DBF52
:10121000130640076306C7081306A0076302C70842
:101220001306C0068145631AC700038612008D4568
:101230006314E6008502914585020386020093034C
:1012400000061307100663C4C300130710049303BA
:10125000700663C4C3069303500663547618930361
:10126000700463C1C30493055004635CB61613078E
:101270003004E310E6EA18409303440016CA230C36
:10128000E1001EC8A30C01000147BE862A862C0877
:1012900049A8038612008145E311E6FA890271BF6D
:1012A0008502B1BF93063006E307D6FC63CFC606BE
:1012B000930680056303D602A9BD93063007630435
:1012C000D60463CBC6029306F0066303D60E9306DC
:1012D000000793E74700E31ED6E291466390D50CE2
:1012E000930384000C40504016CA3AC23EC01EC848
:1012F000AA870147C14681A8930650076309D6060D
:101300009306800745BF1840B716000093034400BA
:101310009385C67311C3BA85324716CA1EC8BE86E6
:101320002A862245EFF01FB90DA091466394D5029D
:10133000930384000C40504016CA3AC23EC01EC8F7
:10134000AA870547A94622458533C243AA941E842D
:10135000D242C1B3B2460C4016C836C23AC01104DC
:101360002A878546294622450D39AA9459B39146C4
:10137000639DD500930384000C40504016CA3AC2C6
:101380003EC01EC8AA87014775BFB2460C4016C8AA
:1013900036C23AC011042A878146E9B7B24616C858
:1013A0000C40414636C23AC011042A87814665BFC7
:1013B0009146639ED500930384000C40504016CAAA
:1013C0003AC23EC01EC8AA870147A146ADBFB24679
:1013D0000C4016C836C23AC011042A8781462146FD
:1013E00059B70C401306840040403AC22A87224570
:1013F00032C83EC02286B687A94616CA4539AA9485
:101400004244B9B71301C1FD2EC832CAAA851008DB
:10141000014506C636CC3ACE3ED032C05139B24034
:10142000130141028280411122C426C206C61C213A
:10143000AA840144DC8183073100050499EFA947A0
:101440009305310005460145DC81EFF07F9D228543
:10145000B240224492444101828005469305310006
:101460000145EFF0FF9BB38784009C23DC81E1B74B
:10147000E7E7E7000D0A0D0A3D3D3D2054414E4B84
:101480002053454E534F5220424F4F54203D3D3D37
:101490000D000000506C6174666F726D3A20434815
:1014A000333256303033204020256C7520487A0D79
:1014B0000A000000496E697469616C697A696E6737
:1014C00020526164696F2048617264776172652E91
:1014D0002E2E0D005B53595354454D5D20436C6FC8
:1014E000636B2056616C69646174696F6E3A203178
:1014F0003030306D732064656C61792E2E2E0000C3
:1015000020444F4E452E204D696C6C697320446910
:1015100066663A20256C75206D730D0A0000000088
:101520005B53595354454D5D20456E746572696E29
:10153000672049646C65204D6F64652E2028486FD4
:101540006C6420627574746F6E20666F72207061B7
:101550006972696E67290D005B53595354454D5D9F
:10156000205573657220747269676765723A2050FE
:10157000414952494E47204D4F44450D000000005F
:101580005B444154415D205365713A256C75207C64
:10159000204C6576656C3A25642525207C204352D5
:1015A000433A307825303258202D3E2044697370FC
:1015B00061746368696E6720425552535420283322
:1015C00078292E2E2E0D0A000D0A5B504149525DDE
:1015D0002054616E6B204944206368616E676564C6
:1015E0003A203078253034580D0A00000D0A5B503F
:1015F0004149525D205374617274696E6720444999
:1016000053434F564552592042524F414443415350
:101610005420666F72202564206D696E202843680F
:101620003A3939292E2E2E0D0A0000005B5041490F
:10163000525D20436865636B73756D3A2030782581
:101640003032580D0A0000005B504149525D205372
:10165000656E64696E67205265712062757273747D
:101660002025642F25642E2E2E0D0A005B50414943
:10167000525D2042726F61646361737420636F6DA9
:10168000706C6574652E2052657475726E696E6734
:1016900020746F206E6F726D616C206D6F64652EAB
:1016A0000D0000005B524144494F5D20436F6E6660
:1016B00069677572696E67204861726477617265E7
:1016C00020283235306B6270732C202D3132644209
:1016D0006D2C204E4F2D41434B292E2E2E0D0000F8
:1016E0005B524144494F5D20486172647761726585
:1016F0002052656164792028534146452D52415757
:10170000292E0D005B524144494F5D2054617267A0
:101710006574696E67204164647265737320283351
:101720002D42797465293A202530325820253032EF
:101730005820253032580D0A00000000286E756CC4
:041740006C29000010
:10174400006CDC020204060804080C1008101820BF
:101754001020304020406080010203040506070881
:08176400010203040506070859
:00000001FF
