:100000006F00703700000000740B0000740B0000DC
:1000100000000000000000000000000000000000E0
:1000200000000000000000000000000000000000D0
:10003000740B000000000000740B000000000000C2
:10004000740B0000740B0000740B0000740B0000B4
:10005000740B0000740B0000740B0000740B0000A4
:10006000740B0000740B0000740B0000740B000094
:10007000740B0000740B0000740B0000740B000084
:10008000740B0000740B0000740B0000740B000074
:10009000740B0000740B000056020000000000000A
:1000A000511126C022C206C4828282441244A24058
:1000B000310182802A86014593F6150091C232955E
:1000C00085810606F5F9828000000000634E050276
:1000D00063C305042E86AA857D5515C285466378BF
:1000E000B6006356C00006068606E36CB6FE014500
:1000F00063E4C500918D558D85820582F5FA828075
:100100008682C93F2E8582823305A04063D70500D1
:10011000B305B040C1B7B305B0408682653F330533
:10012000A0408282868263C70500634905005D376F
:100130002E858282B305B040E35B05FE3305A04007
:10014000513F3305B040828200003D432A876373EC
:10015000C3029377F700BDEFADE5937606FF3D8AC6
:10016000BA960CC34CC30CC74CC74107E36BD7FE10
:1001700011E28280B306C3408A0697020000969679
:100180006780A6002307B700A306B7002306B700C1
:10019000A305B7002305B700A304B7002304B700E5
:1001A000A303B7002303B700A302B7002302B700DD
:1001B000A301B7002301B700A300B7002300B700D5
:1001C000828093F5F50F93968500D58D9396050162
:1001D000D58D61B793962700970200009696868288
:1001E000E78086FA9680C1171D8F3E96E374C3F8A8
:1001F000A5B7B747000803A707FCB70700209387F8
:10020000C70298C3C16642074183FD166316D70033
:1002100023900700238107008280EFF27FE8EF0040
:100220005039B7440008138504FC37040020EF0060
:10023000503E1304C4020C40138504FCEF00F04050
:10024000EF00D03830200E20372500001305C59A66
:10025000EF10806E99BD854537050040EF00907125
:1002600009CDB70700209387870298438545370556
:100270000040050798C3EF00707173002030EFF263
:100280003FE231118545054502C402C6231801002D
:1002900002C002C2EF00F05CB707002003A5070010
:1002A0008965938505713D357D15A54768842C00CA
:1002B000370500403EC623150100EF0030640546B7
:1002C000854537050040EF00D069930760027C80C8
:1002D00085475C810A8585473EC2EF0030458545EC
:1002E00037050040EF0070665101C1B3EFF25FDBEC
:1002F00051118545130540023714014002C002C266
:1003000002C4EF00305493070004930480048A85EC
:10031000130504407C8026C4EF00703891477C8030
:10032000C1473EC48A858D47130504403EC2EF0095
:100330001037130504409145EF00D03E85454145F7
:10034000EF005050DD478A85371501407C8026C478
:10035000EF00F034310191BBEFF29FD4C145371566
:100360000140EF00903B930740060DC991453715BA
:100370000140EF00903A9307B0040DC1894537154D
:100380000140EF0090399307200309C985453715CF
:100390000140EF009038814711E1E5473E8531B3D8
:1003A000EFF21FD01301C1FD614681456800713B2A
:1003B00085451305402002C002C202C4EF009048E8
:1003C0003165EF00D03C3715014089478A85130518
:1003D0000580372401407C8002C4EF00502C1305B7
:1003E0000440EF005004B7070E003ECC6C00854778
:1003F000130504402300F10202C602C802CA02CE5D
:10040000EF00D004854513050440EF0010091305E3
:100410000440EF009009930404402685EF00900902
:100420006DFD1305044037240140EF00300913042B
:1004300004402285EF0030096DFD13014102B5B182
:10044000EFF21FC637240140AA859D4605461305D5
:100450000440EF005009854513050440EF003007C4
:100460009304044089452685EF00101465DD1305CB
:100470000440EF00F01215B9EFF29FC20545C937ED
:10048000AA852A8437250000130505C0EF10C04A4D
:100490009307A00F1305400663E6870293075009F0
:1004A000014563F1870293171400A2978E07A29764
:1004B00071758A0713058556930540063E951939CF
:1004C0001375F50FDDB6B707002003A58702931754
:1004D000D500A98F13D51701A98F139557003D8D0E
:1004E0004205418111E10545828081470147FD15A3
:1004F00063C4B7003A858280B306F500942285076D
:1005000093F7F70F358FEDB7EFF29FB90111F92E81
:1005100013054006EF00D05A7D37B7070020054786
:100520009387C702B8A32A848AA3C5393725000058
:10053000A285130545C1EF1020406946814513058A
:1005400061002131B75701209387A75A3EC0C147A8
:100550005C8360821537C8830135488493050002A7
:100560000A856137A30FA1003725000085451305D3
:1005700005C4EF10603C8345F101372500001305E9
:1005800005C8EF10603BF12109651305859A6129C3
:100590000144B7240000D14522856936A54791451D
:1005A00063C0A7063715014013050540EF00D017BB
:1005B000228593052003BD36050401E91306004B8F
:1005C000A2851385C4C9EF102037930500020A8560
:1005D000592913052003EF00B04E9307004BE31C8D
:1005E000F4FA37150140914513050540EF009013CB
:1005F00037250000130505CCEF104036056175B4B2
:100600003715014013050540EF00D01155B7EFF243
:100610003FA91301C1FC0D23EF005047716513057D
:100620000520EF00904D372500001305059EEF10C3
:10063000E032B707002083A5070037250000130527
:1006400005A0EF10602F25395531993B930780089D
:1006500073A0073037250000130505A2EF10003006
:1006600071243704002071369307C402B8238547EC
:100670001304C4026312F71C0E2037250000130573
:1006800005A4EF10602B09651305859A692E37259F
:1006900000001305C5AAEF10202AB7040020938795
:1006A000840298431305803E3AC0EF00704193875F
:1006B000840202478C4337250000130585AD998DD0
:1006C000EF1080270D4793848402B71701401385EC
:1006D000074091453AC0EF0030051305401FEF0079
:1006E000303EB7170140138507409145EF00900356
:1006F0001305401FEF00D03C0247B71701407D179C
:1007000069F7138507409145EF00D00137250000B8
:10071000130585AFEF10802402C202C037150140D7
:100720009305000413050540EF00207F631D0510AD
:10073000824799E39C403EC09247984085EF8247AC
:100740001D8F85679387873863F6E702B727000018
:10075000138507B3EF108020231004002301040049
:100760006D3C372500001305C5B5EF10201F693B10
:1007700085473EC238208547631CF70A83A78180DE
:1007800098409386818036C41D8F8967938707714F
:1007900063F0E70AD53161462AC68145680875329B
:1007A000B75703209387A75A3ECA1E20B246930527
:1007B0000002FC8493072003230DF10003A3C180F2
:1007C0004808A30DD10036C81AD01AC6393B3243A7
:1007D000C2462A87A309A102372500009A8513067D
:1007E0002003130545B9EF1020150E203725000012
:1007F0001305C5BEEF104014A92C0D479305000248
:1008000048083AC68D242945EF00902B32477D17C2
:1008100075F737150140914513050540EF008070CD
:100820009840A24798C39387C1809843050798C30F
:100830005145EF00F028DDB5372500001305C5A6AA
:10084000EF10C011A9B502C202C02DB7EFF25F854B
:100850002A84894537350140EF00B0097DD9A2854A
:1008600037350140EF007008854537350140EF000E
:1008700050087DD937350140EF0070071375F50F2B
:100880006FF0BF82EFF2DF812E84AA84A145371575
:100890000140EF00606913E504024D3F22857D377A
:1008A000A14537150140EF00E0676FF01F80EFF2C0
:1008B0002FFF7111AA842E8437150140A14532C043
:1008C000EF00806613E5040251370246B304C4000A
:1008D00063199400A14537150140A92511016FF056
:1008E000CFFC05040345F4FF9537DDB7EFF24FFB6E
:1008F0000565011185451305050302C002C202C446
:1009000002C602C802CA02CC231E0100EF00807397
:10091000930700067C80E1448D478A8537150140A6
:1009200026C43EC2AD2B930700087C808A85914780
:10093000371501403EC4A523A14741448A85371598
:1009400001407C8022C4A12BA14537150140D92B41
:10095000608022C4371401408A8513050440812336
:1009600013050440C145C923B70704013EC6B707B4
:1009700000023ECA6C009D4737350140FC8626CCFC
:1009800002C8EF00C071854537350140EF00407463
:1009900037250000130505D0EF00507C13056009D2
:1009A000EF00101281450145F13D2945EF0050113E
:1009B00089450145C13D81450545E93585450D45DB
:1009C000D135814511457D3D9305300615455D3D89
:1009D0009305600219457D359305000245455D3557
:1009E000930500071D45793DA145371501402D2B85
:1009F0001305100EA13DA145371501402523A14542
:100A00003715014015231305200E8935A1453715EB
:100A10000140092B372500001305C5D3EF001074E2
:100A200005616FF08FE8EFF2AFE7342110310C2150
:100A30002A8437250000130505D6EF00F06FA28544
:100A40000D464145AD350D46A28529458D356FF0E2
:100A5000CFE5EFF2EFE4894501452D351545EF006F
:100A600030066FF08FE4EFF2AFE371112A84AE84A9
:100A70001D45930500073935A145371501406D2106
:100A80001305100EE133A145371501406129A14539
:100A90003715014051291305000A4D3B814713F7D3
:100AA000F70F0145637597003307F40008233EC034
:100AB000713B8247130700028507E392E7FEA145D9
:100AC00037150140852137140140C1451305044005
:100AD00091291545EF00C07EC14513050440A921A9
:100AE0000945EF00E07D930500031D45613B054589
:100AF00011016FF08FDBB71702409843B706FFF87C
:100B00001367170098C3D843758FD8C39843B706A7
:100B1000F7FEFD16758F98C39843B706FCFFFD16C8
:100B2000758F98C3D843B70640FFFD16758FD8C39D
:100B300037079F0098C78280B7160240D842B70790
:100B400000201146318B938707006305C7002146BB
:100B50006308C70037376E011307076098C38280A8
:100B6000D8429316F700E3D706FE3777DC02130767
:100B700007C0EDB701A097010020938121CB13811D
:100B800081FD1305000A97F5FF1F9385A54717F60A
:100B9000FF1F1306264763FAC5008322050023A022
:100BA000550011059105E3EAC5FE17150000130570
:100BB000651F97F5FF1F9385E54417F6FF1F130682
:100BC000E64663FAC5008322050023A055001105FF
:100BD0009105E3EAC5FE17F5FF1F1305254593852B
:100BE00081816377B500232005001105E36DB5FE13
:100BF000B722000093820288739002308D42739076
:100C0000428097F2FFFF9382E23F93E232007390BB
:100C10005230EFF05FEE970200009382829F739054
:100C2000123473002030B727014093870740631EBA
:100C3000F500EFF2EFC685451305002091218145AF
:100C40001305002035296FF04FC682805C413707BD
:100C5000F1FF1307F7EF7D8FDC419441A207D58F99
:100C6000D98F5CC11C4537F7F1FF1307D77FD445F7
:100C70007D8F9C49D58F94458606D58FD98F1CC50D
:100C80005C55370710FF7D177D8FDC29FD1793F723
:100C9000F70FD207D98F5CD582801C4589C593E7B1
:100CA00017001CC58280F99BEDBF1C4593E78700A8
:100CB0001CC5828008450D81058982801C4593E70B
:100CC00047001CC5828008450981058982801C4532
:100CD00091C537075000D98F1CC582803707B0FFF8
:100CE0007D17F98FD5BFA54763F8B704138765FF54
:100CF000931717008322C500BA971D433313F300DF
:100D00001343F3FF33735300B397F600B3E7670061
:100D10005CC5994763E3C7047D16931726003E968A
:100D20005859FD47B397C70093C7F7FFF98FB3959D
:100D3000C500DD8D4CD982809397150003230501F2
:100D4000AE971D473317F7001347F7FF3377670058
:100D5000B397F6005D8F18C96DBFB14763E2C70254
:100D60006516931726003E961859FD47B397C7009E
:100D700093C7F7FFF98FB395C500DD8D0CD982803D
:100D80004D161317260054553A96FD47B397C700E2
:100D900093C7F7FFF58FB395C500DD8D4CD58280E5
:100DA000684542054181828008416D8D3335A00040
:100DB0008280B707674537270240938737125CC3A5
:100DC000B797EFCD9387B79A5CC3828037270240ED
:100DD0001C4B93E707081CCB8280372702405C47F7
:100DE0000545858B91E748474189133515000D0569
:100DF0008280EFF2EFAA2A84CD3785476318F50089
:100E000019E0154529A0D13F7D14C5BF7DD86FF0ED
:100E1000CFA9EFF2EFA8AA8437050B00D93F91477D
:100E20006313F502372402401C4837050B0093E793
:100E300027001CC844C81C4893E707041CC8553F3A
:100E40001C48F59B1CC86FF04FA6EFF26FA561110F
:100E5000AA8409652EC002C2693F11478245631DFD
:100E6000E502372402401C48096593E717001CC8B7
:100E700093970501C1839EA02EC0A53F11478245CF
:100E80006319E500890426C29247C18109658EA3D2
:100E90008D371C48F99B1CC821016FF00FA19445A8
:100EA00093F7060193F2F60081C7DC41B3E2F2004A
:100EB00083D3050093F7F30FA5C303230500611146
:100EC00022C226C081471304800293048004054790
:100ED0003316F70033F7C3006312E6029395270039
:100EE0003D473317B7001347F7FF33736700B395D8
:100EF000B20033E36500639D860050C98507214732
:100F0000E397E7FC1244232065008244210182809C
:100F1000E39696FE10C9DDB7828008456D8D3335A6
:100F2000A00082800CC982804CC9828083A6018186
:100F3000854718216390F6021C31639CD7023C213F
:100F40009A0793E707F8B7E600E093F7F70FBA962A
:100F50002380F6408546935757003397E600544167
:100F600089CE938707048A07B7E600E0B69798C34F
:100F70008280EDF33C219A07F9B793870706B7E61D
:100F800000E08A07B69798C30F1000008280B7165A
:100F90000240DC4241771307F77FF98F5D8DC8C2AD
:100FA0008280EFF2EF8F371702405C4391462A842C
:100FB000B18B6385D700A1466380D708B7376E0130
:100FC000938707601CC0B7160240DC42918313F779
:100FD000F700B707002093878701BA978C23DC427C
:100FE000184093F5F50F93F707083355B70081E7DD
:100FF0003A85EFF02F8E48C008C448C4B7170240A6
:10100000DC438D46AD83FD8B13D737008A07F18B08
:10101000D98F13F6370113F7370063F4C60013872F
:1010200047FFB707002093874700BA978C23EFF05C
:101030006F8A08C86FF06F875C43B777DC029387CD
:1010400007C049B799C5371702401C4F5D8D08CFBF
:101050008280B7170240984F1345F5FF798D88CFEE
:10106000828099C5371702405C4F5D8D48CF8280E2
:10107000B7170240D84F1345F5FF798DC8CF82804E
:1010800099C5371702405C475D8D48C78280B71706
:101090000240D8471345F5FF798DC8C782801A21D1
:1010A0008D6793870704B6217D8F9E21D58FD6212A
:1010B000D58FF621D58F9625D58FB625D58FD625F8
:1010C000D58FF625D58FD98F1EA19E291EA9828086
:1010D0001E2189C593E707041EA18280C207C18330
:1010E00093F7F7FBC207C183C5BF4EA582804A258F
:1010F00082800A256D8D3335A00082801E2137370E
:101100000140130707C0C207C1836306E500370724
:1011100000406316E500BA2193F7F7F8D98FFA215A
:1011200093F7F7CFC207C183D98F1EA1DE215EB529
:101130009E211EB5B7370140938707C06314F500A1
:101140009C251EB985475EA982801E2189C593E72B
:1011500017001EA18280C207C183F99BC207C18309
:10116000CDBF5E2501C6DD8D4EA5828093C5F5FFFE
:10117000FD8DDDBF1E294A25ED8F4205418189C7BE
:101180006D8D3335A00082800145828093C5F5FFC7
:10119000C205C1810EA98280EFE29FF01629F57782
:1011A000FD17F58FF621DA252111D58F1EA95625B9
:1011B000FD779387379FF58FD6212A842EC0D58F50
:1011C0009625D58FB625D58F5EA55E29C207C1832A
:1011D00093F7F7CF5D8F5AA94800E133B747014035
:1011E0009387078082456312F406C2475A241395F9
:1011F00017003E9542070E0541873E958C41635886
:1012000007048605EFE01FED930540062AC0EFE0D6
:101210007FEC824793144500930540063E85EFE03E
:101220003FEE5E24C207C18763D507020E05930512
:10123000400613052503EFE0FFE91D89C98CC204B0
:10124000C18006A461016FE05FE6B24745B78A0539
:1012500055BF12059305400613052503EFE09FE7F0
:101260003D89E9BF91C55E250967D98F5EA582805A
:101270005A25F977FD17F98FD5BF93F5F51F4EA1C4
:1012800082800A216D8D3335A0008280EFE25FE11C
:10129000B707002003A50700B7157A00938505203E
:1012A000EFE05FE31375F50F238BA18093175500D3
:1012B000898F8A073E950E05239AA1806FE0FFDE95
:1012C000EFE21FDE37F400E05C40AA85F99B5CC0CA
:1012D00003D54181EFE01FDE08C8232404001C4031
:1012E00093E717001CC0B7F700E0D843058B75DF04
:1012F0009843799B98C36FE05FDBEFE27FDA2A8443
:10130000116511118545130505022D3B9307000258
:101310007C80371501408D473EC28A85E147130521
:1013200005403EC4EFF0BFB722C637440140B707BF
:1013300008006C00130504803ECA02C8231C01008B
:10134000A13D854513050480313F71016FE0FFD554
:10135000EFE21FD57111AE840144635DC402B7474B
:101360000140138707803A859305000432C0113F7E
:10137000B747014013870780024675D5338784003D
:1013800083050700138507800504C205C181F53573
:101390000246E1B7328511016FE03FD1411106C627
:1013A0002EC00DCD1841AA8705C358417D5511CBDC
:1013B0008546631BD70098472300070023A2070038
:1013C0000545B240410182809847824614A3984760
:1013D000050798C7D8437D17D8C3DDB705468A856A
:1013E000853FF9BF011122CC2EC206CE26CA2A841F
:1013F000814793050002634506029245BE958385A9
:1014000005008DE563D8C70263D4E702198E130582
:10141000000293F526002AC089C501E79305000361
:101420002EC0858A814495EAB2840DA08507F1B764
:101430001D8EF1BF0146E1BF824522853AC832C602
:101440003EC4A93FA24732464247FD14E34690FE00
:10145000B284635306008144058E63C7E702A68702
:1014600092463387974036978305070095EDB284FF
:1014700063449004635306000146F2406244D24440
:101480003305F600056182801D8FBA87930500033E
:10149000228532C83EC63AC41137B2472247424677
:1014A000FD17EDF7BA9465BF228532C63EC4FD35FF
:1014B000A247324685076DB78245228532C43EC2B7
:1014C000F13DFD142246924765B7397106DE22DCF4
:1014D00026DA3EC232833A8689ED924693070003AC
:1014E00001476C08FC86FD3DF2506254D2542161E4
:1014F0008280AA843684AE8791CA29470144631743
:10150000E30063D50500B307B04005448646A30950
:10151000010213073103938666FC36C49A853E8523
:1015200032CA3AC81AC63EC0EFE09FBDA546824700
:1015300032434247524663D4A600A246369513056D
:1015400005039306F7FFA30FA7FE9A853E8532CCCD
:101550003ACA1AC83EC636C0EFE0DFB7B2474243C8
:101560005247624663F9670401CC29CA9247898BC6
:10157000B1C79305D002268532C40D3522467D16AB
:101580009247918B95C306479307100632C4930583
:1015900000032685631EF702113593058007268513
:1015A000F53B224609047916164792468245268560
:1015B000153D229515BFAA8702478DB7824693072E
:1015C000D0020144A38FF6FE9307E7FF3EC04DBF54
:1015D000F13393058005E1B70145828001458280A2
:1015E000130181FD22D026CE06D22AC4AE823284D7
:1015F00002C681448385020089EDA24781C78145E7
:101600003E85693B925002542685F24413018102C3
:101610008280930750026388F500224516C885042E
:10162000B53BC24239A88387120013871200639C1E
:10163000B7002245930550023AC88D3342478504CE
:10164000BA82850245BFD5DB9306B0026389D70411
:1016500063C8F600930630026386D704814705A06D
:101660009306D002638AD70093060003E398D7FE5F
:1016700013872200894721A013872200854783060C
:1016800007001306B0026383C6046341D602130643
:101690003002638BC602BA820145A54681A013873A
:1016A00022006DBF138722009147D1BF1306D002DD
:1016B0006389C60013060003E39FC6FC93E7270077
:1016C00031A005078547C1BF93E747000507E1B78C
:1016D00013162500329506053A9585020386020009
:1016E000130706FD9375F70FE3F4B6FE1307E00248
:1016F0009946631EE60085028146A54503860200E1
:10170000130606FD1377F60F63F5E50236C6038769
:1017100002001306A006630DC70A6343E602130620
:10172000C0046307C70A13068006630CC708814517
:101730002DA813972600BA968606B29685027DBF1D
:10174000130640076306C7081306A0076302C7080D
:101750001306C0068145631AC700038612008D4533
:101760006314E60085029145850203860200930317
:1017700000061307100663C4C30013071004930385
:10178000700663C4C306930350066355761893032B
:10179000700463C1C30493055004635DB616130758
:1017A0003004E310E6EA18409303440016CA230C01
:1017B000E1001EC8A30C01000147BE862A862C0842
:1017C00049A8038612008145E311E6FA890271BF38
:1017D0008502B1BF93063006E307D6FC63CFC60689
:1017E000930680056303D602A9BD93063007630400
:1017F000D60463CBC6029306F0066304D60E9306A6
:10180000000793E74700E31ED6E291466391D50CAB
:10181000930384000C40504016CA3AC23EC01EC812
:10182000AA870147C14681A893065007630AD606D6
:101830009306800745BF1840B72600009303440075
:10184000938586D911C3BA85324716CA1EC8BE868B
:101850002A862245EFF01FB90DA091466394D50268
:10186000930384000C40504016CA3AC23EC01EC8C2
:10187000AA870547A94622458533C243AA941E84F8
:10188000D242C1B3B2460C4016C836C23AC01104A7
:101890002A87854629462245EFF03FC3AA9451B3D3
:1018A0009146639DD500930384000C40504016CAB6
:1018B0003AC23EC01EC8AA8701476DBFB2460C405F
:1018C00016C836C23AC011042A878146E1B7B2462B
:1018D00016C80C40414636C23AC011042A878146D8
:1018E0005DBF9146639ED500930384000C40504039
:1018F00016CA3AC23EC01EC8AA870147A146A5BF64
:10190000B2460C4016C836C23AC011042A87814636
:10191000214651B70C401306840040403AC22A8742
:10192000224532C83EC02286B687A94616CAEFF0C5
:10193000FFCAAA944244A9B71301C1FD2EC832CAF6
:10194000AA851008014506C636CC3ACE3ED032C034
:10195000EFF01FC9B240130141028280411122C43D
:1019600026C206C61C21AA840144DC8183073100FB
:10197000050499EFA9479305310005460145DC812F
:10198000EFF01F9D2285B2402244924441018280A3
:101990000546930531000145EFF09F9BB387840016
:1019A0009C23DC81E1B70000E7E7E7005B464C41A0
:1019B00053485D2053657474696E67732053617674
:1019C00065642E2049443A203078253034582C2044
:1019D0005374617475733A2025640D0A0000000089
:1019E0000D0A0D0A3D3D3D2054414E4B2053454EBE
:1019F000534F5220424F4F54203D3D3D0D000000BB
:101A0000506C6174666F726D3A20434833325630C1
:101A10003033204020256C7520487A0D0A000000E4
:101A2000496E697469616C697A696E672052616494
:101A3000696F2048617264776172652E2E2E0D00E9
:101A40005B53595354454D5D205061697265642064
:101A500053656E736F722E204C6F6164656420490C
:101A6000443A203078253034580D0A005B535953DE
:101A700054454D5D204E4F54205041495245442E0F
:101A80002057616974696E6720666F72207573658F
:101A90007220746F20747269676765722070616963
:101AA00072696E672E2E2E0D000000005B53595395
:101AB00054454D5D20436C6F636B2056616C6964C7
:101AC0006174696F6E3A20313030306D7320646517
:101AD0006C61792E2E2E000020444F4E452E204D55
:101AE000696C6C697320446966663A20256C7520C0
:101AF0006D730D0A000000005B53595354454D5D52
:101B000020456E746572696E672049646C65204D6E
:101B10006F64652E2028486F6C6420627574746F42
:101B20006E20666F722070616972696E67290D00A0
:101B30005B53595354454D5D202A2A2A2046414380
:101B4000544F525920524553455420545249474707
:101B500045524544202A2A2A0D0000005B53595360
:101B600054454D5D20526573657420646F6E652E1B
:101B7000205374617274696E672050616972696E76
:101B800067206175746F6D61746963616C6C792E27
:101B90002E2E0D005B444154415D205365713A2562
:101BA0006C75207C204C6576656C3A256425252073
:101BB0007C20626174746572793A25642525207CE5
:101BC000204352433A307825303258202D3E20446D
:101BD00069737061746368696E672042555253542B
:101BE00020283378292E2E2E0D0A000074616E6B8A
:101BF0005F69643A203078253034580D0A000000BF
:101C000042617474657279204144433A20256C75B1
:101C10000D0A00000D0A5B504149525D204E657768
:101C20002054616E6B2049442067656E6572617453
:101C300065643A203078253034580D0A00000000E1
:101C40000D0A5B504149525D205374617274696E94
:101C50006720444953434F564552592042524F4101
:101C6000444341535420666F72202564206D696E91
:101C7000202843683A3939292E2E2E0D0A000000FB
:101C80005B504149525D20436865636B73756D3AE3
:101C9000203078253032580D0A0000005B50414951
:101CA000525D2053656E64696E67205265712062D3
:101CB000757273742025642F25642E2E2E0D0A0054
:101CC0005B504149525D2042726F6164636173747D
:101CD00020636F6D706C6574652E2053746174752C
:101CE000732053415645442E204461746120776926
:101CF0006C6C206E6F772073746172742E0D00000F
:101D00005B524144494F5D20436F6E66696775724F
:101D1000696E672048617264776172652028323588
:101D2000306B6270732C202D313264426D2C204E4A
:101D30004F2D41434B292E2E2E0D00005B52414466
:101D4000494F5D2048617264776172652052656118
:101D500064792028534146452D524157292E0D00C4
:101D60005B524144494F5D20546172676574696EEE
:101D70006720416464726573732028332D4279743F
:101D800065293A2025303258202530325820253018
:101D900032580D0A00000000286E756C6C29000096
:101DA000006CDC020204060804080C10081018205D
:101DB000102030402040608001020304050607081F
:081DC0000102030405060708F7
:00000001FF
