:100000006F10C063000000003A1600003A160000AE
:1000100000000000000000000000000000000000E0
:1000200000000000000000000000000000000000D0
:100030003A160000000000003A1600000000000020
:100040003A1600003A1600003A1600003A16000070
:10005000CA0200004C0200003A1600003A160000E6
:100060003A1600003A1600003A1600003A16000050
:100070003A1600003A1600003A1600003A16000040
:100080003A1600003A1600003A1600003A16000030
:100090003A1600003A16000032030000000000008B
:0C00A000730050107D157DFD8280000073
:1000AC00511126C022C206C4828282441244A2404C
:1000BC00310182802A86014593F6150091C2329552
:1000CC0085810606F5F9828000000000634E05026A
:1000DC0063C305042E86AA857D5515C285466378B3
:1000EC00B6006356C00006068606E36CB6FE0145F4
:1000FC0063E4C500918D558D85820582F5FA828069
:10010C008682C93F2E8582823305A04063D70500C5
:10011C00B305B040C1B7B305B0408682653F330527
:10012C00A0408282868263C70500634905005D3763
:10013C002E858282B305B040E35B05FE3305A040FB
:10014C00513F3305B040828200003D432A876373E0
:10015C00C3029377F700BDEFADE5937606FF3D8ABA
:10016C00BA960CC34CC30CC74CC74107E36BD7FE04
:10017C0011E28280B306C3408A069702000096966D
:10018C006780A6002307B700A306B7002306B700B5
:10019C00A305B7002305B700A304B7002304B700D9
:1001AC00A303B7002303B700A302B7002302B700D1
:1001BC00A301B7002301B700A300B7002300B700C9
:1001CC00828093F5F50F93968500D58D9396050156
:1001DC00D58D61B79396270097020000969686827C
:1001EC00E78086FA9680C1171D8F3E96E374C3F89C
:1001FC00A5B7EFF2FFEA3705001061118545EF1046
:10020C0090200545EF10F01213051006EF10702327
:10021C0065DD3D45EF10F00D2145EF10700E0545E5
:10022C00EF10F00B93075011231101007C808547D0
:10023C005C810A8585473EC2EF1050042101B5B59B
:10024C0073002030EFF2DFE5211185450545EF10F5
:10025C00B0198145094502C402C602C802CAEF1092
:10026C00C07F85450945EF10407F89450945EF1052
:10027C00C07E91450945EF10407EDD4705443EC4E4
:10028C002800C1473EC822CA02C6EF10205E99451D
:10029C000D45EF10807C930700043EC42800B14745
:1002AC003EC8EF10A05C93074011231101000A8592
:1002BC007C80408122C2EF10607C6101FDB313058C
:1002CC007005EF10406173002030B747000803A79A
:1002DC0007FC9387818098C3C16642074183FD1652
:1002EC006316D70023900700238107008280EFF26A
:1002FC003FDBEF10E05EB7440008138504FCEF1001
:10030C002064138481800C40138504FCEF10C066BC
:10031C00EF10A05E30200E20372500001305C55BC2
:10032C00EF20202059B3854537050040EF10D02031
:10033C0009CDB70700209387870398438545370578
:10034C000040050798C3EF10B02073002030EFF287
:10035C003FD531118545054502C402C6231801005D
:10036C0002C002C2EF10300AB707002003A5C70075
:10037C00896593850571B93B7D15A54768842C006B
:10038C00370500403EC623150100EF1070130546DB
:10039C00854537050040EF101019930760027C80EB
:1003AC0085475C810A8585473EC2EF10206D8545E7
:1003BC0037050040EF10B0155101C5B9EFF25FCE13
:1003CC0051118545130540023714014002C002C289
:1003DC0002C4EF10700193070004930480048A8513
:1003EC00130504407C8026C4EF10405E91477C804E
:1003FC00C1473EC48A858D47130504403EC2EF10A9
:10040C00E05C130504409145EF10A064854541451F
:10041C00EF10807DDD478A85371501407C8026C42E
:10042C00EF10C05A0535310149B1EFF27FC76111A8
:10043C002AC2854537150140EF10006189452A8491
:10044C0037150140EF1040609145AA8437150140E3
:10045C00EF10805F2AC0C14537150140EF10C05E18
:10046C00024792460DE1B337E0008A0799C093E743
:10047C00270019C093E7170099C29CA209ED130538
:10048C00400621011DB115E3B3379000860719C052
:10049C0093E71700FDF21305B00465D7130520038D
:1004AC00EDD0014579FC6545E9BF8147E5F4B337EB
:1004BC008000CDB7EFF2DFBE711113051100B53717
:1004CC002A840945EF10301C13052100B93FAA847A
:1004DC000945EF10501B13053100813F1C819080A2
:1004EC0013F7F40F5D8E9C815D8EB7070020238E71
:1004FC00C70263E484001377F40F9377F40F6374EB
:10050C00940093F7F40F26942A94AA866373A70099
:10051C00BA86158C2A876373F5003E87198C137481
:10052C00F40FB367860081CB37250000A285130535
:10053C00C57FEF10107F2285110185BEEFF25FB6EB
:10054C001301C1FD614681456800013185451305E4
:10055C00402002C002C202C4EF1000693165EF10E6
:10056C00005C3715014089478A85130505803724BF
:10057C0001407C8002C4EF10604513050440EF106D
:10058C002016B7070E003ECC6C00854713050440BF
:10059C002300F10202C602C802CA02CEEF10A01656
:1005AC00854513050440EF10E01A13050440EF10C5
:1005BC00601B930404402685EF10601B6DFD130532
:1005CC00044037240140EF10001B13040440228523
:1005DC00EF10001B6DFD13014102C1BCEFF25FACCB
:1005EC00372500001305055AEF10F075130520038D
:1005FC00EF107009FD5637070140232AD740B77614
:10060C0000409C42F59B9CC2B7F700E083A607D143
:10061C0093E6460023A8D7D083A607D1918A638797
:10062C00060E9307800873B007300F100000832468
:10063C0047408327074083264740D58F2322F74026
:10064C0037F400E0032704D1832704D14D451377F9
:10065C00070293E787022328F4D0832704D193F76A
:10066C00F7FDD98F2328F4D0832704D193E7870093
:10067C002328F4D097000020E7800098832704D12A
:10068C004D4593E787002328F4D097000020E7809E
:10069C00A096832704D1918BC1CBB707014023A22D
:1006AC0097409307800873A0073037F700E0832743
:1006BC0007D137140140ED9B2328F7D0EF0070735E
:1006CC00B70701407D573725000023AAE7401305E3
:1006DC00055BEF105067914513050440EF10A037F0
:1006EC0013052003EF10207A130504409145EF10F9
:1006FC004036854513055023EF10004FC1313D3D69
:10070C0091361305800CEF10007845B203A707D182
:10071C001367070123A8E7D09307800873B007304D
:10072C000F100000814429BF832704D1BD9B2328CF
:10073C00F4D085BFEFF2DF96372401407111AA8502
:10074C009D460546AA8413050440EF106005130569
:10075C0004408545EF104003B167938707353EC0D1
:10076C001304044089452285EF10A00F09E5824748
:10077C00FD173EC0E5FB824781EF37250000A685BB
:10078C001305855DEF10F059014511016FF0FF91D4
:10079C003725014013050540EF10200CFDB7EFF293
:1007AC003F90711121448144214569377D14AA94ED
:1007BC0065FC8D8093970401C18389E70145110184
:1007CC006FF0BF8EA147014405453EC0A537824757
:1007DC002A94FD17F5FBC165FD150D806D8C131565
:1007EC0024002A9413154400018DE58D1605EFF0B5
:1007FC007F8EAA852A84372500001305C57EEF104D
:10080C00505285671387770613054006E36987FA0C
:10081C00938787BBE3F487FA93171400A2978E078C
:10082C00A2973775FBFF8A07130505C29305004B8A
:10083C003E95EFF03F8A1375F50F51B7B7070020BF
:10084C0003A587039317D500A98F13D51701A98F7B
:10085C00139557003D8D4205418111E1054582807C
:10086C0001478147FD156344B7003E858280B3067E
:10087C00E5009422B58FA1461393870113961700B8
:10088C00135383419377F60F635603009347760017
:10089C0093F7F70FFD1693F6F60FF9FE050713778E
:1008AC00F70FD1B7EFF2CFFF1301C1F8EF00300B08
:1008BC0013054006EF10205D5137AA852A84373581
:1008CC00000013058582EF10D0456946814513055C
:1008DC00A101EFF09F87B75701209387A75A3ECA13
:1008EC00E084C93EAA85230DA1003735000013050D
:1008FC000584EF1010436535AA85A30DA10037358B
:10090C00000013050586EF10D041C1479305000286
:10091C004808230EF100A937A309A10237350000BE
:10092C0013050587EF10F03F8144373700005C0852
:10093C00A6978C23130507888504EF10903EA147DA
:10094C0037370000E395F4FE83453103373500005B
:10095C0013058588EF10F03C373500009306401FD7
:10096C001306004B854513054589EF10903B02C0DB
:10097C000245A945EFF00FFB9147914563CCA706C3
:10098C003715014013050540EF10E00C0245D14529
:10099C00EFF04FF909EDEF00D0408245B73700007A
:1009AC00AA861306004B1385C78BEF109037EF0008
:1009BC00701509651305C559EF0010129305000257
:1009CC004808EF00D020EF007036EF009016B70704
:1009DC000020138787031843938787033EC43AC2CA
:1009EC00A24712479C43998F1307301F637BF70074
:1009FC008144C9A83715014013050540EF10600567
:100A0C0071B7EF003027AA846309051E9305000215
:100A1C004818EF00B0288346610303465103834511
:100A2C004103B73700001385878DEF10902F0347D4
:100A3C0041039307A00A6313F7100347510393076D
:100A4C005005631DF70E034761039D476318F70EAE
:100A5C009305000248182935834791030347810306
:100A6C00AA86A207D98F034731052AC8373500005B
:100A7C002286BE851305858F3EC6EF10902A03474C
:100A8C00310542436316670AB2476313F40A0347FE
:100A9C00F103373500001305C592BA853AC2EF1041
:100AAC00502812478547E315F7F49387818082A37A
:100ABC00B8A3EFF0DF8337350000A285130505944A
:100ACC00EF103026824785073EC002479307004B44
:100ADC006304F700E38E04E83715014091451305D4
:100AEC000540EF001077EF005029638C041015447B
:100AFC00B7140140914513850440EF00D0751305E0
:100B0C004006EF104038914513850440EF00707497
:100B1C00130540067D14EF10003779F837350000C7
:100B2C001305859FEF103022130141076FF0EFD7AB
:100B3C003735000013058595EF10F020814793069B
:100B4C000002D8083306F70058183E97182385077B
:100B5C001347F7FF18A2E396D7FE03474105930707
:100B6C00A00A631CF7080347510593075005631649
:100B7C00F708034761059D476311F70893050002C9
:100B8C00C808F9398347910503478105AA86A2074E
:100B9C00D98F034731072AC8373500002286BE8516
:100BAC00130505973EC6EF10D01703473107424394
:100BBC00631F6702B247631CF4020347F105373524
:100BCC0000001305859ABA853AC2EF1090151247AA
:100BDC008547E31FF7E09387818082A3B8A3EFF0EA
:100BEC000FF137350000A2851305059CD1BD3735B3
:100BFC0000001305C59DEF1010150545EF10A0283A
:100C0C00C5B39387818023900700238107000D448F
:100C1C00EFF0EFEDB7140140914513850440EF0060
:100C2C0090631305401FEF10002691451385044077
:100C3C00EF0030621305401F7D14EF10C02479F8CB
:100C4C00373500009305004B130585A0EF10700D90
:100C5C00E1BDEFF2EFC4130141FCEF009019EF106E
:100C6C00401F716513050520EF1080253725000006
:100C7C001305855FEF10300DB707002083A5C70063
:100C8C003725000013050561EF10B009EFF02FECCC
:100C9C00EFF0CFF2EFF09F8AEFF0AFD50564372578
:100CAC0000009305843813054562EF109007130577
:100CBC008438EF10401D372500001305C563EF1075
:100CCC0090089307800873A00730372500001305A0
:100CDC000564EF1050076121EF00300AEFF0EFDEF2
:100CEC0093878180B823854793848180631DF71493
:100CFC008E203725000013050565EF10900209655D
:100D0C001305C559EF00405D8D47371401409145DF
:100D1C00130504403EC0EF0010541305401FEF10A4
:100D2C008016914513050440EF00B0521305401F87
:100D3C00EF1060158247FD17E9FB91451305044040
:100D4C00EF0030513725000013054569EF10A07FE7
:100D5C009307F00F02C802C602CA3EC002C402C208
:100D6C0002CC0144371501409305000413050540DE
:100D7C00EF00904D6310050EB70700209387870393
:100D8C0001EC372500001305056B8043EF10A07BA9
:100D9C00B7070020938787039843E247CDE3856725
:100DAC00018F9387873863FCE7083725000013050C
:100DBC00C56CEF104079B82085476313F7069E2069
:100DCC00A5C3372500001305456EEF10C0776946A3
:100DDC00814513052102EFF04FB7B75706209387D3
:100DEC00A75A3ECE9E209305000268082310F102FC
:100DFC00EFF01FA7A30DA102312309651305C559F7
:100E0C00E129D1479305000268083EC0EF00205C41
:100E1C007945EF1040078247FD17EDF7EF00E075BD
:100E2C002390040023810400EFF06FCCEFF09FA718
:100E3C009307F00F3EC0854702C602C43ECC29453D
:100E4C00EF10600405B7372500001305C566EF10D9
:100E5C00806F5DBD1DC8B7070020624783A787035D
:100E6C00631B071CD5173384874085679387C73767
:100E7C0063ED8700BC20639C071837250000130521
:100E8C004570EF10406CEFF0FFA1B820854763115F
:100E9C00F71EEFF02FE2B2472A846390071AAA8557
:100EAC003725000013054573EF10A0670247930721
:100EBC00F00F6307F70012479307F03B63F6E71C4C
:100ECC00EFF0FF8DAA852AC837250000130585761B
:100EDC00EF10206513054006EF00F07A02479307E8
:100EEC00F00F6304F70063038716814713070002B2
:100EFC007408BE96238006008507E39BE7FEB75770
:100F0C0002209387A75A3ECE9E204247230181029E
:100F1C002310F102C247A301F102BD4763F1E714AC
:100F2C0023020102B707002083C7C7039305000201
:100F3C006808A302F1023EC2A2473ED4EFF05F92D2
:100F4C000247A30DA1029247631F8710B72500002B
:100F5C009385455F4247224637250000A28613053C
:100F6C004578EF10005CE52A712E09651305C5590B
:100F7C00A5261305800CEF0010718D479305000218
:100F8C0068083EC0A9215145EF00F06F8247FD175C
:100F9C00F5F7372500001305C57AEF10C05A130575
:100FAC002003EF00506EA24785073EC4EF00E05CC3
:100FBC00B7170140138507409145EF00D029130561
:100FCC004006EF00506CB717014013850740914560
:100FDC00EF003028854722CA3EC602C2B82085479A
:100FEC00631EF700B72700001385077DEF10A0558F
:100FFC00372500001305057EEF10E054EFF00FDEEF
:10100C00924722C08507C207C1833EC299BB3725D0
:10101C0000001305C571EF10005313054006EF00D7
:10102C00906637F700E0832707D1B7060080D58F8D
:10103C002328F7D099BD02CC89BDD247E388A7E617
:10104C00AA853725000013050575B9BD124793070E
:10105C00F03BE3ECE7E8854722CA3EC641B785473B
:10106C002302F102C1B5B72500009385055FDDB5FC
:10107C00372500001305C57BEF10E04C1305400627
:10108C00EF007060024499BF8247E38687FCB1BDD4
:10109C00EFF20F812A84894537350140EF00B041CA
:1010AC007DD9A28537350140EF0070408545373535
:1010BC000140EF0050407DD937350140EF00703FC3
:1010CC001375F50F6FE07FFEEFE29FFD2E84AA846F
:1010DC00A14537150140EF00101813E504024D3FF0
:1010EC0022857D37A14537150140EF0090166FE042
:1010FC00DFFBEFE2FFFA7111AA842E843715014051
:10110C00A14532C0EF00301513E5040251370246F9
:10111C00B304C400631A9400A14537150140EF00D5
:10112C00501311016FE07FF805040345F4FF8D3770
:10113C00D5B7EFE2FFF6A1452A8437150140EF0041
:10114C0090112285B1371305F00F99372A84A145E8
:10115C0037150140EF00F00F22856FE01FF5EFE22D
:10116C003FF40565130181FD85451305050302C494
:10117C0002C602C802CA02CC02CE02D0231201025D
:10118C00EF009026930700067C84E1448D472C00E9
:10119C003715014026C83EC6EF00500393070008E0
:1011AC007C842C009147371501403EC8EF0010029B
:1011BC00A14741442C00371501407C8422C8EF0024
:1011CC00F000A14537150140EF00B008608422C83B
:1011DC00371401402C0013050440EF00207F130549
:1011EC000440C145EF003007B70704013ECAB707FA
:1011FC0000023ECE4C089D47373501402312F102C8
:10120C0026D002CCEF00F025854537350140EF00A4
:10121C00702837350000130505A4EF10C0321305F4
:10122C006009EF00504681450145793D2945EF00A5
:10123C009045B9450145493D814505457135854583
:10124C000945593585450D45413581451145AD3D1E
:10125C009305300615458D3D99451945B5359305D2
:10126C00000245459535930500071D45B13DA14547
:10127C0037150140EF00207E1305100E113DA145DE
:10128C0037150140EF00E07CA14537150140EF0018
:10129C00807C1305200EED3BA14537150140EF0076
:1012AC00407B014579352AC2154561352AC019455F
:1012BC00493502469245AA8637350000130545A6E6
:1012CC00EF10202637350000130545A8EF10A02796
:1012DC00130181026FE07FDDEFE29FDC34211031DE
:1012EC000C212A8437350000130505ABEF10602361
:1012FC00A2850D464145F53B0D46A2852945D53BBA
:10130C006FE0BFDAEFE2DFD937150140C1451305B5
:10131C000540EF004074814501457D330945EF00E0
:10132C009036B94501454D330945EF00D0356FE096
:10133C00DFD7EFE2FFD63714014013050440C14557
:10134C00EF0060718145014541330945EF00B03331
:10135C0081450545953B930530061545B5339945B3
:10136C0019459D33930500024545B93B930500078C
:10137C001D45993BA14537150140EF00C06D130584
:10138C00100EEFF0FFD0A14537150140EF00606C57
:10139C00A14537150140EF00006C1305200EEFF04E
:1013AC003FCFA14537150140EF00A06ABD4501456F
:1013BC00EFF09FD10945EF00102DC14513050440F6
:1013CC00EF0020690545EF00102C6FE01FCEEFE217
:1013DC003FCD2A8437150140711113050540AE84A9
:1013EC00C145952D930500071D45EFF0FFCDA14597
:1013FC00371501408D251305100EEFF07FC9A1455F
:10140C0037150140B925A14537150140A92513050C
:10141C00000AEFF0FFC7814713F7F70F014563751B
:10142C0097003307F40008233EC0EFF07FC68247D5
:10143C00130700028507E391E7FEA145371501402C
:10144C00092D37140140C1451305044019250545E4
:10145C00EF007023C14513050440F52B0945EF003F
:10146C009022930500031D45EFF01FC605451101A1
:10147C006FE0BFC3EFE2DFC21D45EFF09FCB1377E8
:10148C00050419CBAA8537350000130585A2EF108A
:10149C00400905456FE07FC10145EDBFEFE25FC03C
:1014AC0071112A84AE8437150140A1456D231305B3
:1014BC001006EFF0FFBD81471305F00F3EC0EFF0B3
:1014CC003FBD824713F7F70F637597003307F4009E
:1014DC0008A3850713070002E390E7FEA145371523
:1014EC000140852B930500041D45EFF0FFBD3735FA
:1014FC000000130545AAEF10C002814437370000E5
:10150C00B30794008C23130507888504EF10600142
:10151C00A14737370000E395F4FE3735000013057B
:10152C0005A6EF10400211016FE03FB8EFE25FB784
:10153C0037150140C14513050540312B93050007B4
:10154C001D45EFF07FB8A145371501402923130540
:10155C00200EEFF0FFB3A14537150140DD29A14561
:10156C0037150140CD291305100EEFF07FB2A145C0
:10157C0037150140F9296FE05FB3EFE27FB23735E1
:10158C000000130545A9EF00107C37150140C1453B
:10159C0013050540C921A1450145EFF0FFB26FE0ED
:1015AC00DFB0EFE2FFAF1D45EFF0BFB86FE0FFAF6C
:1015BC00B71702409843B706FFF81367170098C394
:1015CC00D843758FD8C39843B706F7FEFD16758FB1
:1015DC0098C39843B706FCFFFD16758F98C3D84384
:1015EC00B70640FFFD16758FD8C337079F0098C705
:1015FC008280B7160240D842B70700201146318BC3
:10160C009387C7006305C70021466308C7003737B7
:10161C006E011307076098C38280D8429316F700B7
:10162C00E3D706FE3777DC02130707C0EDB701A03E
:10163C0097F1FF1F9381C11F138181FC1305000AD1
:10164C0097F5FF1F9385459B17F6FF1F1306869B87
:10165C0063FAC5008322050023A0550011059105EE
:10166C00E3EAC5FE171500001305854697F5FF1F25
:10167C009385459917F6FF1F1306869B63FAC500E1
:10168C008322050023A0550011059105E3EAC5FE50
:10169C0017F5FF1F1305C599938541816377B50035
:1016AC00232005001105E36DB5FEB72200009382DF
:1016BC000288739002308D427390428097F2FFFF44
:1016CC009382829393E2320073905230EFF05FEE8C
:1016DC0097F2FFFF938222587390123473002030DC
:1016EC00B727014093870740631EF500EFE25F9B2D
:1016FC008545130500203D238145130500201D233E
:10170C006FE0BF9A82805C413707F1FF1307F7EF58
:10171C007D8FDC419441A207D58FD98F5CC11C45CC
:10172C0037F7F1FF1307D77FD4457D8F9C49D58FB1
:10173C0094458606D58FD98F1CC55C55370710FF8D
:10174C007D177D8FDC29FD1793F7F70FD207D98F03
:10175C005CD582801C4589C593E717001CC5828027
:10176C00F99BEDBF1C4593E787001CC5828008459B
:10177C000D81058982801C4593E747001CC582803A
:10178C0008450981058982801C4591C537075000A1
:10179C00D98F1CC582803707B0FF7D17F98FD5BF55
:1017AC00A54763F8B704138765FF931717008322C7
:1017BC00C500BA971D433313F3001343F3FF337380
:1017CC005300B397F600B3E767005CC5994763E332
:1017DC00C7047D16931726003E965859FD47B397BC
:1017EC00C70093C7F7FFF98FB395C500DD8D4CD9B2
:1017FC0082809397150003230501AE971D4733177D
:10180C00F7001347F7FF33776700B397F6005D8F48
:10181C0018C96DBFB14763E2C7026516931726005E
:10182C003E961859FD47B397C70093C7F7FFF98F3A
:10183C00B395C500DD8D0CD982804D16131726008B
:10184C0054553A96FD47B397C70093C7F7FFF58FEA
:10185C00B395C500DD8D4CD582806845420541812C
:10186C00828008416D8D3335A0008280584103235E
:10187C0005004C4537060140930706403E979346BA
:10188C00F3FFB1C583250640F58D2320B640D04328
:10189C00F18ED4C31443B3E6660014C318419047C9
:1018AC009346F7FF758E90C7D047F18ED4C7144579
:1018BC0041466399C6009447D98E94C7D447558F37
:1018CC00D8C78280B6979443558F98C382801C43A7
:1018DC00F58F1CC38280B707014023AAA7408280E2
:1018EC00B707674537270240938737125CC3B79712
:1018FC00EFCD9387B79A5CC38280372702401C4B8D
:10190C0093E707081CCB8280372702405C470545CC
:10191C00858B91E748474189133515000D05828069
:10192C00EFE20FF82A84CD3785476318F50019E0EC
:10193C00154529A0D13F7D14C5BF7DD86FE0EFF6CA
:10194C00EFE20FF6AA8437050B00D93F91476313DA
:10195C00F502372402401C4837050B0093E727009B
:10196C001CC844C81C4893E707041CC8553F1C48B6
:10197C00F59B1CC86FE06FF3EFE28FF26111AA8444
:10198C0009652EC002C2693F11478245631DE502FD
:10199C00372402401C48096593E717001CC893972D
:1019AC000501C1839EA02EC0A53F11478245631936
:1019BC00E500890426C29247C18109658EA38D3743
:1019CC001C48F99B1CC821016FE02FEE944593F73E
:1019DC00060193F2F60081C7DC41B3E2F20083D337
:1019EC00050093F7F30FA5C303230500611122C271
:1019FC0026C08147130480029304800405473316E4
:101A0C00F70033F7C3006312E602939527003D47B6
:101A1C003317B7001347F7FF33736700B395B20062
:101A2C0033E36500639D860050C985072147E39722
:101A3C00E7FC124423206500824421018280E39656
:101A4C0096FE10C9DDB7828008456D8D3335A00038
:101A5C0082800CC982804CC98280370701401447B0
:101A6C0086058D47B397B70093C7F7FFF58F1CC753
:101A7C001C47B315B500DD8D0CC7828083A6C180D1
:101A8C00854718216390F6021C31639CD7023C21D8
:101A9C009A0793E707F8B7E600E093F7F70FBA96C3
:101AAC002380F6408546935757003397E600544100
:101ABC0089CE938707048A07B7E600E0B69798C3E8
:101ACC008280EDF33C219A07F9B793870706B7E6B6
:101ADC0000E08A07B69798C30F1000008280377712
:101AEC0000401C4709C593E727001CC78280F59B63
:101AFC00EDBF377700401C4BC19B5D8D08CB8280BE
:101B0C00711102C0377700405C4793F707FC3EC069
:101B1C0082475D8D2AC082475CC711018280B7164F
:101B2C000240DC4241771307F77FF98F5D8DC8C205
:101B3C008280371702405C5309C593E717005CD3CA
:101B4C008280F99BEDBFEFE2AFD5371702405C43C3
:101B5C0091462A84B18B6385D700A1466380D70850
:101B6C00B7376E01938707601CC0B7160240DC4282
:101B7C00918313F7F700B707002093874702BA97B2
:101B8C008C23DC42184093F5F50F93F70708335577
:101B9C00B70081E73A85EFE0EFD348C008C448C4EA
:101BAC00B7170240DC438D46AD83FD8B13D737004E
:101BBC008A07F18BD98F13F6370113F7370063F4CB
:101BCC00C600138747FFB707002093870701BA9712
:101BDC008C23EFE02FD008C86FE02FCD5C43B77794
:101BEC00DC02938707C049B799C5371702401C4FD1
:101BFC005D8D08CF8280B7170240984F1345F5FFD3
:101C0C00798D88CF828099C5371702405C4F5D8DE6
:101C1C0048CF8280B7170240D84F1345F5FF798D16
:101C2C00C8CF828099C5371702405C475D8D48C785
:101C3C008280B7170240D8471345F5FF798DC8C786
:101C4C0082801357550085476319F700B717024078
:101C5C009C4333D5A70005898280B7170240DC531B
:101C6C00CDBF1A218D6793870704B6217D8F9E21E6
:101C7C00D58FD621D58FF621D58F9625D58FB62524
:101C8C00D58FD625D58FF625D58FD98F1EA19E2918
:101C9C001EA982801E2189C593E707041EA182809C
:101CAC00C207C18393F7F7FBC207C183C5BF4EA51B
:101CBC0082804A2582800A256D8D3335A000828072
:101CCC001E2137370140130707C0C207C1836306C3
:101CDC00E500370700406316E500BA2193F7F7F8E3
:101CEC00D98FFA2193F7F7CFC207C183D98F1EA1E1
:101CFC00DE215EB59E211EB5B7370140938707C024
:101D0C006314F5009C251EB985475EA982801E21AF
:101D1C0089C593E717001EA18280C207C183F99B76
:101D2C00C207C183CDBF5E2501C6DD8D4EA5828065
:101D3C0093C5F5FFFD8DDDBF1E294A25ED8F4205AC
:101D4C00418189C76D8D3335A00082800145828029
:101D5C0093C5F5FFC205C1810EA98280EFE24FB495
:101D6C001629F577FD17F58FF621DA252111D58F78
:101D7C001EA95625FD779387379FF58FD6212A8488
:101D8C002EC0D58F9625D58FB625D58F5EA55E290D
:101D9C00C207C18393F7F7CF5D8F5AA94800EFF0C4
:101DAC009FDAB74701409387078082456312F40698
:101DBC00C2475A24139517003E9542070E054187DA
:101DCC003E958C41635807048605EFE0AFB0930550
:101DDC0040062AC0EFE00FB08247931445009305EC
:101DEC0040063E85EFE0CFB15E24C207C18763D5C4
:101DFC0007020E059305400613052503EFE08FAD92
:101E0C001D89C98CC204C18006A461016FE0EFA9D1
:101E1C00B24745B78A0555BF120593054006130511
:101E2C002503EFE02FAB3D89E9BF91C55E2509671E
:101E3C00D98F5EA582805A25F977FD17F98FD5BF0A
:101E4C0093F5F51F4EA182800A216D8D3335A000CC
:101E5C008280EFE2EFA4B707002003A5C700B715F7
:101E6C007A0093850520EFE0EFA61375F50F238913
:101E7C00A18093175500898F8A073E950E052398EC
:101E8C00A1806FE08FA2EFE2AFA137F400E05C40DD
:101E9C00AA85F99B5CC003D50181EFE0AFA108C80E
:101EAC00232404001C4093E717001CC0B7F700E084
:101EBC00D843058B75DF9843799B98C36FE0EF9EF1
:101ECC00EFE20F9E2A841165111185451305050259
:101EDC00EFF09FD1930700027C80371501408D47AE
:101EEC003EC28A85E147130505403EC4EFF01FAEA4
:101EFC0022C637440140B70708006C001305048064
:101F0C003ECA02C8231C0100EFF05FE585451305AE
:101F1C000480EFF09FF171016FE02F99EFE24F9881
:101F2C007111AE840144635FC402B747014013874B
:101F3C0007803A859305000432C0EFF0FFF0B747F5
:101F4C0001401387078002466DD5338784008305D3
:101F5C000700138507800504C205C181EFF05FEE11
:101F6C000246D1B7328511016FE02F94411106C69C
:101F7C002EC00DCD1841AA8705C358417D5511CBF4
:101F8C008546631BD70098472300070023A2070050
:101F9C000545B240410182809847824614A3984778
:101FAC00050798C7D8437D17D8C3DDB705468A8582
:101FBC00B537F9BF011122CC2EC206CE26CA2A840F
:101FCC00814793050002634506029245BE958385C1
:101FDC0005008DE563D8C70263D4E702198E13059B
:101FEC00000293F526002AC089C501E7930500037A
:101FFC002EC0858A814495EAB2840DA08507F1B77D
:10200C001D8EF1BF0146E1BF824522853AC832C61A
:10201C003EC4A93FA24732464247FD14E34690FE18
:10202C00B284635306008144058E63C7E702A6871A
:10203C009246338797403697830507009DEDB2840F
:10204C0063469004635306000146F2406244D24456
:10205C003305F600056182801D8FBA879305000356
:10206C00228532C83EC63AC4EFF05FF0B247224731
:10207C004246FD17E5F7BA945DBF228532C63EC4D1
:10208C00EFF0DFEEA247324685075DB78245228529
:10209C0032C43EC2EFF09FEDFD14224692474DB77D
:1020AC00397106DE22DC26DA3EC232833A8691EDA5
:1020BC0092469307000301476C08FC86EFF09FEFF4
:1020CC00F2506254D25421618280AA843684AE8745
:1020DC0091CA294701446317E30063D50500B30790
:1020EC00B04005448646A3090102130731039386C9
:1020FC0066FC36C49A853E8532CA3AC81AC63EC0BA
:10210C00EFE00F80A546824732434247524663D4E4
:10211C00A600A2463695130505039306F7FFA30FF9
:10212C00A7FE9A853E8532CC3ACA1AC83EC636C03E
:10213C00EFD05FFAB24742435247624663FD6704F1
:10214C0009CC29CE9247898BB1CB9305D002268539
:10215C0032C4EFF0BFE122467D169247918B85C7C2
:10216C0006479307100632C49305000326856311B6
:10217C00F704EFF0BFDF930580072685EFF01FDF34
:10218C002246090479161647924682452685EFF0B9
:10219C007FE2229535B7AA870247A9BF82469307EB
:1021AC00D0020144A38FF6FE9307E7FF3EC075B73C
:1021BC00EFF0DFDB93058005C9B70145828001454F
:1021CC008280130181FD22D026CE06D22AC4AE8293
:1021DC00328402C681448385020091EDA24789C7EF
:1021EC0081453E85EFF09FD8925002542685F244EB
:1021FC00130181028280930750026389F500224506
:10220C0016C88504EFF09FD6C24205A08387120042
:10221C0013871200639DB7002245930550023AC8FC
:10222C00EFF0DFD442478504BA8285026DB7DDD763
:10223C009306B0026389D70463C8F6009306300294
:10224C006386D704814705A09306D002638AD70022
:10225C0093060003E398D7FE13872200894721A039
:10226C00138722008547830607001306B002638399
:10227C00C6046341D60213063002638BC602BA82CF
:10228C000145A54681A0138722006DBF138722004C
:10229C009147D1BF1306D0026389C6001306000311
:1022AC00E39FC6FC93E7270031A005078547C1BF14
:1022BC0093E747000507E1B713162500329506058D
:1022CC003A95850203860200130706FD9375F70FF6
:1022DC00E3F4B6FE1307E0029946631EE60085029E
:1022EC008146A54503860200130606FD1377F60FFB
:1022FC0063F5E50236C6038702001306A006630DDC
:10230C00C70A6343E6021306C0046307C70A130631
:10231C008006630CC70881452DA813972600BA9632
:10232C008606B29685027DBF130640076306C70872
:10233C001306A0076302C7081306C0068145631A7B
:10234C00C700038612008D456314E6008502914593
:10235C00850203860200930300061307100663C46C
:10236C00C300130710049303700663C4C3069303DE
:10237C005006635676189303700463C1C304930527
:10238C005004635EB61613073004E310E6EA1840F7
:10239C009303440016CA230CE1001EC8A30C0100D1
:1023AC000147BE862A862C0849A80386120081455F
:1023BC00E311E6FA890271BF8502B1BF93063006BC
:1023CC00E307D6FC63CFC606930680056303D602EB
:1023DC00A9BD930630076304D60463CBC6029306EB
:1023EC00F0066305D60E9306000793E74700E31E3D
:1023FC00D6E291466392D50C930384000C40504076
:10240C0016CA3AC23EC01EC8AA870147C14681A857
:10241C0093065007630BD6069306800745BF1840FA
:10242C00B736000093034400938506AD11C3BA85FB
:10243C00324716CA1EC8BE862A862245EFF09FB7C1
:10244C0015A091466395D502930384000C4050402F
:10245C0016CA3AC23EC01EC8AA870547A9462245DD
:10246C00EFF0BFD5C243AA941E84D2427DBBB246C4
:10247C000C4016C836C23AC011042A878546294634
:10248C002245EFF0FFC1AA9441B39146639DD5005C
:10249C00930384000C40504016CA3AC23EC01EC87A
:1024AC00AA87014765BFB2460C4016C836C23AC06F
:1024BC0011042A878146E1B7B24616C80C40414642
:1024CC0036C23AC011042A8781465DBF9146639E8D
:1024DC00D500930384000C40504016CA3AC23EC04B
:1024EC001EC8AA870147A1469DBFB2460C4016C81C
:1024FC0036C23AC011042A878146214651B70C4096
:10250C001306840040403AC22A87224532C83EC096
:10251C002286B687A94616CAEFF07FCAAA9442440F
:10252C00A9B71301C1FD2EC832CAAA8510080145EE
:10253C0006C636CC3ACE3ED032C0EFF09FC8B24081
:10254C00130141028280411122C426C206C61C21FD
:10255C00AA840144DC8183073100050499EFA94763
:10256C009305310005460145DC81EFF03F9B228548
:10257C00B2402244924441018280054693053100C9
:10258C000145EFF0BF99B38784009C23DC81E1B750
:10259C00E7E7E7005B5057525D20536C6565700DA3
:1025AC00000000005B5057525D2057616B650D00B9
:1025BC005B464C5D2053617665642049443A307823
:1025CC002530345820533A25640D0A005B414443AE
:1025DC005D2054494D454F55542063682564210DA9
:1025EC000A00000043484700484200000D0A3D3DE8
:1025FC003D2054414E4B20424F4F54203D3D3D0D0C
:10260C000000000043483332563030332040202540
:10261C006C75487A0D0A00005B5359535D20536169
:10262C00666544656C61792025646D732E2E2000DF
:10263C004F4B0D00496E697420526164696F2E2EE8
:10264C002E0D00005B5359535D2050616972656417
:10265C002049443A3078253034580D0A00000000E7
:10266C005B5359535D204E4F5420504149524544C1
:10267C002E20486F6C6420627574746F6E20746FBA
:10268C0020706169720D00005B5359535D204964E1
:10269C006C652028486F6C642062746E3D706169B3
:1026AC0072290D005B53595354454D5D204275748E
:1026BC00746F6E20507265737365640D00000000BA
:1026CC005B5359535D20464143544F525920524558
:1026DC005345540D0000000053656E64696E67200D
:1026EC00554E50414952206265666F726520726585
:1026FC007365740D000000005B5359535D20436CEF
:10270C0069636B202D3E20506169720D0000000042
:10271C005B5359535D20436C69636B202D3E2052F3
:10272C00657365740D0000005B53595354454D5D42
:10273C0020496E6974204C6576656C3A20256425B9
:10274C00250D0A005B5359535D204C766C4368672A
:10275C003A20256425250D0A000000005B424154F7
:10276C005D2042617474657279206C6576656C3A93
:10277C0020256425250D0A005B54585D2025732007
:10278C005365713A256C75204C3A256425252042F9
:10279C003A2564252520463A25640D0A00000000E0
:1027AC005B54585D2053656E742033780D00000027
:1027BC005B5359535D204E6F742070616972656470
:1027CC000D0000005B5359535D20536C6565700D13
:1027DC00000000002D2D2D2D2D2D2D2D2D2D0D001E
:1027EC005B4241545D20256C756D560D0A0000004E
:1027FC005B444154415D204C6576656C3A20256400
:10280C002525207C204661756C74204D61736B3AD4
:10281C00203078253032580D0A0000000D0A5B502C
:10282C004149525D204E657749443A307825303421
:10283C00580D0A005B504149525D204C766C3A258C
:10284C00642052656164696E67206261742E2E2E5D
:10285C000D0A00005B504149525D204261743A25DB
:10286C00640D0A005B504149525D20506B743A2054
:10287C000000000025303258200000004352433A3B
:10288C00253032580D0A00005B504149525D204200
:10289C00636173742025646D696E20627572737444
:1028AC00733A25642061636B3A25646D730D0A00DD
:1028BC005B504149525D202325642F256420533AF7
:1028CC003078253032580D0A000000005B50414929
:1028DC00525D2052583A20533D2530325825303223
:1028EC005820543D253032580D0A00005B504149A8
:1028FC00525D204E53796E63205249443A3078250C
:10290C00303458204D593A307825303458204343D0
:10291C003A253032582050433A253032580D0A00AF
:10292C005B504149525D2041434B2073743A2564FE
:10293C000D0A00005B504149525D204F4B2120494C
:10294C00443A3078253034580D0A00005B50414928
:10295C00525D204352432F4944206D69736D61745D
:10296C0063680D005B504149525D20496E76537986
:10297C006E63205249443A307825303458204D59F2
:10298C003A3078253034582043433A253032582099
:10299C0050433A253032580D0A0000005B50414933
:1029AC00525D2041434B28496E76292073743A2599
:1029BC00640D0A005B504149525D204F4B28496E13
:1029CC007629212049443A3078253034580D0A00B4
:1029DC005B504149525D20496E76204352432F494A
:1029EC0044206D69736D617463680D005B504149DF
:1029FC00525D20444F4E450D000000005B50414994
:102A0C00525D204641494C206166746572202564F4
:102A1C002074726965730D0A000000005B4E52460B
:102A2C005D2052585F44522120533A307825303281
:102A3C00580D0A005B4E52465D20496E69743A206F
:102A4C00314D203064426D203242435243204E4F70
:102A5C002D41434B0D0000005B4E52465D2043461A
:102A6C00473D253032582043483D25642052463D91
:102A7C00253032580D0A00005B4E52465D205265DF
:102A8C006164790D000000005B4E52465D2050776A
:102A9C0072446E0D000000005B4E52465D20525891
:102AAC003A2000005B4E52465D20545861646472BB
:102ABC003A202530325825303258253032580D0AFC
:0C2ACC0000000000286E756C6C290000F2
:102AD800006CDC020204060804080C100810182018
:102AE80010203040204060800102030405060708DA
:0C2AF800010203040506070800000000AE
:00000001FF
